:0200000480007A
:100000009710000093800000371111111301111196
:100010006F0080001301000023A020009710000053
:10002000938080FE37212222130121221702000033
:1000300013020201670002001301000023A0200048
:1000400097100000938080FC93025000130360001F
:10005000373133331301313363845200130100000D
:1000600023A0200097100000938080FA9302500094
:100070001303600037414444130141446394620018
:100080001301000023A0200097100000938080F847
:100090009302500013036000375155551301515519
:1000A00063C462001301000023A020009710000029
:1000B000938080F6930250001303600037616666F8
:1000C0001301616663E462001301000023A02000B5
:1000D00097100000938080F4930250001303600097
:1000E0003771777713017177635453001301000060
:1000F00023A0200097100000938080F2930250000C
:10010000130360003791888813018188637453005A
:100110001301000023A0200017150000130585EE31
:1001200097150000938505F0370610F01306C6F208
:100130006306B5028326C5002320D60083268500EA
:100140002320D600832645002320D60083260500E1
:100150002320D600130505016FF09FFD370510F031
:10016000130505F223200500000000000000000038
:04017000000000008B
:10100000FFFFFFFFFFFFFFFFFFFFFFFFFFFFFFFFF0
:10101000FFFFFFFFFFFFFFFFFFFFFFFFFFFFFFFFE0
:040000058000000077
:00000001FF
