:0200000480007A
:1000000017110000130101001309000093080000FC
:10001000B368190323201101130A0000930910008B
:10002000B3693A0323223101130B0000930AF0FF56
:10003000B36A5B0323245101130C0000B70B00804B
:10004000938BFBFFB36B7C0323267101130D000020
:10005000B70C0080B36C9D03232891011711000099
:10006000130181FB130E1000930D0000B36DBE034E
:100070002320B101130F1000930E1000B36EDF03A5
:100080002322D10193011000930FF0FFB3EFF1038E
:100090002324F10113041000370200801302F2FF41
:1000A000336244022326410093051000B704008008
:1000B000B3E495022328910017110000130101F702
:1000C0009306F0FF1306000033E6C6022320C100AA
:1000D0009307F0FF1307100033E7E7022322E10044
:1000E0009308F0FF1308F0FF33E80803232401010D
:1000F0009309F0FF370900801309F9FF33E9290359
:1001000023262101930AF0FF370A008033EA4A03CD
:100110002328410117110000130181F2B70B008061
:10012000938BFBFF130B000033EB6B032320610168
:10013000B70C0080938CFCFF130C100033EC8C0385
:1001400023228101B70D0080938DFDFF130DF0FF79
:1001500033EDAD032324A101B70E0080938EFEFF83
:10016000370E0080130EFEFF33EECE032326C101AF
:10017000B70F0080938FFFFF370F008033EFEF033F
:100180002328E101171100001301C1EC37020080A0
:1001900093010000B361320223203100B7040080D4
:1001A0001304100033E48402232281003706008008
:1001B0009305F0FFB365B6022324B1003707008032
:1001C000B70600809386F6FFB366D7022326D100D8
:1001D00037080080B7070080B367F8022328F100D2
:1001E00017150000130505E297150000938585EEAD
:1001F000370610F01306C6F26306B5028326C50063
:100200002320D600832685002320D60083264500A0
:100210002320D600832605002320D60013050501E0
:100220006FF09FFD370510F0130505F22320050040
:0402300000000000CA
:10100000FFFFFFFFFFFFFFFFFFFFFFFFFFFFFFFFF0
:10101000FFFFFFFFFFFFFFFFFFFFFFFFFFFFFFFFE0
:10102000FFFFFFFFFFFFFFFFFFFFFFFFFFFFFFFFD0
:10103000FFFFFFFFFFFFFFFFFFFFFFFFFFFFFFFFC0
:10104000FFFFFFFFFFFFFFFFFFFFFFFFFFFFFFFFB0
:10105000FFFFFFFFFFFFFFFFFFFFFFFFFFFFFFFFA0
:10106000FFFFFFFFFFFFFFFFFFFFFFFFFFFFFFFF90
:10107000FFFFFFFFFFFFFFFFFFFFFFFFFFFFFFFF80
:10108000FFFFFFFFFFFFFFFFFFFFFFFFFFFFFFFF70
:10109000FFFFFFFFFFFFFFFFFFFFFFFFFFFFFFFF60
:1010A000FFFFFFFFFFFFFFFFFFFFFFFFFFFFFFFF50
:1010B000FFFFFFFFFFFFFFFFFFFFFFFFFFFFFFFF40
:1010C000FFFFFFFFFFFFFFFF000000000000000028
:040000058000000077
:00000001FF
