:0200000480007A
:10000000930400009700000093800001739050302B
:100010006F00400173101F3463940400730020309C
:1000200067000F00130E0000170F0000130F4F3270
:10003000B70000803782008037C1ADDE1301F1EEDA
:1000400023A020002320220083A100006310313070
:1000500083210200631C312EB7021A077390023A03
:100060007323003A6394622EB702191A93824230C6
:100070007390123AB7120F009382A2907390223AB3
:100080007323203A6394622CB7221E1C9382029041
:100090007390323AB70200207390023B7323003B07
:1000A0006396622A9302F0FF7390123BB7022020FE
:1000B0007390223BB74200209382F2FF7390323B51
:1000C000B74200209382F2FF7390423BB742002078
:1000D0009382F2FF7390523BB70200239382F2FFA8
:1000E0007390623BB70204229382F2FF7390723BDB
:1000F000B7020D207390823BB7020E207390923BA3
:100100009302F0FF7390A23B930200007390B23B06
:10011000930200007390C23B930200007390D23BA5
:10012000930200007390E23B9302F0FF7390F23B66
:100130003701C1001301E1FE23A02000232022008B
:1001400083A1000063143120930100008321020089
:10015000631E311E130E1000170F0000130F4F1FE8
:10016000B7129A07938282807390023A7323003AFF
:10017000639E621CB700808037C1ADDE1301F1EED3
:1001800023A02000170F0000130F0F0183A1000010
:100190006F00C01B130E2000170F0000130F4F1B22
:1001A000B7021A077390023A7323003A6380621A07
:1001B0007350303B7323303B631A03187350203B5A
:1001C0007323203B63040318B700808037C1ADDE82
:1001D0001301F1EE23A02000170F0000130F0F01F1
:1001E00083A100006F008016130E3000170F00006F
:1001F000130F0F16B702FF0073A0323B7323303B7F
:10020000639662149302F00F73A0323B7323303B6A
:10021000B702FF009382F20F639A6212B702FF00E7
:1002200073B0323B7323303B9302F00F6390621242
:10023000B702FF009382F20F73B0023A7323003AC1
:10024000B7029A0763946210B702FF00938272703C
:1002500073A0023A7323003AB7029A07938272702E
:100260006396620E130E4000170F0000130F4F0E1F
:1002700017010000130101017310113473002030C5
:10028000130E5000170F0000130F8F0C37C1ADDE97
:100290001301F1EEB700808023A02000170F0000AB
:1002A000130F0F0183A100006F00400A130E6000BE
:1002B000130E7000170F0000130F8F09B70000898D
:1002C000938000FF83A10000170F0000130F0F01A0
:1002D00023A030006F008007130E8000170F00006E
:1002E000130F4F01930410007350303A6F00000653
:1002F000130E8000B7221E1C938202907323303AA3
:1003000063966204130E9000170F0000130F4F0442
:100310009304000017010000130101017310113450
:1003200073002030130E9000170F0000130F4F01C1
:10033000930410007350A03B6F004001130E900017
:100340009302F0FF7323A03B63886200370110F033
:10035000130141F22320C101370110F0130101F212
:040360002320010055
:040000058000000077
:00000001FF
