:0200000480007A
:100000009700000093800001739050306F00400211
:1000100073101F34730020303743010073300330F6
:1000200013030020732003307390103473002030CA
:10003000130E0000170F0000130F0F1FB7020080F0
:10004000378E008037C3ADDE1303F3EE23A06200CA
:1000500023206E0083A302006316731C83230E000B
:100060006312731C371F1A07130F8F8073100F3A18
:10007000370F1C19130F4F5073101F3A130F8001C5
:1000800073102F3A372F1E0F130F0F9073103F3A34
:10009000370F002073100F3B130FF0FF73101F3B3F
:1000A000372F002073102F3B374F0020130FFFFF17
:1000B00073103F3B374F0020130FFFFF73104F3B70
:1000C000374F0020130FFFFF73105F3B372F0020C7
:1000D000130FFFFF73106F3B374F0020130FFFFF0D
:1000E00073107F3B374F0020130FFFFF73108F3BC0
:1000F000130F000073109F3B130F00007310AF3BF2
:10010000130F00007310BF3B130F00007310CF3BA1
:10011000130F00007310DF3B130F00007310EF3B51
:10012000130F00007310FF3B3703C1001303E3FEFE
:1001300023A0620023206E0083A302006314730EC9
:1001400083230E006310730E130E1000170F0000B0
:10015000130F8F0D371F9A07130F8F8073100F3AED
:1001600037C3ADDE1303F3EE23206E00170F00003C
:10017000130F0F0183230E006F00C00A130E20001F
:10018000170F0000130F4F0A371F1A07130F8F8026
:1001900073100F3A37C3ADDE1303F3EE23206E0066
:1001A000170F0000130F0F0183230E006F0080074D
:1001B000130E3000170F0000130F0F0797000000F9
:1001C0009380C0006FF05FE5130E4000170F000032
:1001D000130F8F0537C3ADDE1303F3EE23206E003C
:1001E000170F0000130F0F0183230E006F00800311
:1001F000130E5000170F0000130FCF03370E0180AE
:1002000037C3ADDE1303F3EE23A0620083A3020025
:10021000631A730083230E00170F0000130F8F0162
:1002200023207E00370110F0130141F22320C10189
:0C023000370110F0130101F2232001003F
:040000058000000077
:00000001FF
