:0200000480007A
:100000001711000013010103170500001305057BFC
:10001000970500009385857A1716000013068681E0
:1000200063FCC5008322050023A05500130545008D
:1000300093854500E3E8C5FE170500001305857F9D
:10004000970500009385057F6378B50023200500A0
:1000500013054500E36CB5FEEF00806CEF00001265
:10006000970000009380400113050000B705008150
:10007000730020306F0000006780000073110134AE
:10008000232211002326310023284100232A510076
:10009000232C6100232E7100232081022322910250
:1000A0002324A1022326B1022328C102232AD1023C
:1000B000232CE102232EF102232001052322110526
:1000C000232421052326310523284105232A510510
:1000D000232C6105232E71052320810723229107FC
:1000E0002324A1072326B1072328C107232AD107E8
:1000F000232CE107232EF107EF00401F832041004E
:100100008321C100032201018322410103238101D4
:100110008323C101032401028324410203258102B8
:100120008325C1020326010383264103032781039C
:100130008327C10303280104832841040329810480
:100140008329C104032A0105832A4105032B810564
:10015000832BC105032C0106832C4106032D810648
:10016000832DC106032E0107832E4107032F81072C
:0C017000832FC10773110134730020308D
:10017C00B70700809387C70773905730B717008075
:10018C00938707FB73900734B71700009387078892
:10019C007390073073504030B70700C0739017341A
:1001AC00B7B700009387071073902730930720226E
:1001BC00739037307350301467800000B71700808D
:1001CC00938707FB131525003305F5000325050060
:1001DC0067800000B717008013152500938707FB75
:1001EC003305F5002320B50067800000130101FFE3
:1001FC0023261100EF00804EF32730347390371410
:10020C00F327103473901714F327203473902714AA
:10021C00F3275010739017348320C1001301010190
:10022C0067800000B70700809387C707739057302B
:10023C00F327303473903714F3272034739027143A
:10024C0073101514F3275010739017349307001084
:10025C0073B0071093D5350093F5051073A00510F6
:10026C00B72700009387078073B00730B7170000DB
:10027C009387078873A00730678000003707020058
:10028C0073200730170700001307870173105730CE
:10029C009306100083270500930600003707020021
:1002AC00733007301385060023A0F500678000002B
:1002BC003707020073200730170700001307870168
:1002CC0073105730930710002320B50093070000DC
:1002DC003707020073300730138507006780000072
:1002EC00130101FE232E1100232C8100232A9100DF
:1002FC002328210123263101F327203463CE071450
:10030C00130720006384E704930690006396D710CC
:10031C00B71700809387070383A647FC13061000CA
:10032C0003A587FA6386C61E6384E622638E061EC7
:10033C00032481018320C10183244101032901018C
:10034C008329C100130101026F004039F3241034DA
:10035C00F3250030732430341306F0029376F4073F
:10036C001357C4006386C612130630076396C60A79
:10037C00137737006306F724930730006302F724E2
:10038C009309100063043703EF004035F327303432
:10039C0073903714F327103473901714F327203409
:1003AC0073902714F327501073901734B71700006D
:1003BC0013574401938617C06304D730938717C82B
:1003CC00631CF72CEF00003313090500638409024A
:1003DC00EF00C030F327303473903714F327103408
:1003EC0073901714F327203473902714F3275010AD
:1003FC007390173413545400B7170080938707FB7E
:10040C001374C4073304F4002320240193844400A0
:10041C00739014346F008002EF00402CF3273034BB
:10042C0073903714F327103473901714F327203478
:10043C0073902714F3275010739017348320C10145
:10044C000324810183244101032901018329C10073
:10045C00130101026780000093F7F70F1307700078
:10046C00E39CE7FA9307000273A047149307000874
:10047C0073B047308320C1010324810183244101DF
:10048C00032901018329C1001301010267800000C7
:10049C0013777700E312F7F81357D400935724011E
:1004AC00B7160080938606FB1377C70793F7C70729
:1004BC003307D700B387D7000327070003A607002D
:1004CC003705020073200530170500001305850160
:1004DC007310553093071000032807009307000092
:1004EC003705020073300530639007089357B40149
:1004FC001305C001E362F5F23705008093972700DE
:10050C001305857BB387A70083A7070067800700C7
:10051C001375F50FEF00001DF32710349387470078
:10052C00739017346FF09FF183A5C7FAEF00001D8D
:10053C009307000873A047309307000273B0471469
:10054C00F327103493874700739017346FF01FEF25
:10055C001307F0FF23A4E7FAF3271034938747001F
:10056C00739017346FF09FEDB70700809387C70720
:10057C0073905730F327303473903714F3272034AB
:10058C007390271473901414F3275010739017342E
:10059C009307001073B0071093D5350093F5051031
:1005AC0073A00510B72700009387078073B007303E
:1005BC00B71700009387078873A007306FF01FE808
:1005CC009359F40093F9F901B33930016FF01FDE40
:1005DC0033060601135454001374C407B306D40035
:1005EC0023A00601B707020073A00730970700008D
:1005FC009387870173905730930610002320C70010
:10060C0093060000B707020073B00730B7070080ED
:10061C009387C707638C060A73905730F3273034DF
:10062C0073903714F3272034739027147390141499
:10063C00F3275010739017349307001073B0071002
:10064C0093D7350093F7071073A007106FF09FF541
:10065C00E37206F9130608006FF0DFF7E37CC8F6C7
:10066C00130608006FF01FF7336606016FF09FF654
:10067C00334606016FF01FF6E35EC8F4130608005C
:10068C006FF05FF5337606016FF0DFF4E35406F597
:10069C00130608006FF01FF4EF004004F32730340A
:1006AC0073903714F327103473901714F3272034F6
:1006BC0073902714F3275010739017346FF01FD1D9
:1006CC00EF00C002130905006FF05FD09384440063
:1006DC0073901434739057306FF05FD6232E00FE56
:1006EC0067800000232CA0FE67800000032500FE1D
:1006FC0067800000032540FE678000009307C0FE62
:10070C001307F0FF23A0E7002324A0FE23A0B700CB
:10071C0067800000130101FF232481002322910034
:10072C00170400001304C4089704000093844408C1
:10073C00B3848440232021012326110093D4244028
:10074C0013090000631099041704000013044406F5
:10075C00970400009384C405B3848440EFF01F9188
:10076C0093D4244013090000631899028320C1001C
:10077C00032481008324410003290100130101019A
:10078C006780000083270400130919001304440038
:10079C00E78007006FF01FFB832704001309190083
:0C07AC0013044400E78007006FF01FFCFE
:1007B800DC050080E005008024040080240400801B
:1007C8007C06008024040080240400802404008027
:1007D800740600802404008024040080240400801F
:1007E80090060080240400802404008024040080F3
:1007F80084060080240400802404008024040080EF
:1008080098060080240400802404008024040080CA
:1008180068060080240400802404008024040080EA
:080828005C06008000000000E6
:040000058000000077
:00000001FF
