:0200000480007A
:100000001711000013018112171500001305C58791
:100010009715000093854587171600001306069173
:1000200063FCC5008322050023A05500130545008D
:1000300093854500E3E8C5FE171500001305058FFD
:10004000971500009385858E6378B5002320050001
:1000500013054500E36CB5FEEF004078EF00801714
:10006000970000009380400113050000B70500C30E
:10007000730020306F0000006780000073110134AE
:10008000232211002326310023284100232A510076
:10009000232C6100232E7100232081022322910250
:1000A0002324A1022326B1022328C102232AD1023C
:1000B000232CE102232EF102232001052322110526
:1000C000232421052326310523284105232A510510
:1000D000232C6105232E71052320810723229107FC
:1000E0002324A1072326B1072328C107232AD107E8
:1000F000232CE107232EF107EF00C02B83204100C2
:100100008321C100032201018322410103238101D4
:100110008323C101032401028324410203258102B8
:100120008325C1020326010383264103032781039C
:100130008327C10303280104832841040329810480
:100140008329C104032A0105832A4105032B810564
:10015000832BC105032C0106832C4106032D810648
:10016000832DC106032E0107832E4107032F81072C
:0C017000832FC10773110134730020308D
:10017C00130101FF23248100232611001304050021
:10018C0003450500630A050013041400EF008060AA
:10019C0003450400E31A05FE8320C10003248100FB
:1001AC0013010101678000009307F0011307F0FFB2
:1001BC009702000093824201739052307310073BF8
:1001CC007390073A67800000130101FF232611008A
:1001DC00232481009307F0011307F0FF970200001E
:1001EC0093824201739052307310073B7390073A1D
:1001FC0037140080EF00805D1304848F1305A00278
:10020C0013041400EF00005903450400E31A05FE23
:10021C00B70700809387C70773905730B7170080D4
:10022C009387870A73900734B71700009387078862
:10023C007390073073504030B70700C07390173479
:10024C00B7B70000938707107390273093072022CD
:10025C0073903730735030143714008013040491AA
:10026C001305A00213041400EF00C0520345040050
:10027C00E31A05FE8320C100032481001301010150
:10028C0067800000B71700809387870A1315250035
:10029C003305F5000325050067800000B7170080C3
:1002AC00131525009387870A3305F5002320B50025
:1002BC0067800000130101FF23261100EF00004DA1
:1002CC00F327303473903714F327103473901714CA
:1002DC00F327203473902714F3275010739017349E
:1002EC008320C1001301010167800000B707008063
:1002FC009387C70773905730F327303473903714B4
:10030C00F32720347390271473101514F32750100F
:10031C00739017349307001073B0071093D5350002
:10032C0093F5051073A00510B7270000938707807D
:10033C0073B00730B71700009387078873A0073096
:10034C006780000037070200732007301707000092
:10035C00130787017310573093061000832705008D
:10036C009306000037070200733007301385060030
:10037C0023A0F500678000003707020073200730C8
:10038C0017070000130787017310573093071000ED
:10039C002320B500930700003707020073300730A5
:1003AC001385070067800000130101FE232E110046
:1003BC00232C8100232A910023282101232631019B
:1003CC00F327203463CC0708130720006384E70C61
:1003DC00930690006394D70437140080130484129E
:1003EC00832744FC93061000032584FA6384D72EDC
:1003FC00638EE72E638C072A032481018320C101BD
:10040C0083244101032901018329C1001301010245
:10041C006F00C03713777700630CF712EF000037CB
:10042C00F327303473903714F32710347390171468
:10043C00F327203473902714F3275010739017343C
:10044C008320C1010324810183244101032901017B
:10045C008329C100130101026780000093F7F70F95
:10046C0013077000E39CE7FA9307000273A047148C
:10047C009307000873B047308320C1010324810126
:10048C0083244101032901018329C10013010102C5
:10049C0067800000F3241034F325003073243034CB
:1004AC001306F0029376F4071357C400E384C6F6E0
:1004BC0013063007E394C6F613773700630CF71076
:1004CC00930730006308F710930910006304370397
:1004DC00EF00C02BF327303473903714F32710340C
:1004EC0073901714F327203473902714F3275010AC
:1004FC00739017343717000093574401930607C0C5
:10050C0063E2D70E130727C06370F70C37F7FFFFB2
:10051C0013070738B387E700130720006364F70C51
:10052C00EF00C02813090500639E091C13545400E6
:10053C00B71700809387870A1374C4073304F40039
:10054C002320240193844400739014346FF05FEFE4
:10055C001357D40093572401B71600809386860A4C
:10056C001377C70793F7C7073307D700B387D700AD
:10057C000327070003A60700370502007320053088
:10058C0017050000130585017310553093071000F3
:10059C00032807009307000037050200733005306D
:1005AC00639607189357B4011305C001E368F5E689
:1005BC00371500809397270013054588B387A7004C
:1005CC0083A7070067800700EF00C01D1309050013
:1005DC006FF09FF59359F40093F9F901B339300199
:1005EC006FF05FF1EF00801AF327303473903714FB
:1005FC00F327103473901714F327203473902714B7
:10060C00F3275010739017346FF01FF263740601C8
:10061C00130608003705020073200530170500008B
:10062C001305850173105530930710002320C70064
:10063C009307000037050200733005303707008040
:10064C001307C707639007149357540093F7C70712
:10065C00B386D70023A0060193844400739014340E
:10066C00731057306FF0DFDD334606016FF09FFAE1
:10067C00E372C8FA130608006FF0DFF9E35C06F9C1
:10068C00130608006FF01FF9E356C8F813060800AC
:10069C006FF05FF8337606016FF0DFF73366060113
:1006AC006FF05FF7330606016FF0DFF68325C4FAAF
:1006BC00EF0040109307000873A047309307000227
:1006CC0073B04714F3271034938747007390173493
:1006DC006FF01FD71375F50FEF00C00BF327103415
:1006EC0093874700739017346FF09FD5EF00000B82
:1006FC002324A4FAF32710349387470073901734FC
:10070C006FF01FD4EF008008F32730347390371448
:10071C00F327103473901714F32720347390271495
:10072C00F3275010739017346FF05FE0B707008019
:10073C009387C70773905730F3273034739037146F
:10074C00F32720347390271473901414F32750104C
:10075C00739017349307001073B0071093D73500BC
:10076C0093F7071073A00710B72700009387078033
:10077C0073B00730B71700009387078873A0073052
:10078C006FF01FCC731057306FF01FFB232E00FE41
:10079C006F000000232CA0FE67800000032580FF63
:1007AC0067800000032500FE67800000032540FEE3
:1007BC00678000009307C0FE1307F0FF23A0E7003B
:1007CC002324A0FE23A0B7006780000067800000F0
:1007DC00130101FF970700009387470A2324810028
:1007EC0017040000130484093304F44023229100FD
:1007FC0023202101232611001354244093040000CC
:10080C001389070063928404EFF05F86970700005A
:10081C009387C70617040000130444063304F440FE
:10082C00135424409304000013890700639A840234
:10083C008320C1000324810083244100032901008B
:10084C00130101016780000093972400B307F9009E
:10085C0083A7070093841400E78007006FF09FFACA
:10086C0093972400B307F90083A70700938414001F
:08087C00E78007006FF09FFB0D
:10088400B006008020060080280400802804008030
:100894007406008028040080280400802804008056
:1008A400A806008028040080280400802804008012
:1008B400A00600802804008028040080280400800A
:1008C4009406008028040080280400802804008006
:1008D4008806008028040080280400802804008002
:1008E4007C060080280400802804008028040080FE
:1008F400180600802A2A2A2056657852697363767E
:100904002042494F53202A2A2A0A00002A2A2A2050
:1009140053757065727669736F72202A2A2A0A00E9
:0409240000000000CF
:040000058000000077
:00000001FF
