:0200000480007A
:10000000B72F0000938F0F8073900F306F00400365
:100010001300000013000000130000001300000094
:100020001300000013000000130000001300000084
:100030001300000013000000130000001300000074
:100040009702000093824211739052309300000097
:10005000130100009301000013020000930200004E
:100060001303000093030000130400009304000036
:10007000130500009305000013060000930600001E
:100080001307000093070000130800009308000006
:100090001309000093090000130A0000930A0000EE
:1000A000130B0000930B0000130C0000930C0000D6
:1000B000130D0000930D0000130E0000930E0000BE
:1000C000130F0000930F000097110200938141CF9E
:1000D0001705020013050553979503009385457A8C
:1000E00013060000EF00001A170502001305C544AF
:1000F000970502009385854C13060000EF008018D9
:1001000017A503001305057897B503009385457778
:1001100037B6ABAB1306B6BAEF00C01617B1030083
:1001200013014176EF80503C9392120093D212005B
:100130009382D2FF638A02008322010013014100EF
:100140006F0000177300203083220100130141006B
:10015000730020301301C1FF23205100F32220340B
:10016000E3C402FC8322010013014100130141F8A2
:1001700023221100232421002326310023284100BB
:10018000232A5100232C6100232E71002320810299
:10019000232291022324A1022326B1022328C10293
:1001A000232AD102232CE102232EF1022320010570
:1001B0002322110523242105232631052328410567
:1001C000232A5105232C6105232E71052320810745
:1001D000232291072324A1072326B1072328C1073F
:1001E000232AD107232CE107232EF107732520347E
:1001F000F3251034130601006F000000731015344E
:1002000083204100032181008321C10003220101D9
:1002100083224101032381018323C10103240102BD
:1002200083244102032581028325C10203260103A1
:1002300083264103032781038327C1030328010485
:1002400083284104032981048329C104032A010569
:10025000832A4105032B8105832BC105032C01064D
:10026000832C4106032D8106832DC106032E010731
:10027000832E4107032F8107832FC1071301C10775
:10028000730020302320C5006376B50013054500B8
:100290006FF05FFF678000000000000000000000BA
:1002A000000000000000000000000000000000004E
:1002B000130101F8232011002322210023243100FF
:1002C0002326410023285100232A6100232C71009A
:1002D000232E8100232091022322A1022324B10294
:1002E0002326C1022328D102232AE102232CF10272
:1002F000232E010323201105232221052324310568
:100300002326410523285105232A6105232C710545
:10031000232E8105232091072322A1072324B1073F
:100320002326C1072328D107232AE107232CF1071D
:100330009702020083A2822323A02200F32210341A
:10034000232E5106EF00C03B1701020003210122BA
:10035000032101008322C10773901234B7220000E9
:100360009382028873A00230832001000322C1001F
:100370008322010103234101832381010324C1015D
:100380008324010203254102832581020326C10241
:100390008326010303274103832781030328C10325
:1003A000832801040329410483298104032AC10409
:1003B000832A0105032B4105832B8105032CC105ED
:1003C000832C0106032D4106832D8106032EC106D1
:1003D000832E0107032F4107832F81071301010893
:1003E00073002030970202009382C22123A01200E2
:1003F00023A2220023A4320023A6420023A85200F5
:1004000023AA620023AC720023AE820023A09202D2
:1004100023A2A20223A4B20223A6C20223A8D202CC
:1004200023AAE20223ACF20223AE020323A01205A8
:1004300023A2220523A4320523A6420523A85205A0
:1004400023AA620523AC720523AE820523A092077E
:1004500023A2A20723A4B20723A6C20723A8D20778
:1004600023AAE20723ACF207EF60506317010200F2
:100470000321C10F032101008322C10773901234AD
:10048000B72200009382028873A00230832001000B
:100490000322C1008322010103234101832381013F
:1004A0000324C10183240102032541028325810223
:1004B0000326C10283260103032741038327810307
:1004C0000328C103832801040329410483298104EB
:1004D000032AC104832A0105032B4105832B8105CF
:1004E000032CC105832C0106032D4106832D8106B3
:1004F000032EC106832E0107032F4107832F810797
:100500001301010873002030970202009382820FCA
:1005100083A0020003A1420083A1820003A2C200C3
:1005200083A2020103A3420183A3820103A4C201A7
:1005300083A4020203A5420283A5820203A6C2028B
:1005400083A6020303A7420383A7820303A8C2036F
:1005500083A8020403A9420483A9820403AAC20453
:1005600083AA020503AB420583AB820503ACC20537
:1005700083AC020603AD420683AD820603AEC2061B
:1005800083AE020703AFC20983AF82076780000012
:1005900073700430130101F823201100232221007D
:1005A000232431002326410023285100232A6100FF
:1005B000232C7100232E8100232091022322A102EB
:1005C0002324B1022326C1022328D102232AE102D7
:1005D000232CF102232E01032320110523222105C0
:1005E000232431052326410523285105232A6105AB
:1005F000232C7105232E8105232091072322A10797
:100600002324B1072326C1072328D107232AE10782
:10061000232CF1079702020083A242F523A02200B7
:10062000232E1106EF30406417010200032101F46C
:10063000032101008322C10773901234B722000006
:100640009382028873A00230832001000322C1003C
:100650008322010103234101832381010324C1017A
:100660008324010203254102832581020326C1025E
:100670008326010303274103832781030328C10342
:10068000832801040329410483298104032AC10426
:10069000832A0105032B4105832B8105032CC1050A
:1006A000832C0106032D4106832D8106032EC106EE
:1006B000832E0107032F4107832F810713010108B0
:1006C00073002030737004306F00000073104530E9
:1006D000678000007325403073F04330678000006E
:1006E00097070000938747FE232EB5FE2322C5FA05
:1006F000232635F82320F5F8130505F86780000058
:10070000130101FF23261100EF609036EF20900CBB
:10071000631805008320C1001301010167800000F8
:100720008320C100130101016F300054930785003D
:100730001307F0FF2322F5002324E5002326F5000C
:100740002328F500232005006780000023280500EA
:10075000678000008327450023A2F50003A78700D8
:1007600023A4E50003A787002322B70023A4B70032
:1007700023A8A50083270500938717002320F500F1
:100780006780000003A605009307F0FF13078500AC
:100790006316F6006F008003138707008327470066
:1007A00083A60700E37AD6FE23A2F50023A4B700B0
:1007B00023A4E5002322B70023A8A5008327050072
:1007C000938717002320F5006780000003270501A9
:1007D000832747006FF05FFD0327450083268500D0
:1007E000832705012324D70003278500832645009E
:1007F0002322D70003A747006316A700032785001D
:1008000023A2E7002328050003A507001305F5FF31
:1008100023A0A70067800000032605049387050036
:10082000630406028325C50003274500B385C50080
:100830002326B50063E6E500832505002326B500E1
:10084000138507006F50007F67800000130101FFD0
:100850002324810023261100130405002322910084
:10086000EF30D07483278404635AF0048327440252
:1008700063860704930444026F0000028327840404
:100880009387F7FF2324F404832784046358F0023A
:10089000832744026384070213850400EF3010208D
:1008A000E30E05FCEF30D04C832784049387F7FFD9
:1008B0002324F40483278404E34CF0FC9307F0FF23
:1008C0002324F404EF30D071EF30506E83274404BA
:1008D000635AF00483270401638607049304040128
:1008E0006F000002832744049387F7FF2322F40458
:1008F000832744046358F0028327040163840702BA
:1009000013850400EF309019E30E05FCEF305046DC
:10091000832744049387F7FF2322F40483274404A6
:10092000E34CF0FC9307F0FF2322F404032481003E
:100930008320C10083244100130101016F30506AFC
:10094000630A0508130101FE232C8100130405002E
:10095000232E1100232A910023282101232631016F
:1009600013890500EF309064832404048325C403B5
:100970008329040013850400EF8040111307F0FF62
:10098000232C0402B3079540B387F9003385A900EF
:100990002322E4042322A400232434012326F40088
:1009A0002324E404631C09028327040163920704DF
:1009B000EF3010638320C1010324810183244101AE
:1009C000032901018329C10013051000130101024D
:1009D00067800000737004306F000000130504018D
:1009E000EFF0DFD413054402EFF05FD46FF05FFC4B
:1009F00013050401EF30900A93071000E31AF5FA8B
:100A0000EFF01FB96FF0DFFA631605007370043062
:100A10006F000000130101FE232A91002328210109
:100A200023263101232E1100232C8100930405007D
:100A300013890500930906006380050AEF8000050D
:100A400013055505EF50803E13040500630E05089D
:100A5000930745052320F500232E94022320240527
:100A6000EF30D054832404048325C40303290400F5
:100A700013850400EF8080019306F0FF232C04020D
:100A8000B30795403307A900B307F9002322D40424
:100A90002322E4002326F4002324D40413050401B4
:100AA00023242401EFF09FC813054402EFF01FC870
:100AB000EF30105323083405130504008320C101CF
:100AC0000324810183244101032901018329C100F9
:100AD000130101026780000013054005EF50003547
:100AE0001304050063160500737004306F000000E6
:100AF000232084006FF05FF66316050073700430E6
:100B00006F0000006376B500737004306F00000062
:100B1000130101FF23248100130620001384050024
:100B20009305000023261100EFF01FEE630C050073
:100B3000232C85028320C1000324810013010101BD
:100B400067800000737004306F000000130101FB28
:100B50002326110423248104232291042320210528
:100B6000232E3103232C4103232A5103232861031D
:100B7000232671032326C10063060528638C0526FE
:100B800093072000639CF6000327C503930710001A
:100B90006306F700737004306F00000013890600CD
:100BA0009384050013040500EF309020631A0500BC
:100BB0008327C10063860700737004306F00000054
:100BC000EF30D03E032784038327C403130B0000B8
:100BD000930B20009309F0FF130A0401930A4402C7
:100BE0006364F710630479238327C10063820736A7
:100BF00063160B0013058101EF301005EF30503EF6
:100C0000EF20402FEF30903A83274404639437015C
:100C100023220404832784046394370123240404D7
:100C2000EF30103C9305C10013058101EF30D00473
:100C300063160530EF309037032784038327C403FE
:100C40006304F710EF30D039EF3050368327840437
:100C50006346F0026F00000313850A00EF30006462
:100C600063040500EF30D010832784049387F7FFD7
:100C70002324F404832784046356F000832744026A
:100C8000E39C07FC23243405EF309035EF3010321D
:100C9000832744046346F0026F00000313050A0033
:100CA000EF30C05F63040500EF30900C83274404ED
:100CB0009387F7FF2322F404832744046356F0004C
:100CC00083270401E39C07FC23223405EF305031D5
:100CD000EF20C055130B1000EF30502D0327840375
:100CE0008327C403E370F7F00326040463040612A9
:100CF000631A091E0325840093850400EF50803396
:100D0000832784008326040403274400B387D70085
:100D10002324F40063E4E71083278403832604007C
:100D200003274402938717002324D400232CF402C2
:100D30006300071013054402EF304056930710007C
:100D40006318F50E6F004014EF3090298325C10021
:100D500013050A00EF308027EF30502583278404E5
:100D60006346F0026F00000313850A00EF30005362
:100D700063040500EF30C07F832784049387F7FF67
:100D80002324F404832784046356F0008327440259
:100D9000E39C07FC23243405EF309024EF3010212E
:100DA000832744046346F0026F00000313050A0022
:100DB000EF30C04E63040500EF30807B832744048E
:100DC0009387F7FF2322F404832744046356F0003B
:100DD00083270401E39C07FC23223405EF305020D5
:100DE000EF20C044E31805EEEFF08FFA130B10006C
:100DF0006FF09FEE83270504E38407D873700430F7
:100E00006F000000737004306F00000003260404BC
:100E1000631006088327040063860704832784037E
:100E20000327440293871700232CF402E31407F0EE
:100E3000EF30101B130510008320C104032481042C
:100E400083244104032901048329C103032A810364
:100E5000832A4103032B0103832BC10213010105E4
:100E60006780000003254400EF3050078327840388
:100E7000032744022322040093871700232CF40243
:100E8000E31A07EAE30605FAEFF08FF06FF05FFA76
:100E90000325C40093850400EF50C0198327040480
:100EA0000327C40083260400B307F0403307F7008C
:100EB0002326E400637ED70403274400B307F7002A
:100EC0002326F40013072000832744026304E90467
:100ED0000327840313071700232CE402E38A07F493
:100EE0006FF05FE50325C40093850400EF50801484
:100EF000832704040327C40083260400B307F040BB
:100F00003307F7002326E400E37ED7FA6FF0DFFA19
:100F10008327440203278403E30C07FA032784038F
:100F20001307F7FF232CE40203278403130717009A
:100F3000232CE402E38E07EE6FF0DFDF13050400DD
:100F4000EFF0DF90EF20802E130500006FF0DFEE52
:100F5000EF301009130500006FF01FEE130101FFC1
:100F600023229100930405001305400523248100EA
:100F700023261100EF40906B13040500630C050459
:100F8000232C05029307F0FF2322F504130710001A
:100F900013050501232EE4022324F4042322040074
:100FA0002320040023240400232604002320040417
:100FB00023089404EFF08FF713054402EFF00FF7C6
:100FC00093060000130600009305000013050400BB
:100FD000EFF0DFB7130504008320C1000324810074
:100FE00083244100130101016780000063040504AC
:100FF000130101FF232481002322910023261100E5
:10100000232021010329450013040500EF30405936
:10101000930400006304A9028320C100032481001B
:1010200013850400032901008324410013010101F9
:1010300067800000737004306F0000008327C400D5
:10104000930410009387F7FF2326F400E39607FC30
:10105000930600001306000093050000130504002A
:10106000EFF0DFAE6FF05FFB130101FC232E1102E6
:10107000232C8102232A91022328210323263103D2
:10108000232441032326C100630E050A93090000AF
:10109000638405101389060093840500130405007A
:1010A000130A05016F008003EF308073EF3000708A
:1010B0009305C10013058101EF30003C6310050664
:1010C000EF30C06E032784038327C403630CF70249
:1010D000EF300071EF30C07093091000EF30006DF9
:1010E000032784038327C4036362F7068327C100B1
:1010F00063860702E39A09FA13058101EF30C034D1
:101100006FF09FFAEF30C06D8325C10013050A0010
:10111000EF20D06BEFF0CFC76FF0DFFBEF30406C0C
:101120008320C10303248103832441030329010392
:101130008329C102032A810213050000130101045F
:1011400067800000737004306F0000000326040401
:101150006314060683270400638807048327840337
:101160000327440293871700232CF4026310070817
:10117000EF3000678320C1030324810383244103EC
:10118000032901038329C102032A810213051000E8
:10119000130101046780000083270504E38C07EE38
:1011A000737004306F00000003254400EF300053DB
:1011B000232204006FF09FFA6316090403258400BC
:1011C00093850400EF40106783278400832604047E
:1011D00003274400B387D7002324F400E3E0E7F8B3
:1011E000832704002324F4006FF05FF71305440203
:1011F000EF30C00A93071000E31CF5F6EFF04FB98B
:101200006FF01FF70325C40093850400EF40906240
:10121000832704040327C40083260400B307F04097
:101220003307F7002326E4006378D7000327440040
:10123000B307F7002326F40093072000E310F9F228
:1012400083278403E38C07F0832784039387F7FFC6
:10125000232CF4026FF09FF0130101FC232E1102E6
:10126000232C8102232A91022328210323263103E0
:10127000232441032326C1006308051493040000BE
:10128000638C051293890600138905001304050079
:10129000130A45026F000001EF308054EF304054D4
:1012A00093041000EF30805083278403639E070867
:1012B0008327C100638C070463840404EF30405229
:1012C000EF30C04E9305C10013058101EF30C01A05
:1012D000631E0502EF30804D83278403E39E07FAE7
:1012E000EF30005083270400638607048325C10084
:1012F00013050A00EF20904DEFF08FA96FF01FFA51
:1013000013058101EF3040146FF05FFBEF30404D6B
:101310008320C103032481038324410303290103A0
:101320008329C102032A810213050000130101046D
:1013300067800000EF30804703254400EF30002A2B
:10134000EF30004A6FF09FFA032604048324C400A0
:101350006304060203274400B387C4002326F40075
:1013600063E6E700832704002326F4008325C400F6
:1013700013050900EF40104C639C09048327840384
:10138000032704009387F7FF232CF402631607005A
:10139000EF30404C2322A40083270401638007041C
:1013A00013050401EF20906F930710006318F502F6
:1013B000EFF00F9E6F00800283270504E38407ECA3
:1013C000737004306F000000737004306F00000011
:1013D000832744022326940063960702EF3040409F
:1013E0008320C103032481038324410303290103D0
:1013F0008329C102032A810213051000130101048D
:101400006780000013054402EF205069E30805FCE3
:101410006FF01FFA6302050A63880508130101FED5
:10142000232C8100232A9100232821012324410118
:10143000232E1100232631019307200093840600F8
:1014400013090600138A050013040500639CF600C7
:101450000327C503930710006302F70A7370043073
:101460006F000000EFF00FA7032784038327C40356
:10147000930905006366F7049304000013850900CF
:10148000EFF0CFA48320C101032481011385040060
:1014900003290101832441018329C100032A81001A
:1014A000130101026780000083270504E38807F623
:1014B000737004306F000000737004306F00000020
:1014C00003260404631E060C8327040063860712A8
:1014D000832784031307F0FF93871700232CF4025C
:1014E000832784046388E70E832784049304100011
:1014F000938717002324F4046FF05FF8EFF08F9DBB
:10150000032784038327C403930905006360F70658
:1015100003260404E30A06FA0325C40093050A001F
:10152000EF405031832704040327C40083260400BE
:10153000B307F0403307F7002326E4006378D700B1
:1015400003274400B307F7002326F4009307200085
:10155000E390F4F883278403E38C07F6832784035E
:101560009387F7FF232CF4026FF09FF60326040401
:10157000E30C06F40325C40093050A00EF40902B0A
:10158000832704040327C40083260400B307F04024
:101590003307F7002326E400E364D7FA6FF09FFBDC
:1015A000E39C04F60325840093050A00EF4090288D
:1015B000832784008326040403274400B387D700CD
:1015C0002324F400E3E6E7F0832704002324F40057
:1015D0006FF01FF08327440293041000E38007EAB2
:1015E00013054402EF20904BE30A05E8E30809E8FD
:1015F000232099006FF09FE803254400EF30000E90
:10160000232204006FF0DFEC6302050A8327050440
:1016100063860700737004306F00000083270500A5
:10162000638A0708130101FE232C8100232A9100FD
:10163000130405002328210123263101232E110044
:1016400013890500EFF00F89032784038327C40360
:1016500093090500930400006376F702832784034F
:101660001307F0FF93871700232CF40283278404C9
:10167000638AE70483278404930410009387170088
:101680002324F40413850900EFF04F848320C10163
:1016900003248101138504000329010183244101EE
:1016A0008329C100130101026780000073700430B8
:1016B0006F00000083274500E38607F6737004304F
:1016C0006F00000083274402639607009304100014
:1016D0006FF05FFB13054402EF20503CE30805FE6A
:1016E000E30609FE930710002320F9006FF01FFEA8
:1016F000130101FC232E1102232C8102232A9102C3
:1017000023282103232631032324410323225103C9
:101710002326C10063060528638C0526938A0600EC
:101720009389050013040500EF209068631A0500F3
:101730008327C10063860700737004306F000000C8
:10174000EF30C006832784036394071C8327C100FE
:101750006380071013058101EF20104F9304F0FF01
:1017600013094402130A0401EF308007EF10807858
:10177000EF30C003832744046394970023220404BA
:10178000832784046394970023240404EF304005E6
:101790009305C10013058101EF20104E631005244D
:1017A000EF30C00083278403638A070AEF304003C9
:1017B000EF20D07F832784046346F0026F0000038C
:1017C00013050900EF20902D63040500EF20505A07
:1017D000832784049387F7FF2324F4048327840456
:1017E0006356F00083274402E39C07FC23249404FF
:1017F000EF20107FEF20907B832744046346F002A4
:101800006F00000313050A00EF2050296304050050
:10181000EF201056832744049387F7FF2322F40414
:10182000832744046356F00083270401E39C07FCEC
:1018300023229404EF20D07AEF10501FEF2010776E
:10184000832784036396070C8327C100E39E07F078
:10185000EF201079130500006F00800FEF20507803
:1018600083270400638807108325C100130509003E
:10187000EF20C075EF209073832784046346F00245
:101880006F00000313050900EF20502163040500D9
:10189000EF20104E832784049387F7FF2324F4045A
:1018A000832784046356F00083274402E39C07FCEB
:1018B00023249404EF20D072EF20506F8327440438
:1018C0006346F0026F00000313050A00EF20101DAD
:1018D00063040500EF20D049832744049387F7FF72
:1018E0002322F404832744046356F0008327040171
:1018F000E39C07FC23229404EF20906EEF1010135A
:1019000063040508EF20906A83278403E38E07F2BF
:1019100093850900130504008324C400EFE0DFEF82
:1019200063940A0883278403032704009387F7FF3F
:10193000232CF40263160700EF20D0712322A400A9
:101940008327040163920708EF20906913051000B4
:101950008320C1030324810383244103032901035A
:101960008329C102032A8102832A4102130101044F
:1019700067800000EF20906303254400EF201046AD
:10198000EF2010666FF05FEEEFE09FC06FF09FF703
:1019900083270504E38407D8737004306F000000C8
:1019A000737004306F0000008327440223269400E4
:1019B000E38C07F813054402EF20500EE30605F808
:1019C000EFE01FBD6FF05FF813050401EF20100D6D
:1019D00093071000E31AF5F66FF09FFE130504005D
:1019E000EFE0DFE6EF109004130500006FF05FF604
:1019F00063000506130101FF232481002320210138
:101A00002326110023229100832445001389050019
:101A100013040500EF20D0386380A404930600006F
:101A2000130609009305000013050400EFF05FCCD6
:101A300093071000630CF5028320C100032481008A
:101A40008324410003290100130101016780000084
:101A5000737004306F0000008327C400130510006A
:101A6000938717002326F4006FF01FFD8327C4001F
:101A7000938717002326F4006FF01FFC6308050608
:101A80006386050C130101FE232C8100232A91009B
:101A900023282101232631012324410113040500B9
:101AA000232E11001309060093890500EFE09FC261
:101AB00083278403130A050093040000639C070234
:101AC00013050A00EFE09FC08320C10103248101B8
:101AD0001385040003290101832441018329C100E6
:101AE000032A810013010102678000007370043033
:101AF0006F00000003260404630406028325C4006B
:101B000083274400B385C5002326B40063E6F500AF
:101B1000832504002326B40013850900EF4080517B
:101B2000832784031307F0FF9387F7FF232CF40226
:101B3000832744046384E70283274404930410004A
:101B4000938717002322F4046FF09FF7832705047F
:101B5000E38A07F2737004306F00000083270401EA
:101B600063960700930410006FF09FF513050401BE
:101B7000EF20C072E30805FEE30609FE930710009C
:101B80002320F9006FF01FFE630605088327050474
:101B9000638A050863840708130101FE232C810072
:101BA000232A910023282101232441011304050045
:101BB000232E110023263101138A0500EFE09FB187
:101BC000832784031309050093040000638E070034
:101BD0008329C40093050A0013050400EFE0DFC366
:101BE000930410002326340113050900EFE01FAE13
:101BF0008320C1010324810113850400032901010D
:101C0000832441018329C100032A810013010102B9
:101C100067800000737004306F0000007370043040
:101C20006F000000E38C07FE737004306F0000004B
:101C300063160500737004306F000000130101FF8C
:101C4000232481001304050023261100EF20103601
:101C500003248403EF20D0388320C100130504003F
:101C60000324810013010101678000006316050051
:101C7000737004306F000000130101FF2326110070
:101C80002324810013040500EF20503283278403AE
:101C90000324C4033304F440EF20903413050400FC
:101CA0008320C1000324810013010101678000002B
:101CB0006306050003258503678000007370043008
:101CC0006F0000006308050497870300938787B7B8
:101CD00003A747006304E50403A7C7006302E50800
:101CE00003A74701630AE50603A7C7016302E506E8
:101CF00003A74702630AE50403A7C7026302E504DA
:101D000003A74703630AE50203A7C7036302E502CB
:101D10006F40C029737004306F000000130700008B
:101D200013173700B387E70023A007006F40002890
:101D3000130770006FF0DFFE130760006FF05FFEA7
:101D4000130750006FF0DFFD130740006FF05FFDD9
:101D5000130730006FF0DFFC130720006FF05FFC0B
:101D6000130710006FF0DFFB0325C5046780000038
:101D70002326B50467800000034505056780000041
:101D800063080500032585031335150067800000EF
:101D9000737004306F000000630C05008327850317
:101DA0000325C5033305F540133515006780000092
:101DB000737004306F00000097870300938787A833
:101DC00003A707006300070403A78700630807044D
:101DD00003A707016308070403A787016308070433
:101DE00003A707026308070403A787026308070421
:101DF00003A70703630C070403A78703630407040F
:101E0000678000001307000013173700B387E7004F
:101E100023A0B70023A2A7006780000013071000CB
:101E20006FF09FFE130720006FF01FFE13073000B6
:101E30006FF09FFD130740006FF01FFD1307500068
:101E40006FF09FFC130770006FF01FFC130760001A
:101E50006FF09FFB978703009387C79E03A74700F8
:101E60006300E50403A7C7006306E50403A7470171
:101E70006306E50403A7C7016306E50403A7470259
:101E80006306E50403A7C7026306E50403A7470347
:101E9000630AE50403A7C7036302A7046780000081
:101EA0001307000013173700B387E70023A00700CC
:101EB00067800000130710006FF0DFFE130720009B
:101EC0006FF05FFE130730006FF0DFFD1307400077
:101ED0006FF05FFD130750006FF0DFFC1307700019
:101EE0006FF05FFC130760006FF0DFFB130101FF71
:101EF00023248100232291002320210113040500C3
:101F0000232611009384050013090600EF20100A10
:101F1000032744049307F0FF6314F700232204040B
:101F2000032784049307F0FF6314F70023240404B9
:101F3000EF20100B83278403639A07001306090020
:101F40009385040013054402EF208024EF2010063F
:101F500083278404635AF0048327440263860704BA
:101F6000930444026F000002832784049387F7FFE1
:101F70002324F404832784046358F0028327440253
:101F80006384070213850400EF204031E30E05FC53
:101F9000EF20005E832784049387F7FF2324F40453
:101FA00083278404E34CF0FC9307F0FF2324F4041C
:101FB000EF201003EF20807F83274404635AF0044E
:101FC0008327040163860704930404016F00000261
:101FD000832744049387F7FF2322F40483274404D0
:101FE0006358F00283270401638407021385040009
:101FF000EF20C02AE30E05FCEF208057832744041E
:102000009387F7FF2322F40483274404E34CF0FC76
:102010009307F0FF2322F404032481008320C100EE
:102020008324410003290100130101016F20407B3B
:1020300063020504130101FD232E3101232C41010C
:1020400023261102138A07002324810223229102EE
:1020500023202103232A5101232861012326710112
:10206000930790009309070063FAE7007370043048
:102070006F000000737004306F000000130B050048
:102080009384050013090600938B0600930A080049
:102090006302082C13050006EF30505913040500A5
:1020A0006302052A13192900232855031306090082
:1020B0009305500A13850A00EF40C00903C70400C6
:1020C000832704031309C9FF230AE40203C704009A
:1020D000338927011379C9FF6306070E83C71400EC
:1020E000A30AF40283C71400638E070C83C724007D
:1020F000230BF40283C724006386070C83C73400D4
:10210000A30BF40283C73400638E070A83C744001D
:10211000230CF40283C744006386070A83C7540074
:10212000A30CF40283C75400638E070883C76400BE
:10213000230DF40283C764006386070883C7740015
:10214000A30DF40283C77400638E070683C784005F
:10215000230EF40283C784006386070683C79400B6
:10216000A30EF40283C79400638E070483C7A40000
:10217000230FF40283C7A4006386070483C7B40057
:10218000A30FF40283C7B400638E070283C7C400A1
:102190002300F40483C7C4006386070283C7D40006
:1021A000A300F40483C7D400638E070083C7E40050
:1021B0002301F40483C7E4006386070083C7F400A7
:1021C000A301F404930A440013850A00A301040444
:1021D0002326340323283405232A0404EFE00FD7F1
:1021E00013058401EFE08FD69307A000B387374132
:1021F000232C040423288400232CF40023228402AB
:1022000023220404232E040413860B0093050B00E1
:1022100013050900EFE0CFCC2320A40063040A00DB
:1022200023208A007370043017E901001309493232
:102230008327090097E4010093844433638C0700EB
:1022400003A7040083A7040083274704938717008C
:102250002322F70417E701001307473083270700FD
:102260009387170097E6010023AAF62E83A70400A0
:10227000638E070E8327090017EB0100130B4B40F9
:10228000639C070083A7040083A7C70263E6F900E5
:1022900097E7010023AC872C97E701009387472A33
:1022A00083A7070017E701001307C72A0325C40205
:1022B000032707009387170097E6010023A2F6285B
:1022C0002324F4046376A70097E7010023A4A7283A
:1022D00093054001EF60807B93850A003305AB00D6
:1022E000EFE04FC7832709006388070083A7040036
:1022F00083A74704639C0708832709001304100081
:10230000638A070083A7040083A7C70263F4370129
:10231000EFE00FA8130504008320C102032481020B
:1023200083244102032901028329C101032A810177
:10233000832A4101032B0101832BC10013010103F7
:102340006780000013850A00EF3050461304F0FF49
:102350006FF05FFC13152600EF30502D930A050037
:10236000E31A05D21304F0FF6FF0DFFA97E70100DC
:1023700023AE871E0327070093071000630AF702A6
:1023800017EB0100130BCB2F6FF01FF103A7040015
:1023900083A60400832747049387F7FF2322F704CB
:1023A00083A74604E39A07F4736004306FF0DFF408
:1023B000130A000017EB0100130B8B2C930BA000EA
:1023C00013050A0093054001EF60406C130A1A00E0
:1023D0003305AB00EFE08FB5E3147AFF97EB010014
:1023E000938B8B3613850B00EFE04FB417EA010097
:1023F000130ACA3613050A00EFE04FB317E50100D0
:1024000013050537EFE08FB217E501001305853797
:10241000EFE0CFB117E5010013050538EFE00FB18C
:1024200097E7010023A2771597E7010023AC471334
:102430006FF09FE6130101FF232481002326110082
:10244000232291002320210113040500737004301E
:1024500097E401009384C40F83A70400639E0710D0
:102460006318040097E701009387471003A407004F
:102470001309440013050900EFE00FB68327840217
:102480006386070013058401EFE00FB5930509008B
:1024900017E501001305052FEFE0CFAB97E701002B
:1024A0009387070C03A7070097E701009387470965
:1024B00083A707001307170097E6010023A2E60A87
:1024C00003A704009387170097E6010023AAF606E6
:1024D000630C070097E701009387470903A70700EC
:1024E00003274704631C070E83A70400638A0706BB
:1024F00097E701009387870703A707006302871008
:102500007370043003A704006318070817E701007D
:10251000130787058326070083A606006392060A31
:102520001307F0FF97E6010023AAE60003A70400C3
:102530006308070203A70700032747046302070293
:1025400003A7070083A60700832747049387F7FFA5
:102550002322F70483A746046394070073600430C2
:102560008320C1000324810083244100032901004A
:10257000130101016780000097E70100938707FFBF
:1025800003A7070083A70700832747049387170043
:102590002322F7046FF0DFEC83A6070003A70700F0
:1025A00003A746041307170023A2E60417E7010058
:1025B000130787FB8326070083A60600E38206F63F
:1025C000032707000327C7000327C7000327470087
:1025D00097E6010023A4E6F66FF05FF503A7070076
:1025E00083A60700832747049387F7FF2322F70476
:1025F00083A74604E39A07EE736004306FF0DFEEC2
:1026000097E70100938747F383A7070063860700D6
:10261000737004306F000000032481008320C10028
:102620008324410003290100130101016FD05FF6EB
:102630006304050C17E70100130747F3832607001F
:10264000930700006386A60A130101FF23261100E9
:1026500023248100232291007370043097E6010047
:10266000938606EF83A70600638C07000326070006
:102670008327070083274604938717002322F60445
:1026800083A706009304050003244501638807001F
:102690008327070083A747046394070697E7010091
:1026A000938787EC83A70700638C870697E7010071
:1026B000938747EB83A707006384870697E70100AA
:1026C0009387870D6306F40497E701009387870BD0
:1026D000630CF402930710008320C10003248100DF
:1026E0008324410013850700130101016780000066
:1026F0001385070067800000737004306F000000CE
:10270000EF60C04E6FF09FF9930740006FF0DFFC61
:1027100083A7840293B71700938727006FF0DFFB2E
:10272000930720006FF05FFB7370043097E70100A0
:10273000938707E203A707006316070263040504F3
:1027400083A707000325C502638C070097E70100F4
:102750009387C7E103A7070003274704631C070209
:102760006780000017E70100130747E08326070092
:102770000327070003A746041307170023A2E60454
:10278000E31005FC17E70100130747DE03250700E8
:102790006FF01FFB03A7070083A6070083274704EA
:1027A0009387F7FF2322F70483A74604E39A07FAE7
:1027B0007360043067800000130101FF232481004F
:1027C0001304050023261100EFD0DFF06318040086
:1027D00097E70100938787D903A407000324C40265
:1027E000EFD0DFEE8320C100130504000324810035
:1027F00013010101678000009307900063F6B700A2
:10280000737004306F000000130101FE232C81005F
:10281000232E1100232A9100232821012326310190
:1028200023244101130405007370043017E90100EB
:10283000130909D283270900639207106300041269
:1028400083270405638EF50A17E70100130707D2F3
:1028500063F0B70283260700638E86120327070002
:102860008324C702B3B4950093C414006F00000121
:1028700083240700B384844093B414000327C40264
:102880006386E70E832784012328B40463C8070006
:102890009307A000B385B740232CB40093172700FB
:1028A000B387E7000327440197E90100938949DDD5
:1028B00093972700B387F9006310F704130A4400C5
:1028C00013050A00EFD05FF197E70100938787C8EF
:1028D0000325C40283A7070063F6A70097E701005A
:1028E00023AAA7C693054001EF60401A93050A008A
:1028F0003385A900EFD01FE663840400EFD05FC9E1
:1029000083270900638C070097E70100938707C6B8
:1029100083A7070083A74704639E07048320C101A0
:102920000324810183244101032901018329C1007A
:10293000032A8100130101026780000097E701006C
:102940009387C7C203A7070083A70700832747040D
:10295000938717002322F704E31404EE97E701009E
:102960009387C7C003A407006FF09FED2326B4022E
:102970006FF05FF1032481018320C10183244101B1
:10298000032901018329C100032A810013010102E7
:102990006F60C025930400006FF05FEE630A0508C6
:1029A000130101FE232A910097E40100938404BCE3
:1029B00083A70400232E1100232C8100232821014A
:1029C000232631016388A7047370043017E90100DE
:1029D000130909B883270900638C070003A70400C3
:1029E00083A7040083274704938717002322F70453
:1029F0000327450197E70100938707DA630EF70283
:102A0000832709006388070083A7040083A747047E
:102A1000639E07088320C1010324810183244101AF
:102A2000032901018329C10013010102678000000D
:102A3000737004306F0000008327850217E70100E0
:102A4000130707D3E38EE7FAE39C07FA93094500DF
:102A50001304050013850900EFD01FD897E7010084
:102A6000938747AF0325C40283A7070063F6A70037
:102A700097E7010023A0A7AE93054001EF60000196
:102A800097E701009387C7BF3385A70093850900A7
:102A9000EFD05FCC83A704000327C40283A7C7023B
:102AA000E360F7F6EFD0DFAE6FF09FF5032481010E
:102AB0008320C10183244101032901018329C1002D
:102AC000130101026F60801263020506130101FE0B
:102AD000232C8100232A91002326310113040500B1
:102AE000232E110023282101EFD0DFBE032744014C
:102AF00097E70100938747CA9309050093040000F4
:102B0000630AF70213850900EFD05FBC8320C1017F
:102B10000324810113850400032901018324410159
:102B20008329C10013010102678000007370043023
:102B30006F0000008327840217E50100130545C3D9
:102B4000E382A7FCE39007FC97E701009387C79E09
:102B500083A707006394070697E70100938707A1FF
:102B600083A707008324C4021309440083A7C70274
:102B700013050900B3B4F400EFD01FC697E70100B6
:102B80009387479D0325C40283A7070093C41400BD
:102B900063F6A70097E7010023AEA79A93054001CB
:102BA000EF50D06E97E70100938787AD930509003A
:102BB0003385A700EFD01FBA6FF0DFF493058401CF
:102BC000EFD05FB96FF01FF4130101FE371500005D
:102BD000232E1100232C8100232A91002328210178
:102BE00023263101232441012322510123206101A5
:102BF000EF30C02363080522930405001305000687
:102C0000EF30C022130405006304052637160000C8
:102C10009305500A2328950213850400EF30805352
:102C200083240403B71700009387C7FFB384F4001D
:102C3000B7474C4593879744130A4400232AF4026C
:102C400013050A00230C0402A30104042326040232
:102C500023280404232A0404EFD05FAF1305840162
:102C6000EFD0DFAE9307A000232C040493F4C4FF3D
:102C700023288400232CF40023228402232204042A
:102C8000232E040413060000971500009385C5EA5F
:102C900013850400EFD0DFA42320A4007370043058
:102CA00017E901001309C98A8327090097E4010085
:102CB0009384C48B638C070003A7040083A70400DC
:102CC00083274704938717002322F70417E701009F
:102CD0001307C788832707009387170097E601002B
:102CE00023AEF68683A704006388070A83270900BA
:102CF00097E901009389C998639C070083A70400A2
:102D000083A7C7026396070097E7010023A0878681
:102D100097E701009387C78203A7070097E60100A2
:102D2000938646838327C40283A6060013071700F1
:102D300017E601002326E6802324E40463F6F60068
:102D400017E701002328F780139527003305F500C6
:102D50001315250093050A003385A900EFD09F9F26
:102D6000832709006388070083A7040083A747041B
:102D7000639E070C832709006384070083A7040070
:102D8000EF20500793071000630AF510631C050835
:102D9000737004306F00000097D7010023A8877C70
:102DA000032707009307100097E901009389498DD5
:102DB000E310F7F6938A090017EB0100130BCB9889
:102DC00013850A00938A4A01EFD05F96E31A5BFFEE
:102DD00017E5010013054597EFD05F9597EA0100CD
:102DE000938ACA9713850A00EFD05F9417E5010014
:102DF00013050598EFD09F9317E5010013058598FB
:102E0000EFD0DF9217E5010013050599EFD01F926F
:102E100097D7010023AA677597D7010023A4577598
:102E20006FF01FEF8320C10103248101832441013E
:102E3000032901018329C100032A8100832A41005B
:102E4000032B0100130101026780000003A70400A7
:102E500083A60400832747049387F7FF2322F70400
:102E600083A74604E39807F0736004306FF09FF087
:102E7000032481018320C101032901018329C100A9
:102E8000032A8100832A4100032B010013850400DB
:102E900083244101130101026F304011737004302B
:102EA0009307F0FF17D70100232AF7680324810155
:102EB00097D7010023AEA7688320C1018324410175
:102EC000032901018329C100032A8100832A4100CB
:102ED000032B010097D7010023A00768130101020B
:102EE0006FD04FD07370043097D7010023A20766CC
:102EF0006FD08FE117D701001307076483270700FE
:102F0000938717002320F700678000007370043058
:102F100097D701009387C76303A7070063180702C9
:102F200017D70100130747630325070083A707008E
:102F3000638C070097D701009387476303A70700B7
:102F400003274704631407026780000017D70100B6
:102F50001307C761832607000327070003A746045A
:102F60001307170023A2E6046FF09FFB03A70700D7
:102F700083A60700832747049387F7FF2322F704DC
:102F800083A74604E39207FC736004306780000067
:102F9000130101FF2326110023248100EFD08FF3BA
:102FA00097D701009387475B03A40700EFD00FF288
:102FB0008320C100130504000324810013010101D3
:102FC0006780000097D701009387475903A5070042
:102FD00067800000130101FD2326110223248102D2
:102FE0002322910223202103232E3101232C41018E
:102FF000232A5101232861012326710197D701005B
:103000009387875383A70700639A070617D70100A2
:1030100013078754832707009387170097D601006B
:1030200023ACF652832A0700638A0A0A97D7010065
:103030009387C75083A707009304000063FEFA0A32
:1030400097D901009389C96317DA0100130A0A525C
:1030500083270A009306100003A7C70293172700CF
:10306000B387E70093972700B389F90083A7090086
:1030700063F4F602930410006F00000297D701007A
:103080009387C74C83A7070093040000938717001A
:1030900017D70100232CF74A97D701009387C74A17
:1030A00083A7070063840700930410008320C102F4
:1030B00003248102138504000329010283244102B1
:1030C0008329C101032A8101832A4101032B0101C4
:1030D000832BC100130101036780000017D4010096
:1030E000130484488327040083A707006388070C20
:1030F000737004306F00000017D401001304C4463D
:1031000097D901009389C95717DA0100130A0A46B3
:1031100017DB0100130B0B448327040083A7070070
:10312000638007088327040083A7C70003A9C7009B
:1031300083274900930B490013850B0063EAFA06C5
:10314000EFD08FE983278902130589016384070083
:10315000EFD08FE88327C90203270B0093850B006C
:10316000139527003305F500131525003385A900B5
:103170006376F70017D70100232EF73CEFD08FDDE1
:1031800083270A000327C90283A7C702E366F7F86B
:10319000832704009304100083A70700E39407F833
:1031A0009307F0FF17D70100232AF7386FF05FEA83
:1031B00017D701002324F7386FF09FE917D70100D4
:1031C0001307473A832704000327070097D6010017
:1031D00023ACE63817D701002326F73897D701002C
:1031E0009387473683A707009387170017D70100F7
:1031F000232AF7348327040083A70700639A070074
:103200009307F0FF17D70100232AF7326FF01FE270
:103210008327040083A7C70083A7C70083A74700AD
:1032200017D70100232CF7306FF05FE097D701002C
:103230009387873003A70700631607007370043075
:103240006F000000130101FE232E1100232C8100CA
:10325000232A91002328210123263101232441011F
:1032600023225101232061017370043097D401009F
:103270009384042E03A704006310071203A707001A
:103280001307F7FF97D6010023A8E62A83A70700B4
:10329000639E070A97D701009387472C83A70700EF
:1032A0006386070A97DA0100938A8A3D17DA0100DC
:1032B000130A4A2A17D901001309492B9309100050
:1032C0006F00C0013385EA00EFD0CFC88327090023
:1032D0000327C40283A7C7026374F70683A70A0FF4
:1032E0006380070E83A7CA0F03A4C70013058401D8
:1032F000EFD08FCE130B440013050B00EFD0CFCDD2
:103300008327C40283260A0093050B001395270028
:103310003305F50013152500130705003385AA00B2
:10332000E3F2F6FA17D701002326F722EFD08FC277
:10333000832709000327C40283A7C702E360F7FAC3
:1033400097D7010023A237216FF05FF91304000023
:1033500083A70400638C070097D701009387072198
:1033600083A7070083A74704639807041305040095
:103370008320C10103248101832441010329010128
:103380008329C100032A8100832A4100032B010005
:10339000130101026780000017D701001307071D02
:1033A000832607000327070003A746041307170017
:1033B00023A2E6046FF09FECEF5050036FF01FFB69
:1033C00017D401001304841883270400638C0702B8
:1033D000832704001309100063860702EFF09FBFE4
:1033E0006306050097D7010023A027178327040051
:1033F0009387F7FF17D70100232AF71483270400C8
:10340000E39E07FC97D701009387071403A70700E3
:1034100093071000E31CF7F2EFD08F97130410000E
:103420006FF01FF3630405026396050073700430A8
:103430006F00000017D7010013070710832707004C
:10344000638A0700737004306F00000073700430EB
:103450006F000000130101FF2324810023261100C7
:1034600083260700032705009386160017D6010060
:103470002324D60C97D601009386060E83A6060059
:103480003304B7002320850063F0E6046372E4028E
:1034900063F0860297D701009387470D03A50700C5
:1034A00013054500EFD04FB313050400EF50806BB8
:1034B000EFF0DFD7630E05008320C10003248100F5
:1034C0001301010167800000E366E4FC6FF05FFC1C
:1034D000032481008320C100130101016FD04F8BB1
:1034E000630E050017D701001307070583270700A0
:1034F00063880700737004306F0000006FD04F893D
:10350000130101FF23261100232481000327070054
:10351000930705001307170097D6010023AEE600B6
:1035200097D601009386860417D701001307C702B8
:103530000327070003A506003304F7001305450021
:10354000EFD08FA913050400EF50C061EFF01FCE3C
:10355000631A0500032481008320C10013010101C7
:103560006FD00F838320C100032481001301010168
:1035700067800000130101FF23248100232611002E
:1035800097D70100938747FB83A707001304000028
:103590009387170017D701002320F7FA97D7010068
:1035A0009387C7FB83A7070063EEF51417DE0100BE
:1035B000130ECE1897D201009382C20B13040000A1
:1035C00013070000930F10001303500A6F00C00090
:1035D000130ECEFE6384C20F83278EFF930607006F
:1035E000E38807FE8327CEFF83A74700232EFEFE36
:1035F0006386C71303AFC70083A747003307E500FF
:10360000930E0000232EFEFE6380C70983A8C70027
:1036100093874803232017012322F70083A78804F8
:103620002326F7012324F70083A7C8022328F700E5
:1036300083A70805232C0700232AF70003A8080303
:10364000834708006398670493070800938717006F
:1036500083C60700B3850741E38A66FE93D525003C
:103660009395050193D50501231EB700938E1E0087
:1036700013070702630A1F038327CEFF83A74700B0
:10368000232EFEFEE394C7F983274E00232EFEFE71
:103690006FF0DFF793050000231EB700938E1E0026
:1036A00013070702E31A1FFD3304D4011317540054
:1036B000130ECEFE93060700E390C2F397D70100E6
:1036C000938787EA03AE070083270E0063960712ED
:1036D00097D70100938707E903AE070083270E0001
:1036E000639A071C17DE0100130E8EF983274E1014
:1036F000639C070283278E11639C072663040600E0
:1037000023200600EFF09FB2130504008320C100C0
:1037100003248100130101016780000083274E000C
:10372000232EFEFE6FF01FED83278E1017DF0100A2
:10373000130FCF0583A7470017D701002326F704EF
:103740006386E73D83A2C70083A74700B306D50081
:10375000930E000017D701002328F702930F4000B3
:103760001303500A6382E70983A8C70093874803BD
:1037700023A0160123A2F60083A7880423A6F6013E
:1037800023A4F60083A7C80223A8F60083A7080590
:1037900023AC060023AAF60003A808038347080009
:1037A000639A6732930708009387170003C70700DF
:1037B000B3850741E30A67FE93D725009397070176
:1037C00093D70701239EF600938E1E009386060270
:1037D000638C123183278E1083A7470017D701000F
:1037E0002324F7FAE392E7F983270E1117D7010094
:1037F000232CF7F86FF05FF783274E00130F8E002E
:1038000083A647002322DE006380E633B307E5008A
:1038100003A7460083A2C600930E00002322EE00F9
:10382000930F20001303500A6300EF088328C7009A
:103830001387480323A0170123A2E70003A78804E6
:1038400023A6F70123A4E70003A7C80223A8E700E3
:1038500003A7080523AC070023AAE70003A8080371
:1038600003470800631E67221307080013071700A9
:1038700083460700B3050741E38A66FE13D7250098
:103880001317070113570701239EE700938E1E00AD
:10389000938707026380122383264E0003A7460006
:1038A0002322EE00E314EFF80327CE002322EE00DC
:1038B0006FF0DFF783274E00130F8E0083A74700BA
:1038C0002322FE00638CE72583A2C70083A747005D
:1038D000B306D500930E00002322FE00930F2000B4
:1038E0001303500A6300FF0883A8C70093874803A7
:1038F00023A0160123A2F60083A7880423A6F601BD
:1039000023A4F60083A7C80223A8F60083A708050E
:1039100023AC060023AAF60003A808038347080087
:1039200063986714930708009387170003C707007D
:10393000B3850741E30A67FE93D7250093970701F4
:1039400093D70701239EF600938E1E0093860602EE
:10395000638A121383274E0083A747002322FE00A9
:10396000E314FFF88327CE002322FE006FF0DFF779
:103970008327CE1197DE0100938E8EE283A7470046
:1039800017D70100232CF7E0638AD71783AFC7004E
:1039900083A747003307D5001303000097D6010023
:1039A00023AEF6DE130F3000930220009308500A76
:1039B0006388D70903A5C700930745032320A70001
:1039C0002322F700832785042326E7012324F70019
:1039D0008327C5022328F700832785026384070015
:1039E0002326570083270505232C0700232AF700E9
:1039F0000328050383470800639C17059307080005
:103A00009387170083C60700B3850741E38A16FF33
:103A100093D725009397070193D70701231EF7003B
:103A20001303130013070702638EAF028327CE111F
:103A300083A7470097D6010023A2F6D6E39CD7F7C9
:103A400083274E1297D6010023AAF6D46FF09FF673
:103A500093070000231EF700130313001307070248
:103A6000E396AFFC33046400E31C06C86FF09FC903
:103A700093070000239EF600938E1E009386060295
:103A8000E39A12ED17DE0100130E8EBF83274E104E
:103A90003304D40193165400E38E07C46FF0DFC8DB
:103AA00013070000239EE700938E1E0093870702F2
:103AB000E39412DF97D701009387C7AA03AE0700EC
:103AC0003304D4019316540083270E00E38C07C0FF
:103AD0006FF05FDE93070000239EF600938E1E00BA
:103AE00093860602E39812CF83278E113304D40104
:103AF00093165400E38407C06FF09FE783274E12AC
:103B000017D70100232CF7C86FF05FE883270E1149
:103B100017D70100232AF7C66FF0DFC28327CE0034
:103B20002322FE006FF05FDA8326CE002322DE0020
:103B30006FF0DFCD130101FD232291022320210329
:103B4000232E3101232C4101232A51012328610115
:103B500023267101232611022324810297D9010013
:103B60009389899D17D90100130989B117DA0100DA
:103B7000130A0A9E97DA0100938A4A9F97DB010095
:103B8000938BCB9D97D401009384849D130B1000DD
:103B90006F00000283A709000324491093871700D0
:103BA00017D70100232AF798EFF04FE8631E0400AF
:103BB00083A70400E39007FE83270900E37AFBFE56
:103BC000EFC01F9D6FF0DFFE7370043083270A0083
:103BD000639E07048327091103A4C700130544004B
:103BE000EFC09FBF83A70B009387F7FF17D7010094
:103BF0002326F79683A704009387F7FF17D70100C2
:103C00002320F79683270A006388070083A70A000A
:103C100083A747046398070203250403EF200039B4
:103C200013050400EF2080386FF09FF803A70A0007
:103C300083A70A0083274704938717002322F704EA
:103C40006FF05FF903A70A0083A60A0083274704E1
:103C50009387F7FF2322F70483A74604E39E07FA1E
:103C6000736004306FF05FFB97D701009387C78CB8
:103C700083A70700639E070E130101FF232611008F
:103C8000232481002322910097D7010023AE078AC5
:103C900017D701001307878D83270700B7A6A5A5AF
:103CA0009386565A83A7070383A50700639ED50012
:103CB00003A64700631AB60083A687006396C60072
:103CC00083A7C700638AD700032507008325070061
:103CD00093854503EF30807617D701001307878758
:103CE0008326070017D40100130484996F00000293
:103CF0008327070063860708832707009387F7FF5A
:103D000097D6010023A8F684832607009397260000
:103D1000B387D70093972700B307F40083A7070062
:103D2000E38807FC0325070093172500B387A70046
:103D3000939727003307F400832647009387870073
:103D4000B307F40083A4460023229700638EF40295
:103D500083A7C4008320C1000324810017D701007A
:103D60002326F780832441001301010167800000AE
:103D70009307100017C701002328F77C6780000015
:103D8000737004306F00000083A444009305400169
:103D9000EF40D04F3305A400232295006FF05FFB66
:103DA000130101FE23282101232E1100232C810061
:103DB000232A910023263101130905007370043072
:103DC00097C401009384C47883A7040017C401003A
:103DD0001304C479639C070C6314090003290400CD
:103DE0009309490013850900EFC01F9F83278902AB
:103DF0006386070013058901EFC01F9E93850900A4
:103E000017D5010013054599EFC0DF9483A704007F
:103E1000638807008327040083A747046394070A85
:103E2000832704006384270D83A7040063820706A9
:103E30007370043083A704006398070E97C70100CE
:103E40009387877203A70700032707006310070CF7
:103E50009307F0FF17C701002322F76E83A7040022
:103E6000638807028327040083A74704638207024D
:103E70000327040083260400832747049387F7FF62
:103E80002322F70483A74604639407007360043079
:103E90008320C101032481018324410103290101FD
:103EA0008329C10013010102678000000327040079
:103EB0008327040083274704938717002322F704EE
:103EC0006FF09FF103270400832604008327470433
:103ED0009387F7FF2322F70483A74604E39207F4AE
:103EE0007360043083270400E39027F583A7040060
:103EF0006382070697C701009387076483A70700BB
:103F00006388070A737004306F00000083A70700FE
:103F100083A7C70083A7C70083A7470017C701006F
:103F2000232EF7606FF09FF303270400832704001C
:103F300083274704938717002322F70497C70100BC
:103F40009387876203A7070003270700E30207F0B0
:103F50006FF0DFFB97C701009387476017C7010029
:103F60001307077283A70700032787116314F7025B
:103F70008320C1010324810197C7010023A8075EA4
:103F800083244101032901018329C1001301010296
:103F900067800000032481018320C1018324410143
:103FA000032901018329C100130101026FF0DFCB56
:103FB000032481018320C1018324410103290101DC
:103FC0008329C100130101026FC08FDC6306050A5B
:103FD000130101FF2322910097C401009384045927
:103FE000232021011389050083A504002326110045
:103FF0002324810093858501EFC0CFF803A5040039
:1040000013054500EFC04FFD9307F0FF630AF90663
:1040100097C701009387475403A4070003A7040030
:1040200083A707003304240123228700636EF4066C
:1040300097C701009387475303A5070083A5040092
:1040400093854500EFC00FF497C701009387074F92
:1040500083A707006376F40097C7010023A0874E6B
:104060008320C1000324810083244100032901002F
:104070001301010167800000737004306F000000BD
:1040800083A50400032481008320C1008324410010
:104090000329010017C5010013050570938545002C
:1040A000130101016FC00FEB97C701009387874B86
:1040B00003A507000324810083A504008320C10019
:1040C0008324410003290100938545001301010168
:1040D0006FC04FEB630E050097C701009387C7457C
:1040E00083A70700639A0700737004306F00000015
:1040F000737004306F000000130101FF2322910050
:1041000097C401009384844603A7040093870500A5
:1041100083A50400B7060080B3E7D700232611006B
:1041200023248100232CF7009385850113040600C6
:10413000EFC04FE203A5040013054500EFC0CFE92F
:104140009307F0FF6304F40297C701009387C74009
:1041500003A507008320C1008324410033058500A7
:1041600003248100130101016F40D01F83A50400C7
:10417000032481008320C1008324410017C501006E
:104180001305856193854500130101016FC08FDC24
:104190006308050A130101FF2322910097C401005F
:1041A0009384C43C232021011389050083A50400C6
:1041B0002326110023248100938585011304060022
:1041C000EFC04FD903A5040013054500EFC0CFE0B1
:1041D00093071000630AF40697C701009387C73757
:1041E00003A4070003A7040083A7070033042401E6
:1041F00023228700636EF40697C701009387C736B2
:1042000003A5070083A5040093854500EFC08FD761
:1042100097C701009387873283A707006376F4006E
:1042200097C7010023AC87308320C100032481009D
:10423000832441000329010013010101678000006C
:10424000737004306F00000083A504000324810014
:104250008320C100832441000329010017C5010008
:104260001305855393854500130101016FC08FCE5F
:1042700097C701009387072F03A507000324810038
:1042800083A504008320C100832441000329010089
:1042900093854500130101016FC0CFCE130101FFCB
:1042A0002326110023248100232291008327C500A7
:1042B00003A4C7006304040A930484011385040063
:1042C000EFC08FD197C701009387072783A7070007
:1042D000639A07089304440013850400EFC0CFCF0E
:1042E00097C70100938707270327C40283A7070006
:1042F00063F6E70097C7010023AEE7249317270072
:10430000B387E7009397270017C5010013054537CA
:10431000938504003305F500EFC0CFC397C70100B4
:104320009387C72483A707000327C402130500004F
:1043300083A7C70263FAE7009307100017C70100BD
:104340002324F720130510008320C10003248100DB
:104350008324410013010101678000007370043061
:104360006F0000009385040017C501001305454048
:10437000EFC04FBE6FF09FFA97C701009387C71B2E
:1043800083A7070063960700737004306F00000076
:10439000130101FF23261100232481002322910011
:1043A000B70700800324C500B3E7F5002320F5001C
:1043B00063080408EFC04FC293044400138504004F
:1043C000EFC08FC197C701009387C7180327C402A6
:1043D00083A7070063F6E70097C7010023ACE71641
:1043E00093172700B387E7009397270017C50100AD
:1043F000130505293305F50093850400EFC08FB53B
:1044000097C701009387871683A707000327C40275
:104410001305000083A7C70263FAE70093071000A3
:1044200017C701002322F712130510008320C100D3
:1044300003248100832441001301010167800000EF
:10444000737004306F0000006304050297C7010019
:104450009387470F03A7070097C701009387C70FEC
:1044600083A707002320E5002322F50067800000D2
:10447000737004306F0000006304050E638E050C3A
:10448000130101FF232611002324810013070500D7
:104490007370043097C801009388880B83A70800C5
:1044A0006380070297C701009387470C83A6070024
:1044B00083A7070083A746049387170023A2F60467
:1044C00017C301001303430983A705000326030054
:1044D0009306F0FF130400006388D70417CE010091
:1044E000130E4E0603250E000328070083264700FF
:1044F0006306A800130410006378D6023308D64080
:10450000130410006372F80203250E00B387C7403E
:1045100003260300B387D70023A0F5002320A700BC
:104520002322C7001304000083A70800638C070040
:1045300097C701009387870383A7070083A74704D2
:1045400063940702130504008320C1000324810043
:104550001301010167800000737004306F000000D8
:10456000737004306F000000EF4040686FF09FFDF3
:104570009307100017C701002328F7FC678000008D
:10458000630605000325C5046780000013050000CD
:1045900067800000630405002326B50467800000DF
:1045A00097C70100938787FC03A507006780000079
:1045B00097C701009387C7F983A707001305100069
:1045C000638C070097C70100938707F703A50700CF
:1045D000133515001315150067800000630C0508DE
:1045E000130101FE232A910097C40100938404F86B
:1045F00083A70400232E1100232C810023282101EE
:10460000232631010327C50283A7C7026376F70477
:104610008327850163CC070083A7040083A6C70214
:104620009307A000B387D740232CF50093172700EA
:10463000B387E7000327450117C90100130949049F
:1046400093972700B307F9006308F70283A70400D4
:1046500083A7C7022326F5028320C1010324810119
:1046600083244101032901018329C10013010102AF
:10467000678000006780000093094500130405006F
:1046800013850900EFC04F9583A7040017C70100E9
:10469000130747EC0327070083A7C7022326F4026A
:1046A0006376F70017C701002326F7EA1395270062
:1046B0003305F50003248101131525008320C10172
:1046C00083244101938509003305A9008329C10092
:1046D00003290101130101026FC0CF8763060502A0
:1046E000130101FF232611002324810023229100BE
:1046F00097C70100938787E703A40700630AA40014
:10470000737004306F000000130500006780000024
:104710008327440563960700737004306F00000020
:104720008326C402032704059387F7FF232AF40492
:104730006384E600638E0700130500008320C10038
:1047400003248100832441001301010167800000DC
:104750009304440013850400EFC00F88032504056B
:1047600097C70100938707DF03A707009307A000FF
:10477000B387A7402326A402232CF4006376A70066
:1047800097C7010023A8A7DC93054001EF40003044
:1047900097C701009387C7EE3385A7009385040070
:1047A000EFB05FFB130510006FF05FF9737004301A
:1047B00097C701009387C7D983A7070063800702C3
:1047C00097C70100938787DA03A7070083A707002D
:1047D00083274704938717002322F704678000008C
:1047E00097C701009387C7D683A70700638C07028A
:1047F00097C70100938787D703A7070003274704BC
:104800006302070203A7070083A607008327470464
:104810009387F7FF2322F70483A7460463940700D6
:10482000736004306780000097C70100938707D446
:1048300003A6070083A6070003A707009307A000AD
:1048400083A6C60203258601B387D740232CF70031
:104850006780000097C70100938747D103A707002F
:10486000630A070083A6070003A74605130717007E
:1048700023AAE60403A5070067800000130101FDD9
:1048800023202103232611022324810223229102C3
:10489000232E3101130905007370043097C4010001
:1048A000938404CB83A7040017C40100130404CC31
:1048B000639E070A8327040083A78705639A07007E
:1048C000832704001307100023AEE704639A050E44
:1048D00083A70400638807008327040083A7470495
:1048E000639A07147370043083A704006394070667
:1048F0008327040003A587056308050063020904F4
:104900008327040023AC07048327040023AE070495
:1049100083A70400638807008327040083A7470454
:10492000639207068320C10203248102832441028B
:10493000032901028329C1011301010367800000DB
:1049400003270400832787059387F7FF232CF704A9
:104950006FF09FFB0327040083270400832747048D
:10496000938717002322F7046FF09FF803270400B2
:104970008327040083274704938717002322F70423
:104980006FF05FF3032704008326040083274704A6
:104990009387F7FF2322F70483A74604E39407F8DD
:1049A000736004308320C102032481028324410206
:1049B000032901028329C10113010103678000005B
:1049C000032504002326B10013054500EFB0DFE006
:1049D0008325C1009307F0FF6380F50897C70100A6
:1049E000938787B783A907000327040083A70700DD
:1049F000B389B9002322370163ECF90697C7010098
:104A0000938787B603A50700832504009385450097
:104A1000EFB05FD797C70100938747B283A707001E
:104A200063F6F90097C7010023AA37B1EFB05FB66C
:104A30006FF01FEA0327040083260400832747043E
:104A40009387F7FF2322F70483A74604E39C07E834
:104A5000736004306FF01FE98325040017C501005F
:104A6000130585D393854500EFB0DFCE6FF01FFCB3
:104A700097C70100938707AF03A5070083250400AC
:104A800093854500EFB01FD06FF05FFA130101FD71
:104A900023202103232E3101232611022324810206
:104AA00023229102232C410113890500930906005A
:104AB0007370043097C40100938484A983A7040011
:104AC00017C40100130484AA639C0714032704007D
:104AD000930720000327C7056304F7028327040018
:104AE0001345F5FF03A787053375E50023ACA7043D
:104AF000832704001307100023AEE704639A060A15
:104B000083A70400638807008327040083A7470462
:104B1000639407167370043083A70400639E07062E
:104B2000638809008327040083A7870523A0F90071
:104B30000327040093071000130500000327C7058F
:104B4000630EF700832704001349F9FF13051000D3
:104B500003A787053379E90023AC270583270400E1
:104B600023AE070483A7040063880700832704009B
:104B700083A747046392070C8320C10203248102A8
:104B800083244102032901028329C101032A8101EF
:104B9000130101036780000003270400832704003A
:104BA00083274704938717002322F7046FF05FF7EA
:104BB000032504002326D10013054500EFB0DFC113
:104BC0008326C1009307F0FF638AF60C97C70100A4
:104BD0009387879803AA07000327040083A7070089
:104BE000330ADA00232247016368FA0C97C70100F1
:104BF0009387879703A507008325040093854500C5
:104C0000EFB05FB897C701009387479383A707006A
:104C10006370FA0A97C7010023A247936F00400907
:104C20000327040083270400832747049387170082
:104C30002322F7046FF09FE9032704008326040072
:104C4000832747049387F7FF2322F70483A74604AB
:104C5000E39407F2736004308320C10203248102CD
:104C600083244102032901028329C101032A81010E
:104C7000130101036780000003270400832604005A
:104C8000832747049387F7FF2322F70483A746046B
:104C9000E39207E8736004306FF0DFE783250400D8
:104CA00017C50100130545AF93854500EFB09FAAD6
:104CB000EFB01F8E6FF0DFE497C701009387878AFC
:104CC00003A507008325040093854500EFB09FAB43
:104CD0006FF01FFE630A050C130101FF232611006C
:104CE00023248100232291002320210173700430AA
:104CF00097C401009384C48583A7040063960708C2
:104D0000638606008327850523A0F6009307060027
:104D1000930620000326C505232ED504138705001E
:104D2000130405006382D70A63F4F6089305300084
:104D30006388B700930540006396B700630CD610F4
:104D4000232CE40493071000630CF60813041000EE
:104D500083A70400638C070097C70100938707812E
:104D600083A7070083A74704639807061305040079
:104D70008320C10003248100832441000329010012
:104D8000130101016780000097B701009387077E38
:104D900003A7070083A7070083274704938717000B
:104DA0002322F7046FF0DFF5737004306F0000000A
:104DB00093061000E398D7F88327850533E7B700FB
:104DC000232CE5046FF01FF88327850593871700D0
:104DD000232CF5046FF01FF7EF3050616FF01FF9CF
:104DE0001309440013050900EFB01F9F97B7010096
:104DF000938747760325C40283A7070063F6A700BD
:104E000097B7010023A8A77493054001EF3010481D
:104E100097C701009387C7863385A70093050900CC
:104E2000EFB05F93832784026386070073700430BA
:104E30006F00000097B701009387477383A70700AF
:104E40000327C40283A7C702E3F2E7F0EFB04FF4F1
:104E50006FF0DFEF130400006FF09FEF63080508A9
:104E6000130101FE232C8100232A91002328210114
:104E7000232631012324410123225101232E110035
:104E800093090700138A060093040600138905009E
:104E900013040500EFB01F84930A050063060A009F
:104EA000832784052320FA000327C40593072000E5
:104EB000232EF4046380F40463FA97109306300001
:104EC0006388D400930640006396D400630CF70E09
:104ED000232C2405930710006312F70A832784020A
:104EE00063820702737004306F0000007370043037
:104EF0006F0000008327840593871700232CF40498
:104F00006FF05FFD97B701009387076383A70700E2
:104F10006390070A9304440013850400EFB0DF8B0D
:104F200097B70100938707630325C40283A707008F
:104F300063F6A70097B7010023AEA7609305400171
:104F4000EF30D03497B701009387877393850400BF
:104F50003385A700EFB01F8097B7010093870761E3
:104F600083A707000327C40283A7C70263F8E700EB
:104F7000638609009307100023A0F90013041000B2
:104F800013850A00EFB08FF4130504008320C101DC
:104F90000324810183244101032901018329C100E4
:104FA000032A8100832A4100130101026780000067
:104FB0009305840117B501001305857BEFB08FF9C8
:104FC0006FF09FF9130400006FF09FFB9307100030
:104FD000E392F4F08327840533E92701232C240589
:104FE0006FF05FEF630A050E130101FE232C8100B1
:104FF000232A91001304050023263101232E1100DA
:105000002328210193840500EFB0CFEC9307200003
:105010008326C405232EF404832784051307100078
:105020009309050093871700232CF4046396E60880
:105030008327840263860700737004306F000000CA
:1050400097B701009387474F83A70700639A070824
:105050001309440013050900EFB00FF897B70100DA
:105060009387474F0325C40283A7070063F6A70071
:1050700097B7010023A0A74E93054001EF30102100
:1050800097B701009387C75F930509003385A70091
:10509000EFB04FEC97B701009387474D83A7070008
:1050A0000327C40283A7C70263F8E70063860400EE
:1050B0009307100023A0F400032481018320C10181
:1050C0008324410103290101138509008329C100BB
:1050D000130101026FB08FDF737004306F000000A6
:1050E0009305840117B5010013058568EFB08FE6BD
:1050F0006FF05FFA930705006308050673700430CC
:1051000017B701001307C74483260700639E0602F2
:1051100003A6C70593062000130500006316D600FA
:1051200023AE07041305100083270700638C0700D4
:1051300097B701009387874303A707000327470416
:10514000631C07026780000097B601009386064241
:1051500003A6060083A6060083264604938616004F
:105160002322D6046FF0DFFA97B701009387074038
:1051700083A707006FF09FF803A7070083A6070027
:10518000832747049387F7FF2322F70483A7460466
:10519000E39A07FA7360043067800000130101FB93
:1051A0002322910423202105232C4103232A510388
:1051B0002328610323267103232611042324810459
:1051C000232E310323248103232291032320A103CF
:1051D00017B901001309893A17BB0100130B4B39AA
:1051E00097B401009384043997BA0100938ACA38AE
:1051F000130A1000930B90008327090003A70700F0
:105200006306071683A7C70083A90700EFD09FCEC8
:10521000EFD0DFCF83270B00130C05006368F50C7C
:1052200097B7010023A6A734130600006376352341
:1052300003A50400B3858941EFC05FCBEFD01FFF0A
:105240006306051603A5040093060000130600007C
:1052500093058100EFC0CFC9E30005FA83278100E1
:10526000E3C207FE8329010183A749016386070082
:1052700013854900EFB04FD6EFD05FC983270B00ED
:10528000130C05006362F50C8327810017B701003A
:105290002320872FE3E8FBFAB317FA0013F707215F
:1052A0006310072013F7770C6316072A93F707029A
:1052B000E38A07F813850900EF00504F6FF09FF85D
:1052C00083A7C70003A4C70083AC07009309440069
:1052D00013850900EFB04FD0832744021305040063
:1052E000E78007008327C4016386470D83270900F1
:1052F00003A70700E31607FC03A70A0097B60100FF
:1053000023A8862797B6010023A8F62697B70100A1
:1053100023A6E726EFD09FF16FF0DFF283A7C70047
:1053200003A4C70003AD0700930C440013850C00D1
:10533000EFB08FCA8327440213050400E7800700FB
:105340008327C401638C470B8327090003A7070049
:10535000E31607FC03A70A0097B6010023AEF62068
:1053600097B7010023ACE7206FF01FF2EFD09FB892
:10537000EFD0DFB983270B00130C0500E368F5F6C7
:1053800083A70A0003A504009309000003A60700F1
:10539000B385894117B70100232C871D13361600EA
:1053A000EFC0DFB4EFD09FE8E31E05E8EFB04F9EFB
:1053B0006FF05FE98327840193850900B387FC00C0
:1053C00063E2FC0883A7040063860702232A010026
:1053D000232C9101232E8100EFF08F9D03A5040063
:1053E000930600001306000093054101EFB00FF68D
:1053F000E31E05EE737004306F0000008327840104
:1054000093850C00B307FD006362FD0883A70400C9
:1054100063860702232A0100232CA101232E810089
:10542000EFF00F9903A50400930600001306000097
:1054300093054101EFB08FF1E31805F0737004306C
:105440006F000000032509002322F40023288400B4
:10545000EFB04FB36FF09FE9EFD05FDD8327090016
:1054600083A7C70003A4C700930C440013850C0056
:10547000EFB08FB68327C401638A470583274402B0
:1054800013050400E78007006FF0DFDB0325090048
:105490002322F40023288400EFB0CFAE6FF0DFEAC0
:1054A0008327C10023ACF9006382070AB387870111
:1054B00023A2F90023A83901938549006362FC08FF
:1054C00003A50A00EFB00FAC6FF0DFD7832784018C
:1054D000232884003387F9002322E400636AEC0464
:1054E000330C3C41636EFC0283A704006386070211
:1054F000232A0100232C3101232E8100EFF04F8B52
:1055000003A5040093060000130600009305410163
:10551000EFB0CFE3E31405F6737004306F000000C2
:1055200003A50A0093850C00EFB0CFA56FF01FF51F
:105530000325090093850C00EFB0CFA46FF01FF492
:1055400003250900EFB00FA46FF0DFCF73700430B4
:105550006F0000008327C10083A6890123A83901B9
:105560003387D70023A2E9006362EC06B307FC404F
:1055700063EAD70683A7490213850900E78007007D
:1055800083A7C901E39047CD83A689018327C10082
:1055900003A70400B387D70063060702232A01008C
:1055A000232CF100232E3101EFF08F8003A504009E
:1055B000930600001306000093054101EFB00FD9D8
:1055C000E31205C8737004306F0000006374FC00C0
:1055D000E372F7FA0325090093854900EFB08F9A2B
:1055E0006FF05FC603A50A0093854900EFB08F995D
:1055F0006FF05FC5130101FF2324810023261100F2
:10560000232291002320210117B40100130484F602
:10561000EFF0CF998327040063840704EFF04F9CD9
:1056200083270400638A0702930800001308000020
:1056300093070000130720009306000013060040A4
:1056400097B50100938585D717050000130545B56B
:10565000EFC01F9E63140506737004306F000000D6
:1056600017B901001309891413050900EFB00F8C55
:1056700097B401009384C41413850400EFB00F8B1A
:10568000130600009305C0001305400097B7010002
:1056900023A627EF97B7010023A097EEEFB0CFB670
:1056A00017B701002328A7EC6306050297B5010090
:1056B000938545D0EFC04FF06FF05FF68320C100B7
:1056C0000324810083244100032901001301010107
:1056D00067800000737004306F000000638A050A61
:1056E000130101FD232A5101930A05001305C0028D
:1056F000232481022322910223202103232E31011E
:10570000232C410123261102232861012326710144
:105710001309070093890600130A06009384050005
:10572000EF00C07013040500630C0502EFF00F8852
:1057300097B70100938707E483A70700638E0704E8
:10574000EFF00F8A1305440023205401232C94000A
:10575000232E44012320340323222403EFA01FFF20
:10576000130504008320C102032481028324410223
:10577000032901028329C101032A8101832A4101EE
:10578000032B0101832BC10013010103678000007B
:10579000737004306F00000097BB0100938B0B0106
:1057A00013850B00EFA09FF817BB0100130B4B01F3
:1057B00013050B00EFA09FF7130600009305C00030
:1057C0001305400097B7010023AA77DB97B70100C4
:1057D00023A467DBEFB04FA317B70100232CA7D892
:1057E000630A050097B501009385C5BCEFC0CFDC07
:1057F0006FF01FF5737004306F000000630E050634
:10580000130101FE232C8100232E1100232A910075
:1058100017B40100130404D68328040013080500FC
:105820001305000063800804930407002322B100DD
:10583000138706002324C10023260101930650008C
:1058400063C0B604EFE0DFD693072000630EF504D3
:105850000325040093060000130600009305410091
:10586000EFB0CFAE8320C101032481018324410125
:105870001301010267800000737004306F000000A4
:1058800093054100930600001306070013850800E6
:10589000EFB05FB88320C10103248101832441015B
:1058A0001301010267800000032504009306000035
:1058B0001386040093054100EFB04FA96FF09FFAE3
:1058C000630605000325050067800000737004303F
:1058D0006F00000063160500737004306F00000055
:1058E000130101FF23261100232481001304050066
:1058F000EFE0DFEB032544013334A000EFE05FEE7F
:10590000130504008320C100032481001301010159
:105910006780000063160500737004306F0000009C
:10592000130101FF23248100130405002326110025
:10593000EFE0DFE703240402EFE09FEA8320C100E9
:105940001305040003248100130101016780000096
:1059500063160500737004306F000000130101FF2F
:105960002324810023229100138405009304050061
:1059700023261100EFE09FE323A08402032481008B
:105980008320C10083244100130101016FE05FE522
:10599000130101FF1305C0012324810023261100F8
:1059A000EF00C0481304050063080500232005002C
:1059B00013054500EFA09FD7130504008320C10005
:1059C00003248100130101016780000063020502C6
:1059D000B70700FFB3F7F500638607007370043064
:1059E0006F000000639A0500737004306F000000C0
:1059F000737004306F000000130101FE232C81003E
:105A0000232821012326310123244101232251018E
:105A1000232E1100232A9100930907001389060001
:105A2000930A060013840500130A0500EFE05FB82F
:105A30006318050063860900737004306F0000006E
:105A4000EFD04FCB83240A00B3779400631209048C
:105A50006382070463880A009347F4FFB3F7970053
:105A60002320FA00EFD08FFC8320C10103248101A1
:105A70001385040003290101832441018329C10006
:105A8000032A8100832A410013010102678000007C
:105A9000E302F4FCE38809FCB335500193958501DA
:105AA00063060900B7070004B3E5F5001386090093
:105AB000B3E5850013054A00EFE0CFE1EFD00FF723
:105AC00063140500EFA0DFACEFE01FD6931765006D
:105AD0009309050063DA0700B70400019384F4FF1B
