:0200000480007A
:10000000B72F0000938F0F8073900F3015A8130047
:100010000000130000001300000013000000130094
:100020000000130000001300000013000000130084
:100030000000130000001300000013000000010086
:10004000970200009382020C73905230814001416C
:100050008141014281420143814301448144014580
:100060008145014681460147814701488148014950
:100070008149014A814A014B814B014C814C014D20
:10008000814D014E814E014F814F971102009381A6
:1000900061AE170502001305E52E979503009385C1
:1000A000E55E01461122170502001305E52B9705B1
:1000B00002009385E52B0146C52817A5030013050B
:1000C000255D97B503009385655C37B6ABAB13062A
:1000D000B6BAD92817B103001301815BEF40D01ED7
:1000E000860293D21200F512638802008242110147
:1000F0006F00001073002030824211017300203025
:10010000711116C0F3222034E3CC02FC82421101AB
:10011000130141F806C20AC40EC612C816CA1ACC88
:100120001ECE22D026D22AD42ED632D836DA3ADCC7
:100130003EDEC2C0C6C2CAC4CEC6D2C8D6CADACC97
:10014000DECEE2D0E6D2EAD4EED6F2D8F6DAFADCA7
:10015000FEDE73252034F32510340A8601A07310C7
:10016000153492402241B2414242D2426243F243AC
:10017000025492542255B2554256D2566257F25703
:10018000064896482649B649464AD64A664BF64B33
:10019000065C965C265DB65D465ED65E665FF65F83
:1001A0001301C1077300203010C16374B50011053D
:1001B000E5BF828000000000000000000000000099
:1001C000000000000000000000000000000000002F
:1001D000000000000000000000000000000000001F
:1001E000000000000000000000000000000000000F
:1001F000197106C00AC20EC412C616C81ACA1ECC8D
:1002000022CE26D02AD22ED432D636D83ADA3EDCC6
:1002100042DEC6C0CAC2CEC4D2C6D6C8DACADECC96
:10022000E2CEE6D0EAD2EED4F2D6F6D8FADAFEDCA6
:100230009702020083A2421323A02200F32210346B
:1002400096DEEF006030170102000321E111024148
:10025000F65273901234B72200009382028873A082
:10026000023082403242C2425243E24372448254DC
:100270001255A2553256C2565257E2577258864806
:100280001649A649364AC64A564BE64B764C865C1A
:10029000165DA65D365EC65E565FE65F0961730059
:1002A0002030970202009382E20D23A0120023A2C5
:1002B000220023A4320023A6420023A8520023AA2E
:1002C000620023AC720023AE820023A0920223A21C
:1002D000A20223A4B20223A6C20223A8D20223AA06
:1002E000E20223ACF20223AE020323A0120523A2F2
:1002F000220523A4320523A6420523A8520523AADA
:10030000620523AC720523AE820523A0920723A2C7
:10031000A20723A4B20723A6C20723A8D20723AAB1
:10032000E20723ACF207EF40E06E17010200032161
:10033000A1030241F65273901234B7220000938257
:10034000028873A0023082403242C2425243E243EA
:10035000724482541255A2553256C2565257E25731
:10036000725886481649A649364AC64A564BE64B45
:10037000764C865C165DA65D365EC65E565FE65FB1
:10038000096173002030970202009382A2FF83A0CC
:10039000020003A1420083A1820003A2C20083A243
:1003A000020103A3420183A3820103A4C20183A427
:1003B000020203A5420283A5820203A6C20283A60B
:1003C000020303A7420383A7820303A8C20383A8EF
:1003D000020403A9420483A9820403AAC20483AAD3
:1003E000020503AB420583AB820503ACC20583ACB7
:1003F000020603AD420683AD820603AEC20683AE9B
:10040000020703AFC20983AF820782807370043092
:10041000197106C00AC20EC412C616C81ACA1ECC6A
:1004200022CE26D02AD22ED432D636D83ADA3EDCA4
:1004300042DEC6C0CAC2CEC4D2C6D6C8DACADECC74
:10044000E2CEE6D0EAD2EED4F2D6F6D8FADAFEDC84
:100450009702020083A242F123A0220086DEEF1061
:10046000306217010200032121F00241F65273901D
:100470001234B72200009382028873A002308240B7
:100480003242C2425243E243724482541255A25550
:100490003256C2565257E257725886481649A649F4
:1004A000364AC64A564BE64B764C865C165DA65DD0
:1004B000365EC65E565FE65F0961730020309707BF
:1004C0000200938727EB9843FD576305F70073708D
:1004D000043001A07370043001A041112AC6B24754
:1004E000739047300100410182804111F327403071
:1004F0003EC673F04330B2473E85410182804111D0
:100500002AC62EC432C2B247F1173EC62247B247AE
:1005100098C3B247938787FA3EC61247B24798C33B
:10052000B247A1173EC68E873E87B24798C3B247EF
:10053000D1173EC6170700001307A7F8B24798C3A4
:10054000B2473E8541018280411106C6EF40004519
:10055000EF105036AA8799C3EF1090520100B240B5
:100560004101828041112AC6B24713878700B247F2
:10057000D8C3B2477D5798C7B24713878700B247A1
:10058000D8C7B24713878700B24798CBB24723A09A
:10059000070001004101828041112AC6B24723A809
:1005A000070001004101828001112AC62EC4B24712
:1005B000DC433ECEA2477247D8C3F2479847A247D2
:1005C00098C7F2479C472247D8C3F247224798C7AB
:1005D000A247324798CBB2479C4313871700B247D4
:1005E00098C301000561828001112AC62EC4A2476A
:1005F0009C433ECC6247FD576316F700B2479C4BC5
:100600003ECE31A8B247A1073ECE21A0F247DC433F
:100610003ECEF247DC439C436247E379F7FEF24764
:10062000D843A247D8C3A247DC43224798C7A24772
:10063000724798C7F2472247D8C3A247324798CBA0
:10064000B2479C4313871700B24798C30100056166
:10065000828001112AC6B2479C4B3ECEB247DC4392
:100660003247184798C7B2479C4732475843D8C3C8
:10067000F247DC4332476316F700B2479847F24728
:10068000D8C3B24723A80700F2479C431387F7FF5C
:10069000F24798C3F2479C433E8505618280797199
:1006A00006D622D42AC62EC4B2473ECEF24781E7F0
:1006B0007370043001A0EF20A078F2478043F24726
:1006C000D85FF247BC43BE853A85EF407073AA8776
:1006D0003307F400F247D8C3F24723AC0702F247CE
:1006E0009843F24798C7F2478043F247DC5F13878D
:1006F000F7FFF247BC43BE853A85EF407070AA878A
:100700003307F400F247D8C7F2477D57F8C3F247E2
:100710007D57B8C7A24799EFF2479C4B8DC7F24768
:10072000C1073E85EF1010622A878547631DF700D9
:10073000F13911A8F247C1073E852D35F24793875D
:1007400047023E850535EF20807285473E85B250D1
:10075000225445618280797106D62AC62EC4B2879A
:10076000A303F10002CCB24781E77370043001A00B
:10077000A24799E302CE01A8A2453245EF40506856
:10078000AA8785073ECEF247938747053E85EF301F
:10079000007E2ACAD24785CFA24789E7D24752476F
:1007A00098C331A0D24713874705D24798C3D24791
:1007B0003247D8DFD2472247B8C385455245C535B1
:1007C000D247034771002388E704D2473ECCE24773
:1007D00081E77370043001A0E2473E85B250456165
:1007E0008280797106D6AA87A307F1001305400518
:1007F000EF30E0772ACEF247B9CFF24723A20700C5
:10080000F24723A00700F24723A40700F24723A6DC
:100810000700F24723AC0702F2470547D8DFF2474B
:1008200023A00704F2477D57F8C3F2477D57B8C7A6
:10083000F2470347F1002388E704F247C1073E85EA
:100840001533F247938747023E85293B814601468F
:10085000814572453122F2473E85B2504561828022
:10086000797106D622D42AC6B2473ECCE24781E748
:100870007370043001A0E247C043EF20803EAA8796
:100880006313F402E247DC471387F7FFE247D8C758
:10089000E247DC4791E78146014681456245C92030
:1008A00085473ECE11A002CEF2473E85B25022547B
:1008B00045618280797106D622D42AC62EC4B247F9
:1008C0003ECCE24781E77370043001A0E247C043A9
:1008D000EF202039AA87631BF400E247DC47138727
:1008E0001700E247D8C785473ECE0DA08146224675
:1008F00081456245812B2ACE724785476318F700F0
:10090000E247DC4713871700E247D8C7F2473E8526
:10091000B250225445618280797106D62AC62EC40F
:10092000B24781E77370043001A02247B24763F5F4
:10093000E7007370043001A0094681453245213D2E
:100940002ACEF24781C7F247224798DFF24781E774
:100950007370043001A0F2473E85B2504561828039
:10096000397106DE2AC62EC432C236C002D6B2475C
:100970003ED4A25781E77370043001A0A24781E7FB
:10098000A257BC4399E3854711A0814781E7737063
:10099000043001A0024789476317F700A257D85FC8
:1009A00085476314F700854711A0814781E773707D
:1009B000043001A0EF20402CAA8799E3924799E3E5
:1009C000854711A0814781E77370043001A0EF20B3
:1009D0002047A257985FA257DC5F6366F700024783
:1009E0008947631EF7020246A2452255EF00007CAC
:1009F0002AD2A257DC5389CFA257938747023E855C
:100A0000EF1050342A8785476317F700013421A07F
:100A1000925791C3E53AEF20804585474DA0924714
:100A200089E7EF20C044814759A8B25799E77C086D
:100A30003E85EF10D04885473ED6EF204043EF106B
:100A4000A03BEF20E03FA257F843FD576315F700A6
:100A5000A25723A20704A257B847FD576315F70012
:100A6000A25723A40704EF20804058007C08BA85D1
:100A70003E85EF10D047AA878DEF2255EF00D012A8
:100A8000AA8795C3A257C1071247BA853E85EF10C2
:100A900050122255EF00B003EF10C037AA87E39839
:100AA00007F2AD322DB72255EF007002EF108036FD
:100AB00039BF2255EF00B001EF10C03581473E85A8
:100AC000F25021618280797106D62AC62EC432C2C4
:100AD00036C002CEB2473ECCE24781E773700430A5
:100AE00001A0A24781E7E247BC4399E3854711A0F3
:100AF000814781E77370043001A0EF206034E24742
:100B0000985FE247DC5F6379F7020246A2456245DF
:100B1000EF00C069E247DC5381CFE2479387470289
:100B20003E85EF1030222A8785476313F700F93896
:100B3000EF20E033854785A0924789E7EF202033F7
:100B4000814791A8F24799E71C083E85EF1030379E
:100B500085473ECEEF20A031EF20802E58001C08A4
:100B6000BA853E85EF10B038AA8799EF6245EF004D
:100B7000B003AA8791CFE247C1071247BA853E85E5
:100B8000EF103003613029A0EF20602E814721A0B3
:100B9000EF20E02D9DB73E85B250456182803971CE
:100BA00006DE2AC62EC432C236C002D6B2473ED4B2
:100BB000A25781E77370043001A0A24781E7A257D2
:100BC000BC4399E3854711A0814781E773700430E6
:100BD00001A0EF20E026A2579C5FB5CBA257DC47CF
:100BE0003ED2A2452255792D824795EFA2579C5FB0
:100BF0001387F7FFA25798DFA2579C4391E7EF2096
:100C0000602E2A87A257D8C3A2579C4B8DCFA257DC
:100C1000C1073E85EF1010132A8785476315F70239
:100C2000EFF0CFFE0DA0A2571257D8C7A257DC5342
:100C300099CBA257938747023E85EF10B010AA8741
:100C400099C3EFF0AFFCEF2080228547ADA8924713
:100C500089E7EF20C0218147BDA0B25799E77C0802
:100C60003E85EF10D02585473ED6EF204020EF206F
:100C7000201D58007C08BA853E85EF105027AA87B2
:100C800085EF2255E92DAA8785CFA2579C4391EB8A
:100C9000EF20001BA257DC433E85EF20E000EF2051
:100CA000001DA257938747021247BA853E85EF1071
:100CB0004070EFF0AFF529A0EF20601B814721A025
:100CC000EF20E01A39B73E85F250216182807971B8
:100CD00006D62AC62EC432C236C0B2473ECCE24740
:100CE00081E77370043001A0A24781E7E247BC436B
:100CF00099E3854711A0814781E77370043001A013
:100D0000024789476317F700E247D85F85476314B6
:100D1000F700854711A0814781E77370043001A077
:100D2000EFF0AFFCAA873ECAE247985FE247DC5F7C
:100D30006366F700024789476315F7040246A24538
:100D40006245AD21E247B847FD576313F702E2471A
:100D5000DC538DC7E247938747023E85EF10807EC4
:100D6000AA8789CF924799CB9247054798C339A064
:100D7000E247BC4713871700E247B8C785473ECE16
:100D800011A002CED2473E85EFF02FF5F2473E8507
:100D9000B25045618280797106D62AC62EC4B24708
:100DA0003ECCE24781E77370043001A0E247BC43C8
:100DB00081C77370043001A0E2479C4381E7E2479A
:100DC000DC4399E3854711A0814781E773700430C4
:100DD00001A0EFF08FF1AA873ECAE247985FE24791
:100DE000DC5F6377F704E2479C5F13871700E247F5
:100DF00098DFE247B847FD576313F702E247DC5339
:100E00008DC7E247938747023E85EF10A073AA87FC
:100E100089CFA24799CBA247054798C339A0E2479B
:100E2000BC4713871700E247B8C785473ECE11A0DD
:100E300002CED2473E85EFF04FEAF2473E85B250F0
:100E400045618280397106DE2AC62EC432C236C0A0
:100E500002D6B2473ED4A25781E77370043001A096
:100E6000A24781E7A257BC4399E3854711A0814778
:100E700081E77370043001A0EF101060AA8799E336
:100E8000924799E3854711A0814781E77370043049
:100E900001A0EF10F07AA2579C5FB5CBA257DC47B8
:100EA0003ED2A2452255F92E824795EFA2579C5F6C
:100EB0001387F7FFA25798DFA2579C4391E7EF20D3
:100EC00060022A87A257D8C3A2579C4B8DCFA25746
:100ED000C1073E85EF1000672A8785476315F70233
:100EE000EFF0CFD20DA0A2571257D8C7A257DC53AC
:100EF00099CBA257938747023E85EF10A064AA873B
:100F000099C3EFF0AFD0EF10907685475DA8924778
:100F100089E7EF10D07581476DA0B25799E77C083B
:100F20003E85EF10C07985473ED6EF105074EF0034
:100F3000B06CEF10F070A257F843FD576315F7003F
:100F4000A25723A20704A257B847FD576315F7001D
:100F5000A25723A40704EF10907158007C08BA85AB
:100F60003E85EF10C078AA87A1EB2255CD2EAA8727
:100F70009DCFA2579C4391EBEF10906CA257DC439E
:100F80003E85EF107052EF10906EA2579387470284
:100F90001247BA853E85EF10C04122550D2EEF0055
:100FA0007067AA87E39707EEEFF04FC6DDB52255CD
:100FB000392EEF003066F1BD2255112EEF009065FD
:100FC00081473E85F25021618280797106D62AC61A
:100FD0002EC432C2B2473ECCE24781E77370043080
:100FE00001A0A24781E7E247BC4399E3854711A0EE
:100FF000814781E77370043001A0EFF00FCFAA871B
:101000003ECAE2479C5FA1CBA2456245A52CE247C0
:101010009C5F1387F7FFE24798DFE247F843FD57ED
:101020006312F702E2479C4B85C7E247C1073E8542
:10103000EF104051AA8789CF924799CB9247054735
:1010400098C339A0E247FC4313871700E247F8C36F
:1010500085473ECE11A002CED2473E85EFF0EFC7C6
:10106000F2473E85B25045618280797106D62AC624
:101070002EC4B2473ECCE24781E77370043001A032
:10108000A24781E7E247BC4399E3854711A0814726
:1010900081E77370043001A0E247BC4381E77370BD
:1010A000043001A0EFF06FC4AA873ECAE2479C5FFC
:1010B00089CFE247DC473EC8A2456245E122E247CC
:1010C0004247D8C785473ECE11A002CED2473E85C3
:1010D000EFF0AFC0F2473E85B25045618280797132
:1010E00006D62AC6B24781E77370043001A0EF101C
:1010F0003055B2479C5F3ECEEF107057F2473E85A9
:10110000B25045618280797106D62AC6B2473ECE7A
:10111000F24781E77370043001A0EF107052F2477C
:10112000D85FF2479C5FB307F7403ECCEF103054D6
:10113000E2473E85B2504561828001112AC6B2471E
:1011400081E77370043001A0B2479C5F3ECEF24746
:101150003E8505618280797106D62AC6B2473ECEA9
:10116000F24781E77370043001A07245E5247245AF
:10117000EF20F0720100B2504561828041112AC611
:10118000B247FC473E854101828041112AC62EC4E8
:10119000B2472247F8C701004101828041112AC6A7
:1011A000B24783C707053E8541018280797106D623
:1011B0002AC62EC432C202CEB247BC4391EFB24718
:1011C0009C43D5E7B247DC433E85EF10903B2ACEE7
:1011D000B24723A2070061A8924785EFB24798471C
:1011E000B247BC433E86A2453A85EF20F079B2472C
:1011F0009847B247BC433E97B24798C7B247984713
:10120000B247DC436365F706B2479843B24798C7D5
:10121000B9A8B247D847B247BC433E86A2453A85F3
:10122000EF209076B247D847B247BC43B307F040AF
:101230003E97B247D8C7B247D847B2479C43637B73
:10124000F700B247D843B247BC43B307F0403E97DC
:10125000B247D8C712478947631BF700B2479C5F64
:1012600099C7B2479C5F1387F7FFB24798DFB24731
:101270009C5F13871700B24798DFF2473E85B25054
:1012800045618280011106CE2AC62EC4B247BC43F6
:101290009DCBB247D847B247BC433E97B247D8C769
:1012A000B247D847B247DC436366F700B24798437A
:1012B000B247D8C7B247D847B247BC433E86BA8583
:1012C0002245EF20706C0100F2400561828001111F
:1012D00006CE2AC6EF10D03625A0B247DC5395C7FC
:1012E000B247938747023E85EF10C025AA8799C36E
:1012F000EF104049B247BC471387F7FFB247B8C762
:10130000B247BC47E34BF0FC11A00100B2477D5748
:10131000B8C7EF10D035EF10B0321DA0B2479C4BCC
:101320008DC7B247C1073E85EF10C021AA8799C378
:10133000EF104045B247FC431387F7FFB247F8C3AD
:10134000B247FC43E34CF0FC11A00100B2477D57CB
:10135000F8C3EF10D0310100F2400561828079714D
:1013600006D62AC6EF10D02DB2479C5F81E785478D
:101370003ECE11A002CEEF10902FF2473E85B25024
:101380004561828001112AC6B24781E7737004303B
:1013900001A0B2479C5F81E785473ECE11A002CEF7
:1013A000F2473E8505618280797106D62AC6EF1024
:1013B0003029B247985FB247DC5F6315F700854775
:1013C0003ECE11A002CEEF10902AF2473E85B250D9
:1013D0004561828001112AC6B24781E773700430EB
:1013E00001A0B247985FB247DC5F6315F7008547FD
:1013F0003ECE11A002CEF2473E85056182800111EA
:101400002AC62EC402CE81A01787030013074724E3
:10141000F2478E07BA979C4385E7178703001307A7
:101420002723F2478E07BA97224798C317870300EE
:1014300013070722F2478E07BA973247D8C301A88D
:10144000F24785073ECE72479D47E3FFE7FA01006A
:101450000561828001112AC602CE0DA817870300FC
:101460001307071FF2478E07BA97DC433247631C06
:10147000F700178703001307A71DF2478E07BA97D7
:1014800023A0070001A8F24785073ECE72479D477B
:10149000E3F6E7FC010005618280797106D62AC671
:1014A0002EC432C2B2473ECEEF109019F247F84335
:1014B000FD576315F700F24723A20704F247B84728
:1014C000FD576315F700F24723A40704EF10301A05
:1014D000F2479C5F89EBF247938747021246A24589
:1014E0003E85EF00907E7245DD330100B2504561CC
:1014F0008280397106DE2ACE2ECC36C83AC63EC46A
:1015000042C246C0B287231BF100F24781E77370E5
:10151000043001A03247A54763F5E700737004303B
:1015200001A08357610192453E85EF1080512AD476
:10153000A257638F0712A257985B83566101B707C2
:101540000040FD17B6978A07BA973ED29257F19B93
:101550003ED292578D8B81C77370043001A08357A0
:1015600061013E8782463246E2452255EF10E02770
:101570004246F2451255EFE09FF82A87A25798C3DA
:10158000A24781C7A247225798C3EF10700B97F765
:101590000100938767FA9C431387170097F70100B0
:1015A000938787F998C397F701009387E7DB9C43FC
:1015B00095E397F70100938727DB225798C397F7A6
:1015C0000100938767F798438547631AF702EF1086
:1015D000C02C35A097F701009387C7F69C4385E39D
:1015E00097F70100938747D89C43DC5732476368DD
:1015F000F70097F70100938727D7225798C397F7EB
:101600000100938727F59C431387170097F7010084
:10161000938747F498C397F701009387A7F39843FC
:10162000A257B8C7A257D85797F70100938747F139
:101630009C4363F9E700A257D85797F701009387B7
:1016400027F098C3A257D857BA878A07BA978A074C
:1016500017F701001307C7DA3E97A2579107BE8517
:101660003A85EFE07FF485473ED6EF10500019A091
:10167000FD573ED6325785476313F70297F70100AF
:10168000938747EC9C4381CF97F701009387C7CDA1
:101690009C43DC57324763F4E700EFE03FD7B25793
:1016A0003E85F25021618280797106D62AC6EF10FC
:1016B0002079B24799E797F701009387E7CA9C43DF
:1016C00011A0B2473ECEF24791073E85EFE07FF88A
:1016D000F2479C5791C7F247E1073E85EFE07FF75D
:1016E000F2479107BE8517F50100130525E2EFE0EB
:1016F000BFEB97F701009387A7E29C43138717007E
:1017000097F701009387C7E198C397F70100938784
:1017100067E49C431387170097F70100938787E3DB
:1017200098C3EF10C07497F701009387A7E19C431B
:101730009DCB97F70100938727C39C437247631E95
:10174000F70097F70100938767E19C4381C77370A7
:10175000043001A0EFE09FCB39A0EF10606EEF10D6
:10176000A04BEF10C0700100B250456182807971CA
:1017700006D62AC62EC402CEB24781E77370043063
:1017800001A0A24781E77370043001A097F7010020
:101790009387C7DC9C4381C77370043001A0A92DD7
:1017A00097F70100938787D99C433ECCB2479C436F
:1017B0002247BA973ECAB2479C436247637EF7000E
:1017C000B2479C4352476374F7025247E24763F0C3
:1017D000E70285473ECE21A8B2479C435247636645
:1017E000F7005247E24763F4E70085473ECEB24731
:1017F000524798C3F24789CF97F701009387C7B63E
:101800009C4391073E85EFE0DFE45245EF10001B5B
:1018100011252AC8C24799E3EFE05FBF0100B2502B
:1018200045618280797106D62AC602CEB247A9C325
:1018300097F70100938787D29C4381C77370043068
:1018400001A05D2B97F70100938747CF9C43324758
:10185000BA973ECC97F70100938707B19C43910755
:101860003E85EFE01FDF6245EF10401565232ACE6D
:10187000F24799E3EFE09FB90100B25045618280E1
:10188000797106D62AC6B2473ECCE24781E773702B
:10189000043001A097F70100938707AD9C4362478E
:1018A0006314F70002CEBDA0EF108059E247DC4B75
:1018B0003ECAEF10C05B97F70100938767C39C4354
:1018C0005247630AF70097F701009387A7C29C432A
:1018D00052476315F70089473ECE2DA8524797F728
:1018E0000100938727C4631BF700E2479C5781E7F9
:1018F0008D473ECE05A089473ECE29A8524797F78F
:1019000001009387A7C06315F70091473ECE19A049
:1019100085473ECEF2473E85B2504561828079715F
:1019200006D62AC6EF10C051B24799E797F70100D3
:10193000938787A39C4311A0B2473ECEF247DC5762
:101940003ECCEF10C052E2473E85B25045618280E6
:10195000797106D62AC6EFE05FB9AA873ECEB247B4
:1019600099E797F70100938727A09C4311A0B247FE
:101970003ECCE247DC573ECAF2473E85EFE0FFB57A
:10198000D2473E85B25045618280797106D62AC61B
:101990002EC402CE2247A54763F5E70073700430DA
:1019A00001A02247A54763F4E700A5473EC4EF1016
:1019B0002049B24799E797F701009387E79A9C433C
:1019C00011A0B2473ECCE247BC4B3ECA5247A247A9
:1019D000630AF70E2247D24763F6E70297F7010042
:1019E000938787989C4362476308F70297F7010043
:1019F000938787979C43DC572247636FF70085479F
:101A00003ECE19A897F70100938707969C4362473B
:101A10006314F70085473ECEE247DC573EC8E247F5
:101A2000B84BE247DC576315F700E2472247D8D7A7
:101A3000E2472247B8CBE2479C4F63C707002947DC
:101A4000A2471D8FE24798CFE247D44B4247BA875F
:101A50008A07BA978A0717F701001307679ABA9798
:101A60006394F600854711A08147B9C7E247910703
:101A70003E85EFE01FBEE247D85797F701009387F6
:101A800027AC9C4363F9E700E247D85797F701007A
:101A9000938707AB98C3E247D857BA878A07BA97A4
:101AA0008A0717F701001307A7953E97E2479107AA
:101AB000BE853A85EFE05FAF724785476314F70054
:101AC000EFE0DF94EF10A03A0100B2504561828050
:101AD000797106D62AC6EF10A036B24799E797F774
:101AE0000100938767889C4311A0B2473ECEF2471E
:101AF00091073E85EFE0FFB5F2479C5791C7F2474B
:101B0000E1073E85EFE0FFB4F2479107BE8517F588
:101B10000100130525A1EFE03FA9EF10403597F72D
:101B20000100938767849C4372476319F70497F712
:101B30000100938727A19C4389CF97F701009387E2
:101B4000E7A19C4381C77370043001A0EFE01F8CB4
:101B500091A097F701009387E79C984397F70100BE
:101B60009387879D9C436319F70097E7010093874C
:101B7000A77F23A0070039A8212729A897F70100EC
:101B80009387479C9C4399C7EF10802BEF10C008A8
:101B9000EF10E02D0100B2504561828001112AC68C
:101BA00002CEB2473ECCB24781E77370043001A049
:101BB000E247D84B97F701009387C7966314F70065
:101BC000854711A0814795C3E247985797F70100D1
:101BD00093878792630BF700E2479C5799E3854709
:101BE00011A0814799C385473ECEF2473E850561E6
:101BF0008280797106D62AC6B2473ECEB24781E7C7
:101C00007370043001A0F247C9C797E701009387BA
:101C1000A7759C437247630EF706EF10602272456A
:101C2000B53F2A8785476314F706F24791073E853B
:101C3000EFE03FA2F247D85797F70100938747900C
:101C40009C4363F9E700F247D85797F70100938761
:101C5000278F98C3F247D857BA878A07BA978A0757
:101C600017E701001307C7793E97F2479107BE8532
:101C70003A85EFE07F93F247D85797E701009387C3
:101C8000A76E9C43DC576364F700EFE02FF8EF107A
:101C9000001E0100B25045618280797106D62AC6C5
:101CA00002CEB2473ECCB24781E77370043001A048
:101CB000EFE0BF83AA873ECA6245CD352A878547B4
:101CC0006314F70897F70100938747899C43A5E7BA
:101CD000E247D85797E70100938707699C43DC5791
:101CE0006364F70085473ECEE24791073E85EFE00B
:101CF0005F96E247D85797F70100938767849C4324
:101D000063F9E700E247D85797F7010093874783C5
:101D100098C3E247D857BA878A07BA978A0717E75E
:101D200001001307E76D3E97E2479107BE853A85AC
:101D3000EFE09F8711A8E247E107BE8517E50100A4
:101D40001305857BEFE05F86D2473E85EFE0EFF835
:101D5000F2473E85B25045618280011106CE81482E
:101D600001488147014781461306004097E501007D
:101D70009385452917150000130585A5EFF06FF72A
:101D80002AC6324785476315F700EF10C06D2AC693
:101D9000324785476319F7027370043097E70100F3
:101DA0009387877B7D5798C397E70100938787794F
:101DB000054798C397E701009387477823A007005A
:101DC000EFE02FCE31A0B24781E77370043001A05D
:101DD0000100F24005618280411106C67370043033
:101DE00097E701009387077623A00700EFE0AFD9BC
:101DF0000100B2404101828097E701009387077696
:101E00009C431387170097E701009387277598C3B2
:101E100001008280011106CE02C697E70100938778
:101E2000E7739C4381E77370043001A0EF10400119
:101E300097E70100938787729C431387F7FF97E723
:101E400001009387A77198C397E7010093870771F3
:101E50009C436390071097E701009387E76D9C43CD
:101E60006389070E59A097E701009387E768DC476D
:101E7000DC473EC4A247E1073E85EFE08FFDA24765
:101E800091073E85EFE0EFFCA247D85797E70100A6
:101E90009387076B9C4363F9E700A247D85797E7FE
:101EA00001009387E76998C3A247D857BA878A0782
:101EB000BA978A0717E70100130787543E97A2478E
:101EC0009107BE853A85EFE02FEEA247D85797E7F6
:101ED0000100938767499C43DC576368F70097E7E5
:101EE00001009387A766054798C397E7010093878A
:101EF000A7609C43ADFB97E701009387E7649C4391
:101F00008DCF35A0452AAA8799C797E70100938707
:101F1000E763054798C397E701009387E7629C430F
:101F20001387F7FF97E701009387076298C397E746
:101F30000100938767619C43F1F797E7010093875E
:101F4000E760984385476316F70085473EC6EFE094
:101F5000EFCBEF00D071B2473E85F2400561828041
:101F6000011106CEEF00D06D97E701009387075D62
:101F70009C433EC6EF00B06FB2473E85F24005611C
:101F80008280011106CEEFE04FD6AA873EC697E7C2
:101F900001009387A75A9C433EC4B2473E85EFE0B9
:101FA000CFD3A2473E85F2400561828097E70100CA
:101FB000938787589C433E858280797106D62AC6CE
:101FC0002EC432C202CEA9473ECC3D3597E7010070
:101FD000938787569C4322476368F70CE247FD17B7
:101FE0003ECCF24796073247B306F7006247BA87FE
:101FF0008A07BA978A0717E7010013076740BA975D
:102000000546BE853685EF00902A2A87F247BA97A3
:102010003ECEE247E1F7F247960732473E9797E711
:1020200001009387E74C9C430946BE853A85EF0043
:1020300010282A87F247BA973ECEF24796073247D2
:102040003E9797E701009387E74A9C430946BE8580
:102050003A85EF00D0252A87F247BA973ECEF2475D
:1020600096073247BA97114697E501009385054ACE
:102070003E85EF00D0232A87F247BA973ECEF2473B
:1020800096073247BA970D4697E501009385854933
:102090003E85EF00D0212A87F247BA973ECE92477D
:1020A00081C7924723A00700B533F2473E85B2505F
:1020B00045618280797106D602CE97E70100938749
:1020C000E7499C436395071897E701009387074703
:1020D0009C431387170097E701009387274698C30F
:1020E00097E70100938787459C433ECCE247B9EFD1
:1020F00097E701009387C73F9C439C4381C7737058
:10210000043001A097E701009387873E9C433ECAB5
:1021100097E701009387073E984397E7010093876D
:10212000273D98C397E701009387C73C524798C360
:1021300097E701009387C7419C431387170097E7F0
:1021400001009387E74098C3EF00102D97E7010047
:10215000938787409C4362476365F70C97E70100CC
:10216000938707399C439C4399E3854711A0814796
:1021700081CB97E701009387273E7D5798C355A0F1
:1021800097E701009387C7369C43DC47DC473EC88E
:10219000C247DC433EC66247B2476379F70097E720
:1021A00001009387673B324798C3A5A8C2479107B0
:1021B0003E85EFE00FCAC2479C5791C7C247E1076F
:1021C0003E85EFE00FC9C247D85797E701009387D4
:1021D00027379C4363F9E700C247D85797E70100C8
:1021E0009387073698C3C247D857BA878A07BA97E2
:1021F0008A0717E701001307A7203E97C2479107F8
:10220000BE853A85EFE04FBAC247D85797E701003D
:10221000938787159C43DC57E362F7F485473ECEEE
:1022200035BF97E70100938727149C43D85797E65B
:1022300001009386E61CBA878A07BA978A07B69781
:102240009843854763F1E70285473ECE29A897E783
:1022500001009387672F9C431387170097E70100BE
:102260009387872E98C397E701009387272E9C4377
:1022700099C385473ECEF2473E85B2504561828084
:10228000011106CE97E701009387472D9C4381CB30
:1022900097E701009387872B054798C339A297E7F3
:1022A00001009387A72A23A0070097E701009387DF
:1022B000A70B9C439C5B3EC6B7A7A5A59387575A1F
:1022C0003EC4B2479C4322476314F702B2479107CA
:1022D0009C432247631EF700B247A1079C43224755
:1022E0006318F700B247B1079C4322476308F7041D
:1022F00097E7010093874707984397E70100938783
:10230000A7069C4393874703BE853A85EF20B00A12
:1023100035A097E701009387A7229C4381E773705C
:10232000043001A097E70100938787219C4313871E
:10233000F7FF97E701009387A72098C397E701006D
:1023400093870720984397E601009386660BBA8728
:102350008A07BA978A07B6979C43C5DF97E70100BB
:102360009387071E9843BA878A07BA978A0717E7A1
:1023700001001307E708BA973EC29247DC43D843EF
:102380009247D8C39247D8439247A1076317F700F3
:102390009247DC43D8439247D8C39247DC43D8479F
:1023A00097E70100938747FC98C30100F24005615D
:1023B0008280797106D62AC62EC4B24781E773702F
:1023C000043001A097E70100938707FA9C43E107D7
:1023D000BE853245EFE04FA197E701009387C7F82C
:1023E0009C4391073E85EFE0CFA62247FD5763103F
:1023F000F70297E70100938727F79C439107BE8573
:1024000017E5010013050512EFE00F9A19A897E7E9
:1024100001009387A7129C432247BA973ECE72458C
:10242000712B0100B25045618280797106D62AC6AF
:102430002EC432C2B24781E77370043001A097E71F
:1024400001009387A7119C4381E77370043001A0BA
:1024500097E70100938747F19C43A2463707008026
:10246000558F98CF97E70100938707F09C43E107CA
:10247000BE853245EFE04F9397E701009387C7EEA3
:102480009C4391073E85EFE0CF9C1247FD576310B8
:10249000F70297E70100938727ED9C439107BE85DC
:1024A00017E5010013050508EFE00F9019A897E75D
:1024B00001009387A7089C431247BA973ECE724506
:1024C000F5290100B25045618280797106D62AC68D
:1024D0002EC432C2B24781E77370043001A097E77F
:1024E0000100938767E89C43E107BE853245EFE032
:1024F000AF8B97E70100938727E79C4391073E85C1
:10250000EFE02F95124785476310F70297E7010028
:10251000938787E59C439107BE8517E50100130566
:102520006500EFE06F8819A897E70100938707011E
:102530009C432247BA973ECE724549210100B250D2
:1025400045618280797106D62AC6B247DC47DC47EE
:102550003ECCE24781E77370043001A0E247E10717
:102560003E85EFE00F8F97E70100938727FF9C439D
:10257000A1EBE24791073E85EFE0AF8DE247D857E8
:1025800097E701009387C7FB9C4363F9E700E247A5
:10259000D85797E701009387A7FA98C3E247D8571F
:1025A000BA878A07BA978A0717E70100130747E532
:1025B0003E97E2479107BE853A85EFD0FFFE11A80E
:1025C000E247E107BE8517E501001305E5F2EFD00C
:1025D000BFFDE247D85797E701009387E7D89C43B0
:1025E000DC5763FBE70085473ECE97E70100938702
:1025F000E7F5054798C311A002CEF2473E85B250D9
:1026000045618280797106D62AC62EC497E70100FB
:102610009387C7F49C4381E77370043001A022477D
:10262000B70700805D8FB24798C3B247DC473ECC06
:10263000E24781E77370043001A03245EFE06F811B
:10264000E24791073E85EFE0CF80E247D85797E712
:1026500001009387E7EE9C4363F9E700E247D85710
:1026600097E701009387C7ED98C3E247D857BA8729
:102670008A07BA978A0717E70100130767D83E97BA
:10268000E2479107BE853A85EFD01FF2E247D8575F
:1026900097E70100938747CD9C43DC5763FBE70036
:1026A00085473ECE97E70100938747EA054798C3E1
:1026B00011A002CEF2473E85B250456182804111A1
:1026C0002AC6B24781E77370043001A097E7010082
:1026D000938707E89843B24798C397E70100938729
:1026E000E7E59843B247D8C3010041018280797180
:1026F00006D62AC62EC4B24781E77370043001A003
:10270000A24781E77370043001A01D2F97E70100F5
:102710009387C7E29C433ECCA2479843FD5763147E
:10272000F70002CE91A8B247984397E7010093873C
:1027300027E29C43630AF700B247DC4362476365C4
:10274000F70085473ECE0DA8B247DC4362471D8F98
:10275000A2479C436370F702A2479843B247D44311
:10276000E247B387F6403E97A24798C33245813F80
:1027700002CE19A085473ECEDD2DF2473E85B250F0
:102780004561828097E70100938747DC054798C33E
:102790000100828001112AC6B24799C7B2473ECCD8
:1027A000E247FC473ECE11A002CEF2473E850561CE
:1027B000828001112AC62EC4B24791C7B2473ECECD
:1027C000F2472247F8C7010005618280011106CE59
:1027D0002AC6852297E70100938787C298438547D9
:1027E000E3F9E7FEEFD09FC2EDB7397106DE2ACEDE
:1027F0002ECC32CA36C8BA872317F10002D625A0DC
:102800006247B257BA9703C70700F246B257B69766
:10281000238AE7026247B257BA9783C7070089CB7A
:10282000B25785073ED63257BD47E3FBE7FC11A000
:102830000100F247A38107045247A54763F4E7006C
:10284000A5473ECAF2475247D8D7F2475247B8CBBE
:10285000F24723AA0704F24791073E85EFD0DFD362
:10286000F247E1073E85EFD03FD3F247724798CB5E
:102870002947D2471D8FF24798CFF2477247D8D3E6
:10288000F24723A20704F24723AC0704F24723AE22
:1028900007040100F25021618280011106CE02C6B8
:1028A0000DA03247BA878A07BA978A0717E701004F
:1028B000130707B5BA973E85EFD0DFCAB247850741
:1028C0003EC63247A547E3FEE7FC17E501001305C6
:1028D000A5BFEFD03FC917E50100130525C0EFD014
:1028E0007FC817E50100130525C1EFD0BFC717E565
:1028F00001001305A5C1EFD0FFC617E501001305C0
:1029000065C2EFD03FC697E70100938767BE17E720
:102910000100130767BB98C397E70100938787BD42
:1029200017E70100130787BB98C30100F240056158
:102930008280011106CE8DA8EFF00FCC97E7010041
:102940009387C7BC9C4393B7170093F7F70F3EC616
:10295000EFF04FCCB247A9EBE52197E70100938751
:10296000E7BADC47DC473EC4A24791073E85EFD07B
:102970005FCE97E70100938727BC9C431387F7FF3F
:1029800097E70100938747BB98C397E701009387B8
:1029900027B99C431387F7FF97E70100938747B850
:1029A00098C3F1212245912C97E70100938747B7FF
:1029B0009C43D9F30100F24005618280011106CEEB
:1029C0002AC697E701009387279A9C433247D8C3CA
:1029D00097E70100938787B69C4332476372F702FB
:1029E00097E70100938707B1984397E70100938722
:1029F000A7979C439107BE853A85EFD0FFBE35A8C7
:102A000097E701009387C7AE984397E70100938744
:102A1000A7959C439107BE853A85EFD0FFBC97E709
:102A20000100938767B39C4332476378F70097E7C9
:102A30000100938767B2324798C30100F2400561F5
:102A40008280797106D6AA872EC42317F100A24787
:102A500089EB8357E1008A073E85EF104051AA8732
:102A600011A0A2473ECCE24785C313050006EF1034
:102A700000502ACEF24789C7F247624798DB31A05F
:102A80006245EF10C06111A002CEF24781CFF2473C
:102A9000985B8357E1008A073E869305500A3A8582
:102AA000EF104075F2473E85B25045618280397122
:102AB00006DE22DC2AC62EC432C202D6A2479C43BE
:102AC000638D070EA2473ED4A257DC43D843A257DA
:102AD000D8C3A257D843A257A1076317F700A2573C
:102AE000DC43D843A257D8C3A257DC43DC473ED2CD
:102AF000A2473ED08257DC43D8438257D8C382577F
:102B0000D8438257A1076317F7008257DC43D843A5
:102B10008257D8C38257DC43DC473ECEB257960774
:102B20003247BA97724798C3B25796073247BA9757
:102B3000724713074703D8C3B25796073247BA976D
:102B40007247384798C7B25796073247BA97124725
:102B5000D8C7B25796073247BA977247585798CB9B
:102B600012478D47631BF700F2479C5799C7B2572E
:102B700096073247BA970947D8C7B25796073247E0
:102B8000BA977247384BD8CBB25796073247BA97A5
:102B900023AC0700F247945BB257960732473304E1
:102BA000F70036850D20AA87231EF400B25785074B
:102BB0003ED672479257E31DF7F2B2573E85F25068
:102BC00062542161828001112AC602CE39A0B24727
:102BD00085073EC6F24785073ECEB24703C70700CA
:102BE0009307500AE305F7FEF24789833ECEF2478A
:102BF000C207C1833E8505618280011106CE2AC6C7
:102C0000B2479C5B3E85EF1080493245EF1020496A
:102C10000100F24005618280411197E7010093872E
:102C2000278D9C439C4399E3854711A0814781CB25
:102C300097E70100938747927D5798C305A097E7D0
:102C400001009387E78A9C43DC47DC473EC6B247D6
:102C5000D84397E701009387279098C3010041016B
:102C60008280411197D70100938707709C433EC62D
:102C7000B2473E8541018280411197E70100938769
:102C8000678C9C4381E785473EC619A897E70100FA
:102C90009387C78C9C4381E789473EC611A002C633
:102CA000B2473E8541018280797106D62AC6B24775
:102CB0003ECEB247F9C3F247D85797D70100938762
:102CC000A76A9C43DC57637AF70AF2479C4F63CCB0
:102CD000070097D70100938727699C43DC57294752
:102CE0001D8FF24798CFF247D44BF247D857BA8797
:102CF0008A07BA978A0717D7010013076770BA9730
:102D00006394F600854711A08147A5C3F247910758
:102D10003E85EFD01F9497D701009387E7649C43CB
:102D2000D857F247D8D7F247D85797E7010093878B
:102D300027819C4363F9E700F247D85797E70100E2
:102D40009387078098C3F247D857BA878A07BA97FC
:102D50008A0717D701001307A76A3E97F247910722
:102D6000BE853A85EFD05F8409A897D70100938785
:102D7000A75F9C43D857F247D8D70100B2504561AE
:102D80008280797106D62AC6B2473ECC02CEB247BF
:102D9000DDC397D701009387275D9C436247630596
:102DA000F7007370043001A0E247FC4B81E77370B9
:102DB000043001A0E247FC4B1387F7FFE247F8CB52
:102DC000E247D857E247BC4B6307F706E247FC4BA4
:102DD000BDE3E24791073E85EFD0BF87E247B84B9E
:102DE000E247D8D7E247DC5729471D8FE24798CF03
:102DF000E247D85797D70100938787749C4363F9BC
:102E0000E700E247D85797D701009387677398C3C5
:102E1000E247D857BA878A07BA978A0717D70100B7
:102E20001307075E3E97E2479107BE853A85EFD0CC
:102E3000AFF785473ECEF2473E85B250456182806E
:102E40007370043097D701009387C76F9C4391CF6D
:102E500097D70100938747519C43F8430507F8C370
:102E600097D70100938747509C430100828097D7F2
:102E700001009387276D9C438DCB97D701009387E3
:102E8000A74E9C43FC4395C397D701009387C74D3A
:102E90009C43F8437D17F8C397D701009387C74C2D
:102EA0009C43FC4399E3736004300100828041112C
:102EB00097D701009387474B9C439C4F3EC697D7BB
:102EC00001009387674A9C43D85797D7010093879F
:102ED000A7499C43A9463387E64098CFB2473E8531
:102EE0004101828097D70100938707489C4389CB93
:102EF00097D70100938747479C43F84B0507F8CBCA
:102F000097D70100938747469C433E85828079711D
:102F100006D62AC62EC42D3797D701009387C744FB
:102F20009C43BC4FADE397D701009387E7439C4395
:102F30000547F8CFA247A1CB97D701009387C74297
:102F40009C4391073E85EFD0CFF02247FD57631099
:102F5000F70297D70100938727419C439107BE85CD
:102F600017D501001305055CEFD00FE419A897D71A
:102F700001009387A75C9C432247BA973ECE7245D7
:102F8000353CEFD0AFC8E535653D97D70100938755
:102F9000A73D9C43BC4F3ECCE2479DC3B24789CB83
:102FA00097D701009387473C9C4323AC070409A8AB
:102FB00097D701009387473B9C43B84F7D17B8CF05
:102FC00097D701009387473A9C4323AE07044535C2
:102FD000E2473E85B25045618280797106D62AC6A5
:102FE0002EC432C236C0A93D97D701009387C73798
:102FF0009C43F84F8947630DF70697D701009387E5
:10300000A7369C43B44F32471347F7FF758FB8CFAD
:1030100097D70100938747359C430547F8CF8247F0
:10302000A1CB97D70100938727349C4391073E8516
:10303000EFD02FE20247FD576310F70297D7010048
:10304000938787329C439107BE8517D501001305EE
:10305000654DEFD06FD519A897D701009387074E1C
:103060009C430247BA973ECC6245893AEFD00FBAEB
:10307000FD3BF933924789CB97D701009387C72E41
:103080009C43B84F924798C397D701009387C72DA9
:103090009C43F84F85476314F70002CE31A897D7B9
:1030A00001009387672C9C43B44F22471347F7FFD7
:1030B000758FB8CF85473ECE97D701009387C72A33
:1030C0009C4323AE07046533F2473E85B250456109
:1030D0008280797106D62AC62EC432C236C0854790
:1030E0003ECEB24781E77370043001A0B2473ECCB8
:1030F000813B824789C7E247B84F824798C3E2477E
:10310000FC4F3ECAE2470947F8CF1247914763EEAA
:10311000E70492471397270097D70100938707EF9B
:10312000BA97984397D70100938747EEBA9782875B
:10313000E247B84FA2475D8FE247B8CF3DA0E247D4
:10314000BC4F13871700E247B8CF05A0E2472247DC
:10315000B8CF21A8524789476306F700E2472247C4
:10316000B8CF21A002CE11A0010052478547631AB3
:10317000F706E24791073E85EFD0AFCDE247D8573B
:1031800097D701009387C73B9C4363F9E700E24769
:10319000D85797D701009387A73A98C3E247D857E3
:1031A000BA878A07BA978A0717D7010013074725F6
:1031B0003E97E2479107BE853A85EFD0EFBEE247E2
:1031C0009C5781C77370043001A0E247D85797D746
:1031D0000100938767199C43DC5763F4E700EFD045
:1031E000EFA27131F2473E85B2504561828039715C
:1031F00006DE2ACE2ECC32CA36C83AC685473ED61F
:10320000F24781E77370043001A0F2473ED4EFD05B
:10321000CFADAA873ED2C24789C7A257B84FC2478F
:1032200098C3A257FC4F3ED0A2570947F8CF524748
:10323000914763EEE704D2471397270097D7010021
:10324000938707DEBA97984397D70100938747DDA6
:10325000BA978287A257B84FE2475D8FA257B8CF7F
:103260003DA0A257BC4F13871700A257B8CF05A0A7
:10327000A2576247B8CF21A8025789476306F700D3
:10328000A2576247B8CF21A002D611A00100025771
:103290008547631DF708A2579C5781C77370043098
:1032A00001A097D701009387672B9C43A1EBA257FE
:1032B00091073E85EFD0EFB9A257D85797D70100B5
:1032C000938707289C4363F9E700A257D85797D7FD
:1032D00001009387E72698C3A257D857BA878A0771
:1032E000BA978A0717D70100130787113E97A2578D
:1032F0009107BE853A85EFD02FAB11A8A257E10701
:10330000BE8517D501001305251FEFD0EFA9A257E1
:10331000D85797D70100938727059C43DC5763F75D
:10332000E700B24781C7B247054798C392573E8529
:10333000EFD0AF9AB2573E85F25021618280797109
:1033400006D62AC62EC4B24781E77370043001A0A6
:10335000B2473ECEEFD06F99AA873ECCF247FC4FE2
:103360003ECAF2470947F8CFF247BC4F1387170010
:10337000F247B8CF52478547631DF708F2479C577D
:1033800081C77370043001A097D701009387071D90
:103390009C43A1EBF24791073E85EFD08FABF247FC
:1033A000D85797D701009387A7199C4363F9E70083
:1033B000F247D85797D701009387871898C3F247E9
:1033C000D857BA878A07BA978A0717D70100130711
:1033D00027033E97F2479107BE853A85EFD0CF9CF1
:1033E00011A8F247E107BE8517D501001305C510E6
:1033F000EFD08F9BF247D85797D701009387C7F636
:103400009C43DC5763F7E700A24781C7A247054703
:1034100098C3E2473E85EFD04F8C0100B250456122
:103420008280797106D62AC6B2473ECCE24799E738
:1034300097D70100938747F39C4311A0E2473ECC06
:103440000134E247F84F89476318F700E24723AE9B
:10345000070485473ECE11A002CE113CF2473E85BF
:10346000B25045618280011106CE02C61D2B97D74E
:1034700001009387E7119C439DC381480148814720
:10348000094781461306004097D50100938585BA08
:10349000170500001305051BEFE0AF852AC6B247EC
:1034A00081E77370043001A0B2473E85F2400561A8
:1034B0008280397106DE2ACE2ECC32CA36C83AC690
:1034C000E24799E302D62DA81305C002EF00302A87
:1034D0002AD6B25795C7F121B257724798C3B2574F
:1034E000624798CFB2575247D8CFB257424798D386
:1034F000B2573247D8D3B25791073E85EFD0CF8924
:10350000E24781E77370043001A0B2573E85F25064
:1035100021618280397106DE2ACE2ECC32CA36C8AD
:103520003AC602D6F24781E77370043001A097D7FC
:1035300001009387E7059C43B5CBE2473ED0D247D5
:103540003ED2F2473ED46247954763C4E704EFF0AA
:10355000AFF22A8789476310F70297D70100938754
:1035600027039C43181081463246BA853E85EFD02A
:103570002FBF2AD625A897D70100938767019C43C0
:10358000181081460146BA853E85EFD06FBD2AD618
:1035900031A897D701009387A7FF9C431810814655
:1035A0004246BA853E85EFD08FF22AD6B2573E8585
:1035B000F2502161828001112AC6B2473ECEB24745
:1035C00081E77370043001A0F2479C433E8505619A
:1035D0008280797106D62AC62EC497D701009387B8
:1035E000A7FA9C43DC47DC473ECEF24791073E8575
:1035F000EFD02F86F247D84F8547631BF702F2477B
:10360000984FB247BA97B2462246BE857245B92254
:103610002A878547631EF700014781463246814568
:103620007245CD3D2ACCE24781E77370043001A09A
:10363000F247DC53724582970100B25045618280A7
:10364000797106D62AC63C083E8541282ACEE24733
:10365000BE85724519206922FDB7797106D62AC642
:103660002EC4EFE06FF93C083E8545282ACEE2479C
:10367000B9EFA24799EB3247F24763E8E700EFE082
:103680006FF9F2453245B137A9A0A24781CF97D74C
:1036900001009387A7EF9C439C4393B7170093F7D0
:1036A000F70F3EC497D70100938787EE94433247C4
:1036B000F247B307F7402246BE853685EFD0FFDDDF
:1036C000EFE04FF5AA8791E7EFC05FD419A0EFE0D4
:1036D0006FF40100B2504561828001112AC697D76C
:1036E0000100938767EA9C439C4393B7170093F7C5
:1036F000F70F3E87B24798C3B2479C4391EB97D7E9
:103700000100938767E89C43DC479C433ECE11A0B1
:1037100002CEF2473E8505618280797106D62AC6BF
:10372000EFE01F842ACE97D701009387A7E69C433A
:1037300072476377F700692AB247054798C321A00B
:10374000B24723A0070097D701009387A7E47247E9
:1037500098C3F2473E85B25045618280797106D6A2
:103760002AC62EC432C236C002CEB2472247D8C3C0
:10377000B247324798CB2247924763E8E7021247A5
:1037800082471D8FB2479C4F6365F70085473ECE49
:1037900099A097D70100938767DF9843B2479107B5
:1037A000BE853A85EFC05FE43DA01247824763794A
:1037B000F700224782476365F70085473ECE21A880
:1037C00097D70100938747DC9843B2479107BE859E
:1037D0003A85EFC07FE1F2473E85B2504561828075
:1037E000797106D6D9A0A24763C0070CC2473ECE66
:1037F000F247DC4B91C7F24791073E85EFC07FE56A
:103800005C003E85193F2ACCA2472547636FF70825
:103810001397270097D7010093874782BA97984359
:1038200097D7010093878781BA9782873247F247FB
:103830009C4FBA973247BA866246BE857245393F79
:103840002A8785476313F706F247DC537245829750
:10385000F247D84F8547631AF7043247F2479C4F27
:10386000BA97014781463E868145724565312ACA2D
:10387000D24785EF7370043001A03247F24798CFEA
:10388000F2479C4F81E77370043001A0F247984FD4
:10389000E247BA97E2466246BE857245C13531A01D
:1038A0007245EF00C07F11A0010097D701009387F8
:1038B00027CE9C43380081460146BA853E85EFD02D
:1038C0006FD8AA87E39107F20100B2504561828068
:1038D000797106D671A097D701009387E7CA9C43F8
:1038E000DC479C433ECC97D701009387E7C99C43B4
:1038F000DC47DC473ECAD24791073E85EFC07FD503
:10390000D247DC5352458297D247D84F8547631937
:10391000F704D2479C4F6247BA973EC84247E247F6
:1039200063F4E702D2474247D8C3D247524798CB05
:1039300097D70100938747C59843D2479107BE8523
:103940003A85EFC07FCA29A8014781466246814572
:103950005245C9362AC6B24781E77370043001A0C8
:1039600097D70100938747C29C439C43ADF797D7F5
:103970000100938767C19C433ECE97D70100938790
:10398000E7C0984397D70100938707C098C397D79C
:1039900001009387A7BF724798C30100B2504561E9
:1039A0008280411106C6EFF0AFC997D70100938717
:1039B00027BE9C43C9E717D50100130565BAEFC0C0
:1039C0007FBA17D501001305E5BAEFC0BFB997D785
:1039D0000100938767BB17D70100130767B898C327
:1039E00097D70100938787BA17D70100130787B8C5
:1039F00098C30146B1451145EFC0FFD52A8797D737
:103A000001009387E7B898C397D70100938747B819
:103A10009C4381E77370043001A097D7010093871E
:103A200027B79C4389CF97D70100938767B69C43FC
:103A300097C50100938505633E85EFD05F9CEFF04D
:103A40000FC30100B24041018280797106D62AC6B7
:103A5000B2473ECEB24781E77370043001A0EFF069
:103A60002FBEF247DC4BB337F00093F7F70F3ECC95
:103A7000EFF0EFBFE2473E85B25045618280797139
:103A800006D62AC6B2473ECEB24781E773700430ED
:103A900001A0EFF0EFBAF2479C533ECCEFF02FBD00
:103AA000E2473E85B25045618280797106D62AC6CA
:103AB0002EC4B2473ECEB24781E77370043001A0F6
:103AC000EFF00FB8F247224798D3EFF04FBA01005A
:103AD000B25045618280011106CE714549292AC63E
:103AE000B24789CBB24723A00700B24791073E8572
:103AF000EFC05FA7B2473E85F24005618280397111
:103B000006DE2AC62EC432C236C0B2473ED402D226
:103B10001247B70700FFF98F81C77370043001A007
:103B2000924781E77370043001A0EFF0EF94AA8709
:103B300099E3824799E3854711A0814781E7737034
:103B4000043001A0EFE04FABA2579C433ED0A2450A
:103B5000324585240257A2475D8F9247F98F12475D
:103B60006310F7020257A247D98F3ED6A257984357
:103B7000924793C7F7FF7D8FA25798C302C025A035
:103B8000824799CFA257938647001247B70700058F
:103B9000D98F0246BE853685EFE03F8902D621A047
:103BA000A2579C433ED6EFE0EFA62ACE8247B1CB88
:103BB000F24799E3EFC09F85EFF06FAF2AD63257F7
:103BC000B7070002F98F85EBEFF08FA7A2579C4350
:103BD0003ED632579247F98F1247631AF700A25721
:103BE0009843924793C7F7FF7D8FA25798C3EFF092
:103BF0000FA885473ED23257B7070001FD17F98F4E
:103C00003ED6B2573E85F250216182805D7186C6F4
:103C10002ACE2ECC32CA36C83AC6F2473EDA02DC89
:103C200002D8F24781E77370043001A06247B707FA
:103C300000FFF98F81C77370043001A0E24781E76C
:103C40007370043001A0EFF02F83AA8799E3B24785
:103C500099E3854711A0814781E77370043001A083
:103C6000EFE08F99D2579C433ED64246E24532550B
:103C700075242AD4A25799CFB2573EDE02C6D24746
:103C8000A9CBD2579843E24793C7F7FF7D8FD2570E
:103C900098C381A0B24781E7B2573EDE1DA8D24744
:103CA00091C76257B7070001D98F3EDCC24791C761
:103CB0006257B7070004D98F3EDCD257938647007E
:103CC0006247E257D98F3246BE853685EFE0EFF581
:103CD00002DEEFE02F942AD2B247B9CB925799E394
:103CE000EFC0CFF2EFF0AF9C2ADE7257B7070002A9
:103CF000F98F8DEBEFF0CF94D2579C433EDE4246D6
:103D0000E2457255212CAA8799CBD24789CBD2574D
:103D10009843E24793C7F7FF7D8FD25798C3EFF0E0
:103D20000F9502D87257B7070001FD17F98F3EDED5
:103D3000F2573E85B64061618280797106D62AC607
:103D40002EC4B2473ECEB24781E77370043001A063
:103D50002247B70700FFF98F81C77370043001A0B5
:103D6000EFF00F8EF2479C433ECCF2479843A247B8
:103D700093C7F7FF7D8FF24798C3EFF04F8FE2476D
:103D80003E85B25045618280797106D62AC6B24717
:103D90003ECEEFC08FF5AA873ECCF2479C433ECA89
:103DA000E2473E85EFC06FF3D2473E85B250456192
:103DB00082805D7186C62AC62EC402DCB2473ED818
:103DC00002DAB24781E77370043001A02247B707D7
:103DD00000FFF98F81C77370043001A0C2579107AB
:103DE0003ED6B257A1073ED4EFE00F81B257DC4771
:103DF0003EDEC2579843A2475D8FC25798C3BDA805
:103E0000F257DC433ED2F2579C433ED002DA0257CF
:103E1000B70700FFF98F3ECE0257B7070001FD1725
:103E2000F98F3ED07247B7070004F98F89EBC2576C
:103E300098438257F98F89CF85473EDA11A8C25738
:103E400098438257F98F02576314F70085473EDA8B
:103E5000D2579DC37247B7070001F98F89C76257D0
:103E60008257D98F3EDCC2579843B7070002D98FDB
:103E7000BE857255EFE00FF992573EDE7257A2579A
:103E8000E310F7F8C2579843E25793C7F7FF7D8FC7
:103E9000C25798C3EFD01FF8C2579C433E85B64027
:103EA00061618280797106D62AC6B2473ECEF2475A
:103EB00091073ECCEFD05FF40DA0E247D847E24730
:103EC000A1076315F7007370043001A0E247DC47D7
:103ED000B70500023E85EFE0EFF2E2479C43F1FFB9
:103EE0007245752AEFD01FF30100B2504561828000
:103EF000011106CE2AC62EC4A24532455D3D010001
:103F0000F24005618280011106CE2AC62EC4A24568
:103F1000324525350100F2400561828001112AC633
:103F20002EC432C202CE924781EB3247A247F98FAC
:103F300081CF85473ECE09A83247A247F98F224755
:103F40006314F70085473ECEF2473E8505618280C7
:103F500001112AC6B2473ECCB24799E302CE21A056
:103F6000E2479C4F3ECEF2473E8505618280397123
:103F700006DE2AC602D2EFD03FE8975703009387A8
:103F8000A7629C4381EB5522975703009387C76133
:103F9000054798C3B24789CFA1473E87B247BA9732
:103FA0003EC6B2478D8B89C7B247F19B91073EC68B
:103FB000B247F9CB3247E567ED1763E7E70C975750
:103FC00003009387675D3ED4975703009387C75CD0
:103FD0009C433ED631A0B2573ED4B2579C433ED606
:103FE000B257DC43324763F5E700B2579C43E5F72D
:103FF0003257975703009387A75A6307F708A257CA
:104000009C432147BA973ED2B2579843A25798C3D0
:10401000B257D843B247B307F74021470607637842
:10402000F7043257B247BA973ECEB257D843B24799
:104030001D8FF247D8C3B2573247D8C3F247DC438B
:104040003ECC97570300938727553ED021A0825737
:104050009C433ED082579C43DC436247E3E9E7FE42
:1040600082579843F24798C38257724798C397C7BD
:1040700001009387A7309843B257DC431D8F97C741
:1040800001009387A72F98C3EFD0DFD8925799E309
:10409000EF00D03192573E85F250216182807971D4
:1040A00006D62AC6B2473ECCB247BDC3A147B30726
:1040B000F0406247BA973ECCE2473ECAEFD0DFD32A
:1040C000D247DC433EC8975703009387E74C3ECE68
:1040D00021A0F2479C433ECEF2479C43DC4342473B
:1040E000E3E9E7FEF2479843D24798C3F2475247C5
:1040F00098C3D247D84397C70100938727289C438A
:104100003E9797C701009387672798C3EFD09FD04A
:104110000100B2504561828097C70100938707264E
:104120009C433E85828001008280411197C7010037
:104130009387C746F19B3EC6975703009387C745B1
:10414000324798C3975703009387074523A2070078
:10415000975703009387C74465677117D8C397576C
:1041600003009387E74323A00700B2473EC4A2475A
:1041700065677117D8C3A247175703001307474253
:1041800098C301004101828001112AC62EC432C2A7
:10419000A2473ECEB2473ECC3247A247D98F8D8B45
:1041A000A1E319A8F2479843E24798C3E247910771
:1041B0003ECCF24791073ECE9247F5173247BA9769
:1041C0006247E361F7FE29A87247930717003ECEC6
:1041D000E2479386170036CC034707002380E700A9
:1041E00032479247BA976247E360F7FEB2473E858F
:1041F0000561828001112AC62EC432C2324792471D
:10420000D98F8D8B9DEFA24793F7F70F3ECAD24708
:10421000A2075247D98F3ECAD247C2075247D98F09
:104220003ECAB2473ECE39A0F247138747003ACE86
:10423000524798C332479247BA977247E366F7FEF0
:104240001DA0B2473ECC11A8E247138717003ACC15
:1042500022471377F70F2380E70032479247BA9738
:104260006247E363F7FEB2473E8505618280011134
:104270002AC6B2473ECE21A0F24785073ECEF2477E
:1042800083C70700F5FB7247B247B307F7403E8587
:104290000561828001112AC62EC4B2471387170018
:1042A0003AC683C70700A30FF100A2471387170080
:1042B0003AC483C70700230FF1008347F10199C770
:1042C0000347F1018347E101E309F7FC0347F101EB
:1042D0008347E101B307F7403E8505618280011104
:1042E0002AC62EC4B2473ECE0100224793071700CC
:1042F0003EC4F2479386170036CE0347070023805B
:10430000E70083C70700F5F3B2473E850561828069
:1043100001112AC602CE02CC21A0B24785073EC6B3
:10432000B24703C7070093070002E308F7FEB2474E
:1043300003C707009307D0026309F700B24703C71A
:1043400007009307B0026311F704B24783C7070061
:10435000938737FD93B7170093F7F70F3ECCB2471B
:1043600085073EC615A07247BA878A07BA9786079F
:104370003ECEB247138717003AC683C7070093871C
:1043800007FD7247BA973ECEB24783C70700E1FFE9
:10439000E24789C7F247B307F04011A0F2473E85D4
:1043A0000561828001112AC69757030093878721F0
:1043B0009C4393861700175703001307A72014C3C5
:1043C00032471377F70F975603009386A623B697C5
:1043D0002380E7003247A947630BF7009757030094
:1043E0009387471E9843930700046315F704975774
:1043F0000300938727213ECE05A8F24713871700B5
:104400003ACE03C70700B70710F0938707F098C3A9
:10441000975703009387071B9C431387F7FF975712
:1044200003009387271A98C3975703009387871928
:104430009C43E1F781473E85056182804D712326CB
:104440001114232481142322911423202115232EB7
:104450003113232C4113232A51132ACE2ECC32C8D8
:1044600036CA3AC63EC442C223260112B2473E8A29
:10447000814AC24752485286D6863E85C285EF00A1
:104480003057AA872E883E86C2868327C11213879B
:1044900017002326E11232878A07141AB69723AE33
:1044A000E7EEB2473E848144D247268763E8E702BD
:1044B000D24726876396E700C247228763E0E70278
:1044C000B2473E8981494A86CE864245D245EF00B1
:1044D000F00EAA872E883EC842CA49BF010029A013
:1044E000F247E24512458297A2471387F7FF3AC485
:1044F0000327C112E346F7FE25A88327C1128A07C6
:10450000181ABA9703A7C7EF8327C1128A07141A8C
:10451000B69783A6C7EFA54763F5D7009307700545
:1045200019A093070003BA977247E2453E850297A8
:104530008327C1121387F7FF2326E112E34FF0FA16
:1045400001008320C114032481148324411403290E
:1045500001148329C113032A8113832A4113716132
:10456000828041112AC62EC4A2460547635ED70049
:10457000B2479C439D07E19B93868700324714C353
:1045800003A847009C4335A0224719CB3247184364
:1045900013064700B24690C21843BA87014811A8D3
:1045A0003247184313064700B24690C21843BA87F1
:1045B00001483E85C2854101828041112AC62EC430
:1045C000A2460547635ED700B2479C439D07E19B27
:1045D00093868700324714C303A847009C4305A86D
:1045E000224701CF3247184313064700B24690C214
:1045F0001843BA877D873A8819A8324718431306AB
:104600004700B24690C21843BA877D873A883E85F4
:10461000C28541018280397106DE22DC26DA2AC693
:104620002EC432C236C011A86306042492478507FF
:104630003EC2B247A24522858297924783C70700B0
:104640003E8493075002E311F4FE924785073EC271
:1046500092473EC893070002A30BF100FD573ECEE0
:10466000FD573ECC02D09247138717003AC283C74A
:1046700007003E849307D4FD130750056363F71EBC
:104680001397270097C701009387C79EBA9798434F
:1046900097C701009387079EBA9782879307D00236
:1046A000A30BF100C9B793070003A30BF10065BF8B
:1046B00002CC6247BA878A07BA978607A297938780
:1046C00007FD3ECC924783C707003E849307F00264
:1046D00063D687029307900363C2870292478507D8
:1046E0003EC2C1BF8247138747003AC09C433ECCBD
:1046F00039A0F247E3D907F602CEB5B70100F24779
:10470000E3D307F6E2473ECEFD573ECCA9BF825722
:1047100085073ED089BF8247138747003AC09C4334
:104720003247A2453E850297A9A2824713874700D8
:104730003AC0844389E497C4010093842493F247E8
:104740006356F004034771019307D0026300F70436
:10475000E247BE85268589252A87F247998F3ECE76
:1047600011A8834771013247A2453E850297F2475F
:10477000FD173ECEF247E346F0FE09A8B247A24538
:10478000228582978504F247FD173ECE83C7040039
:104790003E841DC0E247E3C307FEE247FD173ECC5F
:1047A000E247E3DD07FC09A8B247A2451305000272
:1047B0008297F247FD173ECEF247E347F0FE55A839
:1047C0008A8782553E85D53BAA872E883ED442D61D
:1047D000A2573258C28763D90702B247A2451305D0
:1047E000D0028297A255325681470148B386B7401E
:1047F000368533B5A7003307C840B307A7403E87C7
:10480000B6873A883ED442D6A9473ED21DA8A947CA
:104810003ED215A0A1473ED239A885473ED0B24727
:10482000A245130500038297B247A24513058007EE
:104830008297C1473ED28A8782553E851D332AD44E
:104840002ED61257834771013E88F2472256B25640
:10485000A2453245E53631A8B247A2452285829766
:1048600009A8B247A245130550028297C2473EC22B
:104870000100E1B30100F2506254D2542161828000
:1048800041112AC6B70710F0938707F2324798C341
:1048900001A05D7106D62AC62EDA32DC36DEBAC039
:1048A000BEC2C2C4C6C69C0891173ECEF247BE86A1
:1048B0003246814517050000130505AFA93B814726
:1048C0003E85B2506161828001112AC62EC41EC28B
:1048D000A2473ECEF2479C4332471377F70F23801F
:1048E000E700F2479C4313871700F24798C3010083
:1048F000056182801D7106DE2AC62EC4B2C4B6C60A
:10490000BAC8BECAC2CCC6CE9C103ED25C084C0807
:1049100017060000130686FB7D779346F7FF0565B3
:10492000130505803388A5003378E8001368783BC9
:1049300023A007013295698F13677733D8C333F704
:10494000D5009315470137870300130737394D8F7B
:1049500098C73377D600931647013707030013072C
:104960007706558FD8C70F100000B2473ED69C106F
:10497000A1173ED422575C083E857C00BA862246A9
:10498000BE855139B24723800700B2473E87B257F0
:10499000B307F7403E85F25025618280411137050B
:1049A00010F0130545F408412AC6370510F0130529
:1049B00005F408412AC4370510F0130545F40841F1
:1049C000B248E39EA8FC32452A83814313170300B3
:1049D00081462245AA850146B3E7B6003368C70081
:1049E000370710F0130587F48565938505FA0146AE
:1049F000B386B700B688B3B8F8003307C800B387EA
:104A0000E8003E87B6873A881CC1232205010100D1
:104A100041018280411106C651379307000873A0F7
:104A200047300100B24041018280011106CE2AC602
:104A300017B5010013058579EFF0BFE50100F240DD
:104A400005618280011106CE2AC617B50100130543
:104A50006578EFF01FE40100F24005618280797112
:104A600006D62AC602CE29A00100F24785073ECE0F
:104A70007247856793877738E3D8E7FE17B501005B
:104A80001305C575EFF0FFE0F1BF411106C6014502
:104A90000D2A0100B24041018280011106CE02C6FA
:104AA000552C2A878547630CF70017B501001305BD
:104AB0006573EFF01FDEB24793E727003EC6B247AB
:104AC0003E85F24005618280011106CE02C6753F27
:104AD0001707000013076704814605469305400643
:104AE00017B501001305C571EFE0BF9C2AC6B24798
:104AF00099CBEFD0EFC6AA87014781463E86854510
:104B00003245EFE03FA102C4EFD02FA581473E859B
:104B1000F24005618280797106D62AC697C70100E6
:104B20009387C7849C431387470697C701009387E1
:104B3000E78398C397C70100938787839C431387B4
:104B4000470697C701009387A78298C397C70100BC
:104B50009387C78198439307F07C63D3E70497C793
:104B600001009387A7809C431387078397B70100B1
:104B70009387C77F98C315372ACEF24799EB97B72B
:104B800001009387E77E984385679387F77663DB19
:104B9000E700F2473E85EFF0BFCEEFD0EFA321A0B4
:104BA000010011A00100B250456182807370043091
:104BB00001A00100828041112AC62EC47370043006
:104BC00001A0011106CE2AC6014689452945EFB04C
:104BD0009FB82A8797570300938747A798C397578B
:104BE00003009387A7A69C4397B5010093850562B0
:104BF0003E85EFC0DF8081480148814732479756A4
:104C000003009386A6A41306004097B50100938580
:104C1000E560170500001305850BEFC09F8D8148E7
:104C200001488147324797560300938626A2130610
:104C3000004097B501009385E55E17050000130558
:104C40004501EFC01F8B0100F24005618280797140
:104C500006D62AC6231B010002CE02CCB1A8B24759
:104C60009C431307610181460146BA853E85EFB03A
:104C70009FE52A8785476305F70085473ECE15A83F
:104C8000F2478DE3EFE0CF9B975703009387C79BD5
:104C90009C4313871700975703009387E79A98C39D
:104CA000EFE0EF9C835761018507C207C183231B97
:104CB000F100E24785073ECC62478947E3D1E7FA36
:104CC0001305800CEFC01FB649BF797106D62AC6FE
:104CD000231F010002CC9DA0B2479C431307610132
:104CE00081460146BA853E85EFB07FEB2A8785472E
:104CF0006316F704835761010357E1016309F70065
:104D000085473ECC83576101231FF1001DA0E24778
:104D10008DE3EFE0EF92975703009387A7929C43B0
:104D200013871700975703009387C79198C3EFE045
:104D30000F948357E1018507231FF100B2479C437D
:104D40003E85EFC0CFB9AA87C1FB1305400BEFC06A
:104D50007FADEDB74111975703009387A78E9C4312
:104D600099C7975703009387278E9C4399E302C600
:104D700019A085473EC6975703009387A78C23A0A9
:104D80000700975703009387278C23A00700B2479B
:104D90003E85410182800000B305B5009307050000
:104DA0006386B70003C70700631607003385A74073
:104DB00067800000938717006FF09FFE93870500C0
:104DC000130806009388060013030500639606285F
:104DD000370702801307872263F6C50EB706010066
:104DE0006378D60C9306F00FB3B6C60093963600E0
:104DF000B358D6003307170103470700B306D7009F
:104E0000130700023307D740630C0700B397E7008E
:104E1000B356D5003318E600B3E5F6003313E500CA
:104E200013550801B3D7A50213160801135606013E
:104E30009356030133F7A502B305F60213170701D2
:104E4000B366D7001387070063FEB600B38606017A
:104E50001387F7FF63E8060163F6B6001387E7FFE1
:104E6000B3860601B386B640B3F7A6021313030157
:104E700013530301B3D6A6029397070133E36700E8
:104E8000B305D60213850600637CB30033036800C4
:104E90001385F6FF636603016374B3001385E6FFB1
:104EA000131707013367A700930500006F00400E3A
:104EB000B708000193060001E36C16F39306800126
:104EC0006FF01FF3631606009306100033D8C60276
:104ED000B70601006372D80C9306F00F63F4060165
:104EE00093088000B35618013307D70083460700A4
:104EF00013070002B38616013307D7406318070A69
:104F0000B387074193051000135608019318080151
:104F100093D808019356030133F7C702B3D7C702EA
:104F200013170701B366D7003385F802138707000C
:104F300063FEA600B38606011387F7FF63E8060148
:104F400063F6A6001387E7FFB3860601B386A64083
:104F5000B3F7C6021313030113530301B3D6C602FA
:104F60009397070133E36700B388D80213850600DF
:104F7000637C1301330368001385F6FF6366030146
:104F8000637413011385E6FF131707013367A70046
:104F90001305070067800000B706000193080001B1
:104FA000E362D8F4930880016FF0DFF33318E80070
:104FB000B3D5D7003313E500B356D5001355080118
:104FC000B397E70033F7A502B3E8F600931708019B
:104FD00093D7070113D60801B3D5A502131707010C
:104FE0003367C700B386B70213860500637ED70018
:104FF000330707011386F5FF636807016376D7005F
:105000001386E5FF33070701B306D74033F7A6023F
:105010009398080193D80801B3D6A6021317070185
:10502000B385D702B36717011387060063FEB70085
:10503000B38707011387F6FF63E8070163F6B7003C
:105040001387E6FFB3870701B387B74093150601BF
:10505000B3E5E5006FF05FEB63E6D51837070100B5
:1050600063F4E6041308F00F3337D8001317370042
:105070003708028013088822B3D5E600B3850501FE
:1050800003C80500930500023308E800B385054115
:105090006396050213071000E3ECF6EE3335C50006
:1050A000134715006FF0DFEEB7050001130700018D
:1050B000E3E0B6FC130780016FF09FFB3357060156
:1050C000B396B600B366D70093DE060133D7070167
:1050D000B378D703B397B700335805013363F800AB
:1050E0009397060193D70701135803013316B600AF
:1050F0003357D7039398080133E80801338FE70249
:10510000130E0700637EE8013308D800130EF7FF83
:105110006368D8006376E801130EE7FF3308D80010
:105120003308E841B378D8033358D803939808017B
:10513000B38E07039317030193D70701B3E7F80072
:105140001307080063FED701B387D7001307F8FFE2
:1051500063E8D70063F6D7011307E8FFB387D700EA
:10516000131E0E01B387D741B70E01003367EE005F
:105170001388FEFF33730701935807013378060144
:1051800013560601330E03033388080393560E01AA
:105190003303C30233030301B3866600B388C80236
:1051A00063F40601B388D80113D60601B3081601CB
:1051B00063E61703E39A17CFB70701009387F7FF5A
:1051C000B3F6F60093960601337EFE003315B50064
:1051D000B386C60193050000E37CD5DA1307F7FF19
:1051E0006FF09FCC93050000130700006FF05FDAAB
:1051F000930806001387060093070500138805002F
:10520000639C0622B70602809386862263FCC50C47
:1052100037030100637E660A1303F00F6374C30053
:10522000130780003353E600B386660003CE060002
:1052300013030002330EEE003303C341630C03007B
:10524000B3956500335EC501B31866003368BE00D0
:10525000B317650013D608013377C8021395080108
:105260001355050193D607013358C80213170701D8
:10527000B366D7003308050363FA0601B386160147
:1052800063E6160163F40601B3861601B386064190
:1052900033F7C6029397070193D70701B3D6C60227
:1052A000B306D50213150701B367F50063FAD700FB
:1052B000B387170163E6170163F4D700B3871701BB
:1052C000B387D74033D5670093050000678000009F
:1052D0003703000113070001E36666F4130780013A
:1052E0006FF05FF46316060013061000B358160340
:1052F0003706010063F2C80A1306F00F6374160143
:105300001307800033D6E800B386C60003CE06003C
:1053100013030002330EEE003303C3416318030886
:10532000B385154113D708011395080113550501DD
:1053300013D60701B3F6E502B3D5E502939606014D
:10534000B3E6C600B305B50263FAB600B38616012C
:1053500063E6160163F4B600B3861601B385B64062
:10536000B3F6E5029397070193D70701B3D5E5029A
:10537000B305B50213950601B367F50063FAB700EC
:10538000B387170163E6170163F4B700B38717010A
:10539000B387B7406FF01FF3370600011307000112
:1053A000E3E2C8F6130780016FF0DFF5B3986800F9
:1053B00033D7C501B3176500335EC50113D50801A6
:1053C000B376A702B3956500336EBE0093950801CE
:1053D00093D5050113560E013357A7029396060184
:1053E000B3E6C6003387E50263FAE600B38616012A
:1053F00063E6160163F4E600B38616013386E640E1
:10540000B376A602131E0E01135E0E013356A602DA
:10541000939606013386C502B3E5C60163FAC5005B
:10542000B385150163E6150163F4C500B385150165
:10543000B385C5406FF01FEFE3EAD5E837070100F9
:1054400063FCE604930EF00F33B7DE00131737004A
:1054500037030280B3D8E60013038322B3886800C1
:1054600083CE0800130E0002B38EEE00330EDE4131
:10547000631E0E0263E4B600636AC500B307C5404D
:10548000B385D5403335F5003388A5401385070033
:10549000930508006FF09FE3B708000113070001B0
:1054A000E3E816FB130780016FF09FFA3357D6012C
:1054B000B396C601B366D700B357D50133D7D5012C
:1054C000B395C501B3E7B70093D506013373B702AF
:1054D000139F0601135F0F0193D807013316C6010E
:1054E0003315C5013357B70213130301B368130112
:1054F0003308EF021303070063FE0801B388D800E6
:105500001303F7FF63E8D80063F608011303E7FF0E
:10551000B388D800B3880841B3FFB802B3D8B80243
:10552000939F0F01B3051F03139F0701135F0F0123
:1055300033EFEF0113870800637EBF00330FDF00F6
:105540001387F8FF6368DF006376BF001387E8FF07
:10555000330FDF0013130301B70801003363E300C7
:105560009387F8FF13580601330FBF40B375F3005C
:1055700013530301B377F6003387F502B307F30241
:10558000B385050333030303B385F50013580701FF
:105590003308B8006374F80033031301B707010040
:1055A0009387F7FF935508013378F8001318080123
:1055B0003377F700B38565003307E8006366BF0003
:1055C000631EBF00637CE5003306C7403337C70066
:1055D000B385D540B385E540130706003307E540A2
:1055E0003335E500B305BF40B385A540B397D5017A
:1055F0003357C70133E5E700B3D5C5016FF01FCDC1
:10560000130605001305000093F6150063840600D9
:105610003305C50093D5150013161600E39605FE55
:04562000678000009F
:02000004800278
:1000000049444C45000000006031FEFF2831FEFFEE
:100010003631FEFF4431FEFF4C31FEFF7032FEFFF1
:100020003832FEFF4632FEFF5432FEFF5C32FEFFE6
:10003000546D722053766300F437FEFFF437FEFFF1
:10004000F437FEFF7238FEFF4238FEFF6838FEFFCD
:10005000F437FEFFF437FEFF7238FEFF4238FEFF32
:10006000546D725100000000286E756C6C29000000
:10007000F645FEFFF247FEFFE847FEFFF247FEFFB0
:10008000F247FEFFF247FEFFF247FEFF7446FEFF17
:10009000F247FEFFF247FEFF2C46FEFF8246FEFFC0
:1000A000F247FEFF3646FEFF4046FEFF4046FEFF9B
:1000B0004046FEFF4046FEFF4046FEFF4046FEFF34
:1000C0004046FEFF4046FEFF4046FEFFF247FEFF71
:1000D000F247FEFFF247FEFFF247FEFFF247FEFF48
:1000E000F247FEFFF247FEFFF247FEFFF247FEFF38
:1000F000F247FEFFF247FEFFF247FEFFF247FEFF28
:10010000F247FEFFF247FEFFF247FEFFF247FEFF17
:10011000F247FEFFF247FEFFF247FEFFF247FEFF07
:10012000F247FEFFF247FEFFF247FEFFF247FEFFF7
:10013000F247FEFFF247FEFFF247FEFFF247FEFFE7
:10014000F247FEFFF247FEFFF247FEFFF247FEFFD7
:10015000F247FEFFF247FEFFF247FEFFF247FEFFC7
:10016000F247FEFFF247FEFFF247FEFFF247FEFFB7
:10017000A646FEFF5047FEFFF247FEFFF247FEFF96
:10018000F247FEFFF247FEFFF247FEFFF247FEFF97
:10019000F247FEFF9E46FEFFF247FEFFF247FEFFDC
:1001A000A447FEFFAA47FEFFF247FEFFF247FEFF0D
:1001B000BA46FEFFF247FEFF9E47FEFFF247FEFFF4
:1001C000F247FEFFC247FEFF6D69616F750A0000CE
:1001D0006D69616F75320A0068756E6772790A0021
:1001E0004572726F7220696E20416C74506F6C6C36
:1001F00051207461736B73200D0A000043686563BE
:100200006B54696D65720000416C74506F6C6C5179
:10021000756575650000000051436F6E734E4200B6
:100220005150726F644E4200000102020303030347
:100230000404040404040404050505050505050576
:100240000505050505050505060606060606060656
:10025000060606060606060606060606060606063E
:100260000606060606060606070707070707070726
:10027000070707070707070707070707070707070E
:1002800007070707070707070707070707070707FE
:1002900007070707070707070707070707070707EE
:1002A00007070707070707070808080808080808D6
:1002B00008080808080808080808080808080808BE
:1002C00008080808080808080808080808080808AE
:1002D000080808080808080808080808080808089E
:1002E000080808080808080808080808080808088E
:1002F000080808080808080808080808080808087E
:10030000080808080808080808080808080808086D
:10031000080808080808080808080808080808085D
:08032000080808080808080895
:100328001000000000000000017A5200017C010169
:100338001B0D02001000000018000000784AFEFFA4
:100348003404000000000000100000002C00000031
:0C035800984EFEFF1004000000000000A2
:10037000AAAAAAAA08000000FC8F01000900000038
:040000058000004037
:00000001FF
