:0200000480007A
:10000000B72F0000938F0F8073900F306F00400365
:100010001300000013000000130000001300000094
:100020001300000013000000130000001300000084
:100030001300000013000000130000001300000074
:100040009702000093824211739052309300000097
:10005000130100009301000013020000930200004E
:100060001303000093030000130400009304000036
:10007000130500009305000013060000930600001E
:100080001307000093070000130800009308000006
:100090001309000093090000130A0000930A0000EE
:1000A000130B0000930B0000130C0000930C0000D6
:1000B000130D0000930D0000130E0000930E0000BE
:1000C000130F0000930F000097110200938181A885
:1000D000170502001305052B979503009385056608
:1000E00013060000EF00001A17050200130585250E
:1000F000970502009385C52513060000EF008018C0
:1001000017A503001305C56397B503009385056321
:1001100037B6ABAB1306B6BAEF00C01617B1030083
:1001200013010162EF7010699392120093D21200D2
:100130009382D2FF638A02008322010013014100EF
:100140006F0000177300203083220100130141006B
:10015000730020301301C1FF23205100F32220340B
:10016000E3C402FC8322010013014100130141F8A2
:1001700023221100232421002326310023284100BB
:10018000232A5100232C6100232E71002320810299
:10019000232291022324A1022326B1022328C10293
:1001A000232AD102232CE102232EF1022320010570
:1001B0002322110523242105232631052328410567
:1001C000232A5105232C6105232E71052320810745
:1001D000232291072324A1072326B1072328C1073F
:1001E000232AD107232CE107232EF107732520347E
:1001F000F3251034130601006F000000731015344E
:1002000083204100032181008321C10003220101D9
:1002100083224101032381018323C10103240102BD
:1002200083244102032581028325C10203260103A1
:1002300083264103032781038327C1030328010485
:1002400083284104032981048329C104032A010569
:10025000832A4105032B8105832BC105032C01064D
:10026000832C4106032D8106832DC106032E010731
:10027000832E4107032F8107832FC1071301C10775
:10028000730020302320C5006376B50013054500B8
:100290006FF05FFF678000000000000000000000BA
:1002A000000000000000000000000000000000004E
:1002B000130101F8232011002322210023243100FF
:1002C0002326410023285100232A6100232C71009A
:1002D000232E8100232091022322A1022324B10294
:1002E0002326C1022328D102232AE102232CF10272
:1002F000232E010323201105232221052324310568
:100300002326410523285105232A6105232C710545
:10031000232E8105232091072322A1072324B1073F
:100320002326C1072328D107232AE107232CF1071D
:100330009702020083A2420123A02200F32210347C
:10034000232E5106EF008046170102000321C1FF52
:10035000032101008322C10773901234B7220000E9
:100360009382028873A00230832001000322C1001F
:100370008322010103234101832381010324C1015D
:100380008324010203254102832581020326C10241
:100390008326010303274103832781030328C10325
:1003A000832801040329410483298104032AC10409
:1003B000832A0105032B4105832B8105032CC105ED
:1003C000832C0106032D4106832D8106032EC106D1
:1003D000832E0107032F4107832F81071301010893
:1003E00073002030970202009382C2F923A012000A
:1003F00023A2220023A4320023A6420023A85200F5
:1004000023AA620023AC720023AE820023A09202D2
:1004100023A2A20223A4B20223A6C20223A8D202CC
:1004200023AAE20223ACF20223AE020323A01205A8
:1004300023A2220523A4320523A6420523A85205A0
:1004400023AA620523AC720523AE820523A092077E
:1004500023A2A20723A4B20723A6C20723A8D20778
:1004600023AAE20723ACF207EF7010231701020062
:10047000032181ED032101008322C107739012340F
:10048000B72200009382028873A00230832001000B
:100490000322C1008322010103234101832381013F
:1004A0000324C10183240102032541028325810223
:1004B0000326C10283260103032741038327810307
:1004C0000328C103832801040329410483298104EB
:1004D000032AC104832A0105032B4105832B8105CF
:1004E000032CC105832C0106032D4106832D8106B3
:1004F000032EC106832E0107032F4107832F810797
:10050000130101087300203097020200938282E7F2
:1005100083A0020003A1420083A1820003A2C200C3
:1005200083A2020103A3420183A3820103A4C201A7
:1005300083A4020203A5420283A5820203A6C2028B
:1005400083A6020303A7420383A7820303A8C2036F
:1005500083A8020403A9420483A9820403AAC20453
:1005600083AA020503AB420583AB820503ACC20537
:1005700083AC020603AD420683AD820603AEC2061B
:1005800083AE020703AFC20983AF82076780000012
:1005900073700430130101F823201100232221007D
:1005A000232431002326410023285100232A6100FF
:1005B000232C7100232E8100232091022322A102EB
:1005C0002324B1022326C1022328D102232AE102D7
:1005D000232CF102232E01032320110523222105C0
:1005E000232431052326410523285105232A6105AB
:1005F000232C7105232E8105232091072322A10797
:100600002324B1072326C1072328D107232AE10782
:10061000232CF1079702020083A202D323A0220019
:10062000232E1106EF30D008170102000321C1D19B
:10063000032101008322C10773901234B722000006
:100640009382028873A00230832001000322C1003C
:100650008322010103234101832381010324C1017A
:100660008324010203254102832581020326C1025E
:100670008326010303274103832781030328C10342
:10068000832801040329410483298104032AC10426
:10069000832A0105032B4105832B8105032CC1050A
:1006A000832C0106032D4106832D8106032EC106EE
:1006B000832E0107032F4107832F810713010108B0
:1006C00073002030970702009387C7C803A707006D
:1006D0009307F0FF6306F700737004306F000000AB
:1006E000737004306F000000130101FF2326A10086
:1006F0008327C100739047301300000013010101EC
:1007000067800000130101FFF32740302326F1002A
:1007100073F043308327C1001385070013010101E3
:1007200067800000130101FF2326A1002324B100EC
:100730002322C1008327C1009387C7FF2326F1002E
:10074000032781008327C10023A0E7008327C1007E
:10075000938787FA2326F100032741008327C100EE
:1007600023A0E7008327C100938787FE2326F1009B
:1007700093870100138707008327C10023A0E700A8
:100780008327C100938747FF2326F1001707000046
:10079000130787F38327C10023A0E7008327C10045
:1007A000138507001301010167800000130101FF99
:1007B00023261100EF70C063EF3000469307050059
:1007C00063840700EF30C06E130000008320C10077
:1007D0001301010167800000130101FD23261102AE
:1007E0002326A1002324B1002322C1001305800386
:1007F000EF60C05A232CA100832781016382071276
:1008000097070200938707B483A70700639C07003C
:1008100097070200938707B30327810123A0E7000E
:10082000EF00405E032781009307100063F6E700A6
:10083000930710002324F10083278101239A0702E4
:10084000832781010327810023A6E70283278101F3
:100850000327410023A8E702832781010327C10062
:1008600023A0E700832781019387470013850700B2
:10087000EF00C071832781019387870113850700EB
:10088000EF00C070832781010327810123A8E700BF
:10089000832781010327810123A2E7021307200098
:1008A000832781003307F7408327810123ACE700CA
:1008B0008327810103A7C70297070200938707BB1D
:1008C00083A7070063FCE7008327810103A7C70212
:1008D00097070200938787B923A0E7008327810148
:1008E00003A7C7029307070093972700B387E70082
:1008F0009397270017070200130787B03387E70095
:10090000832781019387470093850700130507001C
:10091000EF00806993071000232EF1006F00C000E4
:100920009307F0FF232EF1008327C10113850700F1
:100930008320C1021301010367800000130101FD40
:10094000232611022326A1002324B10097070200C9
:10095000938707B283A707000327C100B307F700F7
:10096000232EF100970702009387C79D83A70700F6
:100970009387470013850700EF0040779707020031
:100980009387479C83A707000327C10123A2E700A1
:10099000970702009387C7AD83A707000327C1010C
:1009A0006378F702970702009387C7AA03A7070097
:1009B000970702009387079983A70700938747004B
:1009C0009385070013050700EF00C0656F00C002A4
:1009D000970702009387C7A703A70700970702009E
:1009E0009387479683A7070093874700938507005F
:1009F00013050700EF00006383278100638007026F
:100A0000970702009387079483A7070093878701BE
:100A10009385070003258100EF00C06013000000EC
:100A20008320C1021301010367800000130101FE4E
:100A3000232E11006F00400A7370043097070200E4
:100A4000938787A183A7C70083A7C7002326F10048
:100A50008327C1009387870113850700EF00006992
:100A6000736004308327C100938747001385070014
:100A7000EF00C0678327C10003A7C70297070200E2
:100A80009387C79E83A7070063FCE7008327C10005
:100A900003A7C702970702009387479D23A0E7009B
:100AA0008327C10003A7C702930707009397270076
:100AB000B387E700939727001707020013074794AF
:100AC0003387E7008327C10093874700938507009A
:100AD00013050700EF00404D970702009387C79763
:100AE00083A70700E39A07F4130000008320C101E5
:100AF0001301010267800000130101FE232E110083
:100B0000EF20906E130705009707020093878796E2
:100B100083A707003307F740970702009387C7951D
:100B200023A0E7006F008016970702009387479481
:100B300083A707001387170097070200938747933F
:100B400023A0E700970702009387079383A7070076
:100B50001387F7FF970702009387079223A0E70008
:100B6000970702009387C79083A707006396071033
:100B7000970702009387C78D83A707002326F100FC
:100B8000970702009387078D03A7070097070200C6
:100B90009387078C23A0E700970702009387878B32
:100BA0000327C10023A0E7006F00000D9707020094
:100BB0009387078A83A7070083A7C70083A7C70077
:100BC0002324F1008327810003A747009707020031
:100BD0009387078A83A7070063F4E7006F00000B81
:100BE00073700430832781009387470013850700C3
:100BF000EF00C04F8327810083A78702638A070025
:100C0000832781009387870113850700EF00004E3B
:100C1000736004308327810003A7C702970702008F
:100C20009387C78483A7070063FCE70083278100BD
:100C300003A7C702970702009387478323A0E70013
:100C40008327810003A7C702930707009397270014
:100C5000B387E7009397270017F701001307477A38
:100C60003387E70083278100938747009385070038
:100C700013050700EF00403397F701009387477D86
:100C800083A7070083A70700E39207F297F7010005
:100C90009387877E83A70700E39807E897F701000B
:100CA0009387077D03A7070097F701009387877C49
:100CB00023A0E700130000008320C10113010102FB
:100CC00067800000130101FE232E1100EFF01FD6F4
:100CD000EFF09FE26F00000397F701009387077919
:100CE00083A707006388071097F7010093870778A9
:100CF00083A707001387F7FF97F70100938707770C
:100D000023A0E70097F701009387477603A7070022
:100D100097F601009386C66E930707009397270006
:100D2000B387E70093972700B387F60083A70700F0
:100D3000E38407FA97F701009387477303A7070037
:100D40009307070093972700B387E700939727003F
:100D500017F701001307C76AB387E7002326F100DE
:100D60008327C10083A7470003A747008327C1004B
:100D700023A2E7008327C10003A747008327C10000
:100D800093878700631CF7008327C10083A7470070
:100D900003A747008327C10023A2E7008327C100E0
:100DA00083A7470003A7C70097F7010093878759D8
:100DB00023A0E70097F701009387C75883A7070090
:100DC00083A6070097F701009387C75703A707007B
:100DD00097F701009387075783A7070083A70703A7
:100DE0009385070013050700E78006001300000045
:100DF0006F008000130000008320C1011301010275
:100E000067800000130101FE232E1100232601003C
:100E10006F0080030327C100930707009397270003
:100E2000B387E7009397270017F701001307475D83
:100E3000B387E70013850700EF00C00F8327C100C9
:100E4000938717002326F1000327C10093071000A2
:100E5000E3F2E7FC17F501001305055DEF00800DD7
:100E600017F501001305855DEF00C00C17F50100B3
:100E70001305855EEF00000C97F701009387475D2F
:100E800017F701001307475A23A0E70097F701005F
:100E90009387475C17F701001307475A23A0E70021
:100EA000130000008320C1011301010267800000CC
:100EB000130101FD232611022326A1008327C1006F
:100EC00083A7C70083A7C700232CF10083278101D4
:100ED0009387870113850700EF0040218327810155
:100EE000938787019385070017F501001305C55601
:100EF000EF00800B8327810103A7C70297F701004A
:100F00009387474483A7070083A7C7026368F70056
:100F100093071000232EF1006F008000232E0100A4
:100F20008327C101138507008320C1021301010338
:100F300067800000130101FF2326A1008327C10061
:100F4000138787008327C10023A2E7008327C100FE
:100F50001307F0FF23A4E7008327C100138787004E
:100F60008327C10023A6E7008327C10013878700DA
:100F70008327C10023A8E7008327C10023A007001F
:100F8000130000001301010167800000130101FF3D
:100F90002326A1008327C10023A807001300000017
:100FA0001301010167800000130101FE2326A10047
:100FB0002324B1008327C10083A74700232EF1001B
:100FC000832781000327C10123A2E7008327C101F2
:100FD00003A787008327810023A4E7008327C1019B
:100FE00083A787000327810023A2E7008327C1018D
:100FF0000327810023A4E700832781000327C10082
:1010000023A8E7008327C10083A7070013871700E1
:101010008327C10023A0E700130000001301010291
:1010200067800000130101FE2326A1002324B100E4
:101030008327810083A70700232CF1000327810168
:101040009307F0FF631AF7008327C10083A7070106
:10105000232EF1006F0040038327C1009387870090
:10106000232EF1006F0000018327C10183A74700F1
:10107000232EF1008327C10183A7470083A7070020
:1010800003278101E372F7FE8327C10103A747000D
:101090008327810023A2E7008327810083A74700DD
:1010A0000327810023A4E700832781000327C101D0
:1010B00023A4E7008327C1010327810023A2E700BF
:1010C000832781000327C10023A8E7008327C100ED
:1010D00083A70700138717008327C10023A0E70019
:1010E000130000001301010267800000130101FEDC
:1010F0002326A1008327C10083A70701232EF10027
:101100008327C10083A747000327C1000327870067
:1011100023A4E7008327C10083A787000327C1001A
:101120000327470023A2E7008327C10183A74700C5
:101130000327C100631AF7008327C10003A78700B4
:101140008327C10123A2E7008327C10023A807004A
:101150008327C10183A707001387F7FF8327C101F6
:1011600023A0E7008327C10183A707001385070099
:101170001301010267800000130101FD2326110203
:10118000232481022326A1002324B1008327C10048
:10119000232EF1008327C10163960700737004308A
:1011A0006F000000EF30507B8327C10103A40700CC
:1011B0008327C10103A7C7038327C10183A70704AE
:1011C0009385070013050700EF709046930705000D
:1011D0003307F4008327C10123A2E7008327C1015D
:1011E00023AC07028327C10103A707008327C1019E
:1011F00023A4E7008327C10103A407008327C101BB
:1012000083A7C7031387F7FF8327C10183A70704B9
:101210009385070013050700EF70904193070500C1
:101220003307F4008327C10123A6E7008327C10108
:101230001307F0FF23A2E7048327C1011307F0FF80
:1012400023A4E70483278100639A07028327C1014F
:1012500083A70701638407048327C10193870701DC
:1012600013850700EF308006130705009307100071
:101270006316F702EFF0CFB16F0040028327C10180
:101280009387070113850700EFF0DFCA8327C101A9
:101290009387470213850700EFF0DFC9EF30D06F67
:1012A00093071000138507008320C10203248102E5
:1012B0001301010367800000130101FD23261102C1
:1012C0002326A1002324B10093070600A303F10005
:1012D000232C01008327C10063960700737004303C
:1012E0006F0000008327810063960700232E010012
:1012F0006F00C001832581000325C100EF705033CA
:101300009307050093871700232EF1008327C1015F
:101310009387470513850700EF505028232AA10023
:10132000832741016382070683278100639A0700B0
:10133000832741010327410123A0E7006F004001FB
:1013400083274101138747058327410123A0E70035
:10135000832741010327C10023AEE7028327410110
:101360000327810023A0E704930510000325410112
:10137000EFF09FE083274101034771002388E704D2
:1013800083274101232CF100832781016396070005
:10139000737004306F0000008327810113850700FC
:1013A0008320C1021301010367800000130101FDC6
:1013B0002326110293070500A307F100130540053A
:1013C000EF50D01D232EA1008327C101638C070895
:1013D0008327C10123A207008327C10123A007009F
:1013E0008327C10123A407008327C10123A6070087
:1013F0008327C10123AC07028327C1011307100013
:1014000023AEE7028327C10123A007048327C1017C
:101410001307F0FF23A2E7048327C1011307F0FF9E
:1014200023A4E7048327C1010347F1002388E704CD
:101430008327C1019387070113850700EFF09FAF52
:101440008327C1019387470213850700EFF09FAE02
:101450009306000013060000930500000325C10158
:10146000EF00001E8327C101138507008320C102FE
:101470001301010367800000130101FD23261102FF
:10148000232481022326A1008327C100232CF100FD
:101490008327810163960700737004306F0000009A
:1014A0008327810103A44700EF30501A93070500FA
:1014B0006312F4048327810183A7C7001387F7FF12
:1014C0008327810123A6E7008327810183A7C70023
:1014D000639C0700930600001306000093050000BC
:1014E00003258101EF00C01593071000232EF100A2
:1014F0006F008000232E01008327C10113850700A0
:101500008320C102032481021301010367800000CC
:10151000130101FD23261102232481022326A100A9
:101520002324B1008327C100232CF10083278101EC
:1015300063960700737004306F00000083278101F9
:1015400003A44700EF309010930705006312F402E4
:101550008327810183A7C700138717008327810191
:1015600023A6E70093071000232EF1006F00C003AD
:1015700093060000032681009305000003258101E6
:10158000EF00C058232EA1000327C10193071000CC
:10159000631CF7008327810183A7C7001387170007
:1015A0008327810123A6E7008327C1011385070054
:1015B0008320C1020324810213010103678000001C
:1015C000130101FD232611022326A1002324B100CB
:1015D0008327C10063960700737004306F0000001A
:1015E000032781008327C10063F6E700737004308E
:1015F0006F00000013062000930500000325C100C2
:10160000EFF09FCB232EA1008327C1016388070041
:101610008327C1010327810023ACE7028327C1018F
:1016200063960700737004306F0000008327C101C8
:10163000138507008320C1021301010367800000A6
:10164000130101FC232E11022326A1002324B10043
:101650002322C1002320D100232601028327C100B9
:101660002324F102832781026396070073700430FC
:101670006F000000832781006398070083278102A1
:1016800083A7070463960700930710006F0080008C
:101690009307000063960700737004306F0000002A
:1016A0000327010093072000631AF70083278102B4
:1016B00003A7C703930710006316F70093071000F2
:1016C0006F0080009307000063960700737004307A
:1016D0006F000000EF30C0799307050063960700A4
:1016E0008327410063960700930710006F00800076
:1016F0009307000063960700737004306F000000CA
:10170000EF3090258327810203A787038327810277
:1017100083A7C7036368F70003270100930720002E
:101720006310F7060326010083258100032581024B
:10173000EF00101C2322A1028327810283A7470206
:10174000638407028327810293874702138507007A
:10175000EF20D0371307050093071000631CF70034
:10176000EFE01FE36F00000183274102638407005D
:10177000EFE01FE2EF305022930710006F00400FA0
:101780008327410063980700EF3010219307000082
:101790006F00000E8327C102639C07009307C101FD
:1017A00013850700EF209057930710002326F102BE
:1017B000EF30901EEF200004EF30101A83278102D3
:1017C00003A747049307F0FF6316F70083278102FE
:1017D00023A207048327810203A787049307F0FF4E
:1017E0006316F7008327810223A40704EF30D01A81
:1017F000130741009307C1019305070013850700F4
:10180000EF20905693070500639C0704032581028F
:10181000EF00504693070500638C0702832781027F
:1018200093870701032741009305070013850700ED
:10183000EF20500403258102EF00902CEF10D07DA3
:1018400093070500E39E07EAEFE09FD46FF05FEB9C
:1018500003258102EF00D02AEF10107C6FF05FEAC1
:1018600003258102EF00D029EF10107B93070000C1
:10187000138507008320C103130101046780000062
:10188000130101FD232611022326A1002324B10008
:101890002322C1002320D1008327C100232CF10083
:1018A0008327810163960700737004306F00000086
:1018B00083278100639807008327810183A707049A
:1018C00063960700930710006F00800093070000E5
:1018D00063960700737004306F0000000327010057
:1018E00093072000631AF7008327810103A7C7032A
:1018F000930710006316F700930710006F00800035
:101900009307000063960700737004306F000000B7
:10191000EFE05FDF93070500232AF10083278101B1
:1019200003A787038327810183A7C7036368F700A1
:1019300003270100930720006310F7080326010026
:101940008325810003258101EF00807A83278101AF
:1019500003A787049307F0FF6310F704832781012F
:1019600083A7470263840704832781019387470283
:1019700013850700EF209015930705006388070281
:101980008327410063840702832741001307100067
:1019900023A0E7006F0080018327810183A78704CC
:1019A000138717008327810123A4E70493071000FE
:1019B000232EF1006F008000232E010083274101B8
:1019C00013850700EFE05FD28327C101138507006D
:1019D0008320C1021301010367800000130101FD90
:1019E000232611022326A1002324B1008327C1004E
:1019F000232CF10083278101639607007370043064
:101A00006F0000008327810183A707046386070016
:101A1000737004306F0000008327810183A70700E3
:101A2000639807008327810183A747006396070017
:101A3000930710006F008000930700006396070073
:101A4000737004306F000000EFE0DFCB93070500F8
:101A5000232AF1008327810103A7870383278101BC
:101A600083A7C7036372F7088327810183A78703CE
:101A7000138717008327810123ACE70283278101A5
:101A800003A787049307F0FF6310F70483278101FE
:101A900083A7470263840704832781019387470252
:101AA00013850700EF209002930705006388070263
:101AB00083278100638407028327810013071000B6
:101AC00023A0E7006F0080018327810183A787049B
:101AD000138717008327810123A4E70493071000CD
:101AE000232EF1006F008000232E01008327410187
:101AF00013850700EFE05FBF8327C101138507004F
:101B00008320C1021301010367800000130101FC5F
:101B1000232E11022326A1002324B1002322C10079
:101B20002320D100232601028327C1002324F102B0
:101B30008327810263960700737004306F000000F2
:101B400083278100639807008327810283A7070406
:101B500063960700930710006F0080009307000052
:101B600063960700737004306F000000EF30403060
:101B700093070500639607008327410063960700DB
:101B8000930710006F008000930700006396070022
:101B9000737004306F000000EF30005C8327810217
:101BA00083A787036382070C8327810283A7C7006B
:101BB0002322F1028325810003258102EF00806B3F
:101BC00083270100639207068327810283A7870387
:101BD0001387F7FF8327810223ACE7028327810263
:101BE00083A70700639A0700EF30C065130705005D
:101BF0008327810223A2E7008327810283A70701AD
:101C0000638E0704832781029387070113850700EA
:101C1000EF20C06B13070500930710006310F70453
:101C2000EFE01F976F0080038327810203274102A3
:101C300023A6E7008327810283A747026380070268
:101C4000832781029387470213850700EF200068EE
:101C50009307050063840700EFE09F93EF30C053C4
:101C6000930710006F0080118327410063980700DD
:101C7000EF308052930700006F0040108327C102AD
:101C8000639C07009307C10113850700EF2010092B
:101C9000930710002326F102EF300050EF1090352B
:101CA000EF30804B8327810203A747049307F0FF9F
:101CB0006316F7008327810223A20704832781028A
:101CC00003A787049307F0FF6316F70083278102B9
:101CD00023A40704EF30404C130741009307C101D0
:101CE0009305070013850700EF20100893070500F0
:101CF000639E070603258102EF00406F93070500EE
:101D0000638E07048327810283A70700639E070071
:101D1000EF3080448327810283A7470013850700A3
:101D2000EF30001AEF304047832781029387470244
:101D3000032741009305070013850700EF20803338
:101D400003258102EF00C05BEF10102D9307050003
:101D5000E39407E4EFE0DF836FF01FE403258102E3
:101D6000EF00005AEF10502B6FF01FE303258102A4
:101D7000EF000059EF10502A930700001385070069
:101D80008320C1031301010467800000130101FDDA
:101D9000232611022326A1002324B1002322C100FF
:101DA0008327C100232CF10083278101639607005C
:101DB000737004306F000000832781006398070070
:101DC0008327810183A70704639607009307100008
:101DD0006F00800093070000639607007370043063
:101DE0006F000000EFE01F9293070500232AF10027
:101DF0008327810183A787036388070883258100E0
:101E000003258101EF0000478327810183A7870312
:101E10001387F7FF8327810123ACE7028327810122
:101E200003A747049307F0FF6310F704832781019A
:101E300083A7070163840704832781019387070130
:101E400013850700EF208048930705006388070289
:101E50008327410063840702832741001307100092
:101E600023A0E7006F0080018327810183A7470437
:101E7000138717008327810123A2E704930710002B
:101E8000232EF1006F008000232E010083274101E3
:101E900013850700EFE05F858327C10113850700E5
:101EA0008320C1021301010367800000130101FDBB
:101EB000232611022326A1002324B1008327C10079
:101EC000232CF1008327810163960700737004308F
:101ED0006F0000008327810063980700832781013A
:101EE00083A7070463960700930710006F00800024
:101EF0009307000063960700737004306F000000C2
:101F00008327810183A70704639607007370043059
:101F10006F000000EFE00FFF93070500232AF10098
:101F20008327810183A78703638A070283278101AF
:101F300083A7C7002328F1008325810003258101A1
:101F4000EF004033832781010327010123A6E70027
:101F500093071000232EF1006F008000232E010054
:101F60008327410113850700EFE00FF88327C101A4
:101F7000138507008320C10213010103678000005D
:101F8000130101FD232611022326A1008327C1008E
:101F900063960700737004306F000000EF30C01BC1
:101FA0008327C10083A78703232EF100EF30C01ED3
:101FB0008327C101138507008320C1021301010398
:101FC00067800000130101FD232611022326A100D2
:101FD0008327C100232EF1008327C10163960700E8
:101FE000737004306F000000EF3000178327C101C9
:101FF00003A7C7038327C10183A78703B307F7405C
:10200000232CF100EF30401983278101138507004D
:102010008320C1021301010367800000130101FE48
:102020002326A1008327C100639607007370043044
:102030006F0000008327C10083A78703232EF100D0
:102040008327C10113850700130101026780000087
:10205000130101FD232611022326A1008327C100BD
:10206000232EF1008327C1016396070073700430AB
:102070006F0000000325C101EF00900C0325C10192
:10208000EF409071130000008320C102130101038F
:1020900067800000130101FF2326A1008327C100F0
:1020A00083A7C7041385070013010101678000009F
:1020B000130101FF2326A1002324B1008327C100BF
:1020C0000327810023A6E704130000001301010188
:1020D00067800000130101FF2326A1008327C100B0
:1020E00083C70705138507001301010167800000FE
:1020F000130101FD232611022326A1002324B10090
:102100002322C100232E01008327C10083A70704D7
:10211000639807028327C10083A70700639807120B
:102120008327C10083A7470013850700EF20106FA6
:10213000232EA1008327C10023A207006F000011F6
:1021400083274100639407068327C10003A7870004
:102150008327C10083A70704138607008325810016
:1021600013050700EF40107A8327C10003A78700FB
:102170008327C10083A707043307F7008327C10023
:1021800023A4E7008327C10003A787008327C1009A
:1021900083A74700636CF70A8327C10003A70700E2
:1021A0008327C10023A4E7006F00400A8327C100F2
:1021B00003A7C7008327C10083A70704138607006E
:1021C0008325810013050700EF40D0738327C100EA
:1021D00003A7C7008327C10083A70704B307F04004
:1021E0003307F7008327C10023A6E7008327C10038
:1021F00003A7C7008327C10083A707006372F70204
:102200008327C10003A747008327C10083A70704D2
:10221000B307F0403307F7008327C10023A6E70088
:1022200003274100930720006312F7028327C100B0
:1022300083A78703638C07008327C10083A78703D5
:102240001387F7FF8327C10023ACE7028327C10070
:1022500083A78703138717008327C10023ACE702F6
:102260008327C101138507008320C10213010103E5
:1022700067800000130101FE232E11002326A10018
:102280002324B1008327C10083A7070463820706C4
:102290008327C10003A7C7008327C10083A70704C2
:1022A0003307F7008327C10023A6E7008327C10077
:1022B00003A7C7008327C10083A74700636AF7000D
:1022C0008327C10003A707008327C10023A6E700D7
:1022D0008327C10003A7C7008327C10083A7070482
:1022E000138607009305070003258100EF409061E6
:1022F000130000008320C101130101026780000068
:10230000130101FE232E11002326A100EF20D0642B
:102310006F0000048327C10083A74702638207047C
:102320008327C1009387470213850700EF10107AB7
:102330009307050063840700EF2000338327C10063
:1023400083A787041387F7FF8327C10023A4E7042B
:102350008327C10083A78704E34EF0FA6F00800053
:10236000130000008327C1001307F0FF23A4E70434
:10237000EF209062EF20505E6F0000048327C100C1
:1023800083A70701638207048327C100938707019E
:1023900013850700EF10907393070500638407000F
:1023A000EF20802C8327C10083A747041387F7FF02
:1023B0008327C10023A2E7048327C10083A7470422
:1023C000E34EF0FA6F008000130000008327C10085
:1023D0001307F0FF23A2E704EF20105C13000000B6
:1023E0008320C1011301010267800000130101FD78
:1023F000232611022326A100EF2010568327C100B7
:1024000083A787036398070093071000232EF1002A
:102410006F008000232E0100EF2010588327C10198
:10242000138507008320C1021301010367800000A8
:10243000130101FE2326A1008327C1006396070034
:10244000737004306F0000008327C10083A78703E7
:102450006398070093071000232EF1006F0080009F
:10246000232E01008327C1011385070013010102F8
:1024700067800000130101FD232611022326A1001D
:10248000EF20904D8327C10003A787038327C10056
:1024900083A7C7036318F70093071000232EF100EA
:1024A0006F008000232E0100EF20104F8327C10111
:1024B000138507008320C102130101036780000018
:1024C000130101FE2326A1008327C10063960700A4
:1024D000737004306F0000008327C10003A78703D7
:1024E0008327C10083A7C7036318F7009307100071
:1024F000232EF1006F008000232E01008327C101ED
:10250000138507001301010267800000130101FD1C
:10251000232611022326A1002324B1002322C10077
:102520008327C100232CF10073700430032581013F
:10253000EFF05FF493070500638C070283274100E7
:102540006382070283278101938707019385070030
:1025500003254100EFE08FBE736004309307C0FF96
:102560006F00000873600430930700006F0040079D
:1025700073600430737004308327810103A78703DD
:102580008327810183A7C7036376F704130600003E
:102590008325810003258101EFF09FB5930710008B
:1025A000232EF1008327810183A747026386070258
:1025B000832781019387470213850700EFE05F8F30
:1025C00093070500638A07009307B0FF232EF100ED
:1025D0006F008000232E0100736004308327C10147
:1025E000138507008320C1021301010367800000E7
:1025F000130101FD232611022326A1002324B1008B
:102600002322C1008327C100232CF1007370043002
:102610008327810183A78703639C070283274100E7
:10262000638207028327810193874702938507000E
:1026300003254100EFE08FB0736004309307C0FFC3
:102640006F00C00D73600430930700006F00000D31
:1026500073600430737004308327810183A787037C
:102660006388070A8327810103A7C70083278101A5
:1026700083A707043307F7008327810123A6E70018
:102680008327810103A7C7008327810183A7470010
:10269000636AF7008327810103A70700832781016D
:1026A00023A6E7008327810183A787031387F7FF0A
:1026B0008327810123ACE7028327810103A7C70099
:1026C0008327810183A7070413860700930507006A
:1026D00003258100EF40102393071000232EF10003
:1026E0008327810183A7070163860702832781016E
:1026F0009387070113850700EFE08FFB9307050021
:10270000638A07009307B0FF232EF1006F0080005B
:10271000232E0100736004308327C1011385070055
:102720008320C1021301010367800000130101FD32
:10273000232611022326A1002324B1002322C10055
:102740008327C100232EF1008327C10103A787033C
:102750008327C10183A7C7036374F704130600002E
:10276000832581000325C101EFF09F988327410055
:10277000639807028327C10183A747026382070288
:102780008327C1019387470213850700EFE04FF2CB
:102790009307050063860700930710006F00800011
:1027A00083274100138507008320C1021301010321
:1027B00067800000130101FD232611022326A100DA
:1027C0002324B1002322C1008327C100232CF10060
:1027D0008327810183A787036380070C83278101F7
:1027E00003A7C7008327810183A707043307F700E6
:1027F0008327810123A6E7008327810103A7C70060
:102800008327810183A74700636AF700832781013B
:1028100003A707008327810123A6E70083278101FF
:1028200083A787031387F7FF8327810123ACE70280
:102830008327810103A7C7008327810183A707049A
:10284000138607009305070003258100EF40900BD6
:102850008327410083A70700639A0702832781012A
:1028600083A70701638407028327810193870701F8
:1028700013850700EFE0CFE39307050063880700A7
:10288000832741001307100023A0E70093071000DF
:10289000232EF1006F008000232E01008327C10149
:1028A000138507008320C102130101036780000024
:1028B000130101FE2326A1002324B100232E0100D1
:1028C0006F00800617770300130787E38327C10192
:1028D00093973700B307F70083A7070063900704B7
:1028E000177703001307C7E18327C10193973700C8
:1028F000B307F7000327810023A0E7001777030041
:10290000130707E08327C10193973700B307F70048
:102910000327C10023A2E7006F00C0018327C10184
:1029200093871700232EF1000327C101930770003E
:10293000E3FAE7F8130000001301010267800000CA
:10294000130101FE2326A100232E01006F00C00405
:10295000177703001307C7DA8327C101939737005E
:10296000B307F70083A747000327C1006310F702EE
:10297000177703001307C7D88327C1019397370040
:10298000B307F70023A007006F00C0018327C10130
:1029900093871700232EF1000327C10193077000CE
:1029A000E3F8E7FA1300000013010102678000005A
:1029B000130101FD232611022326A1002324B100C7
:1029C0002322C1008327C100232EF100EF20C0780D
:1029D0008327C10103A747049307F0FF6316F7009D
:1029E0008327C10123A207048327C10103A787040A
:1029F0009307F0FF6316F7008327C10123A40704A0
:102A0000EF2080798327C10183A78703639E070096
:102A10008327C10193874702032641008325810054
:102A200013850700EF10007F0325C101EFF05F8DD4
:102A3000130000008320C10213010103678000001E
:102A4000130101FC232E1102232EA100232CB1001F
:102A50002328D1002326E1002324F10023220101B1
:102A60002320110193070600231BF1008327C101D6
:102A700063960700737004306F0000000327C100E5
:102A80009307900063F6E700737004306F00000056
:102A9000835761018325410013850700EF10D07E25
:102AA0002324A102832781026386071C83278102D6
:102AB00003A7070383566101B70700409387F7FF19
:102AC000B387F60093972700B307F7002322F1029C
:102AD0008327410293F7C7FF2322F1028327410294
:102AE00093F7370063860700737004306F000000AF
:102AF0008357610113870700832601000326C10065
:102B00008325810103258102EF1050410326010135
:102B10008325C10103254102EFD0DFC01307050063
:102B20008327810223A0E7008327810063880700B1
:102B3000832781000327810223A0E700EF20C061E3
:102B400097E70100938707A783A70700138717005C
:102B500097E70100938707A623A0E70097D7010016
:102B60009387877E83A707006398070297D70100A2
:102B70009387877D0327810223A0E70097E7010061
:102B8000938747A303A70700930710006312F70476
:102B9000EF10904B6F00C00397E70100938747A2A7
:102BA00083A707006396070297D701009387C77929
:102BB00083A7070083A7C7020327C100636AF70042
:102BC00097D70100938747780327810223A0E70066
:102BD00097E701009387C79F83A707001387170014
:102BE00097E701009387C79E23A0E70097E70100BE
:102BF0009387079E03A707008327810223A4E70486
:102C00008327810203A7C70297E701009387079BE9
:102C100083A7070063FCE7008327810203A7C7029D
:102C200097E701009387879923A0E7008327810214
:102C300003A7C7029307070093972700B387E7000E
:102C40009397270017E70100130747833387E700AF
:102C500083278102938747009385070013050700A8
:102C6000EFE08FB4930710002326F102EF20C0524B
:102C70006F00C0009307F0FF2326F1020327C10273
:102C8000930710006318F70297E7010093874793B3
:102C900083A707006380070297D701009387C76A5D
:102CA00083A7070083A7C7020327C10063F4E700D7
:102CB000EFD01F8E8327C102138507008320C10335
:102CC0001301010467800000130101FD2326110296
:102CD0002326A100EF2040488327C100639A070004
:102CE00097D701009387476683A707006F0080008E
:102CF0008327C100232EF1008327C101938747005A
:102D000013850700EFE08FBE8327C10183A78702E9
:102D1000638A07008327C101938787011385070012
:102D2000EFE0CFBC8327C10193874700938507005D
:102D300017E5010013054585EFE00FA797E70100B0
:102D40009387C78583A707001387170097E70100BC
:102D50009387C78423A0E70097E7010093874787FD
:102D600083A707001387170097E70100938747861B
:102D700023A0E700EF20404297E7010093874784B4
:102D800083A707006382070497D701009387C75B77
:102D900083A707000327C1016312F70297E7010029
:102DA0009387878383A707006386070073700430C7
:102DB0006F000000EFD0CFFD6F000001EF20C039A1
:102DC000EF208001EF20403D130000008320C1026E
:102DD0001301010367800000130101FD2326110286
:102DE0002326A1002324B100232E01008327C10044
:102DF00063960700737004306F0000008327810022
:102E000063960700737004306F00000097D70100CD
:102E10009387877C83A7070063860700737004305D
:102E20006F000000EF00101D97D701009387C7784F
:102E300083A70700232CF1008327C10083A7070085
:102E400003278100B307F700232AF1008327C1007D
:102E500083A70700032781016376F7028327C10058
:102E600083A70700032741016370F704032741018B
:102E70008327810163FAE70293071000232EF100F4
:102E80006F0080028327C10083A707000327410149
:102E90006368F700032741018327810163F6E70098
:102EA00093071000232EF1008327C100032741015F
:102EB00023A0E7008327C1016382070297D701009F
:102EC0009387874883A707009387470013850700E8
:102ED000EFE0CFA103254101EF10502FEF00D013F9
:102EE0002328A1008327010163940700EFD04FEA54
:102EF000130000008320C10213010103678000005A
:102F0000130101FD232611022326A100232E010017
:102F10008327C1006380070697D701009387C76B9B
:102F200083A7070063860700737004306F000000FA
:102F3000EF00500C97D701009387076883A707001D
:102F40000327C100B307F700232CF10097D7010036
:102F50009387873F83A70700938747001385070060
:102F6000EFE0CF9803258101EF105026EF00D00A43
:102F7000232EA1008327C10163940700EFD04FE106
:102F8000130000008320C1021301010367800000C9
:102F9000130101FD232611022326A1008327C1006E
:102FA000232CF1008327810163960700737004309E
:102FB0006F00000097D701009387073983A70700A8
:102FC000032781016316F700232E01006F00400ADA
:102FD000EF2080188327810183A74701232AF1006E
:102FE000EF20801B97D701009387475883A70700DE
:102FF00003274101630CF70097D7010093874757D8
:1030000083A70700032741016318F70093072000F7
:10301000232EF1006F00C0050327410197D701005F
:10302000938707586314F7028327810183A78702D8
:103030006398070093073000232EF1006F004003D0
:1030400093072000232EF1006F0080020327410127
:1030500097D70100938747536318F7009307400001
:10306000232EF1006F00C00093071000232EF10003
:103070008327C101138507008320C10213010103C7
:1030800067800000130101FD232611022326A10001
:10309000EF20800C8327C100639A070097D70100B7
:1030A0009387872A83A707006F0080008327C100CA
:1030B000232EF1008327C10183A7C702232CF1002F
:1030C000EF20800D83278101138507008320C10233
:1030D0001301010367800000130101FD2326110283
:1030E0002326A100EFD00FE293070500232EF10065
:1030F0008327C100639A070097D701009387C724ED
:1031000083A707006F0080008327C100232CF100F4
:103110008327810183A7C702232AF1008327C101E6
:1031200013850700EFD04FDC83274101138507008B
:103130008320C1021301010367800000130101FD18
:10314000232611022326A1002324B100232E0100EF
:10315000032781009307900063F6E7007370043043
:103160006F000000032781009307900063F6E700DB
:10317000930790002324F100EF10107E8327C100F5
:10318000639A070097D701009387071C83A707005E
:103190006F0080008327C100232CF1008327810169
:1031A00083A70705232AF100032741018327810014
:1031B000630EF716032781008327410163FEE702B0
:1031C00097D701009387471883A70700032781013A
:1031D0006302F70497D701009387071783A70700B7
:1031E00083A7C702032781006366F70293071000D5
:1031F000232EF1006F00000297D701009387C714B8
:1032000083A70700032781016316F70093071000C7
:10321000232EF1008327810183A7C7022328F10011
:103220008327810103A707058327810183A7C7029D
:103230006318F700832781010327810023A6E70293
:10324000832781010327810023A8E70483278101C5
:1032500083A7870163CC07001307A00083278100A1
:103260003307F7408327810123ACE70083278101DF
:1032700083A64701032701019307070093972700BF
:10328000B387E7009397270017D701001307071F9D
:10329000B387E7006396F600930710006F00800085
:1032A00093070000638C07068327810193874700FB
:1032B00013850700EFD09FE38327810103A7C7028F
:1032C00097D701009387872F83A7070063FCE70048
:1032D0008327810103A7C70297D701009387072E91
:1032E00023A0E7008327810103A7C70293070700F4
:1032F00093972700B387E7009397270017D701001C
:103300001307C7173387E700832781019387470097
:103310009385070013050700EFD01FC90327C101DC
:10332000930710006314F700EFD08FA6EF10D0665C
:10333000130000008320C102130101036780000015
:10334000130101FD232611022326A100EF10D060F6
:103350008327C100639A070097D701009387C7FEB0
:1033600083A707006F0080008327C100232EF10090
:103370008327C1019387470013850700EFD01FD72C
:103380008327C10183A78702638A07008327C101BE
:103390009387870113850700EFD05FD58327C1018D
:1033A000938747009385070017D501001305451F34
:1033B000EFD09FBFEF10505E97D701009387C7F8FB
:1033C00083A707000327C1016314F70697D70100FD
:1033D0009387071F83A707006382070297D701001F
:1033E0009387871F83A707006386070073700430E5
:1033F0006F000000EFD0CF996F00400597D7010014
:103400009387071A03A7070097D701009387871AA6
:1034100083A70700631AF70097D701009387C7F2C5
:1034200023A007006F008002EF0090286F000002C9
:1034300097D701009387C71883A707006388070001
:10344000EF109051EF105019EF10105513000000BD
:103450008320C1021301010367800000130101FEF4
:103460002326A100232E01008327C100232CF10075
:103470008327C10063960700737004306F0000005B
:103480008327810103A7470197D70100938747113D
:103490006316F700930710006F0080009307000089
:1034A000638E07028327810103A7870297D7010054
:1034B0009387470C6304F7028327810183A7870260
:1034C00063960700930710006F00800093070000C9
:1034D0006386070093071000232EF1008327C101A4
:1034E000138507001301010267800000130101FD2D
:1034F000232611022326A1008327C100232EF100D9
:103500008327C10063960700737004306F000000CA
:103510008327C1016384070C97D701009387C7E213
:1035200083A707000327C101630AF70AEF10D042FF
:103530000325C101EFF09FF2130705009307100068
:10354000631CF7088327C101938747001385070091
:10355000EFD0DFB98327C10103A7C70297D70100C6
:103560009387C70583A7070063FCE7008327C10192
:1035700003A7C70297D701009387470423A0E7005A
:103580008327C10103A7C70293070700939727006A
:10359000B387E7009397270017D70100130707EEBB
:1035A0003387E7008327C10193874700938507008E
:1035B00013050700EFD05F9F8327C10103A7C70250
:1035C00097D70100938747D883A7070083A7C7022F
:1035D0006364F700EFC0DFFBEF10103C1300000046
:1035E0008320C1021301010367800000130101FD64
:1035F000232611022326A100232E01008327C100C8
:10360000232CF1008327C1006396070073700430F8
:103610006F000000EFD00F8F93070500232AF10001
:1036200003258101EFF09FE31307050093071000C6
:103630006314F70C97D70100938707FA83A7070055
:103640006390070A8327810103A7C70297D7010068
:10365000938787CF83A7070083A7C7026366F70016
:1036600093071000232EF1008327810193874700E1
:1036700013850700EFD09FA78327810103A7C70207
:1036800097D70100938787F383A7070063FCE700C0
:103690008327810103A7C70297D70100938707F209
:1036A00023A0E7008327810103A7C7029307070030
:1036B00093972700B387E7009397270017D7010058
:1036C0001307C7DB3387E700832781019387470010
:1036D0009385070013050700EFD01F8D6F00C00111
:1036E00083278101938787019385070017D5010000
:1036F000130545E8EFD05F8B832741011385070051
:10370000EFC09FFE8327C101138507008320C102FC
:103710001301010367800000130101FE232E110035
:10372000930800001308000093070000130700002F
:10373000930600001306004097D501009385858C01
:1037400017150000130505FBEFF08FAF2326A1002E
:103750000327C100930710006316F700EF20C03A5B
:103760002326A1000327C10093071000631EF70260
:103770007370043097D701009387C7E51307F0FFF4
:1037800023A0E70097D70100938787E31307100072
:1037900023A0E70097D70100938707E223A0070043
:1037A000EFC05FC46F0040018327C100639607002C
:1037B000737004306F000000130000008320C1010B
:1037C0001301010267800000130101FF232611008D
:1037D0007370043097D70100938787DE23A007001A
:1037E000EFC09FD2130000008320C100130101012C
:1037F0006780000097D70100938707DE83A7070043
:103800001387170097D70100938707DD23A0E700F0
:103810001300000067800000130101FE232E110039
:103820002326010097D70100938707DB83A70700B2
:1038300063960700737004306F000000EF10D01122
:1038400097D70100938747D983A707001387F7FF0E
:1038500097D70100938747D823A0E70097D70100A7
:10386000938787D783A707006394071697D701002C
:10387000938747D483A70700638C07146F00800CDD
:1038800097D70100938707CF83A7C70083A7C700F7
:103890002324F10083278100938787011385070084
:1038A000EFD0DF84832781009387470013850700CB
:1038B000EFD0DF838327810003A7C70297D70100DA
:1038C0009387C7CF83A7070063FCE70083278100A6
:1038D00003A7C70297D70100938747CE23A0E7002D
:1038E0008327810003A7C702930707009397270048
:1038F000B387E7009397270017D70100130707B88E
:103900003387E7008327810093874700938507006B
:1039100013050700EFD04FE98327810003A7C702F3
:1039200097D70100938747A283A7070083A7C70201
:10393000636AF70097D70100938707C91307100040
:1039400023A0E70097D701009387C7C283A707008A
:10395000E39807F297D701009387C7C683A70700AC
:10396000638807046F00C003EF00002B9307050076
:10397000638A070097D70100938707C513071000D4
:1039800023A0E70097D701009387C7C383A7070049
:103990001387F7FF97D701009387C7C223A0E700DB
:1039A00097D70100938707C283A70700E39E07FA12
:1039B00097D70100938747C103A70700930710001B
:1039C0006318F700930710002326F100EFC05FBCD7
:1039D000EF10807C8327C100138507008320C1017D
:1039E0001301010267800000130101FE232E110064
:1039F000EF10807697D70100938707BC83A7070055
:103A00002326F100EF1040798327C10013850700BA
:103A10008320C1011301010267800000130101FE30
:103A2000232E1100EFC01FCE930705002326F100BF
:103A300097D70100938747B883A707002324F10095
:103A40008327C10013850700EFC01FCA83278100A9
:103A5000138507008320C101130101026780000064
:103A600097D70100938707B583A707001385070041
:103A700067800000130101FD232611022326A10007
:103A80002324B1002322C100232E01009307A000AC
:103A9000232CF100EFF01FD697D70100938787B151
:103AA00083A7070003278100636CF7148327810134
:103AB0009387F7FF232CF1008327C10193975700C9
:103AC0000327C100B306F70003278101930707000E
:103AD00093972700B387E7009397270017D7010034
:103AE0001307C799B387E7001306100093850700F3
:103AF00013850600EF108004130705008327C1011A
:103B0000B387E700232EF10083278101E39007FAB2
:103B10008327C101939757000327C1003307F7009C
:103B200097D70100938787A483A707001306200077
:103B30009385070013050700EF10400013070500E9
:103B40008327C101B387E700232EF1008327C1013A
:103B5000939757000327C1003307F70097D7010059
:103B6000938707A183A7070013062000938507000A
:103B700013050700EF00907C130705008327C101A0
:103B8000B387E700232EF1008327C10193975700E5
:103B90000327C100B307F7001306400097D50100C3
:103BA0009385859E13850700EF0050791307050064
:103BB0008327C101B387E700232EF1008327C101CA
:103BC000939757000327C100B307F700130630008F
:103BD00097D501009385C59C13850700EF001076EB
:103BE000130705008327C101B387E700232EF100E7
:103BF00083274100638607008327410023A0070035
:103C0000EFF09FC18327C101138507008320C10204
:103C10001301010367800000130101FD2326110237
:103C2000232E010097D701009387079B83A70700E6
:103C3000639C072297D701009387079883A7070003
:103C40001387170097D701009387079723A0E700F2
:103C500097D701009387479683A70700232CF1008D
:103C600083278101639C070697D7010093870790FC
:103C700083A7070083A707006386070073700430DB
:103C80006F00000097D701009387478E83A7070036
:103C9000232AF10097D701009387878D03A7070098
:103CA00097D701009387878C23A0E70097D701005F
:103CB0009387078C0327410123A0E70097D70100D2
:103CC0009387C79083A707001387170097D7010032
:103CD0009387C78F23A0E700EF10001097D701004C
:103CE0009387478F83A7070003278101636CF7122F
:103CF00097D701009387878783A7070083A70700CB
:103D000063960700930710006F0080009307000080
:103D1000638C070097D701009387C78B1307F0FFC9
:103D200023A0E7006F00001097D701009387078456
:103D300083A7070083A7C70083A7C7002328F10034
:103D40008327010183A747002326F1000327810170
:103D50008327C100637CF70097D70100938787878B
:103D60000327C10023A0E7006F00C00B83270101D8
:103D70009387470013850700EFD04FB783270101D2
:103D800083A78702638A070083270101938787013E
:103D900013850700EFD08FB58327010103A7C70262
:103DA00097D701009387878183A7070063FCE7000B
:103DB0008327010103A7C70297D7010093870780D4
:103DC00023A0E7008327010103A7C7029307070089
:103DD00093972700B387E7009397270017C7010041
:103DE0001307C7693387E7008327010193874700DB
:103DF0009385070013050700EFD00F9B8327010170
:103E000003A7C70297C701009387075483A707003A
:103E100083A7C702E36EF7EC93071000232EF1008F
:103E20006FF01FED97C701009387075283A7070024
:103E300003A7C70297C6010093864664930707004D
:103E400093972700B387E70093972700B387F6007F
:103E500003A707009307100063F6E702930710001B
:103E6000232EF1006F00000297C70100938787752A
:103E700083A707001387170097C7010093878774EC
:103E800023A0E70097C701009387077483A7070063
:103E90006386070093071000232EF1008327C101DA
:103EA000138507008320C10213010103678000000E
:103EB000130101FE232E110097C701009387C771DC
:103EC00083A70700638C070097C701009387C76F1C
:103ED0001307100023A0E7006F00C01897C7010068
:103EE0009387876E23A0070097C701009387C74574
:103EF00083A7070083A707032326F100B7A7A5A57B
:103F00009387575A2324F1008327C10083A7070012
:103F1000032781006310F7048327C10093874700BC
:103F200083A70700032781006316F7028327C100D8
:103F30009387870083A7070003278100631CF7008E
:103F40008327C1009387C70083A707000327810049
:103F50006302F70697C701009387073F03A707008F
:103F600097C701009387473E83A7070093874703BE
:103F70009385070013050700EF40C0186F0080030A
:103F800097C701009387876383A70700639607009D
:103F9000737004306F00000097C7010093870762B9
:103FA00083A707001387F7FF97C70100938707616F
:103FB00023A0E70097C701009387476003A7070086
:103FC00097C601009386864B9307070093972700B7
:103FD000B387E70093972700B387F60083A707000E
:103FE000E38007FA97C701009387475D03A707009F
:103FF0009307070093972700B387E700939727005D
:1040000017C7010013078747B387E7002322F10092
:104010008327410083A7470003A747008327410068
:1040200023A2E7008327410003A74700832741001D
:1040300093878700631CF7008327410083A747000D
:1040400003A747008327410023A2E70083274100FD
:1040500083A7470003A7C70097C701009387C72E10
:1040600023A0E700130000008320C1011301010217
:1040700067800000130101FD232611022326A10001
:104080002324B1008327C1006396070073700430B6
:104090006F00000097C701009387072B83A70700D5
:1040A00093878701938507000325C100EFC09FF721
:1040B00097C701009387472983A707009387470085
:1040C00013850700EFD08F82032781009307F0FF4D
:1040D0006314F70297C701009387072783A7070098
:1040E000938747009385070017C501001305454BCB
:1040F000EFC09FEB6F00400297C701009387C74B4B
:1041000083A7070003278100B307F700232EF100E0
:104110000325C101EF00900B130000008320C102B2
:104120001301010367800000130101FD2326110222
:104130002326A1002324B1002322C1008327C1002C
:1041400063960700737004306F00000097C701008A
:104150009387874883A7070063960700737004302E
:104160006F00000097C701009387071E83A7070011
:10417000832681003707008033E7E60023ACE700A1
:1041800097C701009387471C83A707009387870180
:10419000938507000325C100EFC01FE197C7010009
:1041A0009387871A83A70700938747001385070023
:1041B000EFC0DFF3032741009307F0FF6314F7021A
:1041C00097C701009387471883A707009387470085
:1041D0009385070017C501001305853CEFC0DFDCA0
:1041E0006F00400297C701009387073D83A7070030
:1041F00003274100B307F700232EF1000325C10177
:10420000EF00C07C130000008320C10213010103F2
:1042100067800000130101FD232611022326A1005F
:104220002324B1002322C1008327C1006396070025
:10423000737004306F00000097C701009387C710A8
:1042400083A7070093878701938507000325C10093
:10425000EFC09FD597C701009387070F83A707007B
:104260009387470013850700EFC05FE803274100ED
:10427000930710006314F70297C701009387C70CD8
:1042800083A70700938747009385070017C50100A0
:1042900013050531EFC05FD16F00400297C70100E1
:1042A0009387873183A7070003278100B307F700AF
:1042B000232EF1000325C101EF004071130000001F
:1042C0008320C1021301010367800000130101FD77
:1042D000232611022326A1008327C10083A7C7003C
:1042E00083A7C700232CF100832781016396070071
:1042F000737004306F00000083278101938787016A
:1043000013850700EFC09FDE97C701009387C72C76
:1043100083A70700639E07068327810193874700D1
:1043200013850700EFC09FDC8327810103A7C70225
:1043300097C701009387872883A7070063FCE700DE
:104340008327810103A7C70297C701009387072727
:1043500023A0E7008327810103A7C7029307070073
:1043600093972700B387E7009397270017C70100AB
:104370001307C7103387E70083278101938747001E
:104380009385070013050700EFC01FC26F00C0012F
:1043900083278101938787019385070017C5010053
:1043A0001305451DEFC05FC08327810103A7C70226
:1043B00097C70100938747F983A7070083A7C70220
:1043C00063F0E70293071000232EF10097C7010066
:1043D0009387871F1307100023A0E7006F0080005A
:1043E000232E01008327C101138507008320C1020A
:1043F0001301010367800000130101FD2326110250
:104400002326A1002324B10097C701009387C71C6E
:1044100083A7070063960700737004306F000000E5
:1044200003278100B70700803367F7008327C100A7
:1044300023A0E7008327C10083A7C700232CF10036
:104440008327810163960700737004306F000000BA
:104450000325C100EFC09FC98327810193874700CF
:1044600013850700EFC09FC88327810103A7C702F8
:1044700097C701009387871483A7070063FCE700B1
:104480008327810103A7C70297C7010093870713FA
:1044900023A0E7008327810103A7C7029307070032
:1044A00093972700B387E7009397270017C701006A
:1044B0001307C7FC3387E7008327810193874700F1
:1044C0009385070013050700EFC01FAE8327810106
:1044D00003A7C70297C70100938707E783A70700D1
:1044E00083A7C70263F0E70293071000232EF100B1
:1044F00097C701009387470D1307100023A0E7001B
:104500006F008000232E01008327C101138507005F
:104510008320C1021301010367800000130101FF22
:104520002326A1008327C10063960700737004301F
:104530006F00000097C701009387470903A7070092
:104540008327C10023A0E70097C701009387C70610
:1045500003A707008327C10023A2E7001300000080
:104560001301010167800000130101FD23261102E0
:104570002326A1002324B1008327C10063960700EE
:10458000737004306F00000083278100639607007A
:10459000737004306F000000EF00103C97C70100FB
:1045A0009387870183A70700232CF10083278100CD
:1045B00003A707009307F0FF6316F700232E0100FF
:1045C0006F0000098327C10003A7070097C70100F8
:1045D0009387C7FF83A707006300F7028327C10003
:1045E00083A74700032781016368F7009307100042
:1045F000232EF1006F00C0058327C10083A7470069
:10460000032781013307F7408327810083A7070031
:10461000637CF7028327810003A707008327C1007B
:1046200083A6470083278101B387F6403307F7004D
:104630008327810023A0E7000325C100EFF01FEED0
:10464000232E01006F00C00093071000232EF100FD
:10465000EF0090348327C101138507008320C10236
:10466000130101036780000097C701009387C7F516
:104670001307100023A0E70013000000678000006C
:10468000130101FE2326A1008327C100638E0700CA
:104690008327C100232CF1008327810183A7C7044E
:1046A000232EF1006F008000232E01008327C1011B
:1046B000138507001301010267800000130101FE4A
:1046C0002326A1002324B1008327C100638C0700A7
:1046D0008327C100232EF1008327C1010327810016
:1046E00023A6E70413000000130101026780000005
:1046F000130101FE232E11002326A100EF0000214B
:1047000097C70100938787D703A707009307100077
:10471000E3F6E7FEEFB0DFE76FF05FFE130101FCA9
:10472000232E1102232EA100232CB100232AC10025
:104730002328D100930707002317F1002326010245
:104740006F004004032781018327C102B307F700EC
:1047500003C707008326C1018327C102B387F60080
:10476000238AE702032781018327C102B307F700E9
:1047700083C70700638007028327C102938717005E
:104780002326F1020327C1029307F000E3FCE7FAB6
:104790006F008000130000008327C101A38107047C
:1047A000032741019307900063F6E7009307900009
:1047B000232AF1008327C1010327410123A6E70231
:1047C0008327C1010327410123A8E7048327C101EF
:1047D00023AA07048327C101938747001385070095
:1047E000EFC0CFFA8327C1019387870113850700A4
:1047F000EFC0CFF98327C1010327C10123A8E70038
:104800001307A000832741013307F7408327C10125
:1048100023ACE7008327C1010327C10123A2E702DC
:104820008327C10123A207048327C10123AC070406
:104830008327C10123AE0704130000008320C103B6
:104840001301010467800000130101FE232E1100F3
:10485000232601006F0080030327C1009307070090
:1048600093972700B387E7009397270017C70100A6
:104870001307C7C0B387E70013850700EFC08FEBAE
:104880008327C100938717002326F1000327C10067
:1048900093079000E3F2E7FC17C50100130585CAF2
:1048A000EFC04FE917C50100130505CBEFC08FE836
:1048B00017C50100130505CCEFC0CFE717C50100F0
:1048C000130585CCEFC00FE717C50100130545CDD3
:1048D000EFC04FE697C70100938747C917C701008C
:1048E000130747C623A0E70097C70100938747C86F
:1048F00017C70100130747C623A0E70013000000F5
:104900008320C1011301010267800000130101FE31
:10491000232E11006F008009EFE0DFED97C7010043
:10492000938787C683A7070093B7170093F7F70FFE
:104930002326F100EFE05FEE8327C10063980706AE
:10494000EF00900197C70100938707C483A7C700B2
:1049500083A7C7002324F1008327810093874700A2
:1049600013850700EFC08FF897C70100938787C4AE
:1049700083A707001387F7FF97C70100938787C3B3
:1049800023A0E70097C70100938747C183A70700CB
:104990001387F7FF97C70100938747C023A0E7005D
:1049A000EF00807F03258100EF00C03F97C7010023
:1049B0009387C7BE83A70700E39007F613000000A4
:1049C0008320C1011301010267800000130101FE71
:1049D000232E11002326A10097C701009387C796B5
:1049E00083A707000327C10023A2E70097C70100A0
:1049F000938787BC83A707000327C1006378F7026A
:104A000097C701009387C7B603A7070097C70100A0
:104A10009387879383A707009387470093850700B1
:104A200013050700EFC00FE06F00000597C70100F6
:104A30009387C7B303A7070097C701009387C79061
:104A400083A7070093874700938507001305070096
:104A5000EFC04FDD97C701009387C7B783A7070053
:104A60000327C100637AF70097C70100938787B6D1
:104A70000327C10023A0E700130000008320C10129
:104A80001301010267800000130101FD23261102BA
:104A9000930705002324B1002317F1008327810029
:104AA000639E07008357E100939727001385070053
:104AB000EF20C02E930705006F0080008327810040
:104AC000232CF10083278101638A07021305000666
:104AD000EF20C02C232EA1008327C101638A070089
:104AE0008327C1010327810123A8E7026F0040014A
:104AF00003258101EF20404A6F008000232E010032
:104B00008327C101638207028327C10103A707032B
:104B10008357E10093972700138607009305500AF7
:104B200013050700EF20006A8327C10113850700E2
:104B30008320C1021301010367800000130101FCFF
:104B4000232E1102232C81022326A1002324B1004D
:104B50002322C100232601028327810083A70700A7
:104B60006388071C832781002324F10283278102A5
:104B700083A7470003A747008327810223A2E700FA
:104B80008327810203A74700832781029387870039
:104B9000631CF7008327810283A7470003A7470010
:104BA0008327810223A2E7008327810283A747008E
:104BB00083A7C7002322F102832781002320F1026B
:104BC0008327010283A7470003A747008327010229
:104BD00023A2E7008327010203A7470083270102DE
:104BE00093878700631CF7008327010283A7470090
:104BF00003A747008327010223A2E70083270102BE
:104C000083A7470083A7C700232EF1008327C10293
:104C1000939757000327C100B307F7000327C1018B
:104C200023A0E7008327C102939757000327C10001
:104C3000B307F7000327C1011307470323A2E700C7
:104C40008327C102939757000327C100B307F700DA
:104C50000327C1010327870423A4E7008327C10298
:104C6000939757000327C100B307F70003274100BC
:104C700023A6E7008327C102939757000327C100AB
:104C8000B307F7000327C1010327C70223A8E700E2
:104C900003274100930730006314F7028327C10103
:104CA00083A78702638E07008327C102939757006B
:104CB0000327C100B307F7001307200023A6E7006E
:104CC0008327C102939757000327C100B307F7005A
:104CD0000327C1010327070523AAE7008327C10291
:104CE000939757000327C100B307F70023AC0700D1
:104CF0008327C10183A607038327C1029397570027
:104D00000327C1003304F70013850600EF00C0033A
:104D100093070500231EF4008327C1029387170021
:104D20002326F1020327C10183274102E316F7E896
:104D30008327C102138507008320C1030324810355
:104D40001301010467800000130101FE2326A10066
:104D5000232E01006F00C0018327C1009387170035
:104D60002326F1008327C10193871700232EF1002A
:104D70008327C10003C707009307500AE30EF7FC1F
:104D80008327C10193D72700232EF1008327C10178
:104D90009397070193D707011385070013010102B9
:104DA00067800000130101FE232E11002326A100BD
:104DB0008327C10083A7070313850700EF20C01DC9
:104DC0000325C100EF20401D130000008320C10116
:104DD0001301010267800000130101FF97B7010072
:104DE0009387C77883A7070083A707006396070008
:104DF000930710006F00800093070000638C07008A
:104E000097B701009387077D1307F0FF23A0E70002
:104E10006F00000397B701009387477583A70700CA
:104E200083A7C70083A7C7002326F1008327C100FB
:104E300003A7470097B701009387C77923A0E7002E
:104E4000130000001301010167800000130101FF3E
:104E500097B701009387474F83A707002326F100E8
:104E60008327C1001385070013010101678000003B
:104E7000130101FF97B701009387877483A7070089
:104E800063980700930710002326F1006F0040028B
:104E900097B701009387477483A7070063980700BB
:104EA000930720002326F1006F00800023260100D5
:104EB0008327C100138507001301010167800000EB
:104EC000130101FD232611022326A1008327C1001F
:104ED000232EF1008327C100638A07128327C101B3
:104EE00003A7C70297B701009387074683A7070068
:104EF00083A7C702637CF7108327C10183A78701BB
:104F000063C2070297B701009387074483A707008E
:104F100083A7C7021307A0003307F7408327C10107
:104F200023ACE7008327C10183A647018327C10182
:104F300003A7C7029307070093972700B387E700EB
:104F40009397270017B7010013074753B387E7006C
:104F50006396F600930710006F008000930700002F
:104F6000638A07088327C1019387470013850700D9
:104F7000EFC0CF9797B701009387073D83A707003E
:104F800003A7C7028327C10123A6E7028327C10124
:104F900003A7C70297B701009387476283A707005B
:104FA00063FCE7008327C10103A7C70297B701008D
:104FB0009387C76023A0E7008327C10103A7C70227
:104FC0009307070093972700B387E700939727007D
:104FD00017B701001307874A3387E7008327C1010A
:104FE000938747009385070013050700EFB0DFFBA9
:104FF0006F00C00197B701009387073583A70700AB
:1050000003A7C7028327C10123A6E70213000000FC
:105010008320C1021301010367800000130101FD19
:10502000232611022326A1008327C100232CF1008F
:10503000232E01008327C1006386071097B7010064
:105040009387873083A70700032781016306F70052
:10505000737004306F0000008327810183A7470528
:1050600063960700737004306F000000832781018E
:1050700083A747051387F7FF8327810123AAE70446
:105080008327810103A7C7028327810183A707051F
:10509000630AF70A8327810183A747056394070AF8
:1050A000832781019387470013850700EFC00F8492
:1050B0008327810103A707058327810123A6E70230
:1050C0008327810183A7C7021307A0003307F74096
:1050D0008327810123ACE7008327810103A7C7024F
:1050E00097B701009387874D83A7070063FCE7000C
:1050F0008327810103A7C70297B701009387074C55
:1051000023A0E7008327810103A7C70293070700B5
:1051100093972700B387E7009397270017B70100FD
:105120001307C7353387E70083278101938747003B
:105130009385070013050700EFB01FE793071000E2
:10514000232EF1008327C101138507008320C102AC
:1051500013010103678000007370043097B70100EA
:105160009387074683A707006384070297B7010068
:105170009387871D83A7070003A74704130717001A
:1051800023A2E70497B701009387071C83A70700B2
:10519000130000006780000097B701009387474223
:1051A00083A707006384070497B701009387C71993
:1051B00083A7070083A74704638A070297B7010004
:1051C0009387871883A7070003A747041307F7FFF0
:1051D00023A2E70497B701009387071783A7070067
:1051E00083A7470463940700736004301300000032
:1051F00067800000130101FF97B701009387C71470
:1052000083A7070083A787012326F10097B7010032
:105210009387871383A7070003A7C70297B70100E7
:105220009387871283A707009306A0003387E64081
:1052300023ACE7008327C100138507001301010198
:105240006780000097B701009387071083A70700C6
:10525000638E070097B701009387070F83A70700A6
:1052600003A747051307170023AAE70497B7010010
:105270009387870D83A707001385070067800000C9
:10528000130101FD232611022326A1002324B100CE
:10529000EFF09FEC97B701009387070B83A70700F8
:1052A00083A787056396070897B701009387C70907
:1052B00083A707001307100023AEE70483278100AC
:1052C0006388070697B701009387070883A707003D
:1052D0009387470013850700EFB05FE10327810044
:1052E0009307F0FF6314F70297B701009387C70590
:1052F00083A70700938747009385070017B5010030
:105300001305052AEFB05FCA6F00400297B701008E
:105310009387872A83A7070003278100B307F70035
:10532000232EF1000325C101EFF04FEAEFB04FA6A5
:10533000EFF09FE6EFF05FE297B701009387C700B9
:1053400083A7070083A78705232CF100832781010A
:10535000638C07028327C100638C070097B70100A5
:10536000938787FE83A7070023AC07046F00C00163
:1053700097B70100938747FD83A7070003A7870519
:105380001307F7FF23ACE70497B701009387C7FB28
:1053900083A7070023AE0704EFF01FE083278101F6
:1053A000138507008320C1021301010367800000F9
:1053B000130101FD232611022326A1002324B1009D
:1053C0002322C1002320D100EFF01FD997B701009D
:1053D000938787F783A7070003A7C70593072000D4
:1053E0006306F70A97B70100938707F683A70700BC
:1053F00083A687050327C1001347F7FF33F7E600AD
:1054000023ACE70497B70100938707F483A707004D
:105410001307100023AEE704832701006388070603
:1054200097B70100938747F283A707009387470048
:1054300013850700EFB09FCB032701009307F0FF10
:105440006314F70297B70100938707F083A707005B
:10545000938747009385070017B50100130545148E
:10546000EFB09FB46F00400297B701009387C71455
:1054700083A7070003270100B307F700232CF100DF
:1054800003258101EFF08FD4EFB08F90EFF0DFD0E4
:10549000EFF09FCC83274100638E070097B7010090
:1054A000938787EA83A7070003A78705832741001F
:1054B00023A0E70097B70100938707E983A70700B8
:1054C00003A7C705930710006316F700232E0100FA
:1054D0006F00C00297B70100938707E783A7070013
:1054E00083A68705032781001347F7FF33F7E600FC
:1054F00023ACE70493071000232EF10097B70100B7
:10550000938787E483A7070023AE0704EFF0DFC883
:105510008327C101138507008320C1021301010302
:1055200067800000130101FD232611022326A1003C
:105530002324B1002322C1002320D10093071000AF
:10554000232EF1008327C100639607007370043097
:105550006F0000008327C100232CF100EFF0DFBFB4
:1055600083270100638A07008327810103A787053A
:105570008327010023A0E7008327810183A7C705B4
:10558000232AF100832781011307200023AEE704BB
:10559000032741009307400063ECE708832741009D
:1055A0001397270097B70100938747A6B307F70023
:1055B00003A7070097B70100938747A5B307F70034
:1055C000678007008327810103A787058327810060
:1055D0003367F7008327810123ACE7046F004005A0
:1055E0008327810183A787051387170083278101FC
:1055F00023ACE7046F00C0038327810103278100E8
:1056000023ACE7046F00C002032741019307200089
:10561000630AF700832781010327810023ACE70495
:105620006F000001232E01006F00800013000000B6
:1056300003274101930710006316F70A83278101AE
:105640009387470013850700EFB05FAA8327810186
:1056500003A7C70297B70100938747F683A7070000
:1056600063FCE7008327810103A7C70297B7010006
:105670009387C7F423A0E7008327810103A7C7020C
:105680009307070093972700B387E70093972700B6
:1056900017B70100130787DE3387E70083278101EF
:1056A000938747009385070013050700EFB0DF8F4E
:1056B0008327810183A78702638607007370043004
:1056C0006F0000008327810103A7C70297B701007D
:1056D000938787C783A7070083A7C70263F4E70000
:1056E000EFA01FEBEFF05FAB8327C101138507002D
:1056F0008320C1021301010367800000130101FC34
:10570000232E1102232EA100232CB100232AC10035
:105710002328D1002326E100930710002326F1025D
:105720008327C10163960700737004306F00000087
:105730008327C1012324F102EFA0DFFC93070500BA
:105740002322F10283270101638A07008327810254
:1057500003A787058327010123A0E7008327810290
:1057600083A7C7052320F1028327810213072000A6
:1057700023AEE704032741019307400063ECE708E9
:10578000832741011397270097B701009387478923
:10579000B307F70003A7070097B70100938747886F
:1057A000B307F700678007008327810203A78705F7
:1057B000832781013367F7008327810223ACE70445
:1057C0006F0040058327810283A787051387170091
:1057D0008327810223ACE7046F00C0038327810283
:1057E0000327810123ACE7046F00C00203270102F5
:1057F00093072000630AF7008327810203278101B2
:1058000023ACE7046F000001232601026F00800033
:105810001300000003270102930710006314F70E22
:105820008327810283A78702638607007370043091
:105830006F00000097B70100938707DA83A707007E
:10584000639E07068327810293874700138507001D
:10585000EFB0DF898327810203A7C70297B7010052
:105860009387C7D583A7070063FCE70083278102DE
:1058700003A7C70297B70100938747D423A0E70087
:105880008327810203A7C702930707009397270086
:10589000B387E7009397270017B70100130707BEE8
:1058A0003387E700832781029387470093850700AA
:1058B00013050700EFB04FEF6F00C001832781028F
:1058C000938787019385070017B50100130585CAE3
:1058D000EFB08FED8327810203A7C70297B70100BE
:1058E000938787A683A7070083A7C70263FCE70007
:1058F0008327C100638807008327C10013071000B6
:1059000023A0E7008327410213850700EFA0DFDD16
:105910008327C102138507008320C10313010104FB
:1059200067800000130101FD232611022326A10038
:105930002324B1008327C1006396070073700430ED
:105940006F0000008327C100232EF100EFA09FDB32
:1059500093070500232CF1008327C10183A7C70506
:10596000232AF1008327C1011307200023AEE70497
:105970008327C10183A78705138717008327C101E8
:1059800023ACE70403274101930710006314F70ECB
:105990008327C10183A787026386070073700430E1
:1059A0006F00000097B70100938707C383A7070024
:1059B000639E07068327C10193874700138507006D
:1059C000EFB0CFF28327C10103A7C70297B7010049
:1059D0009387C7BE83A7070063FCE7008327C10145
:1059E00003A7C70297B70100938747BD23A0E7002D
:1059F0008327C10103A7C7029307070093972700D6
:105A0000B387E7009397270017B70100130707A78D
:105A10003387E7008327C1019387470093850700F9
:105A200013050700EFB04FD86F00C0018327C101F5
:105A3000938787019385070017B50100130585B388
:105A4000EFB08FD68327C10103A7C70297B7010024
:105A50009387878F83A7070083A7C70263FCE700AC
:105A600083278100638807008327810013071000C4
:105A700023A0E7008327810113850700EFA0DFC67D
:105A8000130000008320C10213010103678000009E
:105A9000130101FD232611022326A1008327C10043
:105AA000232CF10083278101639A070097B7010037
:105AB0009387878983A707006F0080008327810170
:105AC000232CF100EFF04FE98327810103A7C705DD
:105AD00093072000631CF7008327810123AE07048E
