:0200000480007A
:10000000B72F0000938F0F8073900F306F00400365
:100010001300000013000000130000001300000094
:100020001300000013000000130000001300000084
:100030001300000013000000130000001300000074
:100040009702000093824211739052309300000097
:10005000130100009301000013020000930200004E
:100060001303000093030000130400009304000036
:10007000130500009305000013060000930600001E
:100080001307000093070000130800009308000006
:100090001309000093090000130A0000930A0000EE
:1000A000130B0000930B0000130C0000930C0000D6
:1000B000130D0000930D0000130E0000930E0000BE
:1000C000130F0000930F0000971102009381C1BB32
:1000D000170502001305053F9795030093850571E9
:1000E00013060000EF00001A17050200130505397A
:1000F000970502009385053913060000EF0080186C
:1001000017A503001305C56E97B503009385056E0B
:1001100037B6ABAB1306B6BAEF00C01617B1030083
:100120001301016DEF7000399392120093D2120007
:100130009382D2FF638A02008322010013014100EF
:100140006F0000177300203083220100130141006B
:10015000730020301301C1FF23205100F32220340B
:10016000E3C402FC8322010013014100130141F8A2
:1001700023221100232421002326310023284100BB
:10018000232A5100232C6100232E71002320810299
:10019000232291022324A1022326B1022328C10293
:1001A000232AD102232CE102232EF1022320010570
:1001B0002322110523242105232631052328410567
:1001C000232A5105232C6105232E71052320810745
:1001D000232291072324A1072326B1072328C1073F
:1001E000232AD107232CE107232EF107732520347E
:1001F000F3251034130601006F000000731015344E
:1002000083204100032181008321C10003220101D9
:1002100083224101032381018323C10103240102BD
:1002200083244102032581028325C10203260103A1
:1002300083264103032781038327C1030328010485
:1002400083284104032981048329C104032A010569
:10025000832A4105032B8105832BC105032C01064D
:10026000832C4106032D8106832DC106032E010731
:10027000832E4107032F8107832FC1071301C10775
:10028000730020302320C5006376B50013054500B8
:100290006FF05FFF678000000000000000000000BA
:1002A000000000000000000000000000000000004E
:1002B000130101F8232011002322210023243100FF
:1002C0002326410023285100232A6100232C71009A
:1002D000232E8100232091022322A1022324B10294
:1002E0002326C1022328D102232AE102232CF10272
:1002F000232E010323201105232221052324310568
:100300002326410523285105232A6105232C710545
:10031000232E8105232091072322A1072324B1073F
:100320002326C1072328D107232AE107232CF1071D
:100330009702020083A2821423A02200F322103429
:10034000232E5106EF0080461701020003210113FE
:10035000032101008322C10773901234B7220000E9
:100360009382028873A00230832001000322C1001F
:100370008322010103234101832381010324C1015D
:100380008324010203254102832581020326C10241
:100390008326010303274103832781030328C10325
:1003A000832801040329410483298104032AC10409
:1003B000832A0105032B4105832B8105032CC105ED
:1003C000832C0106032D4106832D8106032EC106D1
:1003D000832E0107032F4107832F81071301010893
:1003E00073002030970202009382C20D23A01200F6
:1003F00023A2220023A4320023A6420023A85200F5
:1004000023AA620023AC720023AE820023A09202D2
:1004100023A2A20223A4B20223A6C20223A8D202CC
:1004200023AAE20223ACF20223AE020323A01205A8
:1004300023A2220523A4320523A6420523A85205A0
:1004400023AA620523AC720523AE820523A092077E
:1004500023A2A20723A4B20723A6C20723A8D20778
:1004600023AAE20723ACF207EF6010731701020022
:100470000321C100032101008322C10773901234BC
:10048000B72200009382028873A00230832001000B
:100490000322C1008322010103234101832381013F
:1004A0000324C10183240102032541028325810223
:1004B0000326C10283260103032741038327810307
:1004C0000328C103832801040329410483298104EB
:1004D000032AC104832A0105032B4105832B8105CF
:1004E000032CC105832C0106032D4106832D8106B3
:1004F000032EC106832E0107032F4107832F810797
:10050000130101087300203097020200938282FBDE
:1005100083A0020003A1420083A1820003A2C200C3
:1005200083A2020103A3420183A3820103A4C201A7
:1005300083A4020203A5420283A5820203A6C2028B
:1005400083A6020303A7420383A7820303A8C2036F
:1005500083A8020403A9420483A9820403AAC20453
:1005600083AA020503AB420583AB820503ACC20537
:1005700083AC020603AD420683AD820603AEC2061B
:1005800083AE020703AFC20983AF82076780000012
:1005900073700430130101F823201100232221007D
:1005A000232431002326410023285100232A6100FF
:1005B000232C7100232E8100232091022322A102EB
:1005C0002324B1022326C1022328D102232AE102D7
:1005D000232CF102232E01032320110523222105C0
:1005E000232431052326410523285105232A6105AB
:1005F000232C7105232E8105232091072322A10797
:100600002324B1072326C1072328D107232AE10782
:10061000232CF1079702020083A242E623A02200C6
:10062000232E1106EF20D05817010200032101E507
:10063000032101008322C10773901234B722000006
:100640009382028873A00230832001000322C1003C
:100650008322010103234101832381010324C1017A
:100660008324010203254102832581020326C1025E
:100670008326010303274103832781030328C10342
:10068000832801040329410483298104032AC10426
:10069000832A0105032B4105832B8105032CC1050A
:1006A000832C0106032D4106832D8106032EC106EE
:1006B000832E0107032F4107832F810713010108B0
:1006C0007300203097070200938707DC03A7070019
:1006D0009307F0FF6306F700737004306F000000AB
:1006E000737004306F000000130101FF2326A10086
:1006F0008327C100739047301300000013010101EC
:1007000067800000130101FFF32740302326F1002A
:1007100073F043308327C1001385070013010101E3
:1007200067800000130101FF2326A1002324B100EC
:100730002322C1008327C1009387C7FF2326F1002E
:10074000032781008327C10023A0E7008327C1007E
:10075000938787FA2326F100032741008327C100EE
:1007600023A0E7008327C100938787FE2326F1009B
:1007700093870100138707008327C10023A0E700A8
:100780008327C100938747FF2326F1001707000046
:10079000130787F38327C10023A0E7008327C10045
:1007A000138507001301010167800000130101FF99
:1007B00023261100EF60D033EF20101693070500B9
:1007C00063840700EF20D03E130000008320C100A7
:1007D0001301010167800000130101FF2326A1001E
:1007E0008327C100138787008327C10023A2E70066
:1007F0008327C1001307F0FF23A4E7008327C1006C
:10080000138787008327C10023A6E7008327C10041
:10081000138787008327C10023A8E7008327C1002F
:1008200023A00700130000001301010167800000EE
:10083000130101FF2326A1008327C10023A807007D
:10084000130000001301010167800000130101FE85
:100850002326A1002324B1008327C10083A74700DA
:10086000232EF100832781000327C10123A2E70083
:100870008327C10103A787008327810023A4E70002
:100880008327C10183A787000327810023A2E700F4
:100890008327C1010327810023A4E7008327810068
:1008A0000327C10023A8E7008327C10083A707000F
:1008B000138717008327C10023A0E700130000005F
:1008C0001301010267800000130101FE2326A1002D
:1008D0002324B1008327810083A70700232CF10084
:1008E000032781019307F0FF631AF7008327C100F4
:1008F00083A70701232EF1006F0040038327C10067
:1009000093878700232EF1006F0000018327C10128
:1009100083A74700232EF1008327C10183A7470047
:1009200083A7070003278101E372F7FE8327C10134
:1009300003A747008327810023A2E70083278100C4
:1009400083A747000327810023A4E70083278100B2
:100950000327C10123A4E7008327C10103278100E6
:1009600023A2E700832781000327C10023A8E70013
:100970008327C10083A70700138717008327C100BF
:1009800023A0E700130000001301010267800000AC
:10099000130101FE2326A1008327C10083A70701BD
:1009A000232EF1008327C10083A747000327C1003E
:1009B0000327870023A4E7008327C10083A78700BC
:1009C0000327C1000327470023A2E7008327C101B3
:1009D00083A747000327C100631AF7008327C100DC
:1009E00003A787008327C10123A2E7008327C10053
:1009F00023A807008327C10183A707001387F7FFF8
:100A00008327C10123A0E7008327C10183A7070033
:100A1000138507001301010267800000130101FD27
:100A200023261102232481022326A1002324B100BE
:100A30008327C100232EF1008327C101639607009D
:100A4000737004306F000000EF3010418327C10144
:100A500003A407008327C10103A7C7038327C1019C
:100A600083A707049385070013050700EF70104C58
:100A7000930705003307F4008327C10123A2E70091
:100A80008327C10123AC07028327C10103A7070005
:100A90008327C10123A4E7008327C10103A4070022
:100AA0008327C10183A7C7031387F7FF8327C101EA
:100AB00083A707049385070013050700EF7010470D
:100AC000930705003307F4008327C10123A6E7003D
:100AD0008327C1011307F0FF23A2E7048327C10185
:100AE0001307F0FF23A4E70483278100639A07021A
:100AF0008327C10183A70701638407048327C101FA
:100B00009387070113850700EF20504C130705005A
:100B1000930710006316F702EFF09FA76F004002E3
:100B20008327C1019387070113850700EFF0DFCA10
:100B30008327C1019387470213850700EFF0DFC9C0
:100B4000EF30903593071000138507008320C10212
:100B5000032481021301010367800000130101FDDA
:100B6000232611022326A1002324B10093070600A7
:100B7000A303F100232C01008327C1006396070023
:100B8000737004306F0000008327810063960700B4
:100B9000232E01006F00C001832581000325C100C1
:100BA000EF70D0389307050093871700232EF100CC
:100BB0008327C1019387470513850700EF50006E17
:100BC000232AA1008327410163820706832781002E
:100BD000639A0700832741010327410123A0E7000F
:100BE0006F00400183274101138747058327410197
:100BF00023A0E700832741010327C10023AEE702BA
:100C0000832741010327810023A0E70493051000F7
:100C100003254101EFF09FE0832741010347710065
:100C20002388E70483274101232CF10083278101D6
:100C300063960700737004306F0000008327810102
:100C4000138507008320C1021301010367800000A0
:100C5000130101FD2326110293070500A307F100EC
:100C600013054005EF508063232EA1008327C101A7
:100C7000638C07088327C10123A207008327C101D2
:100C800023A007008327C10123A407008327C101F4
:100C900023A607008327C10123AC07028327C101D4
:100CA0001307100023AEE7028327C10123A0070426
:100CB0008327C1011307F0FF23A2E7048327C101A3
:100CC0001307F0FF23A4E7048327C1010347F100C2
:100CD0002388E7048327C101938707011385070051
:100CE000EFF09FAF8327C101938747021385070069
:100CF000EFF09FAE9306000013060000930500007E
:100D00000325C101EF00001E8327C10113850700E1
:100D10008320C1021301010367800000130101FD5C
:100D200023261102232481022326A1008327C10048
:100D3000232CF10083278101639607007370043030
:100D40006F0000008327810103A44700EF3000609B
:100D5000930705006312F4048327810183A7C7006A
:100D60001387F7FF8327810123A6E70083278101EB
:100D700083A7C700639C07009306000013060000CA
:100D80009305000003258101EF00C01593071000B3
:100D9000232EF1006F008000232E01008327C10164
:100DA000138507008320C10203248102130101037C
:100DB00067800000130101FD232611022324810214
:100DC0002326A1002324B1008327C100232CF10096
:100DD0008327810163960700737004306F00000061
:100DE0008327810103A44700EF3040569307050095
:100DF0006312F4028327810183A7C70013871700BA
:100E00008327810123A6E70093071000232EF1001A
:100E10006F00C003930600000326810093050000C5
:100E200003258101EF00C058232EA1000327C10133
:100E300093071000631CF7008327810183A7C70075
:100E4000138717008327810123A6E7008327C101A9
:100E5000138507008320C1020324810213010103CB
:100E600067800000130101FD232611022326A10043
:100E70002324B1008327C1006396070073700430F8
:100E80006F000000032781008327C10063F6E7009D
:100E9000737004306F0000001306200093050000FB
:100EA0000325C100EFF09FCB232EA1008327C101B2
:100EB000638807008327C1010327810023ACE70271
:100EC0008327C10163960700737004306F00000030
:100ED0008327C101138507008320C1021301010389
:100EE00067800000130101FC232E11022326A100BC
:100EF0002324B1002322C1002320D1002326010294
:100F00008327C1002324F10283278102639607000F
:100F1000737004306F00000083278100639807001E
:100F20008327810283A707046396070093071000B5
:100F30006F00800093070000639607007370043011
:100F40006F0000000327010093072000631AF700D9
:100F50008327810203A7C703930710006316F700D6
:100F6000930710006F00800093070000639607004E
:100F7000737004306F000000EF30803F930705006E
:100F800063960700832741006396070093071000CC
:100F90006F008000930700006396070073700430B1
:100FA0006F000000EF30406B8327810203A78703A7
:100FB0008327810283A7C7036368F7000327010023
:100FC000930720006310F7060326010083258100A4
:100FD00003258102EF00101C2322A1028327810236
:100FE00083A747026384070283278102938747020E
:100FF00013850700EF20807D13070500930710007D
:10100000631CF700EFF0CFD86F0000018327410287
:1010100063840700EFF0CFD7EF300068930710002C
:101020006F00400F8327410063980700EF30C066D0
:10103000930700006F00000E8327C102639C070026
:101040009307C10113850700EF20501D930710007F
:101050002326F102EF304064EF10D049EF30C05F3B
:101060008327810203A747049307F0FF6316F70065
:101070008327810223A207048327810203A7870411
:101080009307F0FF6316F7008327810223A4070468
:10109000EF308060130741009307C10193050700FB
:1010A00013850700EF20501C93070500639C07047D
:1010B00003258102EF00504693070500638C070269
:1010C00083278102938707010327410093050700C7
:1010D00013850700EF20004A03258102EF00902CC2
:1010E000EF10904393070500E39E07EAEFF04FCA25
:1010F0006FF05FEB03258102EF00D02AEF10D041A3
:101100006FF05FEA03258102EF00D029EF10D04095
:1011100093070000138507008320C1031301010416
:1011200067800000130101FD232611022326A10080
:101130002324B1002322C1002320D1008327C10032
:10114000232CF1008327810163960700737004301C
:101150006F000000832781006398070083278101C7
:1011600083A7070463960700930710006F008000B1
:101170009307000063960700737004306F0000004F
:101180000327010093072000631AF70083278101DA
:1011900003A7C703930710006316F7009307100017
:1011A0006F0080009307000063960700737004309F
:1011B0006F000000EFF00FD593070500232AF10020
:1011C0008327810103A787038327810183A7C7039F
:1011D0006368F70003270100930720006310F708F6
:1011E000032601008325810003258101EF00807A19
:1011F0008327810103A787049307F0FF6310F70497
:101200008327810183A74702638407048327810121
:101210009387470213850700EF20405B9307050083
:101220006388070283274100638407028327410004
:101230001307100023A0E7006F00800183278101BE
:1012400083A78704138717008327810123A4E7045A
:1012500093071000232EF1006F008000232E010061
:101260008327410113850700EFF00FC88327C101D1
:10127000138507008320C10213010103678000006A
:10128000130101FD232611022326A1002324B1000E
:101290008327C100232CF100832781016396070077
:1012A000737004306F0000008327810183A7070457
:1012B00063860700737004306F000000832781018C
:1012C00083A70700639807008327810183A747004E
:1012D00063960700930710006F00800093070000DB
:1012E00063960700737004306F000000EFF08FC149
:1012F00093070500232AF1008327810103A78703B1
:101300008327810183A7C7036372F70883278101BD
:1013100083A78703138717008327810123ACE70284
:101320008327810103A787049307F0FF6310F70465
:101330008327810183A747026384070483278101F0
:101340009387470213850700EF2040489307050065
:101350006388070283278100638407028327810053
:101360001307100023A0E7006F008001832781018D
:1013700083A78704138717008327810123A4E70429
:1013800093071000232EF1006F008000232E010030
:101390008327410113850700EFF00FB58327C101B3
:1013A000138507008320C102130101036780000039
:1013B000130101FC232E11022326A1002324B100D6
:1013C0002322C1002320D100232601028327C1004C
:1013D0002324F1028327810263960700737004308F
:1013E0006F00000083278100639807008327810234
:1013F00083A7070463960700930710006F0080001F
:101400009307000063960700737004306F000000BC
:10141000EF201076930705006396070083274100AD
:1014200063960700930710006F0080009307000089
:1014300063960700737004306F000000EF30C02126
:101440008327810283A787036382070C8327810296
:1014500083A7C7002322F10283258100032581028F
:10146000EF00806B832701006392070683278102C8
:1014700083A787031387F7FF8327810223ACE70243
:101480008327810283A70700639A0700EF30802B30
:10149000130705008327810223A2E7008327810227
:1014A00083A70701638E07048327810293870701BF
:1014B00013850700EF208031130705009307100004
:1014C0006310F704EFF0CF8C6F0080038327810255
:1014D0000327410223A6E7008327810283A747024F
:1014E00063800702832781029387470213850700E1
:1014F000EF20C02D9307050063840700EFF04F89AC
:10150000EF308019930710006F008011832741008E
:1015100063980700EF304018930700006F004010F9
:101520008327C102639C07009307C101138507004D
:10153000EF20C04E930710002326F102EF30C015B4
:10154000EF10407BEF3040118327810203A747044F
:101550009307F0FF6316F7008327810223A2070495
:101560008327810203A787049307F0FF6316F70020
:101570008327810223A40704EF30001213074100E0
:101580009307C1019305070013850700EF20C04DA5
:1015900093070500639E070603258102EF00406F55
:1015A00093070500638E07048327810283A7070042
:1015B000639E0700EF30400A8327810283A747001C
:1015C00013850700EF20D05FEF30000D83278102E5
:1015D00093874702032741009305070013850700FF
:1015E000EF10507903258102EF00C05BEF10C0724D
:1015F00093070500E39407E4EFE09FF96FF01FE421
:1016000003258102EF00005AEF1000716FF01FE315
:1016100003258102EF000059EF10007093070000CE
:10162000138507008320C1031301010467800000B4
:10163000130101FD232611022326A1002324B1005A
:101640002322C1008327C100232CF10083278101BD
:1016500063960700737004306F00000083278100D9
:10166000639807008327810183A707046396070017
:10167000930710006F008000930700006396070037
:10168000737004306F000000EFF0CF879307050000
:10169000232AF1008327810183A787036388070832
:1016A0008325810003258101EF0000478327810105
:1016B00083A787031387F7FF8327810123ACE70202
:1016C0008327810103A747049307F0FF6310F70402
:1016D0008327810183A7070163840704832781018E
:1016E0009387070113850700EF20400E930705003D
:1016F0006388070283274100638407028327410030
:101700001307100023A0E7006F00800183278101E9
:1017100083A74704138717008327810123A2E704C7
:1017200093071000232EF1006F008000232E01008C
:101730008327410113850700EFE01FFB8327C101C9
:10174000138507008320C102130101036780000095
:10175000130101FD232611022326A1002324B10039
:101760008327C100232CF1008327810163960700A2
:10177000737004306F0000008327810063980700B6
:101780008327810183A7070463960700930710004E
:101790006F008000930700006396070073700430A9
:1017A0006F0000008327810183A707046396070069
:1017B000737004306F000000EFE0DFF49307050062
:1017C000232AF1008327810183A78703638A070205
:1017D0008327810183A7C7002328F1008325810087
:1017E00003258101EF004033832781010327010195
:1017F00023A6E70093071000232EF1006F0080005E
:10180000232E01008327410113850700EFE0DFED60
:101810008327C101138507008320C102130101033F
:1018200067800000130101FD232611022326A10079
:101830008327C10063960700737004306F000000B7
:10184000EF2090618327C10083A78703232EF10037
:10185000EF2090648327C101138507008320C10214
:101860001301010367800000130101FD232611020B
:101870002326A1008327C100232EF1008327C10165
:1018800063960700737004306F000000EF20D05C97
:101890008327C10103A7C7038327C10183A7870348
:1018A000B307F740232CF100EF20105F832781015D
:1018B000138507008320C102130101036780000024
:1018C000130101FE2326A1008327C10063960700B0
:1018D000737004306F0000008327C10083A7870363
:1018E000232EF1008327C101138507001301010294
:1018F00067800000130101FD232611022326A100A9
:101900008327C100232EF1008327C10163960700BE
:10191000737004306F0000000325C101EF004052D6
:101920000325C101EF405037130000008320C1029E
:101930001301010367800000130101FF2326A100AA
:101940008327C10083A7C704138507001301010182
:1019500067800000130101FF2326A1002324B100AA
:101960008327C1000327810023A6E704130000009A
:101970001301010167800000130101FF2326A1006C
:101980008327C10083C707051385070013010101E1
:1019900067800000130101FD232611022326A10008
:1019A0002324B1002322C100232E01008327C1007C
:1019B00083A70704639807028327C10083A7070052
:1019C000639807128327C10083A747001385070088
:1019D000EF20D034232EA1008327C10023A20700CB
:1019E0006F00001183274100639407068327C1001D
:1019F00003A787008327C10083A707041386070076
:101A00008325810013050700EF40D03F8327C100E5
:101A100003A787008327C10083A707043307F700C4
:101A20008327C10023A4E7008327C10003A7870001
:101A30008327C10083A74700636CF70A8327C1008F
:101A400003A707008327C10023A4E7006F00400A13
:101A50008327C10003A7C7008327C10083A707040A
:101A6000138607008325810013050700EF40903996
:101A70008327C10003A7C7008327C10083A70704EA
:101A8000B307F0403307F7008327C10023A6E70020
:101A90008327C10003A7C7008327C10083A70700CE
:101AA0006372F7028327C10003A747008327C100A1
:101AB00083A70704B307F0403307F7008327C1006B
:101AC00023A6E70003274100930720006312F702D3
:101AD0008327C10083A78703638C07008327C10086
:101AE00083A787031387F7FF8327C10023ACE7028F
:101AF0008327C10083A78703138717008327C100AB
:101B000023ACE7028327C101138507008320C102AC
:101B10001301010367800000130101FE232E110051
:101B20002326A1002324B1008327C10083A7070433
:101B3000638207068327C10003A7C7008327C1006C
:101B400083A707043307F7008327C10023A6E70014
:101B50008327C10003A7C7008327C10083A74700CD
:101B6000636AF7008327C10003A707008327C1002A
:101B700023A6E7008327C10003A7C7008327C1006E
:101B800083A7070413860700930507000325810038
:101B9000EF405027130000008320C1011301010210
:101BA00067800000130101FE232E11002326A100EF
:101BB000EF20902A6F0000048327C10083A747020B
:101BC000638207048327C1009387470213850700B8
:101BD000EF10D03F9307050063840700EF10D07823
:101BE0008327C10083A787041387F7FF8327C100DA
:101BF00023A4E7048327C10083A78704E34EF0FAF8
:101C00006F008000130000008327C1001307F0FF5E
:101C100023A4E704EF205028EF2010246F000004D5
:101C20008327C10083A70701638207048327C100BC
:101C30009387070113850700EF10503993070500BC
:101C400063840700EF1050728327C10083A7470405
:101C50001387F7FF8327C10023A2E7048327C1006E
:101C600083A74704E34EF0FA6F00800013000000E2
:101C70008327C1001307F0FF23A2E704EF20D02140
:101C8000130000008320C1011301010267800000DE
:101C9000130101FD232611022326A100EF20D01BF2
:101CA0008327C10083A78703639807009307100069
:101CB000232EF1006F008000232E0100EF20D01DA5
:101CC0008327C101138507008320C102130101038B
:101CD00067800000130101FE2326A1008327C100B5
:101CE00063960700737004306F0000008327C10003
:101CF00083A787036398070093071000232EF10042
:101D00006F008000232E01008327C1011385070087
:101D10001301010267800000130101FD2326110257
:101D20002326A100EF2050138327C10003A78703B8
:101D30008327C10083A7C7036318F7009307100028
:101D4000232EF1006F008000232E0100EF20D0141D
:101D50008327C101138507008320C10213010103FA
:101D600067800000130101FE2326A1008327C10024
:101D700063960700737004306F0000008327C10072
:101D800003A787038327C10083A7C7036318F7004E
:101D900093071000232EF1006F008000232E010016
:101DA0008327C1011385070013010102678000002A
:101DB000130101FE2326A1002324B100232E0100DC
:101DC0006F008006178703001307479E8327C10112
:101DD00093973700B307F70083A7070063900704C2
:101DE000178703001307879C8327C1019397370048
:101DF000B307F7000327810023A0E700178703003C
:101E00001307C79A8327C10193973700B307F700D9
:101E10000327C10023A2E7006F00C0018327C1018F
:101E200093871700232EF1000327C1019307700049
:101E3000E3FAE7F8130000001301010267800000D5
:101E4000130101FE2326A100232E01006F00C00410
:101E500017870300130787958327C10193973700DE
:101E6000B307F70083A747000327C1006310F702F9
:101E700017870300130787938327C10193973700C0
:101E8000B307F70023A007006F00C0018327C1013B
:101E900093871700232EF1000327C10193077000D9
:101EA000E3F8E7FA13000000130101026780000065
:101EB000130101FD232611022326A1002324B100D2
:101EC0002322C1008327C100232EF100EF20C07818
:101ED0008327C10103A747049307F0FF6316F700A8
:101EE0008327C10123A207048327C10103A7870415
:101EF0009307F0FF6316F7008327C10123A40704AB
:101F0000EF2080798327C10183A78703639E0700A1
:101F10008327C1019387470203264100832581005F
:101F200013850700EF10007F0325C101EFF09FC765
:101F3000130000008320C102130101036780000029
:101F4000130101FC232E1102232EA100232CB1002A
:101F50002328D1002326E1002324F10023220101BC
:101F60002320110193070600231BF1008327C101E1
:101F700063960700737004306F0000000327C100F0
:101F80009307900063F6E700737004306F00000061
:101F9000835761018325410013850700EF10D07E30
:101FA0002324A102832781026386071C83278102E1
:101FB00003A7070383566101B70700409387F7FF24
:101FC000B387F60093972700B307F7002322F102A7
:101FD0008327410293F7C7FF2322F102832741029F
:101FE00093F7370063860700737004306F000000BA
:101FF0008357610113870700832601000326C10070
:102000008325810103258102EF1050410326010140
:102010008325C10103254102EFE0CFF0130705003E
:102020008327810223A0E7008327810063880700BC
:10203000832781000327810223A0E700EF20C061EE
:1020400097E701009387476383A70700138717006B
:1020500097E701009387476223A0E70097E7010015
:102060009387C74183A707006398070297E701009A
:102070009387C7400327810223A0E70097E7010069
:102080009387875F03A70700930710006312F70485
:10209000EF10904B6F00C00397E701009387875EB6
:1020A00083A707006396070297E701009387073D20
:1020B00083A7070083A7C7020327C100636AF7004D
:1020C00097E701009387873B0327810223A0E7005E
:1020D00097E701009387075C83A707001387170022
:1020E00097E701009387075B23A0E70097E70100CC
:1020F0009387475A03A707008327810223A4E70495
:102100008327810203A7C70297E7010093874757F8
:1021100083A7070063FCE7008327810203A7C702A8
:1021200097E701009387C75523A0E7008327810223
:1021300003A7C7029307070093972700B387E70019
:102140009397270017E701001307873F3387E700BE
:1021500083278102938747009385070013050700B3
:10216000EFE0CFEE930710002326F102EF20C052DC
:102170006F00C0009307F0FF2326F1020327C1027E
:10218000930710006318F70297E701009387874FC2
:1021900083A707006380070297E701009387072E54
:1021A00083A7070083A7C7020327C10063F4E700E2
:1021B000EFE00FBE8327C102138507008320C10310
:1021C0001301010467800000130101FD23261102A1
:1021D0002326A100EF2040488327C100639A07000F
:1021E00097E701009387872983A707006F00800086
:1021F0008327C100232EF1008327C1019387470065
:1022000013850700EFE0CFF88327C10183A787027A
:10221000638A07008327C10193878701138507001D
:10222000EFE00FF78327C1019387470093850700ED
:1022300017E5010013058541EFE04FE197E7010045
:102240009387074283A707001387170097E70100CA
:102250009387074123A0E70097E70100938787430F
:1022600083A707001387170097E70100938787422A
:1022700023A0E700EF20404297E7010093878740C3
:1022800083A707006382070497E701009387071F6E
:1022900083A707000327C1016312F70297E7010034
:1022A0009387C73F83A707006386070073700430D6
:1022B0006F000000EFE0CFAD6F000001EF20C039EC
:1022C000EF208001EF20403D130000008320C10279
:1022D0001301010367800000130101FD2326110291
:1022E0002326A1002324B100232E01008327C1004F
:1022F00063960700737004306F000000832781002D
:1023000063960700737004306F00000097E70100C8
:102310009387C73883A7070063860700737004306C
:102320006F000000EF00101D97E70100938707354D
:1023300083A70700232CF1008327C10083A7070090
:1023400003278100B307F700232AF1008327C10088
:1023500083A70700032781016376F7028327C10063
:1023600083A70700032741016370F7040327410196
:102370008327810163FAE70293071000232EF100FF
:102380006F0080028327C10083A707000327410154
:102390006368F700032741018327810163F6E700A3
:1023A00093071000232EF1008327C100032741016A
:1023B00023A0E7008327C1016382070297E701009A
:1023C0009387C70B83A707009387470013850700F0
:1023D000EFE00FDC03254101EF10502FEF00D01389
:1023E0002328A1008327010163940700EFE04F9A9F
:1023F000130000008320C102130101036780000065
:10240000130101FD232611022326A100232E010022
:102410008327C1006380070697E701009387072899
:1024200083A7070063860700737004306F00000005
:10243000EF00500C97E701009387472483A707001C
:102440000327C100B307F700232CF10097E7010031
:102450009387C70283A70700938747001385070068
:10246000EFE00FD303258101EF105026EF00D00AD3
:10247000232EA1008327C10163940700EFE04F9151
:10248000130000008320C1021301010367800000D4
:10249000130101FD232611022326A1008327C10079
:1024A000232CF100832781016396070073700430A9
:1024B0006F00000097E70100938747FC83A70700A0
:1024C000032781016316F700232E01006F00400AE5
:1024D000EF2080188327810183A74701232AF10079
:1024E000EF20801B97E701009387871483A70700DD
:1024F00003274101630CF70097E7010093878713D7
:1025000083A70700032741016318F7009307200002
:10251000232EF1006F00C0050327410197E701005A
:10252000938747146314F7028327810183A78702E7
:102530006398070093073000232EF1006F004003DB
:1025400093072000232EF1006F0080020327410132
:1025500097E701009387870F6318F7009307400000
:10256000232EF1006F00C00093071000232EF1000E
:102570008327C101138507008320C10213010103D2
:1025800067800000130101FD232611022326A1000C
:10259000EF20800C8327C100639A070097E70100B2
:1025A0009387C7ED83A707006F0080008327C100D2
:1025B000232EF1008327C10183A7C702232CF1003A
:1025C000EF20800D83278101138507008320C1023E
:1025D0001301010367800000130101FD232611028E
:1025E0002326A100EFE00F9293070500232EF100B0
:1025F0008327C100639A070097E70100938707E8E4
:1026000083A707006F0080008327C100232CF100FF
:102610008327810183A7C702232AF1008327C101F1
:1026200013850700EFE04F8C8327410113850700D6
:102630008320C1021301010367800000130101FD23
:10264000232611022326A1002324B100232E0100FA
:10265000032781009307900063F6E700737004304E
:102660006F000000032781009307900063F6E700E6
:10267000930790002324F100EF10107E8327C10000
:10268000639A070097E70100938747DF83A7070056
:102690006F0080008327C100232CF1008327810174
:1026A00083A70705232AF10003274101832781001F
:1026B000630EF716032781008327410163FEE702BB
:1026C00097E70100938787DB83A707000327810132
:1026D0006302F70497E70100938747DA83A70700AF
:1026E00083A7C702032781006366F70293071000E0
:1026F000232EF1006F00000297E70100938707D8AF
:1027000083A70700032781016316F70093071000D2
:10271000232EF1008327810183A7C7022328F1001C
:102720008327810103A707058327810183A7C702A8
:102730006318F700832781010327810023A6E7029E
:10274000832781010327810023A8E70483278101D0
:1027500083A7870163CC07001307A00083278100AC
:102760003307F7408327810123ACE70083278101EA
:1027700083A64701032701019307070093972700CA
:10278000B387E7009397270017E70100130747DB9C
:10279000B387E7006396F600930710006F00800090
:1027A00093070000638C0706832781019387470006
:1027B00013850700EFE0CF9D8327810103A7C702A0
:1027C00097E701009387C7EB83A7070063FCE70047
:1027D0008327810103A7C70297E70100938747EA90
:1027E00023A0E7008327810103A7C70293070700FF
:1027F00093972700B387E7009397270017E7010017
:10280000130707D43387E7008327810193874700A5
:102810009385070013050700EFE04F830327C101ED
:10282000930710006314F700EFD09FD6EF10D06627
:10283000130000008320C102130101036780000020
:10284000130101FD232611022326A100EF10D06001
:102850008327C100639A070097E70100938707C2A7
:1028600083A707006F0080008327C100232EF1009B
:102870008327C1019387470013850700EFE04F913D
:102880008327C10183A78702638A07008327C101C9
:102890009387870113850700EFE08F8F8327C1019E
:1028A000938747009385070017E50100130585DB33
:1028B000EFD0DFF9EF10505E97E70100938707BC78
:1028C00083A707000327C1016314F70697E70100F8
:1028D000938747DB83A707006382070297E701001E
:1028E0009387C7DB83A707006386070073700430F4
:1028F0006F000000EFD0DFC96F00400597E70100CF
:10290000938747D603A7070097E701009387C7D6A9
:1029100083A70700631AF70097E70100938707B6BC
:1029200023A007006F008002EF0090286F000002D4
:1029300097E70100938707D583A7070063880700FF
:10294000EF109051EF105019EF10105513000000C8
:102950008320C1021301010367800000130101FEFF
:102960002326A100232E01008327C100232CF10080
:102970008327C10063960700737004306F00000066
:102980008327810103A7470197E70100938787CD3C
:102990006316F700930710006F0080009307000094
:1029A000638E07028327810103A7870297E701004F
:1029B000938787C86304F7028327810183A787026F
:1029C00063960700930710006F00800093070000D4
:1029D0006386070093071000232EF1008327C101AF
:1029E000138507001301010267800000130101FD38
:1029F000232611022326A1008327C100232EF100E4
:102A00008327C10063960700737004306F000000D5
:102A10008327C1016384070C97E70100938707A60A
:102A200083A707000327C101630AF70AEF10D0420A
:102A30000325C101EFF09FF2130705009307100073
:102A4000631CF7088327C10193874700138507009C
:102A5000EFD01FF48327C10103A7C70297E7010046
:102A6000938707C283A7070063FCE7008327C101A0
:102A700003A7C70297E70100938787C023A0E70059
:102A80008327C10103A7C702930707009397270075
:102A9000B387E7009397270017E70100130747AABA
:102AA0003387E7008327C101938747009385070099
:102AB00013050700EFD09FD98327C10103A7C702E1
:102AC00097E701009387879B83A7070083A7C70227
:102AD0006364F700EFD0DFABEF10103C1300000091
:102AE0008320C1021301010367800000130101FD6F
:102AF000232611022326A100232E01008327C100D3
:102B0000232CF1008327C100639607007370043003
:102B10006F000000EFD01FBF93070500232AF100CC
:102B200003258101EFF09FE31307050093071000D1
:102B30006314F70C97E70100938747B683A7070054
:102B40006390070A8327810103A7C70297E7010063
:102B50009387C79283A7070083A7C7026366F7001E
:102B600093071000232EF1008327810193874700EC
:102B700013850700EFD0DFE18327810103A7C70298
:102B800097E701009387C7AF83A7070063FCE700BF
:102B90008327810103A7C70297E70100938747AE08
:102BA00023A0E7008327810103A7C702930707003B
:102BB00093972700B387E7009397270017E7010053
:102BC000130707983387E70083278101938747001E
:102BD0009385070013050700EFD05FC76F00C001A2
:102BE00083278101938787019385070017E50100FB
:102BF000130585A4EFD09FC58327410113850700E6
:102C0000EFD09FAE8327C101138507008320C10247
:102C10001301010367800000130101FE232E110040
:102C2000930800001308000093070000130700003A
:102C3000930600001306004097D501009385853C5C
:102C400017150000130505FBEFF08FAF2326A10039
:102C50000327C100930710006316F700EF20C03A66
:102C60002326A1000327C10093071000631EF7026B
:102C70007370043097E70100938707A21307F0FFF2
:102C800023A0E70097E701009387C79F1307100071
:102C900023A0E70097E701009387479E23A0070042
:102CA000EFD04FF46F0040018327C1006396070007
:102CB000737004306F000000130000008320C10116
:102CC0001301010267800000130101FF2326110098
:102CD0007370043097E701009387C79A23A0070019
:102CE000EFD09F82130000008320C1001301010177
:102CF0006780000097E701009387479A83A7070042
:102D00001387170097E701009387479923A0E700EF
:102D10001300000067800000130101FE232E110044
:102D20002326010097E701009387479783A70700B1
:102D300063960700737004306F000000EF10D0112D
:102D400097E701009387879583A707001387F7FF0D
:102D500097E701009387879423A0E70097E7010096
:102D60009387C79383A707006394071697E701002B
:102D70009387879083A70700638C07146F00800CEC
:102D800097E701009387478B83A7C70083A7C700F6
:102D90002324F1008327810093878701138507008F
:102DA000EFD01FBF8327810093874700138507005B
:102DB000EFD01FBE8327810003A7C70297E701005A
:102DC0009387078C83A7070063FCE70083278100B4
:102DD00003A7C70297E701009387878A23A0E7002C
:102DE0008327810003A7C702930707009397270053
:102DF000B387E7009397270017D70100130747749D
:102E00003387E70083278100938747009385070076
:102E100013050700EFD09FA38327810003A7C702F4
:102E200097D701009387876583A7070083A7C70209
:102E3000636AF70097E7010093874785130710003F
:102E400023A0E70097D701009387077F83A7070098
:102E5000E39807F297E701009387078383A70700AA
:102E6000638807046F00C003EF00002B9307050081
:102E7000638A070097E701009387478113071000D3
:102E800023A0E70097E701009387078083A7070047
:102E90001387F7FF97D701009387077F23A0E700E9
:102EA00097D701009387477E83A70700E39E07FA21
:102EB00097D701009387877D03A70700930710002A
:102EC0006318F700930710002326F100EFD04FECB2
:102ED000EF10807C8327C100138507008320C10188
:102EE0001301010267800000130101FE232E11006F
:102EF000EF10807697D701009387477883A7070064
:102F00002326F100EF1040798327C10013850700C5
:102F10008320C1011301010267800000130101FE3B
:102F2000232E1100EFD00FFE930705002326F1009A
:102F300097D701009387877483A707002324F100A4
:102F40008327C10013850700EFD00FFA8327810084
:102F5000138507008320C10113010102678000006F
:102F600097D701009387477183A707001385070050
:102F700067800000130101FD232611022326A10012
:102F80002324B1002322C100232E01009307A000B7
:102F9000232CF100EFF01FD697D701009387C76D60
:102FA00083A7070003278100636CF714832781013F
:102FB0009387F7FF232CF1008327C10193975700D4
:102FC0000327C100B306F700032781019307070019
:102FD00093972700B387E7009397270017D701003F
:102FE00013070756B387E700130610009385070001
:102FF00013850600EF108004130705008327C10125
:10300000B387E700232EF10083278101E39007FABD
:103010008327C101939757000327C1003307F700A7
:1030200097D701009387C76083A707001306200086
:103030009385070013050700EF10400013070500F4
:103040008327C101B387E700232EF1008327C10145
:10305000939757000327C1003307F70097D7010064
:103060009387475D83A70700130620009385070019
:1030700013050700EF00907C130705008327C101AB
:10308000B387E700232EF1008327C10193975700F0
:103090000327C100B307F7001306400097D50100CE
:1030A0009385C55A13850700EF0050791307050073
:1030B0008327C101B387E700232EF1008327C101D5
:1030C000939757000327C100B307F700130630009A
:1030D00097D501009385055913850700EF001076F9
:1030E000130705008327C101B387E700232EF100F2
:1030F00083274100638607008327410023A0070040
:10310000EFF09FC18327C101138507008320C1020F
:103110001301010367800000130101FD2326110242
:10312000232E010097D701009387475783A70700F5
:10313000639C072297D701009387475483A7070012
:103140001387170097D701009387475323A0E70001
:1031500097D701009387875283A70700232CF1009C
:1031600083278101639C070697D701009387474C0B
:1031700083A7070083A707006386070073700430E6
:103180006F00000097D701009387874A83A7070045
:10319000232AF10097D701009387C74903A70700A7
:1031A00097D701009387C74823A0E70097D701006E
:1031B000938747480327410123A0E70097D70100E1
:1031C0009387074D83A707001387170097D7010040
:1031D0009387074C23A0E700EF10001097D701005A
:1031E0009387874B83A7070003278101636CF7123E
:1031F00097D701009387C74383A7070083A70700DA
:1032000063960700930710006F008000930700008B
:10321000638C070097D70100938707481307F0FFD7
:1032200023A0E7006F00001097D701009387474065
:1032300083A7070083A7C70083A7C7002328F1003F
:103240008327010183A747002326F100032781017B
:103250008327C100637CF70097D701009387C7439A
:103260000327C10023A0E7006F00C00B83270101E3
:103270009387470013850700EFD08FF18327010163
:1032800083A78702638A0700832701019387870149
:1032900013850700EFD0CFEF8327010103A7C702F3
:1032A00097D701009387C73D83A7070063FCE7001A
:1032B0008327010103A7C70297D701009387473CE3
:1032C00023A0E7008327010103A7C7029307070094
:1032D00093972700B387E7009397270017D701003C
:1032E000130707263387E7008327010193874700E9
:1032F0009385070013050700EFD04FD58327010101
:1033000003A7C70297D701009387471783A7070032
:1033100083A7C702E36EF7EC93071000232EF1009A
:103320006FF01FED97D701009387471583A707001C
:1033300003A7C70297D6010093868620930707004C
:1033400093972700B387E70093972700B387F6008A
:1033500003A707009307100063F6E7029307100026
:10336000232EF1006F00000297D701009387C73129
:1033700083A707001387170097D701009387C730EB
:1033800023A0E70097D701009387473083A7070062
:103390006386070093071000232EF1008327C101E5
:1033A000138507008320C102130101036780000019
:1033B000130101FE232E110097D701009387072EDA
:1033C00083A70700638C070097D701009387072C1A
:1033D0001307100023A0E7006F00C01897D7010063
:1033E0009387C72A23A0070097D70100938707096F
:1033F00083A7070083A707032326F100B7A7A5A586
:103400009387575A2324F1008327C10083A707001D
:10341000032781006310F7048327C10093874700C7
:1034200083A70700032781006316F7028327C100E3
:103430009387870083A7070003278100631CF70099
:103440008327C1009387C70083A707000327810054
:103450006302F70697D701009387470203A7070087
:1034600097D701009387870183A7070093874703B6
:103470009385070013050700EF40C0186F00800315
:1034800097D701009387C71F83A70700639607009C
:10349000737004306F00000097D701009387471EB8
:1034A00083A707001387F7FF97D701009387471D6E
:1034B00023A0E70097D701009387871C03A7070085
:1034C00097D601009386C6079307070093972700B6
:1034D000B387E70093972700B387F60083A7070019
:1034E000E38007FA97D701009387871903A707009E
:1034F0009307070093972700B387E7009397270068
:1035000017D701001307C703B387E7002322F10091
:103510008327410083A7470003A747008327410073
:1035200023A2E7008327410003A747008327410028
:1035300093878700631CF7008327410083A7470018
:1035400003A747008327410023A2E7008327410008
:1035500083A7470003A7C70097D70100938707F207
:1035600023A0E700130000008320C1011301010222
:1035700067800000130101FD232611022326A1000C
:103580002324B1008327C1006396070073700430C1
:103590006F00000097D70100938747EE83A70700CD
:1035A00093878701938507000325C100EFD0CFB132
:1035B00097D70100938787EC83A70700938747007D
:1035C00013850700EFD0CFBC032781009307F0FFDE
:1035D0006314F70297D70100938747EA83A7070090
:1035E000938747009385070017D5010013058507CA
:1035F000EFD0CFA56F00400297D70100938707084F
:1036000083A7070003278100B307F700232EF100EB
:103610000325C101EF00900B130000008320C102BD
:103620001301010367800000130101FD232611022D
:103630002326A1002324B1002322C1008327C10037
:1036400063960700737004306F00000097D7010085
:103650009387C70483A7070063960700737004303D
:103660006F00000097D70100938747E183A7070009
:10367000832681003707008033E7E60023ACE700AC
:1036800097D70100938787DF83A707009387870178
:10369000938507000325C100EFD04F9B97D701000A
:1036A0009387C7DD83A7070093874700138507002B
:1036B000EFD00FAE032741009307F0FF6314F7022A
:1036C00097D70100938787DB83A70700938747007D
:1036D0009385070017D501001305C5F8EFD00F97A4
:1036E0006F00400297D70100938747F983A707002F
:1036F00003274100B307F700232EF1000325C10182
:10370000EF00C07C130000008320C10213010103FD
:1037100067800000130101FD232611022326A1006A
:103720002324B1002322C1008327C1006396070030
:10373000737004306F00000097D70100938707D49F
:1037400083A7070093878701938507000325C1009E
:10375000EFD0CF8F97D70100938747D283A7070079
:103760009387470013850700EFD08FA203274100FE
:10377000930710006314F70297D70100938707D0CF
:1037800083A70700938747009385070017D501009B
:10379000130545EDEFD08F8B6F00400297D70100E6
:1037A0009387C7ED83A7070003278100B307F700BE
:1037B000232EF1000325C101EF004071130000002A
:1037C0008320C1021301010367800000130101FD82
:1037D000232611022326A1008327C10083A7C70047
:1037E00083A7C700232CF10083278101639607007C
:1037F000737004306F000000832781019387870175
:1038000013850700EFD0CF9897D70100938707E97A
:1038100083A70700639E07068327810193874700DC
:1038200013850700EFD0CF968327810103A7C70236
:1038300097D701009387C7E483A7070063FCE700DD
:103840008327810103A7C70297D70100938747E326
:1038500023A0E7008327810103A7C702930707007E
:1038600093972700B387E7009397270017D70100A6
:10387000130707CD3387E70083278101938747002C
:103880009385070013050700EFC05FFC6F00C001C0
:1038900083278101938787019385070017D501004E
:1038A000130585D9EFC09FFA8327810103A7C702BB
:1038B00097D70100938787BC83A7070083A7C70218
:1038C00063F0E70293071000232EF10097D7010061
:1038D0009387C7DB1307100023A0E7006F00800069
:1038E000232E01008327C101138507008320C10215
:1038F0001301010367800000130101FD232611025B
:103900002326A1002324B10097D70100938707D96C
:1039100083A7070063960700737004306F000000F0
:1039200003278100B70700803367F7008327C100B2
:1039300023A0E7008327C10083A7C700232CF10041
:103940008327810163960700737004306F000000C5
:103950000325C100EFD0CF838327810193874700E0
:1039600013850700EFD0CF828327810103A7C70209
:1039700097D701009387C7D083A7070063FCE700B0
:103980008327810103A7C70297D70100938747CFF9
:1039900023A0E7008327810103A7C702930707003D
:1039A00093972700B387E7009397270017D7010065
:1039B000130707B93387E7008327810193874700FF
:1039C0009385070013050700EFC05FE88327810197
:1039D00003A7C70297D70100938747AA83A70700C9
:1039E00083A7C70263F0E70293071000232EF100BC
:1039F00097D70100938787C91307100023A0E7001A
:103A00006F008000232E01008327C101138507006A
:103A10008320C1021301010367800000130101FF2D
:103A20002326A1008327C10063960700737004302A
:103A30006F00000097D70100938787C503A7070091
:103A40008327C10023A0E70097D70100938707C30E
:103A500003A707008327C10023A2E700130000008B
:103A60001301010167800000130101FD23261102EB
:103A70002326A1002324B1008327C10063960700F9
:103A8000737004306F000000832781006396070085
:103A9000737004306F000000EF00103C97D70100F6
:103AA0009387C7BD83A70700232CF10083278100DC
:103AB00003A707009307F0FF6316F700232E01000A
:103AC0006F0000098327C10003A7070097D70100F3
:103AD000938707BC83A707006300F7028327C10011
:103AE00083A74700032781016368F700930710004D
:103AF000232EF1006F00C0058327C10083A7470074
:103B0000032781013307F7408327810083A707003C
:103B1000637CF7028327810003A707008327C10086
:103B200083A6470083278101B387F6403307F70058
:103B30008327810023A0E7000325C100EFF01FEEDB
:103B4000232E01006F00C00093071000232EF10008
:103B5000EF0090348327C101138507008320C10241
:103B6000130101036780000097D70100938707B214
:103B70001307100023A0E700130000006780000077
:103B8000130101FE2326A1008327C100638E0700D5
:103B90008327C100232CF1008327810183A7C70459
:103BA000232EF1006F008000232E01008327C10126
:103BB000138507001301010267800000130101FE55
:103BC0002326A1002324B1008327C100638C0700B2
:103BD0008327C100232EF1008327C1010327810021
:103BE00023A6E70413000000130101026780000010
:103BF000130101FE232E11002326A100EF00002156
:103C000097D701009387C79303A707009307100076
:103C1000E3F6E7FEEFC0DF976FF05FFE130101FCF4
:103C2000232E1102232EA100232CB100232AC10030
:103C30002328D100930707002317F1002326010250
:103C40006F004004032781018327C102B307F700F7
:103C500003C707008326C1018327C102B387F6008B
:103C6000238AE702032781018327C102B307F700F4
:103C700083C70700638007028327C1029387170069
:103C80002326F1020327C1029307F000E3FCE7FAC1
:103C90006F008000130000008327C101A381070487
:103CA000032741019307900063F6E7009307900014
:103CB000232AF1008327C1010327410123A6E7023C
:103CC0008327C1010327410123A8E7048327C101FA
:103CD00023AA07048327C1019387470013850700A0
:103CE000EFC01FB58327C1019387870113850700A4
:103CF000EFC01FB48327C1010327C10123A8E70038
:103D00001307A000832741013307F7408327C10130
:103D100023ACE7008327C1010327C10123A2E702E7
:103D20008327C10123A207048327C10123AC070411
:103D30008327C10123AE0704130000008320C103C1
:103D40001301010467800000130101FE232E1100FE
:103D5000232601006F0080030327C100930707009B
:103D600093972700B387E7009397270017C70100B1
:103D70001307077DB387E70013850700EFC0DFA5B2
:103D80008327C100938717002326F1000327C10072
:103D900093079000E3F2E7FC17D501001305C586F1
:103DA000EFC09FA317D5010013054587EFC0DFA221
:103DB00017D5010013054588EFC01FA217D50100D4
:103DC0001305C588EFC05FA117D5010013058589CC
:103DD000EFC09FA097D701009387878517D7010071
:103DE0001307878223A0E70097D701009387878472
:103DF00017D701001307878223A0E70013000000F4
:103E00008320C1011301010267800000130101FE3C
:103E1000232E11006F008009EFE0DFED97D701003E
:103E20009387C78283A7070093B7170093F7F70F0D
:103E30002326F100EFE05FEE8327C10063980706B9
:103E4000EF00900197D701009387478083A7C700B1
:103E500083A7C7002324F1008327810093874700AD
:103E600013850700EFC0DFB297D701009387C780A3
:103E700083A707001387F7FF97C701009387C77FC2
:103E800023A0E70097C701009387877D83A70700DA
:103E90001387F7FF97C701009387877C23A0E7006C
:103EA000EF00807F03258100EF00C03F97C701002E
:103EB0009387077B83A70700E39007F613000000B2
:103EC0008320C1011301010267800000130101FE7C
:103ED000232E11002326A10097C701009387075ABC
:103EE00083A707000327C10023A2E70097C70100AB
:103EF0009387C77883A707000327C1006378F70279
:103F000097C701009387077303A7070097C70100AE
:103F10009387C75683A707009387470093850700B9
:103F200013050700EFC05F9A6F00000597C70100F7
:103F30009387077003A7070097C70100938707546B
:103F400083A70700938747009385070013050700A1
:103F5000EFC09F9797C701009387077483A7070057
:103F60000327C100637AF70097C701009387C772E0
:103F70000327C10023A0E700130000008320C10134
:103F80001301010267800000130101FD23261102C5
:103F9000930705002324B1002317F1008327810034
:103FA000639E07008357E10093972700138507005E
:103FB000EF20C02E930705006F008000832781004B
:103FC000232CF10083278101638A07021305000671
:103FD000EF20C02C232EA1008327C101638A070094
:103FE0008327C1010327810123A8E7026F00400155
:103FF00003258101EF20404A6F008000232E01003D
:104000008327C101638207028327C10103A7070336
:104010008357E10093972700138607009305500A02
:1040200013050700EF20006A8327C10113850700ED
:104030008320C1021301010367800000130101FC0A
:10404000232E1102232C81022326A1002324B10058
:104050002322C100232601028327810083A70700B2
:104060006388071C832781002324F10283278102B0
:1040700083A7470003A747008327810223A2E70005
:104080008327810203A74700832781029387870044
:10409000631CF7008327810283A7470003A747001B
:1040A0008327810223A2E7008327810283A7470099
:1040B00083A7C7002322F102832781002320F10276
:1040C0008327010283A7470003A747008327010234
:1040D00023A2E7008327010203A7470083270102E9
:1040E00093878700631CF7008327010283A747009B
:1040F00003A747008327010223A2E70083270102C9
:1041000083A7470083A7C700232EF1008327C1029E
:10411000939757000327C100B307F7000327C10196
:1041200023A0E7008327C102939757000327C1000C
:10413000B307F7000327C1011307470323A2E700D2
:104140008327C102939757000327C100B307F700E5
:104150000327C1010327870423A4E7008327C102A3
:10416000939757000327C100B307F70003274100C7
:1041700023A6E7008327C102939757000327C100B6
:10418000B307F7000327C1010327C70223A8E700ED
:1041900003274100930730006314F7028327C1010E
:1041A00083A78702638E07008327C1029397570076
:1041B0000327C100B307F7001307200023A6E70079
:1041C0008327C102939757000327C100B307F70065
:1041D0000327C1010327070523AAE7008327C1029C
:1041E000939757000327C100B307F70023AC0700DC
:1041F0008327C10183A607038327C1029397570032
:104200000327C1003304F70013850600EF00C00345
:1042100093070500231EF4008327C102938717002C
:104220002326F1020327C10183274102E316F7E8A1
:104230008327C102138507008320C1030324810360
:104240001301010467800000130101FE2326A10071
:10425000232E01006F00C0018327C1009387170040
:104260002326F1008327C10193871700232EF10035
:104270008327C10003C707009307500AE30EF7FC2A
:104280008327C10193D72700232EF1008327C10183
:104290009397070193D707011385070013010102C4
:1042A00067800000130101FE232E11002326A100C8
:1042B0008327C10083A7070313850700EF20C01DD4
:1042C0000325C100EF20401D130000008320C10121
:1042D0001301010267800000130101FF97C701006D
:1042E0009387073583A7070083A707006396070016
:1042F000930710006F00800093070000638C070095
:1043000097C70100938747391307F0FF23A0E70001
:104310006F00000397C701009387873183A70700C9
:1043200083A7C70083A7C7002326F1008327C10006
:1043300003A7470097C701009387073623A0E7002C
:10434000130000001301010167800000130101FF49
:1043500097C701009387871283A707002326F100E0
:104360008327C10013850700130101016780000046
:10437000130101FF97C701009387C73083A7070088
:1043800063980700930710002326F1006F00400296
:1043900097C701009387873083A7070063980700BA
:1043A000930720002326F1006F00800023260100E0
:1043B0008327C100138507001301010167800000F6
:1043C000130101FD232611022326A1008327C1002A
:1043D000232EF1008327C100638A07128327C101BE
:1043E00003A7C70297C701009387470983A7070060
:1043F00083A7C702637CF7108327C10183A78701C6
:1044000063C2070297C701009387470783A7070086
:1044100083A7C7021307A0003307F7408327C10112
:1044200023ACE7008327C10183A647018327C1018D
:1044300003A7C7029307070093972700B387E700F6
:104440009397270017C701001307870FB387E7006B
:104450006396F600930710006F008000930700003A
:10446000638A07088327C1019387470013850700E4
:10447000EFC00FD297C701009387470083A70700BB
:1044800003A7C7028327C10123A6E7028327C1012F
:1044900003A7C70297C701009387871E83A707005A
:1044A00063FCE7008327C10103A7C70297C7010088
:1044B0009387071D23A0E7008327C10103A7C70235
:1044C0009307070093972700B387E7009397270088
:1044D00017C701001307C7063387E7008327C10109
:1044E000938747009385070013050700EFC00FB6B9
:1044F0006F00C00197C70100938747F883A70700A3
:1045000003A7C7028327C10123A6E7021300000007
:104510008320C1021301010367800000130101FD24
:10452000232611022326A1008327C100232CF1009A
:10453000232E01008327C1006386071097C701005F
:104540009387C7F383A70700032781016306F7005A
:10455000737004306F0000008327810183A7470533
:1045600063960700737004306F0000008327810199
:1045700083A747051387F7FF8327810123AAE70451
:104580008327810103A7C7028327810183A707052A
:10459000630AF70A8327810183A747056394070A03
:1045A000832781019387470013850700EFC04FBE23
:1045B0008327810103A707058327810123A6E7023B
:1045C0008327810183A7C7021307A0003307F740A1
:1045D0008327810123ACE7008327810103A7C7025A
:1045E00097C701009387C70983A7070063FCE7000B
:1045F0008327810103A7C70297C701009387470854
:1046000023A0E7008327810103A7C70293070700C0
:1046100093972700B387E7009397270017C70100F8
:10462000130707F23387E700832781019387470049
:104630009385070013050700EFC04FA193071000F3
:10464000232EF1008327C101138507008320C102B7
:1046500013010103678000007370043097C70100E5
:104660009387470283A707006384070297C7010067
:104670009387C7E083A7070003A747041307170022
:1046800023A2E70497C70100938747DF83A70700AA
:10469000130000006780000097C70100938787FE22
:1046A00083A707006384070497C70100938707DD8A
:1046B00083A7070083A74704638A070297C70100FF
:1046C0009387C7DB83A7070003A747041307F7FFF8
:1046D00023A2E70497C70100938747DA83A707005F
:1046E00083A747046394070073600430130000003D
:1046F00067800000130101FF97C70100938707D867
:1047000083A7070083A787012326F10097C701002D
:104710009387C7D683A7070003A7C70297C70100DF
:104720009387C7D583A707009306A0003387E64089
:1047300023ACE7008327C1001385070013010101A3
:104740006780000097C70100938747D383A70700BE
:10475000638E070097C70100938747D283A707009E
:1047600003A747051307170023AAE70497C701000B
:104770009387C7D083A707001385070067800000D1
:10478000130101FD232611022326A1002324B100D9
:10479000EFF09FEC97C70100938747CE83A70700F0
:1047A00083A787056396070897C70100938707CDFE
:1047B00083A707001307100023AEE70483278100B7
:1047C0006388070697C70100938747CB83A7070035
:1047D0009387470013850700EFC08F9B0327810055
:1047E0009307F0FF6314F70297C70100938707C987
:1047F00083A70700938747009385070017C501002B
:10480000130545E6EFC08F846F00400297C7010093
:104810009387C7E683A7070003278100B307F70044
:10482000232EF1000325C101EFF04FEAEFB05FD670
:10483000EFF09FE6EFF05FE297C70100938707C4B0
:1048400083A7070083A78705232CF1008327810115
:10485000638C07028327C100638C070097C70100A0
:104860009387C7C183A7070023AC07046F00C0016B
:1048700097C70100938787C083A7070003A7870511
:104880001307F7FF23ACE70497C70100938707BF1F
:1048900083A7070023AE0704EFF01FE08327810101
:1048A000138507008320C102130101036780000004
:1048B000130101FD232611022326A1002324B100A8
:1048C0002322C1002320D100EFF01FD997C7010098
:1048D0009387C7BA83A7070003A7C70593072000DC
:1048E0006306F70A97C70100938747B983A70700B4
:1048F00083A687050327C1001347F7FF33F7E600B8
:1049000023ACE70497C70100938747B783A7070045
:104910001307100023AEE70483270100638807060E
:1049200097C70100938787B583A707009387470040
:1049300013850700EFC0CF85032701009307F0FF21
:104940006314F70297C70100938747B383A7070053
:10495000938747009385070017C50100130585D08D
:10496000EFB0DFEE6F00400297C70100938707D1D9
:1049700083A7070003270100B307F700232CF100EA
:1049800003258101EFF08FD4EFB09FC0EFF0DFD0AF
:10499000EFF09FCC83274100638E070097C701008B
:1049A0009387C7AD83A7070003A787058327410027
:1049B00023A0E70097C70100938747AC83A70700B0
:1049C00003A7C705930710006316F700232E010005
:1049D0006F00C00297C70100938747AA83A707000B
:1049E00083A68705032781001347F7FF33F7E60007
:1049F00023ACE70493071000232EF10097C70100B2
:104A00009387C7A783A7070023AE0704EFF0DFC88B
:104A10008327C101138507008320C102130101030D
:104A200067800000130101FD232611022326A10047
:104A30002324B1002322C1002320D10093071000BA
:104A4000232EF1008327C1006396070073700430A2
:104A50006F0000008327C100232CF100EFF0DFBFBF
:104A600083270100638A07008327810103A7870545
:104A70008327010023A0E7008327810183A7C705BF
:104A8000232AF100832781011307200023AEE704C6
:104A9000032741009307400063ECE70883274100A8
:104AA0001397270097B7010093874756B307F7007E
:104AB00003A7070097B7010093874755B307F7008F
:104AC000678007008327810103A78705832781006B
:104AD0003367F7008327810123ACE7046F004005AB
:104AE0008327810183A78705138717008327810107
:104AF00023ACE7046F00C0038327810103278100F3
:104B000023ACE7046F00C002032741019307200094
:104B1000630AF700832781010327810023ACE704A0
:104B20006F000001232E01006F00800013000000C1
:104B300003274101930710006316F70A83278101B9
:104B40009387470013850700EFB09FE48327810117
:104B500003A7C70297C70100938787B283A70700FF
:104B600063FCE7008327810103A7C70297C7010001
:104B7000938707B123A0E7008327810103A7C7021A
:104B80009307070093972700B387E70093972700C1
:104B900017C701001307C79A3387E70083278101EE
:104BA000938747009385070013050700EFB01FCADE
:104BB0008327810183A7870263860700737004300F
:104BC0006F0000008327810103A7C70297C7010078
:104BD0009387C78A83A7070083A7C70263F4E70008
:104BE000EFB01F9BEFF05FAB8327C1011385070078
:104BF0008320C1021301010367800000130101FC3F
:104C0000232E1102232EA100232CB100232AC10040
:104C10002328D1002326E100930710002326F10268
:104C20008327C10163960700737004306F00000092
:104C30008327C1012324F102EFB0DFAC9307050005
:104C40002322F10283270101638A0700832781025F
:104C500003A787058327010123A0E700832781029B
:104C600083A7C7052320F1028327810213072000B1
:104C700023AEE704032741019307400063ECE708F4
:104C8000832741011397270097B70100938747397E
:104C9000B307F70003A7070097B7010093874738CA
:104CA000B307F700678007008327810203A7870502
:104CB000832781013367F7008327810223ACE70450
:104CC0006F0040058327810283A78705138717009C
:104CD0008327810223ACE7046F00C003832781028E
:104CE0000327810123ACE7046F00C0020327010200
:104CF00093072000630AF7008327810203278101BD
:104D000023ACE7046F000001232601026F0080003E
:104D10001300000003270102930710006314F70E2D
:104D20008327810283A7870263860700737004309C
:104D30006F00000097C701009387479683A707007D
:104D4000639E070683278102938747001385070028
:104D5000EFB01FC48327810203A7C70297C70100D2
:104D60009387079283A7070063FCE70083278102EC
:104D700003A7C70297C701009387879023A0E70086
:104D80008327810203A7C702930707009397270091
:104D9000B387E7009397270017B701001307477AF7
:104DA0003387E700832781029387470093850700B5
:104DB00013050700EFB09FA96F00C0018327810290
:104DC000938787019385070017C501001305C586E2
:104DD000EFB0DFA78327810203A7C70297B70100BF
:104DE0009387C76983A7070083A7C70263FCE7000F
:104DF0008327C100638807008327C10013071000C1
:104E000023A0E7008327410213850700EFB0DF8D61
:104E10008327C102138507008320C1031301010406
:104E200067800000130101FD232611022326A10043
:104E30002324B1008327C1006396070073700430F8
:104E40006F0000008327C100232EF100EFB09F8B7D
:104E500093070500232CF1008327C10183A7C70511
:104E6000232AF1008327C1011307200023AEE704A2
:104E70008327C10183A78705138717008327C101F3
:104E800023ACE70403274101930710006314F70ED6
:104E90008327C10183A787026386070073700430EC
:104EA0006F00000097B701009387477F83A7070033
:104EB000639E07068327C101938747001385070078
:104EC000EFB01FAD8327C10103A7C70297B7010049
:104ED0009387077B83A7070063FCE7008327C10153
:104EE00003A7C70297B701009387877923A0E7003C
:104EF0008327C10103A7C7029307070093972700E1
:104F0000B387E7009397270017B70100130747639C
:104F10003387E7008327C101938747009385070004
:104F200013050700EFB09F926F00C0018327C101F6
:104F3000938787019385070017B501001305C56F97
:104F4000EFB0DF908327C10103A7C70297B7010025
:104F50009387C75283A7070083A7C70263FCE700B4
:104F600083278100638807008327810013071000CF
:104F700023A0E7008327810113850700EFB0CFF658
:104F8000130000008320C1021301010367800000A9
:104F9000130101FD232611022326A1008327C1004E
:104FA000232CF10083278101639A070097B7010042
:104FB0009387C74C83A707006F0080008327810178
:104FC000232CF100EFF04FE98327810103A7C705E8
:104FD00093072000631CF7008327810123AE070499
:104FE00093071000232EF1006F008000232E010094
:104FF000EFF08FEA8327C101138507008320C102E8
:105000001301010367800000130101FE232E11002C
:1050100023260100EF00500B97B701009387476BE1
:1050200083A70700638A07029308000013080000A3
:1050300093070000130720009306000013060040AA
:1050400097B50100938505FF170500001305852E10
:10505000EFC01FEF2326A1008327C100639607003E
:10506000737004306F0000008327C10013850700B0
:105070008320C1011301010267800000130101FCBC
:10508000232E1102232EA100232CB100232AC100BC
:105090002328D1002326E10083278101639607009E
:1050A000232601026F0080061305C002EF10001FC7
:1050B0002326A1028327C102638A0704EF00D000E0
:1050C0008327C1020327C10123A0E7008327C10270
:1050D0000327810123ACE7008327C1020327410195
:1050E00023AEE7008327C1020327010123A0E702C3
:1050F0008327C1020327C10023A2E7028327C1023D
:105100009387470013850700EFB08FF28327810153
:1051100063960700737004306F0000008327C1029C
:10512000138507008320C103130101046780000079
:10513000130101FC232E1102232EA100232CB10008
:10514000232AC1002328D1002326E10023260102BF
:105150008327C10163960700737004306F0000005D
:1051600097B701009387C75683A70700638C070A88
:10517000832781012320F102832741012322F102A9
:105180008327C1012324F1020327810193075000E3
:1051900063C6E706EFF0CF9D1307050093072000D5
:1051A0006318F70297B701009387875283A7070018
:1051B00013070102930600000326C10093050700B0
:1051C00013850700EFB01FD22326A1026F008005D0
:1051D00097B701009387C74F83A707001307010202
:1051E00093060000130600009305070013850700CF
:1051F000EFB05FCF2326A1026F00C00297B7010076
:105200009387074D83A70700130701029306000049
:10521000032601019305070013850700EFB09FF0F7
:105220002326A1028327C102138507008320C1031F
:105230001301010467800000130101FE2326A10071
:105240008327C100232EF1008327C1006396070046
:10525000737004306F0000008327C10183A707002B
:10526000138507001301010267800000130101FD8F
:10527000232611022326A1002324B10097B70100A1
:105280009387874483A7070083A7C70083A7C70026
:10529000232EF1008327C101938747001385070060
:1052A000EFB00FEF8327C10103A7C70193071000D9
:1052B0006310F7068327C10103A787018327C10075
:1052C000B307F7008326C1000326810093850700FA
:1052D0000325C101EF00802213070500930710008A
:1052E0006318F70213070000930600000326C100AD
:1052F000930500000325C101EFF09FE3232CA100DB
:105300008327810163960700737004306F000000EB
:105310008327C10183A747020325C101E780070056
:10532000130000008320C102130101036780000005
:10533000130101FD232611022326A10093078101F9
:1053400013850700EF00800E232EA1008327810123
:10535000938507000325C101EF00C000EF0000287E
:105360006FF0DFFD130101FD232611022326A100AA
:105370002324B100EFD01F98930781011385070004
:10538000EF004011232EA1008327810163960708B7
:1053900083278100639207020327C1008327C1018D
:1053A00063ECE700EFD05F978325C1010325C100BF
:1053B000EFF0DFEB6F008006832781006380070238
:1053C00097B701009387873083A7070083A707005B
:1053D00093B7170093F7F70F2324F10097B7010055
:1053E0009387072F83A607000327C1008327C101E6
:1053F000B307F74003268100938507001385060055
:10540000EFC01FABEFD05F919307050063980700D3
:10541000EFB00F986F008000EFD01F9013000000D6
:105420008320C1021301010367800000130101FE04
:105430002326A10097B701009387072983A70700B8
:1054400083A7070093B7170093F7F70F1387070099
:105450008327C10023A0E7008327C10083A707009B
:105460006390070297B701009387072683A7070079
:1054700083A7C70083A70700232EF1006F008000D9
:10548000232E01008327C1011385070013010102A8
:1054900067800000130101FD232611022326A100CD
:1054A000EFD09FA4232EA10097B7010093878722F6
:1054B00083A707000327C101637CF700EF00C02B1F
:1054C0008327C1001307100023A0E7006F00C0006E
:1054D0008327C10023A0070097B701009387871F88
:1054E0000327C10123A0E7008327C101138507001B
:1054F0008320C1021301010367800000130101FD35
:10550000232611022326A1002324B1002322C10057
:105510002320D100232E01008327C100032781000F
:1055200023A2E7008327C1000327C10023A8E700C7
:10553000032781008327410063E6E7040327410036
:10554000832701003307F7408327C10083A7870122
:105550006368F70093071000232EF1006F00C00668
:1055600097B701009387871603A707008327C10019
:10557000938747009385070013050700EFB0CFB46A
:105580006F0080040327410083270100637EF7003A
:1055900003278100832701006368F7009307100049
:1055A000232EF1006F00400297B701009387C711C7
:1055B00003A707008327C10093874700938507004F
:1055C00013050700EFB04FB08327C1011385070013
:1055D0008320C1021301010367800000130101FD54
:1055E000232611026F0080158327810063C60714EC
:1055F00083270101232EF1008327C10183A74701DF
:10560000638A07008327C10193874700138507003A
:10561000EFB00FB89307410013850700EFF09FE745
:10562000232CA10083278100130790006368F710E3
:105630001397270097B70100938747A0B307F70098
:1056400003A7070097B701009387479FB307F700A9
:10565000678007000327C1008327C10183A7870153
:10566000B307F7000327C100930607000326810153
:10567000938507000325C101EFF05FE813070500DC
:1056800093071000631CF70A8327C10183A7470211
:105690000325C101E78007008327C10103A7C701D4
:1056A00093071000631CF7080327C1008327C1017B
:1056B00083A78701B307F7001307000093060000D4
:1056C00013860700930500000325C101EFF05FA6D4
:1056D000232AA100832741016392070673700430D7
:1056E0006F0000000327C1008327C10123ACE7003E
:1056F0008327C10183A78701639607007370043075
:105700006F0000008327C10103A787018327810160
:10571000B307F700832681010326810193850700E3
:105720000325C101EFF09FDD6F0040010325C1019A
:10573000EF0090566F0080001300000097B7010043
:10574000938707F983A707001307810093060000DA
:10575000130600009305070013850700EFB05FC52F
:1057600093070500E39207E8130000008320C102BD
:105770001301010367800000130101FD23261102BC
:105780006F00C00E97B70100938707F483A7070047
:1057900083A7C70083A70700232CF10097B7010058
:1057A000938787F283A7070083A7C70083A7C70053
:1057B000232AF100832741019387470013850700BF
:1057C000EFB00F9D8327410183A7470203254101C5
:1057D000E78007008327410103A7C7019307100053
:1057E0006316F7088327410183A7870103278101F7
:1057F000B307F7002328F100032701018327810164
:1058000063F0E704832741010327010123A2E70096
:10581000832741010327410123A8E70097B701002F
:10582000938787EA03A707008327410193874700EF
:105830009385070013050700EFB00F896F00000381
:105840001307000093060000032681019305000062
:1058500003254101EFF0DF8D2326A1008327C1003E
:1058600063960700737004306F00000097B7010063
:10587000938787E583A7070083A70700E39407F0D2
:1058800097B70100938747E483A70700232EF10011
:1058900097B70100938787E303A7070097B7010035
:1058A000938787E223A0E70097B70100938707E279
:1058B0000327C10123A0E700130000008320C102D9
:1058C0001301010367800000130101FF232611006B
:1058D000EFE09FD897B70100938787DF83A7070082
:1058E0006394070A17B50100130585DBEFA0DFEE0F
:1058F00017B50100130505DCEFA01FEE97B70100F7
:10590000938787DC17B70100130787D923A0E70027
:1059100097B70100938787DB17B70100130787D973
:1059200023A0E700130600009305C0001305400004
:10593000EFB0CFA21307050097B70100938747D9AF
:1059400023A0E70097B70100938787D883A70700B4
:1059500063960700737004306F00000097B7010072
:10596000938707D783A707006380070297B70100D3
:10597000938707D683A7070097A501009385856EB7
:1059800013850700EFC0CFC2EFE01FD11300000066
:105990008320C1001301010167800000130101FD94
:1059A000232611022326A1008327C100232EF10004
:1059B0008327C10063960700737004306F000000F6
:1059C000EFE09FC98327C10183A74701B337F000E8
:1059D00093F7F70F232CF100EFE01FCC8327810111
:1059E000138507008320C1021301010367800000B3
:1059F000130101FD232611022326A1008327C100E4
:105A0000232EF1008327C1006396070073700430D2
:105A10006F000000EFE05FC48327C10183A7070286
:105A2000232CF100EFE05FC7832781011385070076
:105A30008320C1021301010367800000130101FDEF
:105A4000232611022326A1002324B1008327C100AD
:105A5000232EF1008327C100639607007370043082
:105A60006F000000EFE05FBF8327C10103278100C3
:105A700023A0E702EFE05FC2130000008320C10211
:105A80001301010367800000130101FE232E1100A2
:105A90001305C001EF0090002326A1008327C10059
:105AA000638E07008327C10023A007008327C1005E
:105AB0009387470013850700EFA01FD28327C100FB
:105AC000138507008320C1011301010267800000D4
:105AD000130101FC232E11022326A1002324B1006F
