:0200000480007A
:10000000B72F0000938F0F8073900F3015A8130047
:100010000000130000001300000013000000130094
:100020000000130000001300000013000000130084
:100030000000130000001300000013000000010086
:10004000970200009382020C73905230814001416C
:100050008141014281420143814301448144014580
:100060008145014681460147814701488148014950
:100070008149014A814A014B814B014C814C014D20
:10008000814D014E814E014F814F971102009381A6
:1000900021AE170502001305E52E97950300938501
:1000A000256101461122170502001305A52B9705AE
:1000B00002009385A52B0146C52817A5030013054B
:1000C000655F97B503009385A55E37B6ABAB1306A6
:1000D000B6BAD92817B103001301C15DEF40501320
:1000E000860293D21200F512638802008242110147
:1000F0006F00001073002030824211017300203025
:10010000711116C0F3222034E3CC02FC82421101AB
:10011000130141F806C20AC40EC612C816CA1ACC88
:100120001ECE22D026D22AD42ED632D836DA3ADCC7
:100130003EDEC2C0C6C2CAC4CEC6D2C8D6CADACC97
:10014000DECEE2D0E6D2EAD4EED6F2D8F6DAFADCA7
:10015000FEDE73252034F32510340A8601A07310C7
:10016000153492402241B2414242D2426243F243AC
:10017000025492542255B2554256D2566257F25703
:10018000064896482649B649464AD64A664BF64B33
:10019000065C965C265DB65D465ED65E665FF65F83
:1001A0001301C1077300203010C16374B50011053D
:1001B000E5BF828000000000000000000000000099
:1001C000000000000000000000000000000000002F
:1001D000000000000000000000000000000000001F
:1001E000000000000000000000000000000000000F
:1001F000197106C00AC20EC412C616C81ACA1ECC8D
:1002000022CE26D02AD22ED432D636D83ADA3EDCC6
:1002100042DEC6C0CAC2CEC4D2C6D6C8DACADECC96
:10022000E2CEE6D0EAD2EED4F2D6F6D8FADAFEDCA6
:100230009702020083A2021323A02200F3221034AB
:1002400096DEEF006030170102000321A111024188
:10025000F65273901234B72200009382028873A082
:10026000023082403242C2425243E24372448254DC
:100270001255A2553256C2565257E2577258864806
:100280001649A649364AC64A564BE64B764C865C1A
:10029000165DA65D365EC65E565FE65F0961730059
:1002A0002030970202009382E20D23A0120023A2C5
:1002B000220023A4320023A6420023A8520023AA2E
:1002C000620023AC720023AE820023A0920223A21C
:1002D000A20223A4B20223A6C20223A8D20223AA06
:1002E000E20223ACF20223AE020323A0120523A2F2
:1002F000220523A4320523A6420523A8520523AADA
:10030000620523AC720523AE820523A0920723A2C7
:10031000A20723A4B20723A6C20723A8D20723AAB1
:10032000E20723ACF207EF40005E17010200032151
:1003300061030241F65273901234B7220000938297
:10034000028873A0023082403242C2425243E243EA
:10035000724482541255A2553256C2565257E25731
:10036000725886481649A649364AC64A564BE64B45
:10037000764C865C165DA65D365EC65E565FE65FB1
:10038000096173002030970202009382A2FF83A0CC
:10039000020003A1420083A1820003A2C20083A243
:1003A000020103A3420183A3820103A4C20183A427
:1003B000020203A5420283A5820203A6C20283A60B
:1003C000020303A7420383A7820303A8C20383A8EF
:1003D000020403A9420483A9820403AAC20483AAD3
:1003E000020503AB420583AB820503ACC20583ACB7
:1003F000020603AD420683AD820603AEC20683AE9B
:10040000020703AFC20983AF820782807370043092
:10041000197106C00AC20EC412C616C81ACA1ECC6A
:1004200022CE26D02AD22ED432D636D83ADA3EDCA4
:1004300042DEC6C0CAC2CEC4D2C6D6C8DACADECC74
:10044000E2CEE6D0EAD2EED4F2D6F6D8FADAFEDC84
:100450009702020083A202F123A0220086DEEF10A1
:10046000B040170102000321E1EF0241F652739000
:100470001234B72200009382028873A002308240B7
:100480003242C2425243E243724482541255A25550
:100490003256C2565257E257725886481649A649F4
:1004A000364AC64A564BE64B764C865C165DA65DD0
:1004B000365EC65E565FE65F0961730020309707BF
:1004C00002009387E7EA9843FD576305F7007370CE
:1004D000043001A07370043001A041112AC6B24754
:1004E000739047300100410182804111F327403071
:1004F0003EC673F04330B2473E85410182804111D0
:100500002AC62EC432C2B247F1173EC62247B247AE
:1005100098C3B247938787FA3EC61247B24798C33B
:10052000B247A1173EC68E873E87B24798C3B247EF
:10053000D1173EC6170700001307A7F8B24798C3A4
:10054000B2473E8541018280411106C6EF4020340A
:10055000EF10D014AA8799C3EF1010310100B240F8
:100560004101828041112AC6B24713878700B247F2
:10057000D8C3B2477D5798C7B24713878700B247A1
:10058000D8C7B24713878700B24798CBB24723A09A
:10059000070001004101828041112AC6B24723A809
:1005A000070001004101828001112AC62EC4B24712
:1005B000DC433ECEA2477247D8C3F2479847A247D2
:1005C00098C7F2479C472247D8C3F247224798C7AB
:1005D000A247324798CBB2479C4313871700B247D4
:1005E00098C301000561828001112AC62EC4A2476A
:1005F0009C433ECC6247FD576316F700B2479C4BC5
:100600003ECE31A8B247A1073ECE21A0F247DC433F
:100610003ECEF247DC439C436247E379F7FEF24764
:10062000D843A247D8C3A247DC43224798C7A24772
:10063000724798C7F2472247D8C3A247324798CBA0
:10064000B2479C4313871700B24798C30100056166
:10065000828001112AC6B2479C4B3ECEB247DC4392
:100660003247184798C7B2479C4732475843D8C3C8
:10067000F247DC4332476316F700B2479847F24728
:10068000D8C3B24723A80700F2479C431387F7FF5C
:10069000F24798C3F2479C433E8505618280797199
:1006A00006D622D42AC62EC4B2473ECEF24781E7F0
:1006B0007370043001A0EF202057F2478043F247C7
:1006C000D85FF247BC43BE853A85EF503013AA8706
:1006D0003307F400F247D8C3F24723AC0702F247CE
:1006E0009843F24798C7F2478043F247DC5F13878D
:1006F000F7FFF247BC43BE853A85EF503010AA871A
:100700003307F400F247D8C7F2477D57F8C3F247E2
:100710007D57B8C7A24799EFF2479C4B8DC7F24768
:10072000C1073E85EF1090402A878547631DF7007B
:10073000F13911A8F247C1073E852D35F24793875D
:1007400047023E850535EF20005185473E85B25072
:10075000225445618280797106D62AC62EC4B2879A
:10076000A303F10002CCB24781E77370043001A00B
:10077000A24799E302CE01A8A2453245EF501008E6
:10078000AA8785073ECEF247938747053E85EF301F
:10079000006D2ACAD24785CFA24789E7D247524780
:1007A00098C331A0D24713874705D24798C3D24791
:1007B0003247D8DFD2472247B8C385455245C535B1
:1007C000D247034771002388E704D2473ECCE24773
:1007D00081E77370043001A0E2473E85B250456165
:1007E0008280797106D6AA87A307F1001305400518
:1007F000EF30E0662ACEF247B9CFF24723A20700D6
:10080000F24723A00700F24723A40700F24723A6DC
:100810000700F24723AC0702F2470547D8DFF2474B
:1008200023A00704F2477D57F8C3F2477D57B8C7A6
:10083000F2470347F1002388E704F247C1073E85EA
:100840001533F247938747023E85293B814601468F
:10085000814572453122F2473E85B2504561828022
:10086000797106D622D42AC6B2473ECCE24781E748
:100870007370043001A0E247C043EF20001DAA8737
:100880006313F402E247DC471387F7FFE247D8C758
:10089000E247DC4791E78146014681456245C92030
:1008A00085473ECE11A002CEF2473E85B25022547B
:1008B00045618280797106D622D42AC62EC4B247F9
:1008C0003ECCE24781E77370043001A0E247C043A9
:1008D000EF20A017AA87631BF400E247DC471387C9
:1008E0001700E247D8C785473ECE0DA08146224675
:1008F00081456245252E2ACE724785476318F70049
:10090000E247DC4713871700E247D8C7F2473E8526
:10091000B250225445618280797106D62AC62EC40F
:10092000B24781E77370043001A02247B24763F5F4
:10093000E7007370043001A0094681453245213D2E
:100940002ACEF24781C7F247224798DFF24781E774
:100950007370043001A0F2473E85B2504561828039
:10096000397106DE2AC62EC432C236C002D6B2475C
:100970003ED4A25781E77370043001A0A24781E7FB
:10098000A257BC4399E3854711A0814781E7737063
:10099000043001A0024789476317F700A257D85FC8
:1009A00085476314F700854711A0814781E773707D
:1009B000043001A0EF20C00AAA8799E3924799E387
:1009C000854711A0814781E77370043001A0EF20B3
:1009D000A025A257985FA257DC5F6366F700024725
:1009E0008947631DF7020246A245225565232AD294
:1009F000A257DC5389CFA257938747023E85EF1059
:100A0000F0122A8785476317F700093421A092570F
:100A100091C3ED3AEF202024854771A8924789E7DA
:100A2000EF206023814741A8B25799E77C083E85B3
:100A3000EF10702785473ED6EF20E021EF10401AD7
:100A4000EF20801EA257F843FD576315F700A25709
:100A500023A20704A257B847FD576315F700A25712
:100A600023A40704EF20201F58007C08BA853E8588
:100A7000EF107026AA879DEB2255EF006071AA87C0
:100A80008DC3A257C1071247BA853E85EF10E070AB
:100A900022551525EF108016AA87E39A07F2BD327A
:100AA0003DB72255092DEF10601515B722552125A8
:100AB000EF10C01481473E85F25021618280797128
:100AC00006D62AC62EC432C236C0B2473ECCE24752
:100AD00081E77370043001A0A24781E7E247BC437D
:100AE00099E3854711A0814781E77370043001A025
:100AF000024789476317F700E247D85F85476314C9
:100B0000F700854711A0814781E77370043001A089
:100B1000E93AAA873ECAE247985FE247DC5F63662C
:100B2000F700024789476315F7040246A24562456C
:100B30009521E247B847FD576313F702E247DC53BC
:100B40008DC7E247938747023E85EF10207EAA8734
:100B500089CF924799CB9247054798C339A0E2477E
:100B6000BC4713871700E247B8C785473ECE11A0A0
:100B700002CED2473E859532F2473E85B25045615E
:100B80008280797106D62AC62EC4B2473ECCE2478F
:100B900081E77370043001A0E247BC4381C77370E2
:100BA000043001A0E2479C4381E7E247DC4399E33C
:100BB000854711A0814781E77370043001A0353269
:100BC000AA873ECAE247985FE247DC5F6377F70493
:100BD000E2479C5F13871700E24798DFE247B84778
:100BE000FD576313F702E247DC538DC7E247938753
:100BF00047023E85EF108073AA8789CFA24799CB21
:100C0000A247054798C339A0E247BC47138717009E
:100C1000E247B8C785473ECE11A002CED2473E85F7
:100C20006D38F2473E85B25045618280397106DEEB
:100C30002AC62EC432C236C002D6B2473ED4A2570C
:100C400081E77370043001A0A24781E7A257BC433B
:100C500099E3854711A0814781E77370043001A0B3
:100C6000EF101060AA8799E3924799E3854711A096
:100C7000814781E77370043001A0EF10F07AA2572A
:100C80009C5FB5CBA257DC473ED2A2452255F92E38
:100C9000824795EFA2579C5F1387F7FFA25798DF13
:100CA000A2579C4391E7EF2060022A87A257D8C33E
:100CB000A2579C4B8DCFA257C1073E85EF1000670E
:100CC0002A8785476315F702EFF04FF40DA0A2576E
:100CD0001257D8C7A257DC5399CBA2579387470224
:100CE0003E85EF10A064AA8799C3EFF02FF2EF10B2
:100CF000907685475DA8924789E7EF10D0758147C8
:100D00006DA0B25799E77C083E85EF10C079854702
:100D10003ED6EF105074EF00B06CEF10F070A25799
:100D2000F843FD576315F700A25723A20704A25703
:100D3000B847FD576315F700A25723A40704EF1027
:100D4000907158007C08BA853E85EF10C078AA875C
:100D5000A1EB2255CD2EAA879DCFA2579C4391EBA4
:100D6000EF10906CA257DC433E85EF107052EF10ED
:100D7000906EA257938747021247BA853E85EF10BF
:100D8000C04122550D2EEF007067AA87E39707EE4A
:100D9000EFF0CFE7DDB52255392EEF003066F1BD1B
:100DA0002255112EEF00906581473E85F25021615A
:100DB0008280797106D62AC62EC432C2B2473ECC92
:100DC000E24781E77370043001A0A24781E7E24760
:100DD000BC4399E3854711A0814781E773700430D4
:100DE00001A0EFF08FF0AA873ECAE2479C5FA1CB3B
:100DF000A2456245A52CE2479C5F1387F7FFE247B7
:100E000098DFE247F843FD576312F702E2479C4B35
:100E100085C7E247C1073E85EF104051AA8789CFB9
:100E2000924799CB9247054798C339A0E247FC43C4
:100E300013871700E247F8C385473ECE11A002CEC4
:100E4000D2473E85EFF06FE9F2473E85B2504561EB
:100E50008280797106D62AC62EC4B2473ECCE247BC
:100E600081E77370043001A0A24781E7E247BC43E9
:100E700099E3854711A0814781E77370043001A091
:100E8000E247BC4381E77370043001A0EFF0EFE567
:100E9000AA873ECAE2479C5F89CFE247DC473EC84B
:100EA000A2456245E122E2474247D8C785473ECE88
:100EB00011A002CED2473E85EFF02FE2F2473E85E9
:100EC000B25045618280797106D62AC6B24781E761
:100ED0007370043001A0EF103055B2479C5F3ECED6
:100EE000EF107057F2473E85B250456182807971AC
:100EF00006D62AC6B2473ECEF24781E77370043069
:100F000001A0EF107052F247D85FF2479C5FB30721
:100F1000F7403ECCEF103054E2473E85B250456179
:100F2000828001112AC6B24781E77370043001A0A4
:100F3000B2479C5F3ECEF2473E8505618280797163
:100F400006D62AC6B2473ECEF24781E77370043018
:100F500001A07245E5247245EF3060030100B250F4
:100F60004561828041112AC6B247FC473E85410156
:100F7000828041112AC62EC4B2472247F8C7010019
:100F80004101828041112AC6B24783C707053E85C9
:100F900041018280797106D62AC62EC432C202CEA1
:100FA000B247BC4391EFB2479C43D5E7B247DC431D
:100FB0003E85EF10903B2ACEB24723A2070061A8DE
:100FC000924785EFB2479847B247BC433E86A24559
:100FD0003A85EF30600AB2479847B247BC433E9724
:100FE000B24798C7B2479847B247DC436365F706F4
:100FF000B2479843B24798C7B9A8B247D847B24753
:10100000BC433E86A2453A85EF300007B247D84739
:10101000B247BC43B307F0403E97B247D8C7B24788
:10102000D847B2479C43637BF700B247D843B247E7
:10103000BC43B307F0403E97B247D8C71247894731
:10104000631BF700B2479C5F99C7B2479C5F138749
:10105000F7FFB24798DFB2479C5F13871700B2478C
:1010600098DFF2473E85B25045618280011106CE7D
:101070002AC62EC4B247BC439DCBB247D847B2471D
:10108000BC433E97B247D8C7B247D847B247DC43C4
:101090006366F700B2479843B247D8C7B247D8470C
:1010A000B247BC433E86BA852245EF20F07C010062
:1010B000F24005618280011106CE2AC6EF10D036BB
:1010C00025A0B247DC5395C7B247938747023E85B8
:1010D000EF10C025AA8799C3EF104049B247BC471B
:1010E0001387F7FFB247B8C7B247BC47E34BF0FCE2
:1010F00011A00100B2477D57B8C7EF10D035EF10EF
:10110000B0321DA0B2479C4B8DC7B247C1073E8588
:10111000EF10C021AA8799C3EF104045B247FC43A6
:101120001387F7FFB247F8C3B247FC43E34CF0FC28
:1011300011A00100B2477D57F8C3EF10D031010074
:10114000F24005618280797106D62AC6EF10D02D53
:10115000B2479C5F81E785473ECE11A002CEEF10DB
:10116000902FF2473E85B2504561828001112AC618
:10117000B24781E77370043001A0B2479C5F81E7FA
:1011800085473ECE11A002CEF2473E8505618280A2
:10119000797106D62AC6EF103029B247985FB24758
:1011A000DC5F6315F70085473ECE11A002CEEF103D
:1011B000902AF2473E85B2504561828001112AC6CD
:1011C000B24781E77370043001A0B247985FB2471D
:1011D000DC5F6315F70085473ECE11A002CEF247D3
:1011E0003E850561828001112AC62EC402CE81A0EF
:1011F0001787030013070748F2478E07BA979C43E7
:1012000085E7178703001307E746F2478E07BA976B
:10121000224798C3178703001307C745F2478E0775
:10122000BA973247D8C301A8F24785073ECE724726
:101230009D47E3FFE7FA01000561828001112AC69C
:1012400002CE0DA8178703001307C742F2478E0787
:10125000BA97DC433247631CF70017870300130774
:101260006741F2478E07BA9723A0070001A8F2470B
:1012700085073ECE72479D47E3F6E7FC0100056116
:101280008280797106D62AC62EC432C2B2473ECEBB
:10129000EF109019F247F843FD576315F700F24736
:1012A00023A20704F247B847FD576315F700F2473A
:1012B00023A40704EF10301AF2479C5F89EBF24732
:1012C000938747021246A2453E85EF00907E724505
:1012D000DD330100B25045618280397106DE2ACECD
:1012E0002ECC36C83AC63EC442C246C0B287231B83
:1012F000F100F24781E77370043001A03247A5473F
:1013000063F5E7007370043001A0835761019245D3
:101310003E85EF1080512AD4A257638F0712A2573F
:10132000985B83566101B7070040FD17B6978A079F
:10133000BA973ED29257F19B3ED292578D8B81C77E
:101340007370043001A0835761013E8782463246A4
:10135000E2452255EF10E0274246F2451255EFF0E4
:101360000F9A2A87A25798C3A24781C7A24722573C
:1013700098C3EF10700B97F701009387E71B9C430E
:101380001387170097F701009387071B98C397F7F8
:101390000100938727FD9C4395E397F7010093870E
:1013A00067FC225798C397F701009387E718984383
:1013B0008547631AF702EF10C02C35A097F701009C
:1013C000938747189C4385E397F70100938787F934
:1013D0009C43DC5732476368F70097F70100938717
:1013E00067F8225798C397F701009387A7169C4385
:1013F0001387170097F701009387C71598C397F7CE
:101400000100938727159843A257B8C7A257D8570A
:1014100097F701009387C7129C4363F9E700A2572F
:10142000D85797F701009387A71198C3A257D857A9
:10143000BA878A07BA978A0717F70100130747FC8C
:101440003E97A2579107BE853A85EFF0EF95854705
:101450003ED6EF10500019A0FD573ED632578547B3
:101460006313F70297F701009387C70D9C4381CF61
:1014700097F70100938707EF9C43DC57324763F4EB
:10148000E700EFE0BFF8B2573E85F250216182805D
:10149000797106D62AC6EF102079B24799E797F7F7
:1014A0000100938727EC9C4311A0B2473ECEF24740
:1014B00091073E85EFF0EF99F2479C5791C7F247AD
:1014C000E1073E85EFF0EF98F2479107BE8517F5EB
:1014D00001001305A503EFF02F8D97F70100938707
:1014E00027049C431387170097F70100938747034E
:1014F00098C397F701009387E7059C43138717006C
:1015000097F701009387070598C3EF10C07497F70A
:101510000100938727039C439DCB97F70100938796
:1015200067E49C437247631EF70097F701009387B7
:10153000E7029C4381C77370043001A0EFE01FED08
:1015400039A0EF10606EEF10A04BEF10C0700100DB
:10155000B25045618280797106D62AC62EC402CE69
:10156000B24781E77370043001A0A24781E773702E
:10157000043001A097F70100938747FE9C4381C781
:101580007370043001A0A92D97F70100938707FB22
:101590009C433ECCB2479C432247BA973ECAB247CF
:1015A0009C436247637EF700B2479C435247637493
:1015B000F7025247E24763F0E70285473ECE21A893
:1015C000B2479C4352476366F7005247E24763F4D1
:1015D000E70085473ECEB247524798C3F24789CFCE
:1015E00097F70100938707D89C4391073E85EFF05A
:1015F0004F865245EF10001B11252AC8C24799E3B8
:10160000EFE0DFE00100B25045618280797106D6DB
:101610002AC602CEB247A9C397F70100938707F401
:101620009C4381C77370043001A05D2B97F70100C4
:101630009387C7F09C433247BA973ECC97F7010097
:10164000938747D29C4391073E85EFF08F80624598
:10165000EF10401565232ACEF24799E3EFE01FDB38
:101660000100B25045618280797106D62AC6B24720
:101670003ECCE24781E77370043001A097F7010088
:10168000938747CE9C4362476314F70002CEBDA008
:10169000EF108059E247DC4B3ECAEF10C05B97F772
:1016A00001009387E7E49C435247630AF70097F7EA
:1016B0000100938727E49C4352476315F70089474D
:1016C0003ECE2DA8524797F701009387A7E5631BED
:1016D000F700E2479C5781E78D473ECE05A089473A
:1016E0003ECE29A8524797F70100938727E263155A
:1016F000F70091473ECE19A085473ECEF2473E8582
:10170000B25045618280797106D62AC6EF10C05169
:10171000B24799E797F701009387C7C49C4311A08C
:10172000B2473ECEF247DC573ECCEF10C052E24704
:101730003E85B25045618280797106D62AC6EFE0B7
:10174000DFDAAA873ECEB24799E797F70100938781
:1017500067C19C4311A0B2473ECCE247DC573ECA6A
:10176000F2473E85EFE07FD7D2473E85B2504561D4
:101770008280797106D62AC62EC402CE2247A5479A
:1017800063F5E7007370043001A02247A54763F4B6
:10179000E700A5473EC4EF102049B24799E797F705
:1017A0000100938727BC9C4311A0B2473ECCE2477F
:1017B000BC4B3ECA5247A247630AF70E2247D247A4
:1017C00063F6E70297F701009387C7B99C43624726
:1017D0006308F70297F701009387C7B89C43DC576B
:1017E0002247636FF70085473ECE19A897F701009F
:1017F000938747B79C4362476314F70085473ECE03
:10180000E247DC573EC8E247B84BE247DC57631576
:10181000F700E2472247D8D7E2472247B8CBE24752
:101820009C4F63C707002947A2471D8FE24798CF07
:10183000E247D44B4247BA878A07BA978A0717F715
:1018400001001307E7BBBA976394F600854711A020
:101850008147B9C7E24791073E85EFE09FDFE24746
:10186000D85797F701009387A7CD9C4363F9E7000A
:10187000E247D85797F70100938787CC98C3E24790
:10188000D857BA878A07BA978A0717F7010013074C
:1018900027B73E97E2479107BE853A85EFE0DFD054
:1018A000724785476314F700EFE05FB6EF10A03A88
:1018B0000100B25045618280797106D62AC6EF10C8
:1018C000A036B24799E797F701009387A7A99C43F1
:1018D00011A0B2473ECEF24791073E85EFE07FD799
:1018E000F2479C5791C7F247E1073E85EFE07FD66C
:1018F000F2479107BE8517F501001305A5C2EFE079
:10190000BFCAEF10403597F701009387A7A59C4306
:1019100072476319F70497F701009387A7C29C43A6
:1019200089CF97F70100938767C39C4381C7737082
:10193000043001A0EFE09FAD91A097F701009387DD
:1019400067BE984397F70100938707BF9C436319CD
:10195000F70097F701009387E7A023A0070039A8B5
:10196000212729A897F701009387C7BD9C4399C7F2
:10197000EF10802BEF10C008EF10E02D0100B250E7
:101980004561828001112AC602CEB2473ECCB247E1
:1019900081E77370043001A0E247D84B97F701004C
:1019A000938747B86314F700854711A0814795C313
:1019B000E247985797F70100938707B4630BF70046
:1019C000E2479C5799E3854711A0814799C3854712
:1019D0003ECEF2473E8505618280797106D62AC6E1
:1019E000B2473ECEB24781E77370043001A0F247A0
:1019F000C9C797F701009387E7969C437247630E28
:101A0000F706EF1060227245B53F2A8785476314B9
:101A1000F706F24791073E85EFE0BFC3F247D8577C
:101A200097F701009387C7B19C4363F9E700F2473A
:101A3000D85797F701009387A7B098C3F247D857B4
:101A4000BA878A07BA978A0717F701001307479BD7
:101A50003E97F2479107BE853A85EFE0FFB4F24723
:101A6000D85797F701009387E78F9C43DC5763644F
:101A7000F700EFE0BF99EF10001E0100B250456182
:101A80008280797106D62AC602CEB2473ECCB247D2
:101A900081E77370043001A0EFE03FA5AA873ECA3A
:101AA0006245CD352A8785476314F70897F701000B
:101AB0009387C7AA9C43A5E7E247D85797F7010049
:101AC0009387478A9C43DC576364F70085473ECE83
:101AD000E24791073E85EFE0DFB7E247D85797F737
:101AE00001009387E7A59C4363F9E700E247D857D5
:101AF00097F701009387C7A498C3E247D857BA87DE
:101B00008A07BA978A0717F701001307678F3E976E
:101B1000E2479107BE853A85EFE01FA911A8E24789
:101B2000E107BE8517F501001305059DEFE0DFA76E
:101B3000D2473E85EFE07F9AF2473E85B25045613D
:101B40008280011106CE81480148814701478146C4
:101B50001306004097E501009385C54A171500005C
:101B6000130585A5EFF06FF72AC632478547631541
:101B7000F700EF10C06D2AC6324785476319F70298
:101B80007370043097F701009387079D7D5798C3C2
:101B900097F701009387079B054798C397F70100C4
:101BA0009387C79923A00700EFE0AFEF31A0B247BA
:101BB00081E77370043001A00100F240056182806A
:101BC000411106C67370043097F701009387879719
:101BD00023A00700EFE02FFB0100B240410182800B
:101BE00097F70100938787979C431387170097F710
:101BF00001009387A79698C301008280011106CE49
:101C000002C697F70100938767959C4381E773703D
:101C1000043001A0EF10400197F70100938707946B
:101C20009C431387F7FF97F701009387279398C387
:101C300097F70100938787929C436390071097F76B
:101C400001009387678F9C436389070E59A097F71C
:101C500001009387678ADC47DC473EC4A247E1075F
:101C60003E85EFE01F9FA24791073E85EFE07F9EF4
:101C7000A247D85797F701009387878C9C4363F955
:101C8000E700A247D85797F701009387678B98C35F
:101C9000A247D857BA878A07BA978A0717E7010079
:101CA000130707763E97A2479107BE853A85EFE076
:101CB000BF8FA247D85797E701009387A76A9C4335
:101CC000DC576368F70097F701009387278805477B
:101CD00098C397F70100938727829C43ADFB97F742
:101CE0000100938767869C438DCF35A0452AAA873C
:101CF00099C797F7010093876785054798C397F7BA
:101D00000100938767849C431387F7FF97F70100CF
:101D10009387878398C397F701009387E7829C4353
:101D2000F1F797F701009387678298438547631619
:101D3000F70085473EC6EFE06FEDEF00D071B24788
:101D40003E85F24005618280011106CEEF00D06D24
:101D500097E701009387877E9C433EC6EF00B06FF4
:101D6000B2473E85F24005618280011106CEEFE068
:101D7000CFF7AA873EC697E701009387277C9C434D
:101D80003EC4B2473E85EFE04FF5A2473E85F240A4
:101D90000561828097E701009387077A9C433E851F
:101DA0008280797106D62AC62EC432C202CEA947D5
:101DB0003ECC3D3597E70100938707789C43224747
:101DC0006368F70CE247FD173ECCF24796073247AF
:101DD000B306F7006247BA878A07BA978A0717E7F8
:101DE00001001307E761BA970546BE853685EF0007
:101DF000902A2A87F247BA973ECEE247E1F7F247A8
:101E0000960732473E9797E701009387676E9C439A
:101E10000946BE853A85EF0010282A87F247BA970F
:101E20003ECEF247960732473E9797E701009387E9
:101E3000676C9C430946BE853A85EF00D0252A870A
:101E4000F247BA973ECEF24796073247BA97114605
:101E500097E501009385856B3E85EF00D0232A87A7
:101E6000F247BA973ECEF24796073247BA970D46E9
:101E700097E501009385056B3E85EF00D0212A8709
:101E8000F247BA973ECE924781C7924723A00700F8
:101E9000B533F2473E85B25045618280797106D6EE
:101EA00002CE97E701009387676B9C436395071801
:101EB00097E70100938787689C431387170097E78C
:101EC00001009387A76798C397E701009387076787
:101ED0009C433ECCE247B9EF97E701009387476107
:101EE0009C439C4381C77370043001A097E70100B5
:101EF000938707609C433ECA97E701009387875FFB
:101F0000984397E701009387A75E98C397E701007E
:101F10009387475E524798C397E7010093874763CB
:101F20009C431387170097E701009387676298C364
:101F3000EF00102D97E70100938707629C436247EB
:101F40006365F70C97E701009387875A9C439C438E
:101F500099E3854711A0814781CB97E701009387DB
:101F6000A75F7D5798C355A097E70100938747580F
:101F70009C43DC47DC473EC8C247DC433EC6624761
:101F8000B2476379F70097E701009387E75C324730
:101F900098C3A5A8C24791073E85EFE08FEBC247E3
:101FA0009C5791C7C247E1073E85EFE08FEAC247E1
:101FB000D85797E701009387A7589C4363F9E70038
:101FC000C247D85797E701009387875798C3C247FE
:101FD000D857BA878A07BA978A0717E70100130705
:101FE00027423E97C2479107BE853A85EFE0CFDB97
:101FF000C247D85797E701009387C7369C43DC5701
:10200000E362F7F485473ECE35BF97E7010093873B
:1020100067359C43D85797E601009386663EBA879A
:102020008A07BA978A07B6979843854763F1E7020C
:1020300085473ECE29A897E701009387E7509C4348
:102040001387170097E701009387075098C397E716
:1020500001009387A74F9C4399C385473ECEF24723
:102060003E85B25045618280011106CE97E701009E
:102070009387C74E9C4381CB97E701009387074D19
:10208000054798C339A297E701009387274C23A0FF
:10209000070097E701009387E72C9C439C5B3EC6B3
:1020A000B7A7A5A59387575A3EC4B2479C4322477A
:1020B0006314F702B24791079C432247631EF7005F
:1020C000B247A1079C4322476318F700B247B10704
:1020D0009C4322476308F70497E70100938787280A
:1020E000984397E701009387E7279C43938747032B
:1020F000BE853A85EF20B02035A097E70100938791
:1021000027449C4381E77370043001A097E70100E6
:10211000938707439C431387F7FF97E70100938753
:10212000274298C397E7010093878741984397E632
:1021300001009386E62CBA878A07BA978A07B69772
:102140009C43C5DF97E701009387873F9843BA8791
:102150008A07BA978A0717E701001307672ABA9711
:102160003EC29247DC43D8439247D8C39247D843F4
:102170009247A1076317F7009247DC43D843924781
:10218000D8C39247DC43D84797E701009387871D60
:1021900098C30100F24005618280797106D62AC693
:1021A0002EC4B24781E77370043001A097E70100A5
:1021B0009387471B9C43E107BE853245EFE0CFC2C2
:1021C00097E701009387071A9C4391073E85EFE04C
:1021D0004FC82247FD576310F70297E70100938726
:1021E00067189C439107BE8517E5010013058533E9
:1021F000EFE08FBB19A897E70100938727349C4332
:102200002247BA973ECE7245712B0100B25045610C
:102210008280797106D62AC62EC432C2B24781E7BF
:102220007370043001A097E70100938727339C4324
:1022300081E77370043001A097E70100938787124C
:102240009C43A24637070080558F98CF97E701003F
:10225000938747119C43E107BE853245EFE0CFB439
:1022600097E70100938707109C4391073E85EFE0B5
:102270004FBE1247FD576310F70297E7010093879F
:10228000670E9C439107BE8517E50100130585295C
:10229000EFE08FB119A897E701009387272A9C43A5
:1022A0001247BA973ECE7245F5290100B2504561FA
:1022B0008280797106D62AC62EC432C2B24781E71F
:1022C0007370043001A097E701009387A7099C432E
:1022D000E107BE853245EFE02FAD97E70100938718
:1022E00067089C4391073E85EFE0AFB612478547EC
:1022F0006310F70297E701009387C7069C43910795
:10230000BE8517E501001305E521EFE0EFA919A847
:1023100097E70100938787229C432247BA973ECED6
:10232000724549210100B25045618280797106D61B
:102330002AC6B247DC47DC473ECCE24781E77370F0
:10234000043001A0E247E1073E85EFE08FB097E758
:1023500001009387A7209C43A1EBE24791073E85AC
:10236000EFE02FAFE247D85797E701009387471D6B
:102370009C4363F9E700E247D85797E7010093874A
:10238000271C98C3E247D857BA878A07BA978A07A3
:1023900017E701001307C7063E97E2479107BE857E
:1023A0003A85EFE06FA011A8E247E107BE8517E587
:1023B000010013056514EFE02F9FE247D85797E718
:1023C0000100938727FA9C43DC5763FBE7008547AE
:1023D0003ECE97E7010093876717054798C311A082
:1023E00002CEF2473E85B25045618280797106D6B1
:1023F0002AC62EC497E70100938747169C4381E7BE
:102400007370043001A02247B70700805D8FB24788
:1024100098C3B247DC473ECCE24781E77370043093
:1024200001A03245EFE0EFA2E24791073E85EFE0E1
:102430004FA2E247D85797E70100938767109C4364
:1024400063F9E700E247D85797E701009387470F02
:1024500098C3E247D857BA878A07BA978A0717E717
:1024600001001307E7F93E97E2479107BE853A85D9
:10247000EFE08F93E247D85797E70100938787EE05
:102480009C43DC5763FBE70085473ECE97E701009E
:102490009387C70B054798C311A002CEF2473E852C
:1024A000B2504561828041112AC6B24781E77370FC
:1024B000043001A097E70100938787099843B2474A
:1024C00098C397E70100938767079843B247D8C33B
:1024D000010041018280797106D62AC62EC4B24716
:1024E00081E77370043001A0A24781E77370043064
:1024F00001A01D2F97E70100938747049C433ECC22
:10250000A2479843FD576314F70002CE91A8B24743
:10251000984397E701009387A7039C43630AF7005A
:10252000B247DC4362476365F70085473ECE0DA89E
:10253000B247DC4362471D8FA2479C436370F7029A
:10254000A2479843B247D443E247B387F6403E9749
:10255000A24798C33245813F02CE19A085473ECE9F
:10256000DD2DF2473E85B2504561828097E701003C
:102570009387C7FD054798C30100828001112AC6D1
:10258000B24799C7B2473ECCE247FC473ECE11A0C6
:1025900002CEF2473E850561828001112AC62EC413
:1025A000B24791C7B2473ECEF2472247F8C7010073
:1025B00005618280011106CE2AC6852297E70100B7
:1025C000938707E498438547E3F9E7FEEFD01FE4DC
:1025D000EDB7397106DE2ACE2ECC32CA36C8BA879C
:1025E0002317F10002D625A06247B257BA9703C756
:1025F0000700F246B257B697238AE7026247B257FE
:10260000BA9783C7070089CBB25785073ED63257A2
:10261000BD47E3FBE7FC11A00100F247A3810704DB
:102620005247A54763F4E700A5473ECAF247524721
:10263000D8D7F2475247B8CBF24723AA0704F2474C
:1026400091073E85EFD05FF5F247E1073E85EFD079
:10265000BFF4F247724798CB2947D2471D8FF24704
:1026600098CFF2477247D8D3F24723A20704F24724
:1026700023AC0704F24723AE07040100F2502161A6
:102680008280011106CE02C60DA03247BA878A07A2
:10269000BA978A0717E70100130787D6BA973E85CE
:1026A000EFD05FECB24785073EC63247A547E3FE51
:1026B000E7FC17E50100130525E1EFD0BFEA17E5B8
:1026C00001001305A5E1EFD0FFE917E501001305AF
:1026D000A5E2EFD03FE917E50100130525E3EFD0B0
:1026E0007FE817E501001305E5E3EFD0BFE797E7C3
:1026F00001009387E7DF17E701001307E7DC98C3C2
:1027000097E70100938707DF17E70100130707DD4D
:1027100098C30100F24005618280011106CE8DA8A8
:10272000EFF00FCC97E70100938747DE9C4393B708
:10273000170093F7F70F3EC6EFF04FCCB247A9EB67
:10274000E52197E70100938767DCDC47DC473EC45F
:10275000A24791073E85EFD0DFEF97E7010093870F
:10276000A7DD9C431387F7FF97E701009387C7DC3A
:1027700098C397E701009387A7DA9C431387F7FF75
:1027800097E701009387C7D998C3F1212245912C7F
:1027900097E701009387C7D89C43D9F30100F24023
:1027A00005618280011106CE2AC697E70100938752
:1027B00067BB9C433247D8C397E70100938707D88C
:1027C0009C4332476372F70297E70100938787D2F1
:1027D000984397E701009387E7B89C439107BE852C
:1027E0003A85EFD07FE035A897E70100938747D07F
:1027F000984397E701009387E7B69C439107BE850E
:102800003A85EFD07FDE97E701009387E7D49C43BA
:1028100032476378F70097E701009387E7D33247A1
:1028200098C30100F24005618280797106D6AA87BB
:102830002EC42317F100A24789EB8357E1008A07D2
:102840003E85EF10C061AA8711A0A2473ECCE247A7
:1028500085C313050006EF1080602ACEF24789C7B2
:10286000F247624798DB31A06245EF10407211A039
:1028700002CEF24781CFF247985B8357E1008A0787
:102880003E869305500A3A85EF10D005F2473E8503
:10289000B25045618280397106DE22DC2AC62EC420
:1028A00032C202D6A2479C43638D070EA2473ED494
:1028B000A257DC43D843A257D8C3A257D843A25744
:1028C000A1076317F700A257DC43D843A257D8C328
:1028D000A257DC43DC473ED2A2473ED08257DC43BE
:1028E000D8438257D8C38257D8438257A10763176A
:1028F000F7008257DC43D8438257D8C38257DC4362
:10290000DC473ECEB25796073247BA97724798C314
:10291000B25796073247BA97724713074703D8C38F
:10292000B25796073247BA977247384798C7B25797
:1029300096073247BA971247D8C7B2579607324719
:10294000BA977247585798CB12478D47631BF700C9
:10295000F2479C5799C7B25796073247BA9709472B
:10296000D8C7B25796073247BA977247384BD8CB79
:10297000B25796073247BA9723AC0700F247945BE9
:10298000B257960732473304F70036850D20AA87E1
:10299000231EF400B25785073ED672479257E31DB7
:1029A000F7F2B2573E85F2506254216182800111E4
:1029B0002AC602CE39A0B24785073EC6F247850730
:1029C0003ECEB24703C707009307500AE305F7FE60
:1029D000F24789833ECEF247C207C1833E85056137
:1029E0008280011106CE2AC6B2479C5B3E85EF105D
:1029F000005A3245EF10A0590100F2400561828073
:102A0000411197E701009387A7AE9C439C4399E34C
:102A1000854711A0814781CB97E701009387C7B312
:102A20007D5798C305A097E70100938767AC9C4347
:102A3000DC47DC473EC6B247D84397E7010093879F
:102A4000A7B198C3010041018280411197E70100BD
:102A5000938747919C433EC6B2473E8541018280A1
:102A6000411197E701009387E7AD9C4381E78547D4
:102A70003EC619A897E70100938747AE9C4381E7BC
:102A800089473EC611A002C6B2473E8541018280F9
:102A9000797106D62AC6B2473ECEB247F9C3F2478D
:102AA000D85797E701009387E78B9C43DC57637AFD
:102AB000F70AF2479C4F63CC070097E70100938722
:102AC000678A9C43DC5729471D8FF24798CFF2470E
:102AD000D44BF247D857BA878A07BA978A0717E7BD
:102AE00001001307E791BA976394F600854711A098
:102AF0008147A5C3F24791073E85EFD09FB597E781
:102B00000100938727869C43D857F247D8D7F247CE
:102B1000D85797E701009387A7A29C4363F9E70082
:102B2000F247D85797E70100938787A198C3F247E8
:102B3000D857BA878A07BA978A0717E70100130799
:102B4000278C3E97F2479107BE853A85EFD0DFA5E7
:102B500009A897E701009387E7809C43D857F2477D
:102B6000D8D70100B25045618280797106D62AC655
:102B7000B2473ECC02CEB247DDC397D70100938760
:102B8000677E9C4362476305F7007370043001A0C1
:102B9000E247FC4B81E77370043001A0E247FC4B35
:102BA0001387F7FFE247F8CBE247D857E247BC4B21
:102BB0006307F706E247FC4BBDE3E24791073E851A
:102BC000EFD03FA9E247B84BE247D8D7E247DC57FE
:102BD00029471D8FE24798CFE247D85797E7010072
:102BE000938707969C4363F9E700E247D85797E736
:102BF00001009387E79498C3E247D857BA878A07BA
:102C0000BA978A0717D701001307877F3E97E247D5
:102C10009107BE853A85EFD03F9985473ECEF24772
:102C20003E85B250456182807370043097E70100A1
:102C3000938747919C4391CF97D7010093878772E1
:102C40009C43F8430507F8C397D701009387877122
:102C50009C430100828097E701009387A78E9C43E5
:102C60008DCB97D701009387E76F9C43FC4395C3B7
:102C700097D701009387076F9C43F8437D17F8C3EC
:102C800097D701009387076E9C43FC4399E37360D9
:102C9000043001008280411197D701009387876C2F
:102CA0009C439C4F3EC697D701009387A76B9C43DC
:102CB000D85797D701009387E76A9C43A946338783
:102CC000E64098CFB2473E854101828097D7010008
:102CD000938747699C4389CB97D70100938787687F
:102CE0009C43F84B0507F8CB97D70100938787677C
:102CF0009C433E858280797106D62AC62EC42D3724
:102D000097D70100938707669C43BC4FADE397D7E5
:102D10000100938727659C430547F8CFA247A1CBC5
:102D200097D70100938707649C4391073E85EFD0B6
:102D30005F922247FD576310F70297D701009387F0
:102D400067629C439107BE8517D501001305857DF9
:102D5000EFD09F8519A897D701009387277E9C43C2
:102D60002247BA973ECE7245353CEFD02FEAE53583
:102D7000653D97D701009387E75E9C43BC4F3ECCEF
:102D8000E2479DC3B24789CB97D701009387875D00
:102D90009C4323AC070409A897D701009387875C5D
:102DA0009C43B84F7D17B8CF97D701009387875BB7
:102DB0009C4323AE07044535E2473E85B25045614A
:102DC0008280797106D62AC62EC432C236C0A93D89
:102DD00097D70100938707599C43F84F8947630DA4
:102DE000F70697D701009387E7579C43B44F3247C4
:102DF0001347F7FF758FB8CF97D701009387875692
:102E00009C430547F8CF8247A1CB97D70100938712
:102E100067559C4391073E85EFD0BF830247FD571E
:102E20006310F70297D701009387C7539C4391071C
:102E3000BE8517D501001305E56EEFD0EFF619A892
:102E400097D701009387876F9C430247BA973ECC80
:102E50006245893AEFD08FDBFD3BF933924789CB4E
:102E600097D70100938707509C43B84F924798C368
:102E700097D701009387074F9C43F84F854763140A
:102E8000F70002CE31A897D701009387A74D9C4346
:102E9000B44F22471347F7FF758FB8CF85473ECE13
:102EA00097D701009387074C9C4323AE07046533F3
:102EB000F2473E85B25045618280797106D62AC6B6
:102EC0002EC432C236C085473ECEB24781E773700A
:102ED000043001A0B2473ECC813B824789C7E2471C
:102EE000B84F824798C3E247FC4F3ECAE2470947C2
:102EF000F8CF1247914763EEE704924713972700F4
:102F000097D7010093878710BA97984397D7010006
:102F10009387C70FBA978287E247B84FA2475D8F62
:102F2000E247B8CF3DA0E247BC4F13871700E24706
:102F3000B8CF05A0E2472247B8CF21A8524789471A
:102F40006306F700E2472247B8CF21A002CE11A0C6
:102F5000010052478547631AF706E24791073E850D
:102F6000EFD02FEFE247D85797D701009387475DFF
:102F70009C4363F9E700E247D85797D7010093874E
:102F8000275C98C3E247D857BA878A07BA978A0757
:102F900017D701001307C7463E97E2479107BE8542
:102FA0003A85EFD06FE0E2479C5781C773700430D9
:102FB00001A0E247D85797D701009387A73A9C43CF
:102FC000DC5763F4E700EFD06FC47131F2473E8500
:102FD000B25045618280397106DE2ACE2ECC32CACB
:102FE00036C83AC685473ED6F24781E7737004304B
:102FF00001A0F2473ED4EFD04FCFAA873ED2C247BE
:1030000089C7A257B84FC24798C3A257FC4F3ED0BA
:10301000A2570947F8CF5247914763EEE704D247DA
:103020001397270097D70100938787FFBA97984394
:1030300097D701009387C7FEBA978287A257B84FE8
:10304000E2475D8FA257B8CF3DA0A257BC4F138770
:103050001700A257B8CF05A0A2576247B8CF21A842
:10306000025789476306F700A2576247B8CF21A0ED
:1030700002D611A0010002578547631DF708A25729
:103080009C5781C77370043001A097D701009387C4
:10309000E74C9C43A1EBA25791073E85EFD06FDB35
:1030A000A257D85797D70100938787499C4363F964
:1030B000E700A257D85797D701009387674898C36E
:1030C000A257D857BA878A07BA978A0717D7010035
:1030D000130707333E97A2579107BE853A85EFD075
:1030E000AFCC11A8A257E107BE8517D50100130583
:1030F000A540EFD06FCBA257D85797D70100938741
:1031000067269C43DC5763F7E700B24781C7B247A5
:10311000054798C392573E85EFD02FBCB2573E85E6
:10312000F25021618280797106D62AC62EC4B24738
:1031300081E77370043001A0B2473ECEEFD0EFBA02
:10314000AA873ECCF247FC4F3ECAF2470947F8CF68
:10315000F247BC4F13871700F247B8CF5247854755
:10316000631DF708F2479C5781C77370043001A0B4
:1031700097D701009387873E9C43A1EBF2479107C5
:103180003E85EFD00FCDF247D85797D701009387F0
:10319000273B9C4363F9E700F247D85797D70100D4
:1031A0009387073A98C3F247D857BA878A07BA97DE
:1031B0008A0717D701001307A7243E97F247910704
:1031C000BE853A85EFD04FBE11A8F247E107BE8514
:1031D00017D5010013054532EFD00FBDF247D85780
:1031E00097D70100938707189C43DC5763F7E700E4
:1031F000A24781C7A247054798C3E2473E85EFD063
:10320000CFAD0100B25045618280797106D62AC6E1
:10321000B2473ECCE24799E797D7010093878714DE
:103220009C4311A0E2473ECC0134E247F84F894766
:103230006318F700E24723AE070485473ECE11A08E
:1032400002CE113CF2473E85B250456182800111A9
:1032500006CE02C6B92B97D70100938767339C43EC
:103260009DC38148014881470947814613060040B4
:1032700097D50100938505DC170500001305051B94
:10328000EFE0AF852AC6B24781E77370043001A032
:10329000B2473E85F24005618280397106DE2ACE52
:1032A0002ECC32CA36C83AC6E24799E302D62DA8D8
:1032B0001305C002EF00B03A2AD6B25795C7D529F8
:1032C000B257724798C3B257624798CFB257524726
:1032D000D8CFB257424798D3B2573247D8D3B25714
:1032E00091073E85EFD04FABE24781E77370043022
:1032F00001A0B2573E85F250216182805D7186C681
:103300002ACE2ECC32CA36C83AC602DEF24781E750
:103310007370043001A097D70100938767279C43FF
:10332000B5CBE2473ED6D2473ED8F2473EDA6247B7
:10333000954763C4E704EFF0AFF22A87894763102B
:10334000F70297D701009387A7249C437810814602
:103350003246BA853E85EFD0AFE02ADE25A897D762
:1033600001009387E7229C43781081460146BA8585
:103370003E85EFD0EFDE2ADE31A897D70100938794
:1033800027219C43781081464246BA853E85EFD07E
:103390000FF32ADEF2573E85B6406161828001114B
:1033A0002AC6B2473ECEB24781E77370043001A00F
:1033B000F2479C433E8505618280797106D62AC614
:1033C0002EC497D701009387271C9C43DC47DC471A
:1033D0003ECEF24791073E85EFD0AFA7F247D84FD8
:1033E0008547631BF702F247984FB247BA97B24638
:1033F0002246BE857245B9222A878547631EF7009B
:1034000001478146324681457245CD3D2ACCE2478F
:1034100081E77370043001A0F247DC537245829754
:103420000100B25045618280797106D62AC63C08F7
:103430003E8541282ACEE247BE8572451920692281
:10344000FDB7797106D62AC62EC4EFE06FF93C08A5
:103450003E8545282ACEE247B9EFA24799EB32478D
:10346000F24763E8E700EFE06FF9F2453245B13724
:10347000A9A0A24781CF97D70100938727119C432A
:103480009C4393B7170093F7F70F3EC497D70100FB
:103490009387071094433247F247B307F740224619
:1034A000BE853685EFD0FFDDEFE04FF5AA8791E7C7
:1034B000EFC0DFF519A0EFE06FF40100B2504561F5
:1034C000828001112AC697D701009387E70B9C439E
:1034D0009C4393B7170093F7F70F3E87B24798C303
:1034E000B2479C4391EB97D701009387E7099C4330
:1034F000DC479C433ECE11A002CEF2473E850561DB
:103500008280797106D62AC6EFE01F842ACE97D72B
:103510000100938727089C4372476377F700C9220D
:10352000B247054798C321A0B24723A0070097D709
:10353000010093872706724798C3F2473E85B25031
:1035400045618280797106D62AC62EC432C236C041
:1035500002CEB2472247D8C3B247324798CB224760
:10356000924763E8E702124782471D8FB2479C4F9C
:103570006365F70085473ECE99A097D701009387F2
:10358000E7009843B2479107BE853A85EFD0CF85D3
:103590003DA0124782476379F7002247824763655F
:1035A000F70085473ECE21A897D701009387C7FD36
:1035B0009843B2479107BE853A85EFD0EF82F24734
:1035C0003E85B25045618280397106DEFDA0C2475A
:1035D00063D307021C0891073ED6B25781E7737088
:1035E000043001A0B2579443B257D843B2579C4716
:1035F000BE853A858296C24763C0070CE2473ED437
:10360000A257DC4B91C7A25791073E85EFD06F843C
:103610007C003E85FD352AD2C2472547636FF708F7
:103620001397270097D70100938747A1BA9798432C
:1036300097D70100938787A0BA9782875247A257EE
:103640009C4FBA975247BA861256BE852255DD3D29
:103650002A8785476313F706A257DC5322558297C2
:10366000A257D84F8547631AF7045247A2579C4F79
:10367000BA97014781463E868145225541312AD07D
:10368000825785EF7370043001A05247A25798CF3C
:10369000A2579C4F81E77370043001A0A257984F46
:1036A0009257BA9792561256BE852255613D31A067
:1036B0002255EF00D00D11A0010097D7010093878C
:1036C00027ED9C43180881460146BA853E85EFD018
:1036D000EFD5AA87E39D07EE0100F25021618280B9
:1036E000797106D671A097D701009387E7E99C43CB
:1036F000DC479C433ECC97D701009387E7E89C4387
:10370000DC47DC473ECAD24791073E85EFC07FF4D5
:10371000D247DC5352458297D247D84F8547631929
:10372000F704D2479C4F6247BA973EC84247E247E8
:1037300063F4E702D2474247D8C3D247524798CBF7
:1037400097D70100938747E49843D2479107BE85F6
:103750003A85EFC07FE929A8014781466246814545
:103760005245693E2AC6B24781E77370043001A012
:1037700097D70100938747E19C439C43ADF797D7C8
:103780000100938767E09C433ECE97D70100938763
:10379000E7DF984397D70100938707DF98C397D750
:1037A00001009387A7DE724798C30100B2504561BC
:1037B0008280411106C6EFF02FC797D7010093878B
:1037C00027DD9C43C9E717D50100130565D9EFC074
:1037D0007FD917D501001305E5D9EFC0BFD897D71A
:1037E0000100938767DA17D70100130767D798C3DB
:1037F00097D70100938787D917D70100130787D779
:1038000098C30146C1451145EFC0FFF42A8797D7F9
:1038100001009387E7D798C397D70100938747D7CD
:103820009C4381E77370043001A097D70100938710
:1038300027D69C4389CF97D70100938767D59C43B0
:1038400097D50100938505823E85EFD0DF99EFF093
:103850008FC00100B24041018280797106D62AC62C
:10386000B2473ECEB24781E77370043001A0EFF05B
:10387000AFBBF247DC4BB337F00093F7F70F3ECC0A
:10388000EFF06FBDE2473E85B250456182807971AD
:1038900006D62AC6B2473ECEB24781E773700430DF
:1038A00001A0EFF06FB8F2479C533ECCEFF0AFBAF7
:1038B000E2473E85B25045618280797106D62AC6BC
:1038C0002EC4B2473ECEB24781E77370043001A0E8
:1038D000EFF08FB5F247224798D3EFF0CFB7010052
:1038E000B25045618280397106DE2AC62EC432C2CA
:1038F00036C0F9573ECEB2473ED0A2473ED292479D
:103900003ED497D701009387A7C89C437808814687
:103910000246BA853E85EFD08F9A2AD6B2573E85A9
:10392000F25021618280397106DE2AC62EC432C26D
:1039300036C097D701009387A7C59C4381E7737072
:10394000043001A0FD573ECEB2473ED0A2473ED242
:1039500092473ED497D70100938787C39C4378084A
:1039600081460246BA853E85EFC09FFF2AD6B257F0
:103970003E85F25021618280011106CE7145C5213C
:103980002AC6B24789CBB24723A00700B2479107A6
:103990003E85EFC03FBDB2473E85F2400561828063
:1039A000397106DE2AC62EC432C236C0B2473ED4B2
:1039B00002D21247B70700FFF98F81C77370043036
:1039C00001A0924781E77370043001A0EFF04F89A6
:1039D000AA8799E3824799E3854711A0814781E748
:1039E0007370043001A0EFE0AF9FA2579C433ED01C
:1039F000A245324559240257A2475D8F9247F98F5D
:103A000012476310F7020257A247D98F3ED6A2573A
:103A10009843924793C7F7FF7D8FA25798C302C080
:103A200025A0824799CFA257938647001247B70730
:103A30000005D98F0246BE853685EFE08FFD02D6A0
:103A400021A0A2579C433ED6EFE04F9B2ACE82474F
:103A5000B1CBF24799E3EFC07F9BEFF0CFA32AD61B
:103A60003257B7070002F98F85EBEFF0EF9BA257B3
:103A70009C433ED632579247F98F1247631AF7009C
:103A8000A2579843924793C7F7FF7D8FA25798C3D9
:103A9000EFF06F9C85473ED23257B7070001FD1704
:103AA000F98F3ED6B2573E85F250216182805D711A
:103AB00086C62ACE2ECC32CA36C83AC6F2473EDA7D
:103AC00002DC02D8F24781E77370043001A062473C
:103AD000B70700FFF98F81C77370043001A0E24778
:103AE00081E77370043001A0EFE09FF7AA8799E3A4
:103AF000B24799E3854711A0814781E7737004308D
:103B000001A0EFE0EF8DD2579C433ED64246E245FE
:103B10003255C92C2AD4A25799CFB2573EDE02C6DD
:103B2000D247A9CBD2579843E24793C7F7FF7D8F7F
:103B3000D25798C381A0B24781E7B2573EDE1DA895
:103B4000D24791C76257B7070001D98F3EDCC24701
:103B500091C76257B7070004D98F3EDCD2579386CE
:103B600047006247E257D98F3246BE853685EFE07F
:103B70004FEA02DEEFE08F882AD2B247B9CB9257E4
:103B800099E3EFC0BF88EFF00F912ADE7257B707B5
:103B90000002F98F8DEBEFF02F89D2579C433EDE68
:103BA0004246E24572553D2CAA8799CBD24789CB34
:103BB000D2579843E24793C7F7FF7D8FD25798C3F8
:103BC000EFF06F8902D87257B7070001FD17F98F20
:103BD0003EDEF2573E85B64061618280797106D63D
:103BE0002AC62EC4B2473ECEB24781E77370043076
:103BF00001A02247B70700FFF98F81C77370043017
:103C000001A0EFF06F82F2479C433ECCF24798430D
:103C1000A24793C7F7FF7D8FF24798C3EFF0AF83BA
:103C2000E2473E85B25045618280797106D62AC648
:103C30002EC481462246B2451705000013056519BA
:103C4000EFF07FCA2ACEF2473E85B25045618280AE
:103C5000797106D62AC6B2473ECEEFC01F89AA8721
:103C60003ECCF2479C433ECAE2473E85EFC0FF860A
:103C7000D2473E85B250456182805D7186C62AC6B4
:103C80002EC402DCB2473ED802DAB24781E7737035
:103C9000043001A02247B70700FFF98F81C7737076
:103CA000043001A0C25791073ED6B257A1073ED4B7
:103CB000EFD01FF3B257DC473EDEC2579843A2470E
:103CC0005D8FC25798C3BDA8F257DC433ED2F2576E
:103CD0009C433ED002DA0257B70700FFF98F3ECE71
:103CE0000257B7070001FD17F98F3ED07247B7079B
:103CF0000004F98F89EBC25798438257F98F89CF17
:103D000085473EDA11A8C25798438257F98F025768
:103D10006314F70085473EDAD2579DC37247B70751
:103D20000001F98F89C762578257D98F3EDCC2578D
:103D30009843B7070002D98FBE857255EFE00FEBAD
:103D400092573EDE7257A257E310F7F8C2579843D6
:103D5000E25793C7F7FF7D8FC25798C3EFD01FEA92
:103D6000C2579C433E85B64061618280797106D618
:103D70002AC6B2473ECEF24791073ECCEFD05FE66F
:103D80000DA0E247D847E247A1076315F70073701B
:103D9000043001A0E247DC47B70500023E85EFE0B2
:103DA000EFE4E2479C43F1FF7245D522EFD01FE5D7
:103DB0000100B25045618280011106CE2AC62EC490
:103DC000A24532455D3D0100F2400561828001114E
:103DD00006CE2AC62EC4A245324509350100F2405E
:103DE0000561828001112AC62EC432C202CE9247DA
:103DF00081EB3247A247F98F81CF85473ECE09A894
:103E00003247A247F98F22476314F70085473ECE19
:103E1000F2473E8505618280797106D62AC62EC496
:103E200032C292462246B24517050000130505F935
:103E3000EFF07FAB2ACEF2473E85B25045618280DB
:103E400001112AC6B2473ECCB24799E302CE21A067
:103E5000E2479C4F3ECEF2473E8505618280397134
:103E600006DE2AC602D2EFD0BFD79757030093874A
:103E7000A7739C4381EB5522975703009387C77222
:103E8000054798C3B24789CFA1473E87B247BA9743
:103E90003EC6B2478D8B89C7B247F19B91073EC69C
:103EA000B247F9CB3247E567ED1763E7E70C975761
:103EB00003009387676E3ED4975703009387C76DBF
:103EC0009C433ED631A0B2573ED4B2579C433ED617
:103ED000B257DC43324763F5E700B2579C43E5F73E
:103EE0003257975703009387A76B6307F708A257CA
:103EF0009C432147BA973ED2B2579843A25798C3E2
:103F0000B257D843B247B307F74021470607637853
:103F1000F7043257B247BA973ECEB257D843B247AA
:103F20001D8FF247D8C3B2573247D8C3F247DC439C
:103F30003ECC97570300938727663ED021A0825737
:103F40009C433ED082579C43DC436247E3E9E7FE53
:103F500082579843F24798C38257724798C397C7CE
:103F60000100938767419843B257DC431D8F97C781
:103F700001009387674098C3EFD05FC8925799E3D9
:103F8000EF00503792573E85F2502161828079715F
:103F900006D62AC6B2473ECCB247BDC3A147B30737
:103FA000F0406247BA973ECCE2473ECAEFD05FC3CB
:103FB000D247DC433EC8975703009387E75D3ECE68
:103FC00021A0F2479C433ECEF2479C43DC4342474C
:103FD000E3E9E7FEF2479843D24798C3F2475247D6
:103FE00098C3D247D84397C701009387E7389C43CB
:103FF0003E9797C701009387273898C3EFD01FC01B
:104000000100B2504561828097C701009387C7368F
:104010009C433E85828001008280411197C7010048
:104020009387C757F19B3EC6975703009387C756A0
:10403000324798C3975703009387075623A2070078
:10404000975703009387C75565677117D8C397576C
:1040500003009387E75423A00700B2473EC4A2475A
:1040600065677117D8C3A247175703001307475353
:1040700098C301004101828001112AC62EC432C2B8
:10408000A2473ECEB2473ECC3247A247D98F8D8B56
:10409000A1E319A8F2479843E24798C3E247910782
:1040A0003ECCF24791073ECE9247F5173247BA977A
:1040B0006247E361F7FE29A87247930717003ECED7
:1040C000E2479386170036CC034707002380E700BA
:1040D00032479247BA976247E360F7FEB2473E85A0
:1040E0000561828001112AC62EC432C2324792472E
:1040F000D98F8D8B9DEFA24793F7F70F3ECAD2471A
:10410000A2075247D98F3ECAD247C2075247D98F1A
:104110003ECAB2473ECE39A0F247138747003ACE97
:10412000524798C332479247BA977247E366F7FE01
:104130001DA0B2473ECC11A8E247138717003ACC26
:1041400022471377F70F2380E70032479247BA9749
:104150006247E363F7FEB2473E8505618280011145
:104160002AC6B2473ECE21A0F24785073ECEF2478F
:1041700083C70700F5FB7247B247B307F7403E8598
:104180000561828001112AC62EC4B2471387170029
:104190003AC683C70700A30FF100A2471387170091
:1041A0003AC483C70700230FF1008347F10199C781
:1041B0000347F1018347E101E309F7FC0347F101FC
:1041C0008347E101B307F7403E8505618280011115
:1041D0002AC62EC4B2473ECE0100224793071700DD
:1041E0003EC4F2479386170036CE0347070023806C
:1041F000E70083C70700F5F3B2473E85056182807B
:1042000001112AC602CE02CC21A0B24785073EC6C4
:10421000B24703C7070093070002E308F7FEB2475F
:1042200003C707009307D0026309F700B24703C72B
:1042300007009307B0026311F704B24783C7070072
:10424000938737FD93B7170093F7F70F3ECCB2472C
:1042500085073EC615A07247BA878A07BA978607B0
:104260003ECEB247138717003AC683C7070093872D
:1042700007FD7247BA973ECEB24783C70700E1FFFA
:10428000E24789C7F247B307F04011A0F2473E85E5
:104290000561828001112AC69757030093878732F0
:1042A0009C4393861700175703001307A73114C3C5
:1042B00032471377F70F975603009386A634B697C5
:1042C0002380E7003247A947630BF70097570300A5
:1042D0009387472F9843930700046315F704975774
:1042E0000300938727323ECE05A8F24713871700B5
:1042F0003ACE03C70700B70710F0938707F098C3BB
:10430000975703009387072C9C431387F7FF975712
:1043100003009387272B98C3975703009387872A17
:104320009C43E1F781473E85056182804D712326DC
:104330001114232481142322911423202115232EC8
:104340003113232C4113232A51132ACE2ECC32C8E9
:1043500036CA3AC63EC442C223260112B2473E8A3A
:10436000814AC24752485286D6863E85C285EF10A2
:10437000F007AA872E883E86C2868327C11213873C
:1043800017002326E11232878A07141AB69723AE44
:10439000E7EEB2473E848144D247268763E8E702CE
:1043A000D24726876396E700C247228763E0E70289
:1043B000B2473E8981494A86CE864245D245EF10B2
:1043C000A03FAA872E883EC842CA49BF010029A043
:1043D000F247E24512458297A2471387F7FF3AC496
:1043E0000327C112E346F7FE25A88327C1128A07D7
:1043F000181ABA9703A7C7EF8327C1128A07141A9E
:10440000B69783A6C7EFA54763F5D7009307700556
:1044100019A093070003BA977247E2453E850297B9
:104420008327C1121387F7FF2326E112E34FF0FA27
:1044300001008320C114032481148324411403291F
:1044400001148329C113032A8113832A4113716143
:10445000828041112AC62EC4A2460547635ED7005A
:10446000B2479C439D07E19B93868700324714C364
:1044700003A847009C4335A0224719CB3247184375
:1044800013064700B24690C21843BA87014811A8E4
:104490003247184313064700B24690C21843BA8702
:1044A00001483E85C2854101828041112AC62EC441
:1044B000A2460547635ED700B2479C439D07E19B38
:1044C00093868700324714C303A847009C4305A87E
:1044D000224701CF3247184313064700B24690C225
:1044E0001843BA877D873A8819A8324718431306BC
:1044F0004700B24690C21843BA877D873A883E8506
:10450000C28541018280397106DE22DC26DA2AC6A4
:104510002EC432C236C011A863070424924785070F
:104520003EC2B247A24522858297924783C70700C1
:104530003E8493075002E311F4FE924785073EC282
:1045400092473EC893070002A30BF100FD573ECEF1
:10455000FD573ECC02D09247138717003AC283C75B
:1045600007003E849307D4FD130750056364F71ECC
:104570001397270097C701009387C7AFBA9798434F
:1045800097C70100938707AFBA9782879307D00236
:10459000A30BF100C9B793070003A30BF10065BF9C
:1045A00002CC6247BA878A07BA978607A297938791
:1045B00007FD3ECC924783C707003E849307F00275
:1045C00063D687029307900363C2870292478507E9
:1045D0003EC2C1BF8247138747003AC09C433ECCCE
:1045E00039A0F247E3D907F602CEB5B70100F2478A
:1045F000E3D307F6E2473ECEFD573ECCA9BF825734
:1046000085073ED089BF8247138747003AC09C4345
:104610003247A2453E850297B1A2824713874700E1
:104620003AC0844389E497C40100938424A4F247E8
:104630006357F004034771019307D0026301F70445
:10464000E247BE852685EF10E0142A87F247998F4E
:104650003ECE11A8834771013247A2453E8502979D
:10466000F247FD173ECEF247E346F0FE09A8B247F7
:10467000A245228582978504F247FD173ECE83C767
:1046800004003E841DC0E247E3C307FEE247FD1776
:104690003ECCE247E3DD07FC09A8B247A24513057B
:1046A00000028297F247FD173ECEF247E347F0FE45
:1046B00055A88A8782553E85CD3BAA872E883ED451
:1046C00042D6A2573258C28763D90702B247A245E1
:1046D0001305D0028297A255325681470148B3860E
:1046E000B740368533B5A7003307C840B307A740A6
:1046F0003E87B6873A883ED442D6A9473ED21DA807
:10470000A9473ED215A0A1473ED239A885473ED041
:10471000B247A245130500038297B247A24513058D
:1047200080078297C1473ED28A8782553E851533DE
:104730002AD42ED61257834771013E88F24722565B
:10474000B256A2453245DD3631A8B247A245228590
:10475000829709A8B247A245130550028297C24723
:104760003EC20100D9B30100F2506254D25421611B
:10477000828041112AC6B70710F0938707F23247AB
:1047800098C301A05D7106D62AC62EDA32DC36DE69
:10479000BAC0BEC2C2C4C6C69C0891173ECEF2477C
:1047A000BE8632468145170500001305E5AEA13BE4
:1047B00081473E85B2506161828001112AC62EC4B4
:1047C0001EC2A2473ECEF2479C4332471377F70FF3
:1047D0002380E700F2479C4313871700F24798C3F2
:1047E0000100056182801D7106DE2AC62EC4B2C496
:1047F000B6C6BAC8BECAC2CCC6CE9C103ED25C08F1
:104800004C0817060000130686FB7D779346F7FFDA
:104810000565130505803388A5003378E800136823
:10482000783B23A007013295698F13677733D8C38C
:1048300033F7D5009315470137870300130737393E
:104840004D8F98C73377D60093164701370703007B
:1048500013077706558FD8C70F100000B2473ED612
:104860009C10A1173ED422575C083E857C00BA8676
:104870002246BE854939B24723800700B2473E87AA
:10488000B257B307F7403E85F2502561828041114F
:10489000370510F0130545F408412AC6370510F016
:1048A000130505F408412AC4370510F0130545F433
:1048B0000841B248E39EA8FC32452A83814313177E
:1048C000030081462245AA850146B3E7B600336856
:1048D000C700370710F0130587F48565938505FA3F
:1048E0000146B386B700B688B3B8F8003307C800EE
:1048F000B387E8003E87B6873A881CC123220501AA
:10490000010041018280411106C65137930700081A
:1049100073A047300100B24041018280011106CEF0
:104920002AC617C501001305658AEFF0BFE501002F
:10493000F24005618280011106CE2AC617C501002A
:1049400013054589EFF01FE40100F2400561828004
:10495000797106D62AC602CE29A00100F247850742
:104960003ECE7247856793877738E3D8E7FE17C551
:1049700001001305A586EFF0FFE0F1BF797106D6BF
:104980002AC602CE31A0EF009043F24785073ECE03
:104990007247CD47E3D9E7FE0100B25045618280FE
:1049A000011106CE9D2217070000130767FD8146FF
:1049B00005469305200317C501001305A582EFE006
:1049C000DF8D2AC6EFD04FB8AA87014781463E86C1
:1049D00085453245EFE09F920100F24005618280FB
:1049E000011106CE02C6EF0050512A878547630C9D
:1049F000F70017B501001305657FEFF0BFD8B24788
:104A000093E727003EC6B2473E85F24005618280AB
:104A1000011106CE02C669371707000013076704A5
:104A2000814605469305400617B501001305857DAF
:104A3000EFE0BF862AC6B24799CBEFD0EFB0AA8786
:104A4000014781463E8685453245EFE03F8B02C4F3
:104A5000EFD02F8F81473E85F240056182807971CA
:104A600006D62AC697C70100938707909C431387F1
:104A7000470697C701009387278F98C397C7010000
:104A80009387C78E9C431387470697C70100938778
:104A9000E78D98C397C701009387078D98439307C5
:104AA000F07C63D3E70497C701009387E78B9C43AF
:104AB0001387078397C701009387078B98C30D3728
:104AC0002ACEF24799EB97C701009387278A98432C
:104AD00085679387F77663DBE700F2473E85EFF063
:104AE0005FC9EFD0EF8D21A0010011A00100B250ED
:104AF000456182807370043001A001008280411101
:104B00002AC62EC47370043001A0011106CE7C00A9
:104B100081480148054781461306004097B50100CA
:104B20009385056F1705000013050523EFC0EFFA05
:104B3000B24681480148814701471306004097B5B6
:104B400001009385656D1705000013058509EFC009
:104B5000CFF881480148975703009387E7AF05478F
:104B600091461306004097B501009385656B1705C4
:104B7000000013054515EFC04FF6814801489757CF
:104B800003009387A7AD0547A1461306004097B5DC
:104B900001009385E568170500001305C512EFC0F5
:104BA000CFF397570300938767AB9C4381E77370FC
:104BB000043001A0EFE05FDC2A879757030093875A
:104BC00067A998C3975703009387C7A89C4381E7B9
:104BD0007370043001A00100F24005618280797198
:104BE00006D62AC6B2473ECCEFE01FD92A87975790
:104BF00003009387E7A598C397570300938747A5BA
:104C00009C4381E77370043001A0EF00D0032ACEEB
:104C1000EFE09FD62A8797570300938767A398C32F
:104C2000975703009387C7A29C4381E773700430B2
:104C300001A0E2457245FD232ACEE24572456D2C66
:104C40002ACE975703009387A7A09C433E85EFF099
:104C5000EF916245EFC05FA12A878D476304F7009B
:104C600085473ECE975703009387079F9C433E8519
:104C7000EFC09F9F2A878D476304F70085473ECE8C
:104C8000975703009387879D9C433E85EFC0DF9D28
:104C90002A878D476304F70085473ECEF24789EFA8
:104CA000975703009387079A9C43138717009757DA
:104CB00003009387279998C3F247B9DB73700430D8
:104CC00001A0797106D62AC6EF00C072B2473ECE67
:104CD0000145EFC07FBE97570300938767979C43BA
:104CE000FD563D46F2453E85EFE09FCB2ACCE2479C
:104CF00013F7F700BD476305F7007370043001A098
:104D00000145EFC07FBB97570300938767949C438F
:104D1000FD563D46F2453E85EFE09FC82ACCE2476E
:104D200013F7F700BD476305F7007370043001A067
:104D3000975703009387C7919C437D57854601464B
:104D4000BD453E85EFE0BFD62ACCE247D1D3737094
:104D5000043001A0797106D62AC602CE0145EFC003
:104D6000BFB5975703009387A78E9C437D57854611
:104D7000054689453E85EFE09FD32ACC62479307DD
:104D8000200A6304F70085473ECE975703009387B8
:104D9000278C9C437D57854601469305200A3E8516
:104DA000EFE0FFD02ACCE24713F7270A9307200A47
:104DB0006304F70085473ECE0145EFC0FFAF97572C
:104DC00003009387E7889C437D57854605469305F6
:104DD000200A3E85EFE0BFCD2ACC62479307F00F53
:104DE0006304F70085473ECE0145EFC0FFAC9757FF
:104DF00003009387E7859C43FD563D4689453E85E4
:104E0000EFE01FBA2ACCE24713F7F700BD4763046F
:104E1000F70085473ECE97570300938767839C43EF
:104E200081453E85EFE07FE5AA8799C385473ECE61
:104E3000975703009387C7819C4381453E85EFE0E8
:104E4000FFD9AA8799C385473ECEF24789EF974796
:104E500003009387677F9C431387170097470300DE
:104E60009387877E98C30145EFC01FA5974703002E
:104E70009387077E9C43FD563D4689453E85EFE07E
:104E80003FB22ACCE24713F7F700BD476304F700AF
:104E900085473ECE974703009387877B9C43814598
:104EA0003E85EFE09FDDAA8799C385473ECE9747B1
:104EB00003009387E7799C437D5785460146BD45AE
:104EC0003E85EFE0DFBE2ACCE24799C385473ECE60
:104ED000F24789EF97470300938707779C4313872F
:104EE0001700974703009387277698C3F247E38715
:104EF00007E67370043001A0797106D62AC62EC465
:104F00002245EFC06FF62A878D476304F700854777
:104F10003EC697470300938727749C433E85EFC0A6
:104F2000AFF42A878D476304F70085473EC697474D
:104F300003009387A7729C433E85EFC0EFF22A8758
:104F40008D476304F70085473EC697470300938764
:104F500027709C43B9453E85EFE03FD29747030059
:104F60009387076F9C43FD56054685453E85EFE0D8
:104F70003FA32ACEF247858B99E385473EC69747E4
:104F800003009387E76C9C4381453E85EFE01FC596
:104F90002A87B9476304F70085473EC69747030051
:104FA0009387076B9C43B9453E85EFE03FC3974726
:104FB00003009387E7699C4381453E85EFE01FC26C
:104FC000AA8799C385473EC62245EFC01FA19747D0
:104FD0000300938767689C433E85EFC01FA09747F7
:104FE00003009387A7679C433E85EFC01F9F224520
:104FF000EFC08FE72A8789476304F70085473EC6DD
:1050000097470300938747659C433E85EFC0CFE5F4
:105010002A8789476304F70085473EC69747030000
:105020009387C7639C433E85EFC00FE42A87894777
:105030006304F70085473EC697470300938747619F
:105040009C43FD563D4685453E85EFE07F952ACE43
:10505000F24713F7F700BD476304F70085473EC6E4
:10506000974703009387C75E9C4381453E85EFE0E9
:10507000FFB6AA8799C385473EC62245EFC0CFDE5B
:105080002A878D476304F70085473EC6974703008C
:105090009387875C9C433E85EFC00FDD2A878D4751
:1050A0006304F70085473EC6974703009387075B75
:1050B0009C433E85EFC04FDB2A878D476304F70092
:1050C00085473EC62245EFC05F919747030093870F
:1050D000A7589C433E85EFC05F9097470300938796
:1050E000E7579C433E85EFC05F8F2245EFC0CFD787
:1050F0002A8789476304F70085473EC69747030020
:10510000938787559C433E85EFC00FD62A878947F2
:105110006304F70085473EC697470300938707540B
:105120009C433E85EFC04FD42A8789476304F7002C
:1051300085473EC689450145EFC0AFE39747030069
:10514000938707519C43FD563D4685453E85EFE0DC
:105150003F852ACEF24713F7F700BD476304F700F7
:1051600085473EC6974703009387874E9C438145FA
:105170003E85EFE0BFA6AA8799C385473EC6224574
:10518000EFC08FCE2A8785476304F70085473EC668
:10519000974703009387474C9C433E85EFC0CFCC95
:1051A0002A8785476304F70085473EC69747030073
:1051B0009387C74A9C433E85EFC00FCB2A8785471C
:1051C0006304F70085473EC681450145EFC06FDAAD
:1051D0002245EFC06FC92A8789476304F7008547D6
:1051E0003EC697470300938727479C433E85EFC001
:1051F000AFC72A8789476304F70085473EC69747AC
:1052000003009387A7459C433E85EFC0EFC52A87DF
:1052100089476304F70085473EC6B2473E85B250D2
:1052200045618280797106D62AC62EC42245EFC018
:10523000CFFA2245EFC04FC32A8789476304F7009E
:1052400085473EC697470300938787409C43930555
:10525000200A3E85EFE07FA2974703009387473FF0
:105260009C430147814601469305F00F3E85EFE0E0
:105270001F842ACE72479307000A6304F70085470C
:105280003EC62245EFC04FBE2A8789476304F70018
:1052900085473EC6974703009387873B9C4393050A
:1052A000D00F3E85EFE07F9D974703009387473AF5
:1052B0009C430147814601469305F00F3E85EFE090
:1052C0000FFF2ACE72479307D00F6304F70085477C
:1052D0003EC62245EFC04FB92A8789476304F700CD
:1052E00085473EC697470300938787369C43894589
:1052F0003E85EFE09F982245EFC00FB72A878D4784
:105300006304F70085473EC69747030093874734F9
:105310009C4381453E85EFE05F962A879307F00F17
:105320006304F70085473EC69747030093874732DB
:105330009C4389453E85EFE07F8A2A879307F00FDB
:105340006304F70085473EC62245EFC00FE92245BA
:10535000EFC08FB12A8789476304F70085473EC6AF
:10536000974703009387C72E9C4389453E85EFE00E
:10537000DF902245EFC04FAF2A878D476304F700C7
:1053800085473EC6974703009387872C9C43014778
:10539000814601469305F00F3E85EFE04FF12ACE9E
:1053A00072479307D0056304F70085473EC69747C9
:1053B00003009387E7299C439305F00F3E85EFE0B8
:1053C000FF812A879307D0056304F70085473EC60F
:1053D000974703009387C7279C4381453E85EFE0AD
:1053E000EFFFAA8799C385473EC6B2473E85B250B4
:1053F00045618280011106CEEFD02FE52A879747BD
:105400000300938767259C436315F7008D473EC6CD
:1054100019A095473EC60145EFC00FCA9747030044
:10542000938707239C437D5781460546B2453E85B9
:10543000EFE0EFE72AC4A24791C3F1BF01000100EA
:10544000F24005618280011106CE02C69747030033
:10545000938787209C433E85EFC00FA12A878D4705
:105460006304F70085473EC6974703009387071FED
:105470009C433E85EFC04F9F2A878D476304F7000A
:1054800085473EC685473EC4CDA89747030093870E
:10549000A71C9C433E85EFC04FD4974703009387DA
:1054A000E71B9C433E85EFC04FD39747030093878C
:1054B000A71A9C433E85EFC02F9B2A878947630428
:1054C000F70085473EC697470300938727199C43FB
:1054D0003E85EFC06F992A8789476304F7008547A7
:1054E0003EC6974703009387A7169C43A2453E8577
:1054F000EFE0AFF8A2478D8B85E3974703009387D2
:10550000A7159C433E85EFC02F962A8789476303E2
:10551000F70285473EC639A8974703009387C7130C
:105520009C433E85EFC04F942A878D476304F70064
:1055300085473EC6A247958B85E39747030093872F
:10554000E7119C433E85EFC02F922A87894763036A
:10555000F70285473EC639A897470300938707108F
:105560009C433E85EFC04F902A878D476304F70028
:1055700085473EC6A24786073EC422479307F00FE1
:10558000E3F5E7F0974703009387070D9C433E85BB
:10559000EFC0AFC4974703009387470C9C433E85F9
:1055A000EFC0AFC3974703009387870A9C433E85AC
:1055B000EFE0CFFBB2473E85F24005618280797112
:1055C00006D6930740063ECE9307800C3ECC930749
:1055D000C0123ECAC9473EC8974703009387470891
:1055E0009C4313871700974703009387670798C367
:1055F000974703009387C7069C437247631AF704D3
:1056000097470300938707059C433E85EFE04FE4EF
:105610002AC6B24781CB974703009387A704054763
:1056200098C3C1A8974703009387C7029C430146CC
:10563000C2453E85EFE04FFE2AC422478547630AF4
:10564000F70A974703009387E701054798C355A0DA
:10565000974703009387C7009C4362476316F7028E
:1056600097470300938707FF9C433E85EFE04FDE9B
:105670002AC63247C247630EF7069747030093874F
:1056800067FE054798C3B5A097470300938747FD7A
:105690009C435247631FF70497470300938787FB98
:1056A0009C43C2453E85EFE04FD8AA873EC63247AD
:1056B00085476308F700974703009387A7FA0547D4
:1056C00098C3974703009387A7F923A0070097473C
:1056D0000300938727F99C4389EF9747030093873B
:1056E000E7F69C431387170097470300938707F655
:1056F00098C30100B25045618280411185473EC682
:1057000097470300938747F698439747030093878B
:1057100067F39C436313F70002C697470300938720
:1057200067F2984397470300938707F498C3974716
:1057300003009387A7F39843974703009387C7F025
:105740009C436313F70002C6974703009387C7EF94
:10575000984397470300938767F198C397470300DF
:10576000938707F1984397470300938727EE9C435D
:105770006313F70002C697470300938727ED98430A
:10578000974703009387C7EE98C3B2473E85410110
:1057900082800000B305B500930705006386B7005B
:1057A00003C70700631607003385A7406780000022
:1057B000938717006FF09FFE93870500130806007C
:1057C00093880600130305006396062837070280B6
:1057D0001307472263F6C50EB70601006378D60C9F
:1057E0009306F00FB3B6C60093963600B358D600B2
:1057F0003307170103470700B306D700130700025A
:105800003307D740630C0700B397E700B356D500C2
:105810003318E600B3E5F6003313E500135508012D
:10582000B3D7A502131608011356060193560301B8
:1058300033F7A502B305F60213170701B366D700C5
:105840001387070063FEB600B38606011387F7FFD0
:1058500063E8060163F6B6001387E7FFB386060127
:10586000B386B640B3F7A602131303011353030123
:10587000B3D6A6029397070133E36700B305D602B8
:1058800013850600637CB300330368001385F6FFBD
:10589000636603016374B3001385E6FF1317070102
:1058A0003367A700930500006F00400EB7080001A2
:1058B00093060001E36C16F3930680016FF01FF36B
:1058C000631606009306100033D8C602B70601001F
:1058D0006372D80C9306F00F63F4060193088000FE
:1058E000B35618013307D700834607001307000299
:1058F000B38616013307D7406318070AB3870741F9
:1059000093051000135608019318080193D8080155
:105910009356030133F7C702B3D7C7021317070122
:10592000B366D7003385F8021387070063FEA6002D
:10593000B38606011387F7FF63E8060163F6A60046
:105940001387E7FFB3860601B386A640B3F7C60206
:105950001313030113530301B3D6C6029397070130
:1059600033E36700B388D80213850600637C130114
:10597000330368001385F6FF636603016374130144
:105980001385E6FF131707013367A7001305070008
:1059900067800000B706000193080001E362D8F4B5
:1059A000930880016FF0DFF33318E800B3D5D70018
:1059B0003313E500B356D50013550801B397E7003C
:1059C00033F7A502B3E8F6009317080193D7070150
:1059D00013D60801B3D5A502131707013367C70013
:1059E000B386B70213860500637ED700330707012D
:1059F0001386F5FF636807016376D7001386E5FF1A
:105A000033070701B306D74033F7A602939808017E
:105A100093D80801B3D6A60213170701B385D7029E
:105A2000B36717011387060063FEB700B38707014A
:105A30001387F6FF63E8070163F6B7001387E6FFF5
:105A4000B3870701B387B74093150601B3E5E500B7
:105A50006FF05FEB63E6D5183707010063F4E604E7
:105A60001308F00F3337D8001317370037080280B8
:105A700013084822B3D5E600B385050103C8050025
:105A8000930500023308E800B385054163960502DB
:105A900013071000E3ECF6EE3335C500134715008D
:105AA0006FF0DFEEB705000113070001E3E0B6FC7D
:105AB000130780016FF09FFB33570601B396B600C2
:105AC000B366D70093DE060133D70701B378D70357
:105AD000B397B700335805013363F8009397060175
