:0200000480007A
:10000000B72F0000938F0F8073900F3015A8130047
:100010000000130000001300000013000000130094
:100020000000130000001300000013000000130084
:100030000000130000001300000013000000010086
:10004000970200009382020C73905230814001416C
:100050008141014281420143814301448144014580
:100060008145014681460147814701488148014950
:100070008149014A814A014B814B014C814C014D20
:10008000814D014E814E014F814F971102009381A6
:1000900061CD170502001305E55E97950300938572
:1000A000257E0146112217050200130565449705B8
:1000B00002009385A54A0146C52817A5030013052C
:1000C000657C97B503009385A57B37B6ABAB13066C
:1000D000B6BAD92817B103001301C17AEF80203CCA
:1000E000860293D21200F512638802008242110147
:1000F0006F00001073002030824211017300203025
:10010000711116C0F3222034E3CC02FC82421101AB
:10011000130141F806C20AC40EC612C816CA1ACC88
:100120001ECE22D026D22AD42ED632D836DA3ADCC7
:100130003EDEC2C0C6C2CAC4CEC6D2C8D6CADACC97
:10014000DECEE2D0E6D2EAD4EED6F2D8F6DAFADCA7
:10015000FEDE73252034F32510340A8601A07310C7
:10016000153492402241B2414242D2426243F243AC
:10017000025492542255B2554256D2566257F25703
:10018000064896482649B649464AD64A664BF64B33
:10019000065C965C265DB65D465ED65E665FF65F83
:1001A0001301C1077300203010C16374B50011053D
:1001B000E5BF828000000000000000000000000099
:1001C000000000000000000000000000000000002F
:1001D000000000000000000000000000000000001F
:1001E000000000000000000000000000000000000F
:1001F000197106C00AC20EC412C616C81ACA1ECC8D
:1002000022CE26D02AD22ED432D636D83ADA3EDCC6
:1002100042DEC6C0CAC2CEC4D2C6D6C8DACADECC96
:10022000E2CEE6D0EAD2EED4F2D6F6D8FADAFEDCA6
:100230009702020083A2022F23A02200F32210348F
:1002400096DEEF00002B170102000321A12D0241D1
:10025000F65273901234B72200009382028873A082
:10026000023082403242C2425243E24372448254DC
:100270001255A2553256C2565257E2577258864806
:100280001649A649364AC64A564BE64B764C865C1A
:10029000165DA65D365EC65E565FE65F0961730059
:1002A0002030970202009382E23D23A0120023A295
:1002B000220023A4320023A6420023A8520023AA2E
:1002C000620023AC720023AE820023A0920223A21C
:1002D000A20223A4B20223A6C20223A8D20223AA06
:1002E000E20223ACF20223AE020323A0120523A2F2
:1002F000220523A4320523A6420523A8520523AADA
:10030000620523AC720523AE820523A0920723A2C7
:10031000A20723A4B20723A6C20723A8D20723AAB1
:10032000E20723ACF207EF40302E17010200032151
:10033000611F0241F65273901234B722000093827B
:10034000028873A0023082403242C2425243E243EA
:10035000724482541255A2553256C2565257E25731
:10036000725886481649A649364AC64A564BE64B45
:10037000764C865C165DA65D365EC65E565FE65FB1
:10038000096173002030970202009382A22F83A09C
:10039000020003A1420083A1820003A2C20083A243
:1003A000020103A3420183A3820103A4C20183A427
:1003B000020203A5420283A5820203A6C20283A60B
:1003C000020303A7420383A7820303A8C20383A8EF
:1003D000020403A9420483A9820403AAC20483AAD3
:1003E000020503AB420583AB820503ACC20583ACB7
:1003F000020603AD420683AD820603AEC20683AE9B
:10040000020703AFC20983AF820782807370043092
:10041000197106C00AC20EC412C616C81ACA1ECC6A
:1004200022CE26D02AD22ED432D636D83ADA3EDCA4
:1004300042DEC6C0CAC2CEC4D2C6D6C8DACADECC74
:10044000E2CEE6D0EAD2EED4F2D6F6D8FADAFEDC84
:100450009702020083A2020D23A0220086DEEF2075
:10046000E035170102000321E10B0241F6527390BF
:100470001234B72200009382028873A002308240B7
:100480003242C2425243E243724482541255A25550
:100490003256C2565257E257725886481649A649F4
:1004A000364AC64A564BE64B764C865C165DA65DD0
:1004B000365EC65E565FE65F09617300203073707A
:1004C000043001A07310453082807325403073F0F2
:1004D00043308280970700009387A7FE232EB5FE46
:1004E0002322C5FA232635F82320F5F8130505F84D
:1004F0008280411106C6EF40900EEF10D01301E547
:10050000B24041018280B24041016F20202B93070D
:1005100085007D575CC118C55CC51CC9232005003A
:1005200082802328050082805C41DCC1984798C501
:1005300098474CC38CC788C91C4185071CC1828061
:100540009041FD57130785006314F60039A83E87D4
:100550005C439443E37DD6FEDCC18CC798C54CC395
:1005600088C91C4185071CC1828018495C43EDB7CE
:10057000584114451C4914C71845544154C3D84325
:100580006314A7001845D8C32328050088437D15A8
:1005900088C382803041AE8701CE4C455841B29528
:1005A0004CC563E4E5000C414CC53E856F30B02777
:1005B0008280411122C406C62A8426C2EF20301947
:1005C0003C44635BF0025C5085CB9304440209A871
:1005D0003C44FD173CC43C446350F0025C5089CF5E
:1005E0002685EF20405F6DD5EF20207F3C44FD172E
:1005F0003CC43C44E344F0FEFD573CC4EF2070177C
:10060000EF20F0147C40635BF0021C4885CB930420
:10061000040109A87C40FD177CC07C406350F002B7
:100620001C4889CF2685EF20005B6DD5EF20E07A4E
:100630007C40FD177CC07C40E344F0FEFD577CC04D
:100640002244B240924441016F20B01229C54111A9
:1006500022C426C22A8406C6AE84EF20500F34403E
:100660005C5C1840232C0402B387F6027D5670C0F0
:1006700018C430C4B386D740BA9736975CC058C404
:1006800091EC1C489DE3EF20D00EB24022449244EE
:100690000545410182807370043001A013050401F7
:1006A000BD3513054402A535F9BF13050401EF203C
:1006B00080528547E319F5FC913BF1B701E5737072
:1006C000043001A0011126CA4AC84EC606CE22CC6B
:1006D000B2892E89AA84A5C53305B502130555052F
:1006E000EF30207C2A8435C1930745051CC144DCCA
:1006F00023202405EF20B00534405C5C18407D5673
:10070000B387F602232C040270C018C430C413054A
:100710000401B386D740BA9736975CC058C4C53B2E
:1007200013054402ED33EF20D0042308340522855D
:10073000F2406244D2444249B249056182801305C5
:100740004005EF3000762A8401E57370043001A083
:1007500000C071BF01E57370043001A06375B5007E
:100760007370043001A0411122C409462E848145D2
:1007700006C6A93711C500DDB2402244410182807E
:100780007370043001A05D7186C6A2C4A6C2CAC03F
:100790004EDE52DC56DA5AD85ED632C6630A051CE3
:1007A0006382051C89476399F600585D8547630598
:1007B000F7007370043001A03689AE842A84EF20DC
:1007C000406411E5B24781C77370043001A0EF2087
:1007D0000078185C5C5C014B894BFD59130A0401DD
:1007E000930A44026365F70C63077919B247638182
:1007F000072463150B002808EF200051EF206077D5
:10080000EF10205AEF20A0747C406394370123221C
:1008100004043C446394370123240404EF206075EE
:100820006C002808EF206050631E051EEF20207228
:10083000185C5C5C630CF70AEF20A073EF2020715A
:100840003C44634FF00039A85685EF20C03819C1E9
:10085000EF20A0583C44FD173CC43C446354F000D6
:100860005C50FDF323243405EF20A070EF20206EB0
:100870007C40634FF00039A85285EF20C03519C184
:10088000EF20A0557C40FD177CC07C406354F000F5
:100890001C48FDF323223405EF20A06DEF10607596
:1008A000054BEF20C06A185C5C5CE37FF7F23040D8
:1008B0006305060C631F09120844A685EF30A07675
:1008C0001C4434405840B6971CC463EAE70A1C5CD9
:1008D00014405850850714C41CDC5DC7130544023E
:1008E000EF20602F85476311F50AC9A8EF206068E3
:1008F000B2455285EF20E00FEF2060653C44634F26
:10090000F00039A85685EF20002D19C1EF20E04CEA
:100910003C44FD173CC43C446354F0005C50FDF380
:1009200023243405EF20E064EF2060627C40634FB5
:10093000F00039A85285EF20002A19C1EF20E049C4
:100940007C40FD177CC07C406354F0001C48FDF3E4
:1009500023223405EF20E061EF10A06931F17D34EE
:10096000054B81B73C41E38F07E27370043001A06F
:100970007370043001A0304021E61C4085C71C5C28
:10098000585085071CDC39FBEF20A05E0545B640BA
:10099000264496440649F259625AD25A425BB25BE7
:1009A000616182804840EF20E0511C5C5850232256
:1009B000040085071CDCE31307F279D5813CE9B715
:1009C0004844A685EF3020663C4058441440B307A5
:1009D000F0403E9758C4637CD7025840BA975CC435
:1009E00009475C506306E902185C050718DCC9DF9B
:1009F000F5B54844A685EF3000633C4058441440A8
:100A0000B307F0403E9758C4E37CD7FCF9B75C507D
:100A1000185C79DB185C7D1718DC185C050718DC9E
:100A2000A5D76DBD22857136EF10A05C014585B755
:100A3000EF2020540145A1BF411126C2AA8413050D
:100A4000400522C406C6EF30C0452A8415CD232CAC
:100A50000502FD577CC10547410558DC3CC42322F3
:100A60000400232004002324040023260400232060
:100A7000040423089404613C13054402493C814664
:100A800001468145228501332285B24022449244A9
:100A9000410182800DC5411122C426C206C64AC04A
:100AA000032945002A84EF2000358144630CA90006
:100AB000B2402244268502499244410182807370EB
:100AC000043001A05C448544FD175CC4F5F3814605
:100AD0000146814522854539E1BF31CDA1C90111CA
:100AE00022CC26CA4AC852C406CE4EC68947B6840E
:100AF00032892E8A2A846399F600585D8547630FF0
:100B0000F7047370043001A0C932185C5C5CAA89D8
:100B10006366F70281444E857532F2406244268551
:100B20004249D244B249224A056182803C41C5DB38
:100B30007370043001A07370043001A0304041E2B2
:100B40001C40D5CB1C5C7D5785071CDC3C4463876F
:100B5000E7083C44854485073CC475BFBD32185C3A
:100B60005C5CAA89636DF702304079DA4844D2852B
:100B7000EF30604B3C4058441440B307F0403E9780
:100B800058C46375D7005840BA975CC48947E39B43
:100B9000F4FA1C5CC5DB1C5CFD171CDC65B730403F
:100BA00045D24844D285EF3000483C405844144078
:100BB000B307F0403E9758C4E367D7FCD9BFDDF4D4
:100BC0000844D285EF3020461C4434405840B69744
:100BD0001CC4E3E9E7F61C401CC4ADB75C50854477
:100BE0009DDB13054402EF10107F15D5E30509F2D4
:100BF000232099000DB74840EF20C02C2322040089
:100C000091B721CD3C4181C77370043001A01C41D4
:100C1000A1CB011122CC26CA2A844AC84EC606CED0
:100C20002E896530185C5C5CAA898144637DF7007D
:100C30001C5C7D5785071CDC3C446388E7023C4410
:100C4000854485073CC44E85B538F240624426850C
:100C50004249D244B249056182807370043001A0D8
:100C60005C41C5DB7370043001A05C5099E385449E
:100C7000D9BF13054402EF10107675D9E30909FEB8
:100C800085472320F900E5B7397106DE22DC26DA34
:100C90004AD84ED652D456D232C66302051C638A55
:100CA000051AB68AAE892A84EF20A01511E5B2474D
:100CB00081C77370043001A0EF2060291C5C63922F
:100CC0000714B247638E070A2808EF20E003FD549B
:100CD00013094402130A0401EF20A029EF10600C4D
:100CE000EF20E0267C4063949700232204043C44D8
:100CF0006394970023240404EF20A0276C002808A5
:100D0000EF20A00263130518EF2060241C5CADCF18
:100D1000EF202026EF20A0233C44634FF00039A8A9
:100D20004A85EF10506B19C1EF20200B3C44FD1792
:100D30003CC43C446354F0005C50FDF324C4EF20F9
:100D40004023EF20C0207C40634FF00039A852853B
:100D5000EF10706819C1EF2040087C40FD177CC07F
:100D60007C406354F0001C48FDF364C0EF20602019
:100D7000EF102028EF20A01D1C5CC1E7B247A9FF9F
:100D8000EF20201F014555A0EF20A01E1C40DDC70D
:100D9000B2454A85EF10F045EF20601B3C44634F9D
:100DA000F00039A84A85EF10106319C1EF20E00266
:100DB0003C44FD173CC43C446354F0005C50FDF3DC
:100DC00024C4EF20001BEF2080187C40634FF0000C
:100DD00039A85285EF10306019C1EF2000007C4027
:100DE000FD177CC07C406354F0001C48FDF364C0D8
:100DF000EF202018EF10E01F31C9EF2040151C5CD8
:100E0000B5DFCE8522854444EFF0CFF8639C0A0419
:100E10001C5C1840FD171CDC01E7EF20001A48C0DD
:100E20001C48A1EFEF20E0140545F2506254D25463
:100E30004259B259225A925A21618280EF202011E0
:100E40004840EF10107EEF20C01299B7EFF00FDC92
:100E50006DB73C41E38707E47370043001A0737001
:100E6000043001A05C5044C4D5DF13054402EF10E8
:100E700090564DD9EFF08FD975B713050401EF10D7
:100E800090558547E310F5FAF5B72285EFF06FF23C
:100E9000EF102016014551BF1DC9411122C44AC09F
:100EA00006C626C244412E892A84EF10D07463837B
:100EB000A40281464A8681452285F933854763002D
:100EC000F502B2402244924402494101828073708B
:100ED000043001A05C44054585075CC4DDB75C4473
:100EE00085075CC4F9BF15CDADC9011122CC26CA56
:100EF0004AC84EC652C42A8406CE3289AE89EFF063
:100F0000CFDC1C5C2A8A814485E35285EFF08FDBBD
:100F1000F240624426854249D244B249224A0561E0
:100F200082807370043001A0304001CE4C445C409C
:100F3000B2954CC463E4F5000C404CC44E85EF30D0
:100F4000800E1C5C7D57FD171CDC7C40638CE70029
:100F50007C40854485077CC04DBF3C41D9D7737028
:100F6000043001A01C4899E3854445B713050401EA
:100F7000EF10704675D9E30909FE85472320F90073
:100F8000E5B721C93C41A1CDA1CB011122CC26CA94
:100F90004AC852C42A8406CE4EC62E8AEFF0EFD23B
:100FA0001C5C2A89814491CB8329C400D285228587
:100FB000EFF04FDE8544232634014A85EFF08FD0D1
:100FC000F240624426854249D244B249224A056130
:100FD00082807370043001A07370043001A0EDDFD3
:100FE0007370043001A001E57370043001A0411159
:100FF00022C42A8406C6EF109075005CEF1070774B
:10100000B240228522444101828001E573700430A0
:1010100001A0411106C622C42A84EF1050731C5C43
:10102000405C1D8CEF10F0742285B24022444101D7
:10103000828019C1085D82807370043001A01DCDCB
:101040009797030093870780D843630CE502D8473E
:10105000630CE504D84B6307E504D84F6302E5044D
:10106000D853630DE502D8576308E502D85B6303E4
:10107000E502D85F630EE5006F20D0747370043012
:1010800001A001470E07BA9723A007006F209073B5
:101090001D47CDBF1947FDB71547EDB71147DDB760
:1010A0000D47CDB70947F9BF0547E9BF68458280BD
:1010B0006CC5828003450505828009C5085D13352E
:1010C000150082807370043001A019C51C5D485D55
:1010D0001D8D1335150082807370043001A0978731
:1010E000030093872776984305C3984705C7984B15
:1010F00005C7984F05C7985305C7985705C7985B0C
:1011000015C7985F15C3828001470E07BA978CC335
:10111000C8C382800547D5BF0947C5BF0D47F5B78E
:101120001147E5B71547D5B71D47C5B71947F1BFF3
:101130009787030093870771D8436308E502D84770
:10114000630BE502D84B630AE502D84F6309E50259
:10115000D8536308E502D8576307E502D85B6308F4
:10116000E502D85F6303A702828001470E07BA97A2
:1011700023A0070082800547D5BF0947C5BF0D479B
:10118000F5B71147E5B71547D5B71D47C5B7194797
:10119000F1BF411122C426C24AC02A8406C6AE84C9
:1011A0003289EF10D05A7840FD576314F70023229C
:1011B00004043844FD576314F70023240404EF109B
:1011C000505B1C5C99E74A86A68513054402EF1024
:1011D0005015EF10D0573C44635BF0025C5085CB58
:1011E0009304440209A83C44FD173CC43C446350AA
:1011F000F0025C5089CF2685EF10F01D6DD5EF1001
:10120000D03D3C44FD173CC43C44E344F0FEFD5754
:101210003CC4EF101056EF1090537C40635BF0021B
:101220001C4885CB9304040109A87C40FD177CC0B1
:101230007C406350F0021C4889CF2685EF10B0191E
:101240006DD5EF1090397C40FD177CC07C40E344A5
:10125000F0FEFD577CC02244B24092440249410155
:101260006F10305197F701009387C72B944317F7FE
:1012700001001307E7291843C8C2636EE502411154
:1012800022C406C617F70100130787292A840843DA
:101290008C439105EFF0CFAA97F70100938787253C
:1012A0009C436376F40097F7010023A58724B2409E
:1012B00022444101828017F70100130727260843C3
:1012C0008C4391056FF0CFA797F70100938787258F
:1012D000984394437C43FD177CC3FC4299E37360BD
:1012E000043082801DC179714ECE56CA06D6BE8AA0
:1012F00022D426D24AD052CC5AC85EC69147BA8967
:1013000063F8E7007370043001A07370043001A02B
:101310002A8BAE843289B68B428A63080822130571
:101320000006EF2010382A84630C05200A092328C0
:1013300045034A869305500A5285EF20D05C03C7C7
:1013400004001C587119230AE40203C704003E99E3
:101350001379C9FF79C783C71400A30AF40283C7AE
:101360001400E1C383C72400230BF40283C72400C5
:10137000CDCB83C73400A30BF40283C73400D5C39D
:1013800083C74400230CF40283C74400D9CB83C72E
:101390005400A30CF40283C75400C1C783C7640080
:1013A000230DF40283C76400ADCF83C77400A30D7F
:1013B000F40283C77400B5C783C78400230EF40208
:1013C00083C78400B9CF83C79400A30EF40283C7F8
:1013D0009400A1CB83C7A400230FF40283C7A40009
:1013E000A9C383C7B400A30FF40283C7B40095CB8D
:1013F00083C7C4002300F40483C7C4009DC383C70C
:10140000D400A300F40483C7D40081CF83C7E400D1
:101410002301F40483C7E40089C783C7F400A30150
:10142000F404130A44005285A30104042326340360
:1014300023283405232A0404EFF0AF8E130584011A
:10144000EFF02F8E9547B3873741232C040400C853
:101450001CCC40D023220404232E04045E86DA85AB
:101460004A85EFF02F8708C063840A0023A08A0012
:101470007370043017F90100130909098327090063
:1014800097F401009384040A91C798409C407C43E0
:1014900085077CC317F701001307C7071C4385079F
:1014A00097F6010023A8F6069C40CDCB83270900C0
:1014B00089EB9C40DC5763E6F90097F7010023A312
:1014C000870697F7010093872703984397F6010053
:1014D0009386C6035C549442050717F60100232D3A
:1014E000E60038C463F6F60017F701002320F70280
:1014F0005147B387E70217F5010013056520D28530
:101500003E95EFF06F828327090089C79C40FC431A
:101510006395070E83270900054499C79C40DC5753
:1015200063F43701EFE09FEE2285B25022549254CB
:101530000259F249624AD24A424BB24B456182801B
:101540005285EF2030287D54C5B713152600EF20B3
:1015500050152A8AE31505DC7D54F9B797F7010089
:1015600023A287FC18438547E31DF7F417F5010014
:1015700013050519EFE0BFF917F5010013058519EB
:10158000EFE0FFF817F501001305051AEFE03FF84B
:1015900017F501001305851AEFE07FF717F5010035
:1015A0001305051BEFE0BFF617FB0100130B8B1BA8
:1015B0005A85EFE0DFF597FA0100938AEA1B56851A
:1015C000EFE0FFF417F501001305451CEFE03FF4D1
:1015D00017F501001305C51CEFE07FF317F50100B7
:1015E0001305451DEFE0BFF297F7010023AA67F34B
:1015F00097F7010023A457F3E9B5984094407C4342
:10160000FD177CC3FC42E39707F07360043019B701
:10161000411122C406C626C24AC02A84737004300F
:1016200097F40100938444EE9C40F9E311E497F7AA
:101630000100938727EF8043130944004A85EFE0B8
:101640003FF31C5489C713058401EFE07FF2CA857C
:1016500017F501001305C514EFE01FED97F7010022
:10166000938787EB984397F701009387E7E89C43BC
:10167000050797F6010023A1E6EA9840850797F64B
:10168000010023ABF6E601CB97F70100938787E9CA
:101690009843784349EF9C40B1C797F7010093877F
:1016A00067E89843630F870873700430984039EBFC
:1016B00017F701001307C7E614439442A5E27D57CC
:1016C00097F6010023A8E6E2984009CF98437843B3
:1016D00011CB984394437C43FD177CC3FC4299E3B0
:1016E00073600430B2402244924402494101828036
:1016F00097F70100938707E398439C437C43850752
:101700007CC32DB794439843F8420507F8C217F7F6
:1017100001001307E7E014439442D5D21843584719
:101720005847584397F6010023A6E6DC71BF98435B
:1017300094437C43FD177CC3FC42B1FF73600430CB
:1017400099BF97F701009387A7DA9C4381C773700D
:10175000043001A02244B2409244024941016FE0AA
:10176000FFCA41C517F701001307C7DB14438147C0
:10177000638BA606411106C622C426C273700430CC
:1017800097F60100938646D89C4291C710431C43AC
:101790007C4285077CC29C42AA84404981C71C4385
:1017A000FC43B9E797F70100938787D79C43638A87
:1017B000870497F70100938767D69C436383870468
:1017C00097F70100938707FF6308F40297F701007A
:1017D000938707FD6300F4028547B2402244924498
:1017E0003E85410182803E8582807370043001A075
:1017F000E13C4DBF9147D5B79C5493B7170089077B
:10180000E9BF8947D9BF7370043097F70100938708
:10181000A7CF984309EF15C59C43485581CB97F74F
:101820000100938727D09843784315E3828017F708
:101830000100130727CF14431843F8420507F8C2E5
:1018400061FD17F701001307E7CD0843F1B798438F
:1018500094437C43FD177CC3FC42E9FB7360043076
:101860008280411122C42A8406C6EFE01FC611E41B
:1018700097F70100938707CB80434054EFE09FC464
:10188000B2402285224441018280914763F5B7002E
:101890007370043001A0011122CC06CE26CA4AC8BA
:1018A0004EC652C42A847370043017F9010013091C
:1018B000A9C583270900D5EF79C43C486389F50899
:1018C00017F70100130707C663FCB7001443638CC6
:1018D000860C18434457B3B4950093C4140029A050
:1018E0000443818C93B4140058546384E70A1C4C5D
:1018F0002CC863C607009547B385B7400CCC931737
:101900002700BA97584897F90100938969DF8A0739
:10191000CE97631BF702130A44005285EFE05FC5C0
:1019200017F70100130787BE5C5418436376F7006E
:1019300017F70100232CF7BC5147B387E702D28584
:101940003385F900EFE05FBE99C0EFE03FAC83273D
:10195000090081CB97F701009387C7BC9C43FC43E8
:101960009DEBF2406244D2444249B249224A0561A9
:10197000828097F701009387E7BA98439C437C43A2
:1019800085077CC31DF897F701009387A7B98043AB
:101990002DB74CD4A9BF6244F240D2444249B24967
:1019A000224A056115B2814481B725C1011126CAB9
:1019B00097F40100938404B79C4006CE22CC4AC819
:1019C0004EC6638DA7027370043017F90100130926
:1019D000A9B38327090091C798409C407C438507A1
:1019E0007CC3584997F701009387C7DC6302F7026D
:1019F0008327090081C79C40FC43A5EBF240624469
:101A0000D2444249B249056182807370043001A01A
:101A10001C5517F70100130767D7E38BE7FCE9FBB9
:101A2000930945002A844E85EFE09FB417F7010023
:101A30001307C7AD5C5418436376F70017F701002E
:101A40002326F7AC5147B387E70217F501001305CA
:101A500025CBCE853E95EFE03FAD9C405854DC57FA
:101A6000E368F7F8EFE09F9A61B76244F240D2442E
:101A70004249B249056189B815CD011122CC26CA67
:101A80004AC82A8406CE4EC6EFE03FA4584897F7CE
:101A90000100938727D22A8981446300F7024A858F
:101AA000EFE05FA2F240624426854249D244B24947
:101AB000056182807370043001A01C5417F5010089
:101AC0001305C5CCE38DA7FCF9FB97F701009387BD
:101AD00027A29C43A9EB97F701009387A7A49C43F7
:101AE000445493094400DC574E85B3B4F400EFE04E
:101AF0003FA817F70100130767A15C54184393C46C
:101B000014006376F70017F701002321F7A051476F
:101B1000B387E70217F50100130585BECE853E9514
:101B2000EFE09FA0ADBF93058401EFE0FF9F85BF6D
:101B30000111056506CE22CC26CA4AC84EC652C43B
:101B400056C2EF200036630E051CAA84130500065A
:101B5000EF2020352A84630A051E05669305500A86
:101B600004D92685EF20205A04588567F117BE94C2
:101B7000B7474C4593879744930944005CD84E85FA
:101B8000230C0402A30104042326040223280404D2
:101B9000232A0404EFE0FF9813058401EFE07F9807
:101BA0009547232C0404F19800C81CCC40D0232274
:101BB0000404232E04040146971500009385E5B123
:101BC0002685EFE03F9108C07370043017F90100DB
:101BD000130989938327090097F40100938484945F
:101BE00091C798409C407C4385077CC317F7010050
:101BF000130747921C43850797F6010023ACF69024
:101C00009C40C9C38327090081EB9C40DC5789E7CE
:101C100097F7010023A8879097F701009387C78D56
:101C20009C4397F601009386668E5854944285072C
:101C300017F601002322F68C3CC463F6E60097F702
:101C4000010023A5E78C93172700BA978A0717F599
:101C500001001305E5AA3E95CE85EFE0FF8C8327B2
:101C6000090081C79C40FC43F1E78327090091C329
:101C70009C40EF10704985476304F50E5DE1737079
:101C8000043001A097F7010023AE878818438547E9
:101C9000E314F7F817F50100130585A6EFE03F8779
:101CA00017F50100130505A7EFE07F8617F5010082
:101CB000130585A7EFE0BF8517F50100130505A8FB
:101CC000EFE0FF8417F50100130585A8EFE03F84DE
:101CD00097FA0100938A0AA95685EFE05F8317FA05
:101CE0000100130A6AA95285EFE07F8217F501000F
:101CF0001305C5A9EFE0BF8117F50100130545AA3B
:101D0000EFE0FF8017F501001305C5AAEFE03F8063
:101D100097F7010023A6578197F7010023A0478179
:101D2000E5BDF2406244D2444249B249224A924A55
:101D300005618280984094407C43FD177CC3FC423F
:101D4000E39507F2736004300DB76244F2404249F4
:101D5000B249224A924A2685D24405616F208026E4
:101D600073700430FD5717E701002325F7786244AC
:101D700097E7010023AAA778F240D2444249B2492A
:101D8000224A924A97E7010023A4077805616FE091
:101D90004FD17370043097E7010023A707766FE0F7
:101DA0008FDE17E701001307A7741C4385071CC3C8
:101DB00082807370043097E701009387E77498433B
:101DC00005E317E701001307A77408439C4381CB81
:101DD00097E70100938707759843784301EF828066
:101DE00017E701001307077414431843F842050767
:101DF000F8C2C1BF984394437C43FD177CC3FC42A7
:101E0000F9FF736004308280411106C622C4EFE0FE
:101E1000CFEB97E701009387A76F8043EFE08FEA4E
:101E2000B240228522444101828097E701009387D6
:101E3000676E88438280797106D622D426D24AD032
:101E40004ECE52CC56CA5AC85EC697E70100938759
:101E5000276A9C43B1EF17E701001307676B1C4328
:101E6000850797E6010023A5F66A832A0700638F9A
:101E70000A0697E701009387E7679C43814463F173
:101E8000FA0897F901009389A98717EA0100130A54
:101E90006A6983270A008546D85793172700BA979F
:101EA0008A07BE9983A7090063FFF600854421A82D
:101EB00097E70100938707659C438144850717E7EF
:101EC00001002321F76497E70100938767639C4330
:101ED00091C38544B2502254268502599254F24946
:101EE000624AD24A424BB24B4561828017E40100FC
:101EF000130404631C409C43DDC37370043001A0D1
:101F000017E401001304C46197E901009389497F34
:101F100017EA0100130A0A6117EB0100130B0B5FAC
:101F20001C409C43B5C31C40DC4703A9C700832762
:101F30004900930B49005E8563EEFA04EFE04FE33E
:101F4000832789021305890199C3EFE06FE2832794
:101F5000C90203270B00DE85139527003E950A056D
:101F60004E956376F70017E701002321F75AEFE05B
:101F7000AFDB83270A000327C902DC57E362F7FAC5
:101F80001C4085449C43C5F3FD5717E701002323FC
:101F9000F75601B717E70100232EF754DDBD17E709
:101FA00001001307A7571C40184397E6010023A917
:101FB000E65617E701002323F75697E701009387BA
:101FC000E7539C43850717E701002329F7521C407C
:101FD0009C4399E7FD5717E70100232DF75051BDAA
:101FE0001C40DC47DC47DC4317E701002324F750A3
:101FF00049B597E701009387A74F984301E77370AE
:10200000043001A0011106CE22CC26CA4AC84EC611
:1020100052C456C25AC07370043097E401009384CE
:10202000A44E984061EB98437D1797E6010023A1E9
:10203000E64C9C43D9EB97E701009387A74D9C435F
:10204000C9C797EA0100938AAA6B17EA0100130A2D
:10205000EA4B17E901001309E94C854919A83385B2
:10206000EA00EFE06FCC832709005854DC5763790E
:10207000F70483A7CA08C1CF83A78A09C0471305FD
:102080008401EFE0EFCE130B44005A85EFE04FCE12
:102090005C5483260A00DA85139527003E950A05CD
:1020A0002A875695E3FDF6FA17E701002320F74645
:1020B000EFE08FC7832709005854DC57E36BF7FA2A
:1020C00097E7010023AE37436DB701449C4081CBB5
:1020D00097E70100938707459C43FC4395E72285DA
:1020E000F2406244D2444249B249224A924A024BE7
:1020F0000561828017E701001307C74214431843A4
:10210000F8420507F8C205B7EFF00F9CC9BF17E406
:1021100001001304243F1C4095C31C40054999CF7E
:10212000193B09C597E7010023AC273D1C40FD176B
:1021300017E701002328F73C1C40FDF397E7010057
:102140009387073C98438547E311F7F8EFE00FAC1E
:102150000544ADBF11CD81E57370043001A017E7D0
:1021600001001307E7381C4399C77370043001A0BE
:102170007370043001A0411122C406C614431841F3
:10218000850617E601002325D63697E601009386DB
:10219000263894423304B70000C163F7E602637F38
:1021A000E40063FD860097E701009387A737884323
:1021B0001105EFE0EFBB2285EFF0CF8A1D3D01C98D
:1021C000B240224441018280E36FE4FCD9BF224443
:1021D000B24041016FE08FA311C917E70100130757
:1021E00027311C4391C77370043001A06FE00FA228
:1021F000411106C622C41843AA87050797E60100C5
:1022000023A8E62E97E601009386C63117E7010062
:1022100013070730184388423304F7001105EFE035
:102220002FB52285EFF00F84E93311E52244B24047
:1022300041016FE0AF9DB2402244410182804111D3
:1022400022C406C697E701009387872A9C4301446E
:10225000850717E70100232DF72897E701009387EB
:10226000672B9C4363E3F50C17EE0100130ECE4E73
:1022700097E201009382024801440147854F13030E
:10228000500A21A0311E6387C20D83278EFFBA85B5
:10229000F5DB8327CEFFDC43232EFEFE6382C71BC4
:1022A00003AFC700DC432A97814E232EFEFE6385D1
:1022B000C70783A8C70093874803232017015CC37F
:1022C00083A788042326F7011CC783A7C8021CCB59
:1022D00083A70805232C07005CCB03A808038347CA
:1022E0000800639A6704C287850783C60700B38521
:1022F0000741E38B66FE8981C205C181231EB700B9
:10230000850E1307070263001F058327CEFFDC43FA
:10231000232EFEFEE39FC7F983274E00232EFEFEE9
:1023200049BF1A9419C223200600E1312285B24028
:102330002244410182808145231EB700850E130788
:102340000702E3141FFD769413175400311EBA855B
:10235000E39DC2F397E701009387871C03AE070054
:1023600083270E00FDE397E701009387271B03AE49
:10237000070083270E006398071617EE0100130E5F
:102380002E3883270E0A639D071E83274E0BD9DB49
:1023900083278E0B97EE0100938E4E42DC4317E7A6
:1023A0000100232BF7406381D73383AFC700DC43A1
:1023B0003307B500014397E6010023AFF63E0D4F0A
:1023C00089429308500A6386D707C8479307450395
:1023D00008C35CC33C452326E7011CC75C551CCBE6
:1023E0001C5599C3232657003C49232C07005CCB7E
:1023F00003280503834708006395172BC2878507C9
:1024000083C60700B3850741E38B16FF8981C205A8
:10241000C181231EB700050313070702E383AFF052
:1024200083278E0BDC4397E6010023A7F638E39E53
:10243000D7F983270E0C97E6010023AFF63671B764
:1024400083274E00232EFEFEA1BD83274E00130FCF
:102450008E00D4432322DE00638CE625B307E5001B
:10246000D84283A2C600814E2322EE00894F130377
:10247000500A6305EF068328C7001387480323A08B
:102480001701D8C303A7880423A6F70198C703A799
:10249000C80298CB03A7080523AC0700D8CB03A834
:1024A0000803034708006318671C42870507834633
:1024B0000700B3050741E38B66FE8981C205C18130
:1024C000239EB700850E93870702638E121B832617
:1024D0004E00D8422322EE00E31FEFF80327CE0080
:1024E0002322EE0049BF83274E00130F8E00DC43EA
:1024F0002322FE006389E71B83A2C700DC43AA9561
:10250000814E2322FE00894F1303500A6305FF0604
:1025100083A8C7009387480323A01501DCC183A7C4
:10252000880423A6F5019CC583A7C8029CC983A77C
:10253000080523AC0500DCC903A80803834708008D
:1025400063976710C287850783C6070033870741F3
:10255000E38B66FE098342074183239EE500850ED7
:1025600093850502638D120F83274E00DC432322DF
:10257000FE00E31FFFF88327CE002322FE0049BFA1
:1025800083274E0A17EF0100130F0F22DC4317E7D2
:1025900001002329F7206382E71383A2C700DC43ED
:1025A000AA95814E17E70100232EF71E914F1303C2
:1025B000500A6387E70783A8C7009387480323A0CF
:1025C0001501DCC183A7880423A6F5019CC583A758
:1025D000C8029CC983A7080523AC0500DCC903A871
:1025E00008038347080063946704C287850783C68E
:1025F000070033870741E38B66FE09834207418367
:10260000239EE500850E93850502638A12038327C6
:102610004E0ADC4317E701002326F718E39DE7F98C
:102620008327CE0A17E70100232EF71669B7014763
:10263000239EE500850E93850502E39A12FD83270C
:102640004E0B769493155400E38E07CC91B301475B
:10265000239EE500850E93850502E39712F117EEA0
:102660000100130EEE0983270E0A76949315540089
:10267000E38D07D031B78145239EB700850E938740
:102680000702E39612E597E70100938727E903AE77
:10269000070076949315540083270E00E38F07CC30
:1026A00099B58145BDB38327CE002322FE00A9B58D
:1026B0008326CE002322DE0055B38327CE0A17E7F8
:1026C00001002321F70ED1BD83270E0C17E701006F
:1026D0002324F70ED9B9797126D24AD04ECE52CCE6
:1026E00056CA5AC85EC606D622D497E90100938915
:1026F00029E017E901001309A90017EA0100130AEC
:10270000AAE097EA0100938AEAE197EB0100938B34
:102710006BE097E40100938424E0054B21A883A794
:1027200009000324090A850717E701002322F7DCC3
:10273000C93011E89C40E5F783270900E37CFBFEE4
:10274000EFD0DFCCC5BF7370043083270A00B9E334
:102750008327C90AC04713054400EFD07FE183A750
:102760000B00FD1717E701002326F7DA9C40FD1741
:1027700017E701002322F7DA83270A0089C783A716
:102780000A00FC4385E30858EF10D0032285EF10C0
:1027900070034DB703A70A0083A70A007C4385078F
:1027A0007CC37DB703A70A0083A60A007C43FD17FC
:1027B0007CC3FC42E9FB73600430F1B797E701008A
:1027C000938707D39C43DDE3411106C697E70100D9
:1027D00023A807D217E701001307C7D41C43B7A6E5
:1027E000A5A59386565A9C5B8C43639BD500D0432A
:1027F0006318B60094476395C600DC476388D7002A
:1028000008430C4393854503EF20207397E60100AE
:102810009386C6CF904217E70100130767EE11A811
:102820009C42B9CB9C42FD1717E601002320F6CE4F
:10283000904293172600B2978A07BA979C43EDD32C
:10284000904293172600B2978A07B305F700D44148
:10285000A107BA97D442D4C16383F602DC46B240E2
:1028600017E701002320F7CC41018280854717E755
:1028700001002327F7C882807370043001A0D1477C
:102880003306F602D442329754C3C9BF01114AC875
:1028900006CE22CC26CA4EC62A897370043097E42D
:1028A0000100938464C69C4017E40100130484C7AC
:1028B000D9E76314090003290400930949004E85F0
:1028C000EFD01FCB8327890289C713058901EFD079
:1028D0003FCACE8517E501001305C5EDEFD0DFC473
:1028E0009C4081C71C40FC43ADE31C40638B270721
:1028F0009C409DCF737004309C40C1EB97E7010072
:10290000938707C29843184325EBFD5717E701004B
:102910002322F7BE9C4089CF1C40FC4391CB18403A
:1029200014407C43FD177CC3FC4299E37360043080
:10293000F2406244D2444249B24905618280184063
:102940001C407C4385077CC3ADB7184014407C43D2
:10295000FD177CC3FC42D1FB736004301C40E3993B
:1029600027F99C40A1C397E70100938767B89C4370
:10297000ADCB7370043001A09C43DC47DC47DC43E3
:1029800017E701002328F7B671B718401C407C43B5
:1029900085077CC397E70100938787B8984318435E
:1029A0002DD7D9BF97E701009387C7B617E7010076
:1029B000130707D59C430327470B631DF700F2401D
:1029C000624497E7010023AF07B4D2444249B249B9
:1029D000056182806244F240D2444249B2490561B5
:1029E000F1BB6244F240D2444249B24905616FD022
:1029F000FFA13DC9411126C297E40100938484B22E
:102A00004AC02E898C4006C622C4E105EFD05FB3D0
:102A100088401105EFD0DFB5FD57630AF90497E749
:102A200001009387E7AE804398409C434A9440C39B
:102A3000636CF40497E70100938787AE88438C406A
:102A40009105EFD0FFAF97E701009387A7AA9C43BA
:102A50006376F40097E7010023AE87A8B2402244D2
:102A600092440249410182807370043001A08C407D
:102A70002244B2409244024917E50100130585D370
:102A8000910541016FD05FAA97E70100938707A9DD
:102A9000884322448C40B24092440249910541014E
:102AA0006FD01FAA11C997E70100938767A49C43C1
:102AB00099E77370043001A07370043001A04111D4
:102AC00026C297E401009384E4A59840AE878C4029
:102AD000B7060080D58F06C622C41CCFE10532841C
:102AE000EFD09FA488401105EFD09FA8FD57630E3B
:102AF000F40097E701009387A7A18843B24092446E
:102B00002295224441016FE0EFF58C402244B2400F
:102B1000924417E501001305E5C9910541016FD005
:102B2000BFA025CD411126C297E401009384849F64
:102B30004AC02E898C4006C622C4E1053284EFD0FB
:102B4000BF9E88401105EFD0BFA28547630AF404F9
:102B500097E701009387C79B804398409C434A9422
:102B600040C3636CF40497E701009387679B884335
:102B70008C409105EFD0DF9C97E701009387879702
:102B80009C436376F40097E7010023A58796B24043
:102B9000224492440249410182807370043001A0B2
:102BA0008C402244B2409244024917E501001305CB
:102BB00065C0910541016FD03F9797E7010093876A
:102BC000E795884322448C40B240924402499105E3
:102BD00041016FD0FF96411106C622C426C25C4552
:102BE000C04735CC930484012685EFD07F9897E7C2
:102BF00001009387E78F9C43B5E793044400268543
:102C0000EFD01F9797E701009387479058549C4354
:102C100063F6E70097E7010023AAE78E93172700E2
:102C2000BA978A0717E50100130585ADA6853E957D
:102C3000EFD09F8F97E701009387C78E9C4358542E
:102C40000145DC5763F8E700854717E701002329B2
:102C5000F78A0545B2402244924441018280737054
:102C6000043001A0A68517E50100130525B2EFD0B9
:102C7000BF8BC9B797E70100938787879C4381E79C
:102C80007370043001A0411106C622C426C2B707E2
:102C900000804045CD8F1CC12DC4EFD07F8D9304A3
:102CA00044002685EFD0DF8C97E7010093870786E5
:102CB00058549C4363F6E70097E7010023A8E78494
:102CC00093172700BA978A0717E50100130545A354
:102CD0003E95A685EFD05F8597E7010093878784AF
:102CE0009C4358540145DC5763F8E700854717E7D4
:102CF00001002327F7800545B24022449244410158
:102D000082807370043001A011CD97D701009387A2
:102D1000E77E984397D701009387877F9C4318C12C
:102D20005CC182807370043001A055C1D1CD4111C6
:102D300006C622C42A877370043097D8010093888E
:102D4000A87C83A7080091CB97D701009387877D44
:102D500094439C43FC428507FCC217D30100130334
:102D6000237B9C4103260300FD560144638FD70259
:102D700017DE0100130E8E7803250E0003280700CE
:102D800054436305A80005446371D6023308D64056
:102D90000544637CF80003250E00918F0326030091
:102DA000B6979CC108C350C3014483A7080081CBD8
:102DB00097D70100938707779C43FC4381EF2285D7
:102DC000B2402244410182807370043001A07370CC
:102DD000043001A0EFE04FCFDDB7854717D70100E2
:102DE0002320F772828019C1684582800145828064
:102DF00011C16CC5828097D701009387A772884361
:102E0000828097D70100938727709C43054589CB23
:102E100097D701009387C76D8843133515000605C2
:102E2000828031CD011126CA97D401009384846F2A
:102E30009C4006CE22CC4AC84EC65855DC57637912
:102E4000F7021C4D63C707009C40D4579547958FE8
:102E50001CCD93172700BA97584917E901001309A9
:102E6000298A8A07CA97630DF7009C40DC575CD516
:102E7000F2406244D2444249B24905618280828074
:102E8000930945002A844E85EFD08FEE9C4017D7DA
:102E900001001307A7671843DC575CD46376F7007B
:102EA00017D701002324F766139527003E95624447
:102EB0000A05F240D244CE854A95B249424905619D
:102EC0006FD08FE619CD411106C622C426C297D70E
:102ED00001009387276580436307A4007370043063
:102EE00001A0014582807C4881E77370043001A015
:102EF00054543848FD177CC86383E60099C70145E0
:102F0000B2402244924441018280930444002685C9
:102F1000EFD00FE63C4817D701001307275F144393
:102F200015471D8F5CD418CC63F6F60017D7010047
:102F3000232EF75C5147B387E70217D5010013052D
:102F4000257CA6853E95EFD02FDE054555BF7370D5
:102F5000043097D701009387275B9C4391CB97D789
:102F600001009387275C98439C437C4385077CC37F
:102F7000828097D70100938727599C438DC397D7A9
:102F800001009387275A9843784311CB9843944381
:102F90007C43FD177CC3FC4299E37360043082805C
:102FA00097D70100938707589043944398439547D8
:102FB000D456084E958F1CCF828097D701009387F7
:102FC0006756984309C79443F84A0507F8CA8843E7
:102FD000828079714AD006D622D426D24ECE2A8952
:102FE0007370043097D40100938404529C4017D42A
:102FF000010013042453BDE31C40BC4F89E71C406F
:103000000547F8CFD1E19C4081C71C40FC43F1EB60
:10301000737004309C408DEF1C40A84F11C56304B1
:1030200009021C4023AC07041C4023AE07049C404B
:1030300081C71C40FC438DEBB2502254925402597C
:10304000F2494561828018403C4FFD173CCFE9BFF3
:1030500018401C407C4385077CC37DBF18401C4042
:103060007C4385077CC349BF184014407C43FD174F
:103070007CC3FC42F1F373600430B250225492548A
:103080000259F2494561828008402EC61105EFD0F1
:103090002FCEB245FD576380F50697D70100938781
:1030A000274783A9070018409C43AE992322370184
:1030B00063ECF90497D701009387874688430C4057
:1030C0009105EFD0EFC797D701009387A7429C43A4
:1030D00063F6F90097D7010023AE3741EFD00FB365
:1030E0001DB7184014407C43FD177CC3FC428DF390
:1030F0007360043031BF0C4017D501001305856B98
:103100009105EFD06FC2D9BF97D7010093870741D0
:1031100088430C409105EFD0AFC2C9B779714AD04E
:103120004ECE06D622D426D252CC2E89B2897370C6
:10313000043097D401009384243D9C4017D40100AF
:103140001304443EF9EF18408947784F630CF700A9
:103150001C401345F5FFB84F798DA8CF1C4005479B
:10316000F8CFADE69C4081C71C40FC43F5E373708B
:1031700004309C40B1E7638609001C40BC4F23A08B
:10318000F900184085470145784F630BF7001C4054
:103190001349F9FF0545B84F3379E90023AC2705FA
:1031A0001C4023AE07049C4081C71C40FC43C1E384
:1031B000B250225492540259F249624A45618280C7
:1031C00018401C407C4385077CC375B7084036C651
:1031D0001105EFD0EFB9B246FD576385F60897D7D2
:1031E00001009387E73203AA070018409C43369AF0
:1031F000232247016363FA0897D701009387473278
:1032000088430C409105EFD0AFB397D70100938767
:10321000672E9C436370FA0697D7010023AC472DB5
:1032200091A818401C407C4385077CC329BF1840E7
:1032300014407C43FD177CC3FC42BDFB736004302B
:10324000B250225492540259F249624A4561828036
:10325000184014407C43FD177CC3FC4289FB73601B
:10326000043031B70C4017D501001305A554910562
:10327000EFD08FABEFD08F99F5B597D7010093873B
:10328000E72988430C409105EFD08FABE5B751C1DA
:10329000411106C622C426C24AC07370043097D4B6
:1032A0000100938464269C40B9EB99C23C4D9CC2BA
:1032B000B2878946704D74CD2E872A846386D706DF
:1032C00063FCF6048D456387B70091456395B700AD
:1032D0006300D60C38CC8547630FF60405449C4048
:1032E00081CB97D701009387E7239C43FC43A9E355
:1032F0002285B2402244924402494101828097D7FC
:1033000001009387272298439C437C4385077CC315
:1033100069BF7370043001A08546E39ED7FA3C4D27
:1033200033E7B70038CD45BF3C4D85073CCD65B789
:10333000EFD09FF975BF130944004A85EFD04FA322
:1033400017D701001307871C5C5418436376F700F6
:1033500017D70100232CF71A5147B387E70217D577
:1033600001001305E539CA853E95EFD0EF9B1C544B
:1033700081C77370043001A097D701009387871A23
:103380009C435854DC57E3FBE7F4EFD02F88B9B7E0
:103390000144B1B739CD011122CC26CA4AC84EC664
:1033A00052C456C206CEBA89368AB2842E892A847D
:1033B000EFD0AF91AA8A63050A003C4C2320FA00A3
:1033C000784C89477CCC6389F40263F4970C8D4672
:1033D0006387D40091466396D400630AF70A232CCE
:1033E00024058547631EF7061C5499CB737004307F
:1033F00001A07370043001A03C4C85073CCCD5B7CC
:1034000097D701009387C70E9C43ADEB930444000C
:103410002685EFD0EF9517D701001307270F5C54CF
:1034200018436376F70017D701002321F70E5147A1
:10343000B387E70217D501001305852CA6853E95B5
:10344000EFD08F8E97D701009387C70D9C435854B8
:10345000DC5763F7E70063850900854723A0F9007F
:1034600005445685EFD00F862285F2406244D2444F
:103470004249B249224A924A0561828093058401F9
:1034800017D5010013058530EFD00F8A65BF0144C1
:10349000C9BF8547E397F4F43C4C33E92701232C5B
:1034A000240581B74DC1011122CC26CA2A844AC8FD
:1034B00006CE4EC6AE84EFD04F818947744C7CCC8B
:1034C0003C4C05472A8985073CCC6395E6061C548D
:1034D00081C77370043001A097D70100938747011B
:1034E0009C43ADE7930944004E85EFD06F8817D712
:1034F00001001307A7015C5418436376F70017D740
:1035000001002325F7005147B387E70217D50100D3
:103510001305051FCE853E95EFD00F8197D701008B
:10352000938747009C435854DC5763F5E70099C0E4
:1035300085479CC06244F240D244B2494A85424920
:1035400005616FC03FF87370043001A093058401DA
:1035500017D5010013058523EFC01FFDC1B7AA874A
:1035600029C57370043017D701001307E7F9144316
:103570009DE2F04F894601456315D60023AE07044E
:1035800005451C4381CB97D701009387A7F9984342
:10359000784315E3828097D601009386A6F890427F
:1035A00094427442850674C2E9B797D701009387A5
:1035B00067F79C437DB7984394437C43FD177CC3D6
:1035C000FC42E9FB7360043082805D71A6C2CAC010
:1035D00052DC56DA5AD85ED686C6A2C44EDE62D413
:1035E00066D26AD017D901001309C9F417DB0100AC
:1035F000130B8BF397D40100938444F397DA010003
:10360000938A0AF3054AA54B83270900984363016F
:103610000712DC4783A90700EFE0AFF8EFE06FF98E
:1036200083270B002A8C6362F50A97D7010023AD2C
:10363000A7EE01466370351B8840B3858941EFD002
:103640005FB5EFE01F9B630105128840814601468C
:103650002C00EFD06FE34DD9A247E3C807FEC24963
:1036600083A7490189C713854900EFC07FF0EFE0C8
:103670004FF483270B002A8C636DF508A24717D7F8
:103680000100232387EBE3E2FBFCB317FA0013F7F7
:103690000721631A071613F7770C6318071E93F7B1
:1036A0000702C5D74E85EF00F01145B7DC47C0478C
:1036B00083AC0700930944004E85EFC07FEB5C505C
:1036C000228582975C4C6384470B832709009843CB
:1036D00071FF03A70A0097D6010023A786E597D6B6
:1036E000010023A7F6E497D7010023A5E7E4EFE064
:1036F0005F90A1BFDC47C04703AD0700930C4400B7
:103700006685EFC0FFE65C50228582975C4C63863D
:10371000470983270900984371FF03A70A0097D63A
:10372000010023A7F6E097D7010023A5E7E0B9B78A
:10373000EFE02FE7EFE0EFE783270B002A8CE3664B
:10374000F5F883A70A00884081499043B3858941F1
:1037500017D70100232A87DD13361600EFD07FA389
:10376000EFE03F89E31305EEEFC05FCAF9BD1C4CE3
:10377000CE85E69763E9FC049C4089CF02CA66CCFB
:1037800022CEEFF00FE88840814601464C08EFC09A
:103790009FFF05FD7370043001A01C4CE685EA977D
:1037A000636CFD049C4089CF02CA6ACC22CEEFF044
:1037B0004FE58840814601464C08EFC0DFFC31F9F7
:1037C0007370043001A0032509005CC000C8EFC07D
:1037D0003FD7E5BDEFE0FF8183270900DC47C04705
:1037E000930C44006685EFC0BFD85C4C638F4703E1
:1037F0005C502285829791BD032509005CC000C8FA
:10380000EFC01FD439B7B24723ACF900A5CFE29778
:1038100023A2F90023A8390193854900636FFC04B2
:1038200003A50A00EFC0DFD10DB51C4C00C83387DB
:10383000F90058C0636DEC02330C3C416363FC0239
:103840009C4089CF02CA4ECC22CEEFF08FDB88405D
:10385000814601464C08EFC01FF359F973700430DC
:1038600001A003A50A00E685EFC09FCD51B703254F
:103870000900E685EFC0DFCCA5BF03250900EFC036
:103880003FCCE1B37370043001A0B24783A6890135
:1038900023A839013387D70023A2E9006364EC042D
:1038A000B307FC4063EBD70483A749024E85829798
:1038B00083A7C901E39B47D983A68901B2479840F2
:1038C000B69711CF02CA3ECC4ECEEFF08FD38840D0
:1038D000814601464C08EFC01FEBE31805D6737014
:1038E000043001A06374FC00E370F7FC03250900B9
:1038F00093854900EFC0DFC489BB03A50A00938507
:103900004900EFC0FFC391B3411122C406C626C2CD
:103910004AC017D40100130464C1EFF04FE31C4008
:1039200095CBEFF00FE51C409DC3814801488147CE
:10393000094781461306004097D50100938585AF5E
:10394000170500001305A5C8EFD0DF9939E973709A
:10395000043001A017D90100130909E74A85EFC017
:103960001FBB97D40100938464E72685EFC03FBA5C
:103970000146B145114597D7010023AD27BB97D725
:10398000010023A797BAEFC07FD317D70100232FD9
:10399000A7B811CD97D50100938545A9EFD02FF495
:1039A00049B7B24022449244024941018280737077
:1039B000043001A0A5C9797156CAAA8A1305C002AC
:1039C00022D426D24AD04ECE52CC06D65AC85EC693
:1039D0003A89B689328AAE84E9212A8405C9EFF092
:1039E0000FD797D70100938767B49C439DCFEFF023
:1039F0004FD8130544002320540104CC232E440146
:103A00002320340323222403EFC0BFB12285B25008
:103A1000225492540259F249624AD24A424BB24B62
:103A2000456182807370043001A097DB0100938BA5
:103A3000ABD95E85EFC0BFAD17DB0100130B0BDA0E
:103A40005A85EFC0DFAC0146B145114597D701005B
:103A500023A277AF97D7010023AC67ADEFC01FC695
:103A600017D701002324A7AC01C997D5010093857E
:103A7000E59BEFD0CFE6A5BF7370043001A039C538
:103A8000011122CC06CE26CA17D40100130404AAC1
:103A9000832804002A88014563850802BA842EC25F
:103AA000368732C442C6954663C5B602EFF06FB59D
:103AB0008947630BF5020840814601464C00EFC080
:103AC0009FCCF2406244D24405618280737004301E
:103AD00001A04C0081463A864685EFD00F80F24027
:103AE0006244D244056182800840814626864C00AB
:103AF000EFC07FC9F9B719C10841828073700430E3
:103B000001A001E57370043001A0411106C622C472
:103B10002A84EFF0CFC348483334A000EFF06FC5DC
:103B20002285B24022444101828001E57370043055
:103B300001A0411122C42A8406C6EFF04FC10050F3
:103B4000EFF02FC3B240228522444101828001E57B
:103B50007370043001A0411122C426C22E84AA84AD
:103B600006C6EFF0CFBE80D02244B240924441015D
:103B70006FF02FC04111714522C406C61D262A844C
:103B800011C5232005001105EFC07F982285B240A2
:103B900022444101828001CDB70700FFED8F81C72C
:103BA0007370043001A099E57370043001A0737044
:103BB000043001A0011122CC4AC84EC652C456C2DC
:103BC00006CE26CABA893689B28A2E842A8AEFF0AE
:103BD0004FA311E5638509007370043001A0EFE085
:103BE0004F9C83240A00B37794006316090295C79B
:103BF00063870A009347F4FFE58F2320FA00EFE084
:103C00004FBFF240624426854249D244B249224A1B
:103C1000924A05618280E30DF4FCE38209FEB3352C
:103C20005001E20563050900B7070004DD8D4E86EB
:103C3000C18D13054A00EFE0FFE6EFE08FBB19E10D
:103C4000EFC0CFFCEFF0CFB593176500AA8963D81A
:103C50000700B7040001FD14B3F499005DB7EFF05D
:103C60000FAF83290A00B3773401631E090089CBA3
:103C700063880A009347F4FFB3F737012320FA0063
:103C8000EFF02FAFF9B7E31DF4FEDDB701C9B707B9
:103C900000FFED8F99C77370043001A0737004307A
:103CA00001A0411122C42A8406C626C24AC02E8918
:103CB000EFF0EFA904409345F9FFB3F795001CC05E
:103CC000EFF02FABB24022442685024992444101D5
:103CD0008280411122C42A8406C6EFC00FFF004033
:103CE000EFC04FFEB240228522444101828009C9C3
:103CF000370700FFB3F7E50099C77370043001A0E0
:103D00007370043001A06F40A070B70700FFF18FFF
:103D100081C77370043001A001E67370043001A004
:103D2000011122CC4AC84EC652C406CE26CA3689D4
:103D3000AE892A8A3284EFF0CF8C21E16305090035
:103D40007370043001A0EFE0CF8583240A00CE8594
:103D50005285B3E49900613FB37794006307F4069A
:103D600083240A00EFE0EFA8F2406244268542492E
:103D7000D244B249224A05618280EFE08F828324D7
:103D80000A00CE855285B3E434019537B3F7840039
:103D9000638D8702E30609FCB70500054A86C18DDD
:103DA00013054A00EFE01FD0EFE0AFA419E1EFC028
:103DB000EFE5EFF0EF9E93176500AA8463DF07003D
:103DC000B7070001FD17FD8C45B783270A00134490
:103DD000F4FFE18F2320FA0071B7EFF04F978324AF
:103DE0000A00B3779400639787009347F4FFE58F49
:103DF0002320FA00EFF0EF97E1B7411122C406C685
:103E00002A8426C2EFD0FFF95C4085C3084893049A
:103E1000C4006316950015A0084863009502B70515
:103E20000002EFE03FE55C40E5FB2285612A224489
:103E3000B240924441016FE0CF9B7370043001A007
:103E400009C9370700FFB3F7E50099C7737004305D
:103E500001A07370043001A06F40805B01C9B707F7
:103E600000FFED8F99C77370043001A073700430A8
:103E700001A0411122C426C206C62A84AE84EFF0F6
:103E80000F8D184093C7F4FFF98F1CC02244B24035
:103E9000924441016FF0EF8D19C1084D82800145B8
:103EA0008280411122C406C62A84EFD09FEF97C7B3
:103EB0000100938767689C43A1EBE56717D7010072
:103EC00013074793F11797C6010023ADE66617C79E
:103ED00001002327F76617D70100232FF79097C714
:103EE00001009387A76517D701002325F790854721
:103EF00017C70100232A076417C70100232007649E
:103F000017C70100232AF76219E8EFE08F8EEF1040
:103F1000400201442285B2402244410182801305BF
:103F2000840093773500C1EFE5671307F5FFE917C4
:103F3000E3EDE7FC97C601009386C6609C4229A08A
:103F4000984311C7BE86BA87D843E36BA7FE17C74D
:103F500001001307A75EE38AE7FA984341461384FA
:103F6000870098C2D843B306A7406378D602338847
:103F7000A7002322D800C8C38325480097C60100A4
:103F80009386465C11A0BA8698425043E36DB6FE14
:103F90002320E80023A00601D84397C70100938798
:103FA000676A9C43998F17C70100232DF768EFE0DC
:103FB0004F8431DC2285B2402244410182807199D4
:103FC00011059DB729C9411122C406C62A84EFD024
:103FD0005FDD930584FF0326C4FF17C701001307A5
:103FE000675611A03E871C43D443E3EDC6FE232C45
:103FF000F4FE0CC397C701009387C76498438327D7
:10400000C4FF2244B240BA9717C70100232CF762BD
:1040100041016FD01FFE828097C70100938787629E
:104020008843828082803367B5000D8BAA871DE7A5
:104030009308D6FFAA982A87AE866371150303A852
:10404000060011079106232E07FFE36A17FF934727
:10405000F5FFC697F19B9107BE95AA972A9663F341
:10406000C70A9386450013884700B3B6D70033B814
:10407000050133E7F50093C61600134818000D8BB1
:10408000B3E6060113371700758F330EF64093869B
:10409000170029CF1337AE0031EB13532E002E88B3
:1040A000BE860147832808000507110823A01601D2
:1040B0009106E36967FE1377CEFFBA95BA9763025C
:1040C000EE0483C60500138717002380D700637AA8
:1040D000C70283C6150013872700A380D700637229
:1040E000C70203C725002381E7008280B307F6409B
:1040F000AE97850503C7F5FF8506238FE6FEE39A95
:10410000F5FE82808280B367C5008D8BB308C50041
:10411000E9C36371150FB307A0408D8B1387370078
:10412000954693F5F50F130815003383A8407D16C7
:104130006373D70015476363E60CD5CF2300B50042
:104140000547638DE700A300B5000D471308250060
:104150006396E700130835002301B5001396850028
:104160004D8E13970501518F3303F34093968501CC
:10417000D98E13562300AA97014794C305079107C8
:10418000E36DC7FE1377C3FFB307E8006307E306D9
:104190002380B70013871700637C1703A380B70041
:1041A00013872700637617032381B700138737002F
:1041B00063701703A381B70013874700637A170161
:1041C0002382B7001387570063741701A382B700D7
:1041D000828093F5F50F13978500D98D139705010C
:1041E0004D8FE37715FFAA87910723AEE7FEE3ED36
:1041F00017FF828082802A8895B78280AA8749BF6C
:10420000834705002A8799C7050583470500EDFF09
:10421000198D82800145828005058347F5FF85055C
:1042200003C7F5FF91C7E389E7FE3385E740828046
:104230008147E5BFAA87850503C7F5FF8507A38FDB
:10424000E7FE75FB828083460500930700026397B3
:10425000F600050583460500E38DF6FE938756FDBF
:1042600093F7D70F85C7AA87814585CE0145850776
:10427000138606FD1317250083C607003A95060529
:104280003295F5F699C13305A0408280938536FDBD
:104290008346150093B5150093071500E1FA014513
:1042A000D5B7014582809C412380A7009C418507AA
:1042B0009CC1828097C60100938646299C4217576D
:1042C00003001307275413861700BA972380A7000B
:1042D00097C5010023ACC526A9476308F5009307DD
:1042E00000046305F6000145828075DE370610F094
:1042F00005078347F7FF2320F6F09C42FD1797C57B
:10430000010023A5F524EDF7014582804D7123229C
:10431000911423202115232A5113232481132326AA
:10432000111423248114232E3113232C4113232809
:10433000611323267113232291132320A113232E0B
:10434000B111AA842E8932C6130C5002A54A8347A4
:10435000090063808703B9CB804011A0A1CB230063
:10436000F40080400509050480C083470900E397F5
:1043700087FF0346190093081900C686130D000233
:10438000FD597D5A0148130550059307D6FD93F753
:10439000F70F138916006363F52A17C70100130787
:1043A00067C68A07BA979C43BA9782878320C1144D
:1043B0000324811483244114032901148329C11384
:1043C000032A8113832A4113032B0113832BC11268
:1043D000032C8112832C4112032D0112832DC11154
:1043E00071618280A14C02C4854763D50715B2472D
:1043F0008040938B770093F68BFF03AB060083A975
:104400004600938786003EC6668681465A85CE85DD
:10441000EF10504D2AC8814763853723930D410122
:10442000854B668681465A85CE85EF107008814699
:1044300066862A8BAE89EF10F04AA24723A0AD0012
:1044400093861B00910D63843701B68BD9BFE37E41
:104450009BFF63DD4601A2872380A70180407D1A70
:10446000930714009CC03E84E3C846FF93962B003C
:104470001C08BE9631A8938777052300F40080407E
:10448000FD1B93871B00050480C0F116E351F0EC7F
:104490009C42E3E2FAFE93870703C5B79C4093066C
:1044A000000332472380D7009C4093064700C14C4D
:1044B0001386170090C013068007A380C7008040B2
:1044C00002C4BA87050480C003AB0700814936C621
:1044D00025BFB24783AC0700938B470063840C1C55
:1044E000635F40199307D0026319FD1683C70C0060
:1044F00085C363DC09189440850C7D1A2380F6007F
:104500008040050480C083C70C00E5F7635D40016F
:104510008040930700022300F40080407D1A0504C8
:1045200080C0E31A0AFE5EC61DB502C48547A94CC9
:10453000E3CF07EBB24780409386470071B703C6CD
:104540001600CA8699B59C40930650022380D70076
:104550008040050480C0E5BBC14C02C471B5B247C0
:1045600003C61600CA8683A9070091073EC6E35E0C
:104570000AE04E8AFD5911BD03C61600130DD00284
:10458000CA8621B59347FAFFFD8703C61600337A22
:10459000FA00CA86DDBB03C61600130D0003CA86E7
:1045A000EDB383C51600930906FDCA86938705FD02
:1045B0002E86E3EEFAFA93972900BE9985068609BE
:1045C000AE9983C50600938909FD938705FD2E8664
:1045D000E3F3FAFE69BF32479C40144311073AC621
:1045E0002380D7008040050480C095B3854763D3FE
:1045F000070BB24793867700E19A938786003EC601
:1046000083A946009C4263DC090A94401306D00249
:10461000B307F0402380C6008040B336F000B309F2
:104620003041050480C03E8BB389D940A94C02C4F7
:10463000E1BB03C616000508CA8681BB9C404689BB
:1046400021B7E37D9BDD8547814B8546E3C547E187
:1046500031BD97CC0100938C6CDECE856685EF1062
:10466000601D330AAA40635C400180402300A4011E
:1046700080407D1A050480C0E31A0AFE014A83C700
:104680000C00E38207EAE3C809E6FD197D57E394CD
:10469000E9E6ADBDB247938647009C4336C693D941
:1046A000F74195B7635640019307D002E313FDFA33
:1046B00097CC0100938C8CD8930780021DBD3E8B54
:1046C000A94C02C4804089B34D71232E3113B70920
:1046D00000409387F9FF2324811423229114232C73
:1046E0004113232A51132326111423202115232893
:1046F0006113232671132324811323229113232072
:10470000A113232EB1112A8A2EC417C40100130449
:10471000E4E3975A0300938AEA0E97C40100938456
:10472000E4A33EC693055002294513080004B706CA
:1047300010F083470A006386B704C1C71840050A12
:1047400013061700569797C8010023A1C8E023005D
:10475000F7006382A706E31E06FD17570300130741
:10476000670A05078347F7FF23A0F6F01C40FD17F3
:1047700017C60100232CF6DCEDF783470A00E39E01
:10478000B7FA83461A0013051A002A87930B000212
:104790007D5B7D5C014893055005A5489387D6FD58
:1047A00093F7F70F130A170063E7F5348A07A69704
:1047B0009C43A6978287175703001307A70455F257
:1047C0008DBF8320C1140324811483244114032941
:1047D00001148329C113032A8113832A4113032B54
:1047E0000113832BC112032C8112832C4112032D40
:1047F0000112832DC11171618280A14C014D854749
:1048000063DB0719A2479D07E19B83AD070003AB5C
:104810004700138787003AC4668681466E85DA852D
:10482000EF10500C2AC863066D3513094101854904
:10483000668681466E85DA85EF10804766868146FA
:10484000AA8D2E8BEF10100A2320A90085091109CB
:10485000E3106DFFE3FE9DFD13060004B70610F0A4
:1048600063D189031C4013871700D69797C50100B1
:1048700023AEE5CC23807701630CC7047D1CE3C322
:1048800089FFB2476800A548B386F9008A061C086C
:10489000BE96294813030004370610F0E384A6E807
:1048A0009C429305000363F4F800930570051840DB
:1048B000AE9793051700569717CE01002328BEC860
:1048C0002300F7006380072B638C6526F116F9B788
:1048D00017570300130707F305078347F7FF23A0C4
:1048E000F6F01C40FD1797C5010023A1F5C6EDF7B2
:1048F0007D1C71B71C40130600041387170097C571
:10490000010023A5E5C4B386FA00930500032380C4
:10491000B6006300C73E890797C6010023A8F6C208
:104920005697930680072300D700175703001307F5
:1049300067EDB70610F0639EC70005078347F7FFD2
:1049400023A0F6F01C40FD1717C601002320F6C077
:10495000EDF7A247C14C014D91072247014B832D32
:1049600007003EC455BDA24783AC0700138947002A
:10497000638F0C3A635480219307D002639EFB2E11
:1049800003C70C00BA856310072025AC8547A94CE6
:10499000014DE3C907E7A2479107C1B7A247834684
:1049A0001700528703AB070091073EC4E3580CDEA3
:1049B0005A8C7D5BE5B383461700930BD002528778
:1049C000F1BB9347FCFFFD8783461700337CFC0057
:1049D0005287E9B383461700930B000352877DBBD0
:1049E00003461700138B06FD5287930706FDB28618
:1049F000E3EEF8FA93172B00DA9705078607B297CC
:104A000003460700138B07FD930706FDB286E3F309
:104A1000F8FE69BFA2451C402946984193861700BD
:104A2000D69717C501002323D5B22380E700138949
:104A300045006301C72A930700046387F6204AC430
:104A4000D5B1854763DF0729A24713877700619BAC
:104A5000930787003EC4032B47001C43635B0B3066
:104A60001840130600049306170097C5010023AFF2
:104A7000D5AC56979305D0022300B7006388C62CA7
:104A8000B307F0403337F000330B6041BE8D330B7A
:104A9000EB40A94C014D49B38346170005085287E6
:104AA000F5B9834617005287D5B91C409306000418
:104AB0001387170017C60100232AE6A8D697130606
:104AC00050022380C700E31FD7C417570300130702
:104AD00067D3B70610F005078347F7FF23A0F6F06A
:104AE0001C40FD1717C601002322F6A6EDF71DB9DD
:104AF000C14C014D29B31C40930600042A8A138738
:104B0000170017C601002323E6A4D6971306500208
:104B10002380C700E318D7C017570300130787CEB9
:104B2000B70610F005078347F7FF23A0F6F01C40F7
:104B3000FD1717C60100232BF6A0EDF72A8ADDB674
:104B400017570300130707CC05078347F7FF2320F8
:104B5000F6F01C40FD1797C5010023A9F59EEDF75F
:104B6000F1162DBB175703001307C7C9F1FDF11646
:104B700035B3E3FC9DCB8549C5B1014C03C70C009F
:104B8000BA85E30E07EAFD58294513080004B70665
:104B900010F063570B0A1C4013861700D69717C3F3
:104BA00001002325C39A2380E7006384A5066304DC
:104BB0000609850C03C70C007D1CBA8579FBE35000
:104BC00080E91C409305000213060004B70610F0AC
:104BD00021A07D1CE3050CE613871700D6972380E0
:104BE000B70017C501002323E596BA87E313C7FE74
:104BF00017570300130707C105078347F7FF23A0D3
:104C0000F6F01C40FD1717C501002321F594EDF7C0
:104C1000C9B7175703001307E7BE41DE05078347EF
:104C2000F7FF23A0F6F01C40FD1717C60100232F45
:104C3000F690EDF7BDBF175703001307A7BCF9BFE8
:104C40007D1BE31A1BF5A5BF17570300130787BB8E
:104C5000B70610F005078347F7FF23A0F6F01C40C6
:104C6000FD1717C601002323F68EEDF74AC45DBC7D
:104C700097BC0100938C8C7CDA856685EF00903BB5
:104C8000330CAC40E35C80EF1C4013060004B70615
:104C900010F021A07D1CE3020CEE13871700D697BD
:104CA0002380770197C5010023A2E58ABA87E31321
:104CB000C7FE175703001307E7B405078347F7FF3D
:104CC00023A0F6F01C40FD1797C5010023A0F5882E
:104CD000EDF7C9B7175703001307C7B2B5FA4AC4AF
:104CE00091B4A247138747009C433AC413DBF741B2
:104CF000B5B3175703001307E7B0B70610F0050761
:104D00008347F7FF23A0F6F01C40FD1717C60100EC
:104D1000232EF682EDF7854717C701002328F78277
:104D20009307800717570300230EF7AC1DB1635696
:104D300080019307D002E39DFBF297BC0100938CA6
:104D4000EC6F130780029305800235BD9756030070
:104D5000938646AB370610F0850603C7F6FF23207F
:104D6000E6F018407D1797B5010023A1E57E6DF7A9
:104D700001BBBE8DA94C014D45B4B70710F023A06F
:104D8000A7F201A03971130341022ED29A8506CEF3
:104D900032D436D63AD83EDA42DC46DE1AC62D3256
:104DA000F2400145216182805D711303810322D4A9
:104DB0002AC632DC2A841A86680006D6BEC236DECF
:104DC000BAC0C2C4C6C61ACEEFF04FD4B2472380D1
:104DD00007003245B250018D225461618280B707CD
:104DE00010F083A647F403A607F403A747F4E31AD9
:104DF000D7FE9306067D33B6C600B305E60023A4AE
:104E0000D7F423A6B7F48280B70710F003A747F4BE
:104E100003A607F483A647F4E31AD7FE9306067D9C
:104E200033B6C60023A4D7F4B305E60023A6B7F42F
:104E30009307000873A047308280411122C406C640
:104E400097B701009387077117B4010013044470EA
:104E500098431C401306F07C930647069387470649
:104E600097B5010023A8D56E97B5010023A2F56E72
:104E70006346D600B240224441018280130747892D
:104E800097B7010023A8E76CEF0050138547631F15
:104E9000F500184085679387F7760145E3DCE7FC6A
:104EA000E93D2244B24041016FC0BFEE17B5010099
:104EB00013054559C13D0945C9352244B240410158
:104EC0006FC03FED17B501001305455965BD17B516
:104ED0000100130525596FF0FFEA411122C426C2D3
:104EE00006C6856417B401001304445893878438B8
:104EF0000100FD17F5FF2285EFF0DFE8C5BF014592
:104F00006F00F000411106C6EF00500B05478147C6
:104F10006316E500B2403E854101828017B501006D
:104F200013054552EFF01FE6B24089473E85410127
:104F300082807370043001A082807370043001A0FD
:104F400097B70100938707629843DC4359713AD4BD
:104F50003ED697B7010093876761DAC8DEC603AB18
:104F6000070083AB470097B701009387A760D2CCB7
:104F7000D6CA03AA070083AA470097B70100938700
:104F8000E75FCAD0CECE03A9070083A94700E2C4D9
:104F9000E6C2EAC06EDE86D6A2D4A6D2AA8D814C25
:104FA00017BC0100130C0C5E370D00805AC45EC69E
:104FB00052C856CA4ACC4ECE2245B2454246D24687
:104FC0006244F244EF1000532286A686EF20406030
:104FD0002AD02ED2025592552256B256EF20D03CFE
:104FE00001468146EF20004F634905020255925564
:104FF0002256B256EF20503B03260C0083264C006D
:10500000EF20803D3325A00019E5E3910CFA854798
:105010002390FD0061BF854C51BF82571258225624
:105020003E87B3470D01B2563A85BE85E1B7597147
:1050300097B7010093878755DAC803AB0700DEC630
:1050400083AB470097B701009387C754D2CC03AA1C
:1050500007005AC4D6CA83AA470097B701009387AE
:10506000E7535EC6CAD003A9070052C8CECE83A9B3
:10507000470056CA4ACC4ECE2247B2474246D24695
:10508000A2D4A6D26244F2446EDEBE85AA8D3A85D1
:1050900086D6E2C4E6C2EAC0EF1050462286A68653
:1050A000EF2000532AD42ED6814C17BC0100130CDC
:1050B0006C4D370D00805AC45EC652C856CA4ACCE1
:1050C0004ECE2245B2454246D2466244F244EF10EB
:1050D000F0422286A686EF20A04F2AD02ED202557B
:1050E00092552256B256EF20302C01468146EF20D1
:1050F000603E63490502025592552256B256EF2092
:10510000B02A03260C0083264C00EF20E02C332528
:10511000A00019E5E3910CFA85472390FD0061BFDB
:10512000854C51BF8257125822563E87B3470D0116
:10513000B2563A85BE85E1B775712AD613050005CA
:1051400022C526C34AC1CEDED2DCD6DADAD8DED614
:10515000E2D4E6D2EAD0EECE06C7EFE09FD497B70E
:1051600001009387274403AB070083AB470097B741
:1051700001009387A74303AA070083AA470097B7B4
:1051800001009387274303A9070083A9470097B726
:1051900001009387A7428043C44397B701009387D8
:1051A000674203A847009C432A8C42C63EC497B777
:1051B00001009387A74103A847009C43814C42CA42
:1051C0003EC897B701009387E74003A847009C4378
:1051D00042CE3ECC97B701009387474003A84700D3
:1051E0009C4342D23ED097B701009387A73F03ADBF
:1051F000070083AD470002DC02DE82C082C22320AA
:105200000C0023220C006255F25501468146EF1036
:10521000602E2ADC2EDE23246C0123267C016255BD
:10522000F2555A86DE86EF10E02C2ADC2EDE23288B
:105230004C01232A5C016255F2555286D686EF1046
:10524000602B2ADC2EDE232C2C01232E3C01625500
:10525000F2554A86CE86EF10E0292ADC2EDE232086
:105260008C0223229C026255F2552286A686EF10FC
:10527000602822462ADCB2462EDE2324CC022326D6
:10528000DC026255F255EF10E02642462ADCD24697
:105290002EDE2328CC02232ADC026255F255EF10C1
:1052A000602562462ADCF2462EDE232CCC02232E19
:1052B000DC026255F255EF10E02302562ADC9256CA
:1052C0002EDE2320CC042322DC046255F255EF109D
:1052D00060222ADC2EDE2324AC052326BC05625581
:1052E000F2556A86EE86EF10E0202ADC2EDE0325DA
:1052F0000C0083254C0006469646EF10A01FAAC05E
:10530000AEC203258C008325CC0006469646EF10DE
:10531000601EAAC0AEC203250C0183254C010646BF
:105320009646EF10201DAAC0AEC203258C0183252E
:10533000CC0106469646EF10E01BAAC0AEC203257C
:105340000C0283254C0206469646EF10A01AAAC00E
:10535000AEC203258C028325CC0206469646EF108A
:105360006019AAC0AEC203250C0383254C03064670
:105370009646EF102018AAC0AEC203258C038325E1
:10538000CC0306469646EF10E016AAC0AEC203252F
:105390000C0483254C0406469646EF10A015AAC0BF
:1053A000AEC203258C048325CC0406469646EF1036
:1053B0006014AAC0AEC26255F25506469646EF206A
:1053C000A07EAAC4AEC62645B64501468146EF205A
:1053D00060106348050297B701009387A71A264516
:1053E0009043B645D443EF10307F3325A00001E948
:1053F000E3930CE0B25705472390E700EDBB854CE3
:10540000DDBB97B701009387671E26459043B645DD
:10541000D443EF20200C7D81D9BF75712AD61305A6
:10542000000522C526C34AC1CEDED2DCD6DADAD8E0
:10543000DED6E2D4E6D2EAD0EECE06C7EFE07FA613
:1054400097B701009387071B03AB070083AB4700A7
:1054500097B701009387871A03AA070083AA47001A
:1054600097B701009387071A03A9070083A947008C
:1054700097B70100938787198043C44397B701000A
:105480009387471903A847009C432A8C42C23EC019
:1054900097B701009387871803A847009C43814C66
:1054A00042C63EC497B701009387C71703A84700B9
:1054B0009C4342CA3EC897B701009387271703A8A9
:1054C00047009C4342CE3ECC97B701009387871696
:1054D00003A847009C4342D23ED097B70100938770
:1054E000E71503AD070083AD470002DC02DE82C092
:1054F00082C223206C0123227C016255F2555A8618
:10550000DE86EF00307F2ADC2EDE23244C012326AA
:105510005C016255F2555286D686EF00B07D2ADCDA
:105520002EDE23282C01232A3C016255F2554A869F
:10553000CE86EF00307C2ADC2EDE232C8C00232E3E
:105540009C006255F2552286A686EF00B07A02468C
:105550002ADC92462EDE2320CC022322DC02625576
:10556000F255EF00307922462ADCB2462EDE2324A3
:10557000CC022326DC026255F255EF00B07742469A
:105580002ADCD2462EDE2328CC02232ADC026255F6
:10559000F255EF00307662462ADCF2462EDE232CEE
:1055A000CC02232EDC026255F255EF00B074025695
:1055B0002ADC92562EDE2320CC042322DC04625502
:1055C000F255EF0030732ADC2EDE2324AC052326AF
:1055D000BC056255F2556A86EE86EF00B0712ADC92
:1055E0002EDE03250C0083254C0006469646EF0070
:1055F0007070AAC0AEC203258C008325CC0006467D
:105600009646EF00306FAAC0AEC203250C01832579
:105610004C0106469646EF00F06DAAC0AEC20325C7
:105620008C018325CC0106469646EF00B06CAAC0DB
:10563000AEC203250C0283254C0206469646EF00B7
:10564000706BAAC0AEC203258C028325CC0206462D
:105650009646EF00306AAAC0AEC203250C0383252C
:105660004C0306469646EF00F068AAC0AEC203257A
:105670008C038325CC0306469646EF00B067AAC08C
:10568000AEC203250C0483254C0406469646EF0063
:105690007066AAC0AEC203258C048325CC040646DE
:1056A0009646EF003065AAC0AEC26255F255064676
:1056B0009646EF20604FAAC4AEC62645B6450146C1
:1056C0008146EF1030616348050297B70100938768
:1056D00067EB26459043B645D443EF10F04F332592
:1056E000A00001E9E3930CE0B25705472390E700DF
:1056F000EDBB854CDDBB97B70100938727EF2645AF
:105700009043B645D443EF10F05C7D81D9BF411181
:1057100022C42A872A8481480148814797B601001C
:10572000938686E31306004097B50100938545D51F
:10573000170500001305058106C6EFB0BFBA228722
:1057400081480148814797B60100938606E1130618
:10575000004097B50100938525D317050000130578
:10576000458DEFB03FB8228781480148814797B601
:1057700001009386A6DE1306004097B501009385CD
:1057800025D117050000130585C9EFB0BFB52287E5
:105790002244B24081480148814797B60100938670
:1057A00006DC1306004097B501009385E5CE17058A
:1057B00000001305A59841016FB0DFB297B6010054
:1057C00083D686D9054797B701009387E7D8014567
:1057D0006397E60017B70100231007D8054503D7E4
:1057E000270085466380E60203D7470085460145CA
:1057F0006383E60283D76700054701456306F70226
:105800000145828017B70100231907D403D7470049
:105810008546E391E6FE17B70100231107D483D72D
:1058200067000547E31EF7FC97B70100239907D2ED
:1058300082800000B305B500930705006386B700BA
:1058400003C70700631607003385A7406780000081
:10585000938717006FF09FFE9308000063DC05003C
:105860003305A040B337A000B305B040B385F54081
:105870009308F0FF63DA06003306C040B337C00078
:10588000B306D040B386F640130806001383060023
:10589000930705001387050063980624B706028066
:1058A0009386863263F8C50E370E0100637AC60D03
:1058B000130EF00F6374CE0013038000335E660096
:1058C000B386C60103CE0600330E6E00130300023A
:1058D0003303C341630C0300B3956500335EC50118
:1058E000331866003367BE00B3176500935508018F
:1058F0003376B702131508011355050193D6070136
:105900003357B70213160601B366D6003307E50214
:1059100063FAE600B386060163E6060163F4E60077
:10592000B3860601B386E64033F7B60293970701C4
:1059300093D70701B3D6B602B306D50213150701F4
:10594000B367F50063FAD700B387070163E6070181
:1059500063F4D700B3870701B387D74033D5670017
:1059600093050000638C0800B307A0403337F000B4
:10597000B305B04013850700B385E540678000009C
:10598000370E000113030001E36AC6F3130380011D
:105990006FF0DFF263160600130810003358680238
:1059A000370701006372E80A1307F00F63740701F9
:1059B0001303800033576800B386E60003CE060069
:1059C000330E6E00130300023303C3416318030850
:1059D000B3850541935608011315080113550501B8
:1059E00013D6070133F7D502B3D5D5021317070134
:1059F0003367C700B305B502637AB7003307070101
:105A0000636607016374B70033070701B305B74046
:105A100033F7D5029397070193D70701B3D5D50282
:105A2000B305B50213150701B367F50063FAB700B4
:105A3000B387070163E6070163F4B700B387070183
:105A4000B387B7406FF09FF13707000113030001E0
:105A5000E362E8F6130380016FF0DFF533186800A6
:105A6000B3DEC501B3176500335EC50113550801E8
:105A7000B3D6AE02B3956500336EBE009315080130
:105A800093D5050113560E0133F7AE02B386D50246
:105A9000131707013367C700637AD700330707017D
:105AA000636607016374D700330707013306D740E5
:105AB0003377A602131E0E01135E0E013356A602A3
:105AC000131707013386C502B365C70163FAC50022
:105AD000B385050163E6050163F4C500B3850501DF
