:0200000480007A
:10000000B72F0000938F0F8073900F306F00400365
:100010001300000013000000130000001300000094
:100020001300000013000000130000001300000084
:100030001300000013000000130000001300000074
:100040009702000093824211739052309300000097
:10005000130100009301000013020000930200004E
:100060001303000093030000130400009304000036
:10007000130500009305000013060000930600001E
:100080001307000093070000130800009308000006
:100090001309000093090000130A0000930A0000EE
:1000A000130B0000930B0000130C0000930C0000D6
:1000B000130D0000930D0000130E0000930E0000BE
:1000C000130F0000930F000097110200938101E1CC
:1000D000170502001305056F97A503009385458E4C
:1000E00013060000EF00001A170502001305C5579C
:1000F000970502009385055E13060000EF00801847
:1001000017B503001305058C97C503009385458B30
:1001100037B6ABAB1306B6BAEF00C01617C1030073
:100120001301418AEFB080049392120093D212001F
:100130009382D2FF638A02008322010013014100EF
:100140006F0000177300203083220100130141006B
:10015000730020301301C1FF23205100F32220340B
:10016000E3C402FC8322010013014100130141F8A2
:1001700023221100232421002326310023284100BB
:10018000232A5100232C6100232E71002320810299
:10019000232291022324A1022326B1022328C10293
:1001A000232AD102232CE102232EF1022320010570
:1001B0002322110523242105232631052328410567
:1001C000232A5105232C6105232E71052320810745
:1001D000232291072324A1072326B1072328C1073F
:1001E000232AD107232CE107232EF107732520347E
:1001F000F3251034130601006F000000731015344E
:1002000083204100032181008321C10003220101D9
:1002100083224101032381018323C10103240102BD
:1002200083244102032581028325C10203260103A1
:1002300083264103032781038327C1030328010485
:1002400083284104032981048329C104032A010569
:10025000832A4105032B8105832BC105032C01064D
:10026000832C4106032D8106832DC106032E010731
:10027000832E4107032F8107832FC1071301C10775
:10028000730020302320C5006376B50013054500B8
:100290006FF05FFF678000000000000000000000BA
:1002A000000000000000000000000000000000004E
:1002B000130101F8232011002322210023243100FF
:1002C0002326410023285100232A6100232C71009A
:1002D000232E8100232091022322A1022324B10294
:1002E0002326C1022328D102232AE102232CF10272
:1002F000232E010323201105232221052324310568
:100300002326410523285105232A6105232C710545
:10031000232E8105232091072322A1072324B1073F
:100320002326C1072328D107232AE107232CF1071D
:100330009702020083A2823623A02200F322103407
:10034000232E5106EF00C03B1701020003210135A7
:10035000032101008322C10773901234B7220000E9
:100360009382028873A00230832001000322C1001F
:100370008322010103234101832381010324C1015D
:100380008324010203254102832581020326C10241
:100390008326010303274103832781030328C10325
:1003A000832801040329410483298104032AC10409
:1003B000832A0105032B4105832B8105032CC105ED
:1003C000832C0106032D4106832D8106032EC106D1
:1003D000832E0107032F4107832F81071301010893
:1003E00073002030970202009382C23D23A01200C6
:1003F00023A2220023A4320023A6420023A85200F5
:1004000023AA620023AC720023AE820023A09202D2
:1004100023A2A20223A4B20223A6C20223A8D202CC
:1004200023AAE20223ACF20223AE020323A01205A8
:1004300023A2220523A4320523A6420523A85205A0
:1004400023AA620523AC720523AE820523A092077E
:1004500023A2A20723A4B20723A6C20723A8D20778
:1004600023AAE20723ACF207EF60903317010200E2
:100470000321C122032101008322C107739012349A
:10048000B72200009382028873A00230832001000B
:100490000322C1008322010103234101832381013F
:1004A0000324C10183240102032541028325810223
:1004B0000326C10283260103032741038327810307
:1004C0000328C103832801040329410483298104EB
:1004D000032AC104832A0105032B4105832B8105CF
:1004E000032CC105832C0106032D4106832D8106B3
:1004F000032EC106832E0107032F4107832F810797
:100500001301010873002030970202009382822BAE
:1005100083A0020003A1420083A1820003A2C200C3
:1005200083A2020103A3420183A3820103A4C201A7
:1005300083A4020203A5420283A5820203A6C2028B
:1005400083A6020303A7420383A7820303A8C2036F
:1005500083A8020403A9420483A9820403AAC20453
:1005600083AA020503AB420583AB820503ACC20537
:1005700083AC020603AD420683AD820603AEC2061B
:1005800083AE020703AFC20983AF82076780000012
:1005900073700430130101F823201100232221007D
:1005A000232431002326410023285100232A6100FF
:1005B000232C7100232E8100232091022322A102EB
:1005C0002324B1022326C1022328D102232AE102D7
:1005D000232CF102232E01032320110523222105C0
:1005E000232431052326410523285105232A6105AB
:1005F000232C7105232E8105232091072322A10797
:100600002324B1072326C1072328D107232AE10782
:10061000232CF1079702020083A2420823A02200A4
:10062000232E1106EF304034170102000321010789
:10063000032101008322C10773901234B722000006
:100640009382028873A00230832001000322C1003C
:100650008322010103234101832381010324C1017A
:100660008324010203254102832581020326C1025E
:100670008326010303274103832781030328C10342
:10068000832801040329410483298104032AC10426
:10069000832A0105032B4105832B8105032CC1050A
:1006A000832C0106032D4106832D8106032EC106EE
:1006B000832E0107032F4107832F810713010108B0
:1006C00073002030737004306F00000073104530E9
:1006D000678000007325403073F04330678000006E
:1006E00097070000938747FE232EB5FE2322C5FA05
:1006F000232635F82320F5F8130505F86780000058
:10070000130101FF23261100EF60D006EF20C05D2A
:10071000631805008320C1001301010167800000F8
:100720008320C100130101016F300024930785006D
:100730001307F0FF2322F5002324E5002326F5000C
:100740002328F500232005006780000023280500EA
:10075000678000008327450023A2F50003A78700D8
:1007600023A4E50003A787002322B70023A4B70032
:1007700023A8A50083270500938717002320F500F1
:100780006780000003A605009307F0FF13078500AC
:100790006316F6006F008003138707008327470066
:1007A00083A60700E37AD6FE23A2F50023A4B700B0
:1007B00023A4E5002322B70023A8A5008327050072
:1007C000938717002320F5006780000003270501A9
:1007D000832747006FF05FFD0327450083268500D0
:1007E000832705012324D70003278500832645009E
:1007F0002322D70003A747006316A700032785001D
:1008000023A2E7002328050003A507001305F5FF31
:1008100023A0A70067800000032605049387050036
:10082000630406028325C50003274500B385C50080
:100830002326B50063E6E500832505002326B500E1
:10084000138507006F50004F67800000130101FF00
:100850002324810023261100130405002322910084
:10086000EF30D04483278404635AF0048327440282
:1008700063860704930444026F0000028327840404
:100880009387F7FF2324F404832784046358F0023A
:10089000832744026384070213850400EF3000704D
:1008A000E30E05FCEF30D01C832784049387F7FF09
:1008B0002324F40483278404E34CF0FC9307F0FF23
:1008C0002324F404EF30D041EF30503E832744041A
:1008D000635AF00483270401638607049304040128
:1008E0006F000002832744049387F7FF2322F40458
:1008F000832744046358F0028327040163840702BA
:1009000013850400EF308069E30E05FCEF305016CC
:10091000832744049387F7FF2322F40483274404A6
:10092000E34CF0FC9307F0FF2322F404032481003E
:100930008320C10083244100130101016F30503A2C
:10094000630A0508130101FE232C8100130405002E
:10095000232E1100232A910023282101232631016F
:1009600013890500EF309034832404048325C403E5
:100970008329040013850400EFA000601307F0FF33
:10098000232C0402B3079540B387F9003385A900EF
:100990002322E4042322A400232434012326F40088
:1009A0002324E404631C09028327040163920704DF
:1009B000EF3010338320C1010324810183244101DE
:1009C000032901018329C10013051000130101024D
:1009D00067800000737004306F000000130504018D
:1009E000EFF0DFD413054402EFF05FD46FF05FFC4B
:1009F00013050401EF30805A93071000E31AF5FA4B
:100A0000EFF01FB96FF0DFFA631605007370043062
:100A10006F000000130101FE232A91002328210109
:100A200023263101232E1100232C8100930405007D
:100A300013890500930906006380050AEFA0C053DF
:100A400013055505EF50800E13040500630E0508CD
:100A5000930745052320F500232E94022320240527
:100A6000EF30D024832404048325C4030329040025
:100A700013850400EFA040509306F0FF232C0402DE
:100A8000B30795403307A900B307F9002322D40424
:100A90002322E4002326F4002324D40413050401B4
:100AA00023242401EFF09FC813054402EFF01FC870
:100AB000EF30102323083405130504008320C101FF
:100AC0000324810183244101032901018329C100F9
:100AD000130101026780000013054005EF50000577
:100AE0001304050063160500737004306F000000E6
:100AF000232084006FF05FF66316050073700430E6
:100B00006F0000006376B500737004306F00000062
:100B1000130101FF23248100130620001384050024
:100B20009305000023261100EFF01FEE630C050073
:100B3000232C85028320C1000324810013010101BD
:100B400067800000737004306F000000130101FB28
:100B50002326110423248104232291042320210528
:100B6000232E3103232C4103232A5103232861031D
:100B7000232671032326C10063060528638C0526FE
:100B800093072000639CF6000327C503930710001A
:100B90006306F700737004306F00000013890600CD
:100BA0009384050013040500EF308070631A05007C
:100BB0008327C10063860700737004306F00000054
:100BC000EF30D00E032784038327C403130B0000E8
:100BD000930B20009309F0FF130A0401930A4402C7
:100BE0006364F710630479238327C10063820736A7
:100BF00063160B0013058101EF300055EF30500EE6
:100C0000EF208000EF30900A83274404639437017B
:100C100023220404832784046394370123240404D7
:100C2000EF30100C9305C10013058101EF30C05463
:100C300063160530EF309007032784038327C4032E
:100C40006304F710EF30D009EF3050068327840497
:100C50006346F0026F00000313850A00EF30003492
:100C600063040500EF30C060832784049387F7FF97
:100C70002324F404832784046356F000832744026A
:100C8000E39C07FC23243405EF309005EF3010027D
:100C9000832744046346F0026F00000313050A0033
:100CA000EF30C02F63040500EF30805C83274404DD
:100CB0009387F7FF2322F404832744046356F0004C
:100CC00083270401E39C07FC23223405EF30500105
:100CD000EF200027130B1000EF30407D0327840323
:100CE0008327C403E370F7F00326040463040612A9
:100CF000631A091E0325840093850400EF508003C6
:100D0000832784008326040403274400B387D70085
:100D10002324F40063E4E71083278403832604007C
:100D200003274402938717002324D400232CF402C2
:100D30006300071013054402EF30402693071000AC
:100D40006318F50E6F004014EF3080798325C100E1
:100D500013050A00EF209077EF3040758327840455
:100D60006346F0026F00000313850A00EF30002392
:100D700063040500EF30C04F832784049387F7FF97
:100D80002324F404832784046356F0008327440259
:100D9000E39C07FC23243405EF308074EF300071AE
:100DA000832744046346F0026F00000313050A0022
:100DB000EF30C01E63040500EF30804B83274404EE
:100DC0009387F7FF2322F404832744046356F0003B
:100DD00083270401E39C07FC23223405EF30407095
:100DE000EF200016E31805EEEFF08FFA130B10005A
:100DF0006FF09FEE83270504E38407D873700430F7
:100E00006F000000737004306F00000003260404BC
:100E1000631006088327040063860704832784037E
:100E20000327440293871700232CF402E31407F0EE
:100E3000EF30006B130510008320C10403248104EC
:100E400083244104032901048329C103032A810364
:100E5000832A4103032B0103832BC10213010105E4
:100E60006780000003254400EF3040578327840348
:100E7000032744022322040093871700232CF40243
:100E8000E31A07EAE30605FAEFF08FF06FF05FFA76
:100E90000325C40093850400EF40D0698327040430
:100EA0000327C40083260400B307F0403307F7008C
:100EB0002326E400637ED70403274400B307F7002A
:100EC0002326F40013072000832744026304E90467
:100ED0000327840313071700232CE402E38A07F493
:100EE0006FF05FE50325C40093850400EF40906434
:100EF000832704040327C40083260400B307F040BB
:100F00003307F7002326E400E37ED7FA6FF0DFFA19
:100F10008327440203278403E30C07FA032784038F
:100F20001307F7FF232CE40203278403130717009A
:100F3000232CE402E38E07EE6FF0DFDF13050400DD
:100F4000EFF0DF90EF10D07F130500006FF0DFEEC1
:100F5000EF300059130500006FF01FEE130101FF81
:100F600023229100930405001305400523248100EA
:100F700023261100EF40903B13040500630C050489
:100F8000232C05029307F0FF2322F504130710001A
:100F900013050501232EE4022324F4042322040074
:100FA0002320040023240400232604002320040417
:100FB00023089404EFF08FF713054402EFF00FF7C6
:100FC00093060000130600009305000013050400BB
:100FD000EFF0DFB7130504008320C1000324810074
:100FE00083244100130101016780000063040504AC
:100FF000130101FF232481002322910023261100E5
:10100000232021010329450013040500EF30402966
:10101000930400006304A9028320C100032481001B
:1010200013850400032901008324410013010101F9
:1010300067800000737004306F0000008327C400D5
:10104000930410009387F7FF2326F400E39607FC30
:10105000930600001306000093050000130504002A
:10106000EFF0DFAE6FF05FFB6302050A63880508EF
:10107000130101FE232C8100232A91002328210142
:1010800023244101232E1100232631019307200040
:101090009384060013090600138A05001304050053
:1010A000639CF6000327C503930710006302F70A49
:1010B000737004306F000000EFF0CFE1032784036A
:1010C0008327C403930905006366F70493040000B3
:1010D00013850900EFF08FDF8320C1010324810114
:1010E0001385040003290101832441018329C100E0
:1010F000032A810013010102678000008327050491
:10110000E38807F6737004306F00000073700430DA
:101110006F00000003260404631E060C83270400EE
:1011200063860712832784031307F0FF9387170052
:10113000232CF402832784046388E70E8327840426
:1011400093041000938717002324F4046FF05FF8D2
:10115000EFF04FD8032784038327C40393090500C6
:101160006360F70603260404E30A06FA0325C400B5
:1011700093050A00EF40103C832704040327C400B2
:1011800083260400B307F0403307F7002326E4006A
:101190006378D70003274400B307F7002326F40041
:1011A00093072000E390F4F883278403E38C07F689
:1011B000832784039387F7FF232CF4026FF09FF6B5
:1011C00003260404E30C06F40325C40093050A0077
:1011D000EF405036832704040327C400832604000D
:1011E000B307F0403307F7002326E400E364D7FA9F
:1011F0006FF09FFBE39C04F60325840093050A002F
:10120000EF405033832784008326040403274400DF
:10121000B387D7002324F400E3E6E7F08327040034
:101220002324F4006FF01FF083274402930410007E
:10123000E38007EA13054402EF205056E30A05E86D
:10124000E30809E8232099006FF09FE80325440094
:10125000EF30C018232204006FF0DFEC6302050AB0
:101260008327050463860700737004306F00000055
:1012700083270500638A0708130101FE232C8100E0
:10128000232A91001304050023282101232631017C
:10129000232E110013890500EFF0CFC30327840329
:1012A0008327C40393090500930400006376F702C3
:1012B000832784031307F0FF93871700232CF4027E
:1012C00083278404638AE70483278404930410003B
:1012D000938717002324F40413850900EFF00FBF50
:1012E0008320C10103248101138504000329010126
:1012F000832441018329C10013010102678000009A
:10130000737004306F00000083274500E38607F602
:10131000737004306F000000832744026396070057
:10132000930410006FF05FFB13054402EF20104799
:10133000E30805FEE30609FE930710002320F900E9
:101340006FF01FFE130101FC232E1102232C8102DA
:10135000232A910223282103232631032324410336
:10136000232251032326C10063040528638A05262E
:10137000938A06009389050013040500EF2050733B
:10138000631A05008327C100638607007370043069
:101390006F000000EF308011832784036396071CE1
:1013A0008327C1006380071013058101EF20D05906
:1013B0009304F0FF13094402130A0401EF304012B2
:1013C000EF109004EF30800E83274404639497005D
:1013D00023220404832784046394970023240404B1
:1013E000EF3000109305C10013058101EF20D058A4
:1013F000631E0522EF30800B83278403638A070A6C
:10140000EF30000EEF30800A832784046346F00239
:101410006F00000313050900EF2050386304050036
:10142000EF201065832784049387F7FF2324F404B7
:10143000832784046356F00083274402E39C07FC5F
:1014400023249404EF30C009EF304006832744047E
:101450006346F0026F00000313050A00EF2010340A
:1014600063040500EF20D060832744049387F7FFCF
:101470002322F404832744046356F00083270401E5
:10148000E39C07FC23229404EF308005EF10502BDF
:10149000EF30C001832784036398070C8327C100C2
:1014A000E39E07F0EF30C003130500006F00C00F8C
:1014B000EF30000383270400638A07108325C100EF
:1014C00013050900EF209000EF20507E832784044D
:1014D0006346F0026F00000313050900EF20102C93
:1014E00063040500EF20D058832784049387F7FF17
:1014F0002324F404832784046356F00083274402E2
:10150000E39C07FC23249404EF20907DEF20107AC5
:10151000832744046346F0026F00000313050A00AA
:10152000EF20D02763040500EF2090548327440464
:101530009387F7FF2322F404832744046356F000C3
:1015400083270401E39C07FC23229404EF205079B5
:10155000EF10101FE31E05F2EFF08F83EF201075E0
:1015600083278403E38C07F29385090013050400A5
:101570008324C400EFF04FAA63900A0883278403F2
:10158000032704009387F7FF232CF4026316070058
:10159000EF20507C2322A40083270401639E0706CA
:1015A000EF201074130510008320C103032481036E
:1015B00083244103032901038329C102032A8102F1
:1015C000832A41021301010467800000EF20106E9E
:1015D00003254400EF209050EF2090706FF01FEE35
:1015E00083270504E38607D8737004306F0000007A
:1015F000737004306F000000832744022326940098
:10160000E38007FA13054402EF205019E30A05F8B6
:10161000EFE01FF86FF0DFF813050401EF2010185A
:1016200093071000E31EF5F66FF09FFE130504000C
:10163000EFF0CFA1EF10D010130500006FF0DFF630
:1016400063000506130101FF2324810023202101EB
:1016500023261100232291008324450013890500CD
:1016600013040500EF20D0436380A4049306000018
:10167000130609009305000013050400EFF09FCC4A
:1016800093071000630CF5028320C100032481003E
:101690008324410003290100130101016780000038
:1016A000737004306F0000008327C400130510001E
:1016B000938717002326F4006FF01FFD8327C400D3
:1016C000938717002326F4006FF01FFC63080506BC
:1016D0006386050C130101FE232C8100232A91004F
:1016E000232821012326310123244101130405006D
:1016F000232E11001309060093890500EFE09FFDDA
:1017000083278403130A050093040000639C0702E7
:1017100013050A00EFE09FFB8320C1010324810130
:101720001385040003290101832441018329C10099
:10173000032A8100130101026780000073700430E6
:101740006F00000003260404630406028325C4001E
:1017500083274400B385C5002326B40063E6F50063
:10176000832504002326B40013850900EF40805C24
:10177000832784031307F0FF9387F7FF232CF402DA
:10178000832744046384E7028327440493041000FE
:10179000938717002322F4046FF09FF78327050433
:1017A000E38A07F2737004306F000000832704019E
:1017B00063960700930410006FF09FF51305040172
:1017C000EF20C07DE30805FEE30609FE9307100045
:1017D0002320F9006FF01FFE630605088327050428
:1017E000638A050863840708130101FE232C810026
:1017F000232A9100232821012324410113040500F9
:10180000232E110023263101138A0500EFE09FECFF
:10181000832784031309050093040000638E0700E7
:101820008329C40093050A0013050400EFE0DFFEDE
:10183000930410002326340113050900EFE01FE98B
:101840008320C101032481011385040003290101C0
:10185000832441018329C100032A8100130101026D
:1018600067800000737004306F00000073700430F4
:101870006F000000E38C07FE737004306F000000FF
:1018800063160500737004306F000000130101FF40
:10189000232481001304050023261100EF201041AA
:1018A00003248403EF20D0438320C10013050400E8
:1018B0000324810013010101678000006316050005
:1018C000737004306F000000130101FF2326110024
:1018D0002324810013040500EF20503D8327840357
:1018E0000324C4033304F440EF20903F13050400A5
:1018F0008320C100032481001301010167800000DF
:1019000063060500032585036780000073700430BB
:101910006F0000006308050497870300938787061C
:1019200003A747006304E50403A7C7006302E508B3
:1019300003A74701630AE50603A7C7016302E5069B
:1019400003A74702630AE50403A7C7026302E5048D
:1019500003A74703630AE50203A7C7036302E5027F
:101960006F40C034737004306F0000001307000034
:1019700013173700B387E70023A007006F40003339
:10198000130770006FF0DFFE130760006FF05FFE5B
:10199000130750006FF0DFFD130740006FF05FFD8D
:1019A000130730006FF0DFFC130720006FF05FFCBF
:1019B000130710006FF0DFFB0325C50467800000EC
:1019C0002326B504678000000345050567800000F5
:1019D00063080500032585031335150067800000A3
:1019E000737004306F000000630C050083278503CB
:1019F0000325C5033305F540133515006780000046
:101A0000737004306F00000097870300938787F797
:101A100003A707006300070403A787006308070400
:101A200003A707016308070403A7870163080704E6
:101A300003A707026308070403A7870263080704D4
:101A400003A70703630C070403A7870363040704C2
:101A5000678000001307000013173700B387E70003
:101A600023A0B70023A2A70067800000130710007F
:101A70006FF09FFE130720006FF01FFE130730006A
:101A80006FF09FFD130740006FF01FFD130750001C
:101A90006FF09FFC130770006FF01FFC13076000CE
:101AA0006FF09FFB978703009387C7ED03A747005D
:101AB0006300E50403A7C7006306E50403A7470125
:101AC0006306E50403A7C7016306E50403A747020D
:101AD0006306E50403A7C7026306E50403A74703FB
:101AE000630AE50403A7C7036302A7046780000035
:101AF0001307000013173700B387E70023A0070080
:101B000067800000130710006FF0DFFE130720004E
:101B10006FF05FFE130730006FF0DFFD130740002A
:101B20006FF05FFD130750006FF0DFFC13077000CC
:101B30006FF05FFC130760006FF0DFFB130101FF24
:101B40002324810023229100232021011304050076
:101B5000232611009384050013090600EF201015B9
:101B6000032744049307F0FF6314F70023220404BF
:101B7000032784049307F0FF6314F700232404046D
:101B8000EF20101683278403639A070013060900C9
:101B90009385040013054402EF20802FEF201011DD
:101BA00083278404635AF00483274402638607046E
:101BB000930444026F000002832784049387F7FF95
:101BC0002324F404832784046358F0028327440207
:101BD0006384070213850400EF20403CE30E05FCFC
:101BE000EF200069832784049387F7FF2324F404FC
:101BF00083278404E34CF0FC9307F0FF2324F404D0
:101C0000EF20100EEF20900A83274404635AF0045B
:101C10008327040163860704930404016F00000214
:101C2000832744049387F7FF2322F4048327440483
:101C30006358F002832704016384070213850400BC
:101C4000EF20C035E30E05FCEF20806283274404BB
:101C50009387F7FF2322F40483274404E34CF0FC2A
:101C60009307F0FF2322F404032481008320C100A2
:101C70008324410003290100130101016F20500654
:101C800097F70100938787A183A6070017F7010044
:101C90001307879F0327070023A2A600636AE504B2
:101CA000130101FF232481002326110017F70100EF
:101CB0001307879E130405000325070083A507006B
:101CC00093854500EFE01FAC97F701009387079AD3
:101CD00083A707006376F40097F7010023A887988D
:101CE0008320C100032481001301010167800000EB
:101CF00017F701001307079A0325070083A50700BC
:101D0000938545006FE01FA897F701009387079917
:101D100003A7070083A60700832747049387F7FFDD
:101D20002322F70483A746046394070073600430FA
:101D30006780000063020504130101FD232E3101B9
:101D4000232A510123261102938A070023248102AA
:101D50002322910223202103232C41012328610106
:101D600023267101930740009309070063FAE700F7
:101D7000737004306F000000737004306F00000057
:101D8000130B05009384050013090600938B0600CE
:101D9000130A08006302082C13050006EF301059DF
:101DA000130405006302052A13192900232845039B
:101DB000130609009305500A13050A00EF40800935
:101DC00003C70400832704031309C9FF230AE4029D
:101DD00003C70400338927011379C9FF6306070E7F
:101DE00083C71400A30AF40283C71400638E070C90
:101DF00083C72400230BF40283C724006386070CE7
:101E000083C73400A30BF40283C73400638E070A30
:101E100083C74400230CF40283C744006386070A87
:101E200083C75400A30CF40283C75400638E0708D1
:101E300083C76400230DF40283C764006386070828
:101E400083C77400A30DF40283C77400638E070672
:101E500083C78400230EF40283C7840063860706C9
:101E600083C79400A30EF40283C79400638E070413
:101E700083C7A400230FF40283C7A400638607046A
:101E800083C7B400A30FF40283C7B400638E0702B4
:101E900083C7C4002300F40483C7C4006386070219
:101EA00083C7D400A300F40483C7D400638E070063
:101EB00083C7E4002301F40483C7E40063860700BA
:101EC00083C7F400A301F404130A440013050A00B5
:101ED000A30104042326340323283405232A0404FD
:101EE000EFE0DF8613058401EFE05F869307500083
:101EF000B3873741232C040423288400232CF400C7
:101F00002322840223220404232E040413860B00BC
:101F100093050B0013050900EFE08FFC2320A400BC
:101F200063840A0023A08A007370043017E901005B
:101F3000130909758327090097E401009384047647
:101F4000638C070003A7040083A7040083274704CA
:101F5000938717002322F70417E70100130707737D
:101F6000832707009387170097E6010023A0F672E6
:101F700083A70400638E070E83270900639C070074
:101F800083A7040083A7C70263E6F90097E701006F
:101F900023A6877097E701009387876D83A70700C3
:101FA00017E701001307076E0325C4020327070084
:101FB0009387170097E6010023ACF66A2324F40404
:101FC0006376A70097E7010023AEA76A9305400157
:101FD000EF80907A97F70100938787863385A70073
:101FE00093050A00EFE00FF78327090063880700D5
:101FF00083A7040083A7470463900712832709007F
:1020000013041000638A070083A7040083A7C70294
:1020100063F43701EFE0CFD7130504008320C1023A
:102020000324810283244102032901028329C1017F
:10203000032A8101832A4101032B0101832BC10063
:10204000130101036780000013050A00EF301046FA
:102050001304F0FF6FF05FFC13152600EF30102D16
:10206000130A0500E31A05D21304F0FF6FF0DFFA3C
:1020700097E7010023A48762032707009307100056
:10208000E31AF7F017E501001305857BEFE00FEA8F
:1020900017E501001305057CEFE04FE917E50100A6
:1020A0001305857CEFE08FE817E501001305057D3A
:1020B000EFE0CFE717E501001305857DEFE00FE7BF
:1020C00017EB0100130B0B7E13050B00EFE00FE67F
:1020D00097EA0100938A4A7E13850A00EFE00FE534
:1020E00017E501001305857EEFE04FE417E50100D9
:1020F0001305057FEFE08FE317E501001305857FEA
:10210000EFE0CFE297E7010023A8675997E70100C6
:1021100023A257596FF01FE803A7040083A6040009
:10212000832747049387F7FF2322F70483A74604F6
:10213000E39607EC736004306FF05FEC130101FF6E
:102140002324810023261100232291002320210132
:10215000130405007370043097E401009384445223
:1021600083A70400639E07106318040097E701002B
:102170009387C75203A407001309440013050900FD
:10218000EFE08FE58327840263860700130584014F
:10219000EFE08FE49305090017E50100130545748E
:1021A000EFE04FDB97E701009387874E03A7070017
:1021B00097E701009387C74B83A707001307170012
:1021C00097E6010023A6E64C03A7040093871700B7
:1021D00097E6010023AEF648630C070097E701007D
:1021E0009387C74B03A7070003274704631C070E09
:1021F00083A70400638A070697E701009387074ACD
:1022000003A70700630287107370043003A704005C
:102210006318070817E7010013070748832607001C
:1022200083A606006392060A1307F0FF97E60100F3
:1022300023AEE64203A704006308070203A70700D2
:10224000032747046302070203A7070083A60700CA
:10225000832747049387F7FF2322F70483A74604C5
:1022600063940700736004308320C100032481005D
:10227000832441000329010013010101678000004C
:1022800097E701009387874103A7070083A707000B
:1022900083274704938717002322F7046FF0DFECAE
:1022A00083A6070003A7070003A746041307170028
:1022B00023A2E60417E701001307073E8326070061
:1022C00083A60600E38206F6032707000327C7005C
:1022D0000327C7000327470097E6010023A8E63835
:1022E0006FF05FF503A7070083A607008327470465
:1022F0009387F7FF2322F70483A74604E39A07EEA8
:10230000736004306FF0DFEE97E701009387C73505
:1023100083A7070063860700737004306F00000016
:10232000032481008320C10083244100032901008C
:10233000130101016FE0CFA56304050C17E701004D
:102340001307C73583260700930700006386A60A94
:10235000130101FF23261100232481002322910071
:102360007370043097E601009386863183A70600D8
:10237000638C070003260700832707008327460492
:10238000938717002322F60483A706009304050011
:1023900003244501638807008327070083A74704B8
:1023A0006394070697E701009387072F83A7070029
:1023B000638C870697E701009387C72D83A70700E3
:1023C0006384870697E701009387C7526306F40486
:1023D00097E701009387C750630CF402930710003E
:1023E0008320C1000324810083244100138507005A
:1023F000130101016780000013850700678000005A
:10240000737004306F000000EFF01F906FF09FF9C1
:10241000930740006FF0DFFC83A7840293B7170097
:10242000938727006FF0DFFB930720006FF05FFBBF
:102430007370043097E701009387872403A7070090
:10244000631607026304050483A707000325C5027A
:10245000638C070097E701009387472403A70700D1
:1024600003274704631C07026780000017E7010089
:102470001307C722832607000327070003A7460484
:102480001307170023A2E604E31005FC17E7010079
:102490001307C720032507006FF01FFB03A70700E2
:1024A00083A60700832747049387F7FF2322F704B7
:1024B00083A74604E39A07FA73600430678000003C
:1024C000130101FF232481001304050023261100BA
:1024D000EFE04FA06318040097E701009387071C03
:1024E00003A407000324C402EFE04F9E8320C10031
:1024F000130504000324810013010101678000001B
:102500009307400063F6B700737004306F0000005B
:10251000130101FE232C8100232E1100232A910098
:10252000232821012326310123244101130405001E
:102530007370043017E90100130989148327090017
:10254000639207106300041283270405638EF50A63
:1025500017E701001307871463F0B702832607000B
:10256000638E8612032707008324C702B3B4950045
:1025700093C414006F00000183240700B3848440D7
:1025800093B414000327C4026386E70E83278401F3
:102590002328B40463C8070093075000B385B740ED
:1025A000232CB40093172700B387E70003274401C7
:1025B00097E901009389C92893972700B387F90009
:1025C0006310F704130A440013050A00EFE0CFA0DC
:1025D00097E701009387070B0325C40283A7070031
:1025E00063F6A70097E7010023AEA7089305400113
:1025F000EF80901893050A003385A900EFE08F95CE
:1026000063840400EFD0DFF883270900638C0700A0
:1026100097E701009387870883A7070083A74704EC
:10262000639E07048320C1010324810183244101A7
:10263000032901018329C100032A8100130101023A
:102640006780000097E701009387470503A707000D
:1026500083A7070083274704938717002322F704E3
:10266000E31404EE97E701009387470303A40700F0
:102670006FF09FED2326B4026FF05FF10324810118
:102680008320C10183244101032901018329C10061
:10269000032A8100130101026FF00FE79304000089
:1026A0006FF05FEE630A0508130101FE232A910013
:1026B00097E40100938484FE83A70400232E110075
:1026C000232C810023282101232631016388A704BC
:1026D0007370043017E90100130989FA8327090090
:1026E000638C070003A7040083A704008327470423
:1026F000938717002322F7040327450197E701007A
:102700009387471F630EF70283270900638807003A
:1027100083A7040083A74704639E07088320C101A1
:102720000324810183244101032901018329C1007C
:102730001301010267800000737004306F00000015
:102740008327850217E7010013074718E38EE7FA8E
:10275000E39C07FA9309450013040500138509005B
:10276000EFE08F8797E701009387C7F10325C40245
:1027700083A7070063F6A70097E7010023A4A7F04B
:1027800093054001EF80407F97E701009387470B57
:102790003385A70093850900EFD0DFFB83A70400F2
:1027A0000327C40283A7C702E360F7F6EFD05FDE1A
:1027B0006FF09FF5032481018320C101832441012F
:1027C000032901018329C100130101026FF0CFD356
:1027D00063020506130101FE232C8100232A9100C8
:1027E0002326310113040500232E11002328210183
:1027F000EFD05FEE0327440197E701009387870F2F
:102800009309050093040000630AF7021385090089
:10281000EFD0DFEB8320C101032481011385040085
:1028200003290101832441018329C100130101020D
:1028300067800000737004306F00000083278402FB
:1028400017E5010013058508E382A7FCE39007FC68
:1028500097E70100938747E183A707006394070682
:1028600097E70100938787E383A707008324C402C7
:102870001309440083A7C70213050900B3B4F40089
:10288000EFD09FF597E701009387C7DF0325C402C8
:1028900083A7070093C4140063F6A70097E701001D
:1028A00023A2A7DE93054001EF80006D97E70100AA
:1028B000938707F9930509003385A700EFD09FE9B7
:1028C0006FF0DFF493058401EFD0DFE86FF01FF4C1
:1028D000130101FE37150000232E1100232C810067
:1028E000232A910023282101232631012324410199
:1028F00023225101EF308023630605249304050051
:1029000013050006EF30802213040500630005283C
:10291000371600009305500A2328950213850400FA
:10292000EF30405383240403B71700009387C7FF99
:10293000B384F400B7474C45938797449309440008
:10294000232AF40213850900230C0402A3010404C2
:102950002326040223280404232A0404EFD01FDFC3
:1029600013058401EFD09FDE93075000232C04044D
:1029700093F4C4FF23288400232CF4002322840230
:1029800023220404232E04041306000097150000DC
:10299000938585EA13850400EFD09FD42320A400FB
:1029A0007370043017E90100130989CD83270900EA
:1029B00097E40100938484CE638C070003A704008E
:1029C00083A7040083274704938717002322F70473
:1029D00017E70100130787CB8327070093871700AA
:1029E00097E6010023A4F6CA83A704006388070AB8
:1029F00083270900639C070083A7040083A7C702FD
:102A00006396070097E7010023AA87C897E70100AC
:102A1000938707C683A7070097E60100938686C6BB
:102A20000327C40283A606009387170017E6010058
:102A30002320F6C42324F40463F6E60097E701009C
:102A400023A2E7C493172700B387E70093972700D3
:102A500017E501001305C5DE3305F5009385090070
:102A6000EFD05FCF832709006388070083A70400A6
:102A700083A74704639A070E83270900638407002E
:102A800083A70400EF201007930710006304F512DA
:102A9000631A050A737004306F00000097E70100A5
:102AA00023AE87BE0327070093071000E310F7F655
:102AB00017E501001305C5D8EFD05FC717E5010082
:102AC000130545D9EFD09FC617E501001305C5D9F9
:102AD000EFD0DFC517E50100130545DAEFD01FC5BC
:102AE00017E501001305C5DAEFD05FC497EA0100CE
:102AF000938A4ADB13850A00EFD05FC317EA01000F
:102B0000130A8ADB13050A00EFD05FC217E5010044
:102B10001305C5DBEFD09FC117E50100130545DCA8
:102B2000EFD0DFC017E501001305C5DCEFD01FC0F3
:102B300097E7010023A257B797E7010023AC47B5F9
:102B40006FF0DFEC8320C101032481018324410164
:102B5000032901018329C100032A8100832A41003E
:102B6000130101026780000003A7040083A604008C
:102B7000832747049387F7FF2322F70483A746049C
:102B8000E39C07EE736004306FF01FEF03248101B4
:102B90008320C101032901018329C100032A810087
:102BA000832A41001385040083244101130101029B
:102BB0006F30C00F737004309307F0FF17E7010008
:102BC0002326F7AA0324810197E7010023AAA7AAD5
:102BD0008320C10183244101032901018329C1000C
:102BE000032A8100832A410097E7010023AE07A84A
:102BF000130101026FD00FFF7370043097E70100DB
:102C000023A007A86FD05F9017E701001307C7A59F
:102C100083270700938717002320F70067800000B1
:102C20007370043097E70100938787A503A7070017
:102C30006318070217E70100130707A5032507001C
:102C400083A70700638C070097E70100938707A518
:102C500003A70700032747046314070267800000E7
:102C600017E70100130787A3832607000327070040
:102C700003A746041307170023A2E6046FF09FFB87
:102C800003A7070083A60700832747049387F7FF5E
:102C90002322F70483A74604E39207FC7360043001
:102CA00067800000130101FF232611002324810007
:102CB000EFD05FA297E701009387079D03A4070069
:102CC000EFD0DFA08320C10013050400032481009E
:102CD000130101016780000097E701009387079BBC
:102CE00003A5070067800000130101FD23261102E0
:102CF000232481022322910223202103232E310148
:102D0000232C4101232A510123286101232671012B
:102D100097E701009387479583A70700639A070603
:102D200017E70100130747968327070093871700CB
:102D300097E6010023AAF694832A0700638A0A0A09
:102D400097E701009387879283A707009304000009
:102D500063FEFA0A97E90100938989AE17EA010038
:102D6000130ACA9383270A009306100003A7C70219
:102D700093172700B387E70093972700B389F900DB
:102D800083A7090063F4F602930410006F000002A9
:102D900097E701009387878E83A7070093040000BD
:102DA0009387170017E70100232AF78C97E70100A4
:102DB0009387878C83A70700638407009304100020
:102DC0008320C10203248102138504000329010228
:102DD000832441028329C101032A8101832A4101FD
:102DE000032B0101832BC100130101036780000045
:102DF00017E401001304448A8327040083A7070013
:102E00006388070C737004306F00000017E4010042
:102E10001304848897E90100938989A217EA0100C5
:102E2000130ACA8717EB0100130BCB858327040015
:102E300083A70700638007088327040083A7C700D0
:102E400003A9C70083274900930B490013850B0092
:102E500063EAFA06EFD05F98832789021305890198
:102E600063840700EFD05F978327C90203270B0015
:102E700093850B00139527003305F50013152500E6
:102E80003385A9006376F70017D70100232CF77E5E
:102E9000EFD05F8C83270A000327C90283A7C702EC
:102EA000E366F7F8832704009304100083A7070064
:102EB000E39407F89307F0FF17D701002328F77A68
:102EC0006FF05FEA17D701002322F77A6FF09FE9CE
:102ED00017D701001307077C832704000327070087
:102EE00097D6010023AAE67A17D701002324F77AA0
:102EF00097D701009387077883A707009387170068
:102F000017D701002328F7768327040083A707003B
:102F1000639A07009307F0FF17D701002328F7747F
:102F20006FF01FE28327040083A7C70083A7C700B1
:102F300083A7470017D70100232AF7726FF05FE0DD
:102F400097D701009387477203A70700631607000E
:102F5000737004306F000000130101FE232E110076
:102F6000232C8100232A91002328210123263101CB
:102F70002324410123225101232061017370043075
:102F800097D401009384C46F03A704006310071251
:102F900003A707001307F7FF97D6010023A6E66CE7
:102FA00083A70700639E070A97D701009387076EE0
:102FB00083A707006386070A97EA0100938A4A8875
:102FC00017DA0100130A0A6C17D901001309096DF9
:102FD000930910006F00C0013385EA00EFD08FF72E
:102FE000832709000327C40283A7C7026374F70677
:102FF00083A7CA086380070E83A78A0903A4C700B2
:1030000013058401EFD04FFD130B440013050B0093
:10301000EFD08FFC8327C40283260A0093050B00A0
:10302000139527003305F500131525001307050038
:103030003385AA00E3F2F6FA17D701002324F764D8
:10304000EFD04FF1832709000327C40283A7C702EB
:10305000E360F7FA97D7010023A037636FF05FF9B9
:103060001304000083A70400638C070097D70100B6
:103070009387C76283A7070083A747046398070461
:10308000130504008320C10103248101832441012D
:10309000032901018329C100032A8100832A4100F9
:1030A000032B0100130101026780000017D7010004
:1030B0001307C75E832607000327070003A74604FC
:1030C0001307170023A2E6046FF09FECEFE0DFC3C5
:1030D0006FF01FFB17D401001304445A8327040028
:1030E000638C07028327040013091000638607021C
:1030F000EFF09FBF6306050097D7010023AE275767
:10310000832704009387F7FF17D701002328F7567A
:1031100083270400E39E07FC97D701009387C755D8
:1031200003A7070093071000E31CF7F2EFD04FC688
:10313000130410006FF01FF363040502639605008B
:10314000737004306F00000017D701001307C751D8
:1031500083270700638A0700737004306F00000044
:10316000737004306F000000130101FF23248100FD
:1031700023261100832607000327050093861600E7
:1031800017D601002322D64E97D601009386C64F4C
:1031900083A606003304B7002320850063F0E6040D
:1031A0006372E40263F0860297D701009387074FAA
:1031B00003A5070013054500EFD00FE21305040037
:1031C000EFE01FACEFF0DFD7630E05008320C100F6
:1031D000032481001301010167800000E366E4FC21
:1031E0006FF05FFC032481008320C1001301010103
:1031F0006FD00FBA630E050017D701001307C7463B
:103200008327070063880700737004306F00000095
:103210006FD00FB8130101FF232611002324810072
:1032200003270700930705001307170097D601002F
:1032300023ACE64297D601009386464617D7010095
:10324000130787440327070003A506003304F7008C
:1032500013054500EFD04FD813050400EFE05FA23F
:10326000EFF01FCE631A0500032481008320C10004
:10327000130101016FD0CFB18320C100032481006D
:103280001301010167800000130101FF2324810065
:103290002326110097D701009387073D83A70700D6
:1032A000130400009387170017D70100232EF73A65
:1032B00097D701009387873D83A7070063ECF50E3E
:1032C00017DE0100130E4E5D97D2010093828256E5
:1032D0001304000013070000930F10001303500A9B
:1032E0006F00C000130ECEFE6386C21183278EFFCF
:1032F00093050700E38807FE8327CEFF83A74700D7
:10330000232EFEFE6388C72103AFC70083A74700B3
:103310003307E500930E0000232EFEFE6380C709ED
:1033200083A8C70093874803232017012322F700AF
:1033300083A788042326F7012324F70083A7C80264
:103340002328F70083A70805232C0700232AF7006A
:1033500003A8080383470800639A670693070800D9
:103360009387170083C60700B3850741E38A66FE8B
:1033700093D525009395050193D50501231EB7002C
:10338000938E1E0013070702630C1F058327CEFFD1
:1033900083A74700232EFEFEE394C7F983274E0040
:1033A000232EFEFE6FF0DFF7330464006304060093
:1033B00023200600EFF0DFB8130504008320C100CE
:1033C00003248100130101016780000093050000C0
:1033D000231EB700938E1E0013070702E3181FFB7E
:1033E0003304D40113175400130ECEFE93050700C7
:1033F000E39EC2EF97D701009387072A03AE070029
:1034000083270E00639E071097D7010093878728B4
:1034100003AE070083270E006392071C17DE01002E
:10342000130E0E4283270E0A6398072683274E0B3E
:10343000E38E07F683278E0B97DE0100938E0E4CEA
:1034400083A7470017D701002328F74A638CD73D8D
:1034500083AFC70083A747003307B50013030000FD
:1034600097D6010023AAF648130F300093022000DC
:103470009308500A6388D70903A5C700930745033B
:103480002320A7002322F700832785042326E701B2
:103490002324F7008327C5022328F700832785020A
:1034A000638407002326570083270505232C070084
:1034B000232AF7000328050383470800639C17337A
:1034C000930708009387170083C60700B385074159
:1034D000E38A16FF93D525009395050193D5050141
:1034E000231EB7001303130013070702E38EAFEA8E
:1034F00083278E0B83A7470097D6010023AEF63EA5
:10350000E39CD7F783270E0C97D6010023A6F63E3F
:103510006FF09FF683274E00232EFEFE6FF0DFDE56
:1035200083274E00130F8E0083A647002322DE0060
:10353000638CE62DB307E50003A7460083A2C6000F
:10354000930E00002322EE00930F20001303500A75
:103550006300EF088328C7001387480323A01701DF
:1035600023A2E70003A7880423A6F70123A4E7000A
:1035700003A7C80223A8E70003A7080523AC070098
:1035800023AAE70003A8080303470800631A672279
:10359000130708001307170083460700B305074108
:1035A000E38A66FE93D525009395050193D5050121
:1035B000239EB700938E1E0093870702638C12210F
:1035C00083264E0003A746002322EE00E314EFF803
:1035D0000327CE002322EE006FF0DFF783274E0093
:1035E000130F8E0083A747002322FE006388E72184
:1035F00083A2C70083A74700B305B500930E000060
:103600002322FE00930F20001303500A6300FF08DB
:1036100083A8C7009387480323A0150123A2F500C0
:1036200083A7880423A6F50123A4F50083A7C80275
:1036300023A8F50083A7080523AC050023AAF500FD
:1036400003A80803834708006394671493070800DE
:103650009387170083C6070033870741E38A66FE16
:10366000135727001317070113570701239EE5007F
:10367000938E1E00938505026386121383274E00E6
:1036800083A747002322FE00E314FFF88327CE0020
:103690002322FE006FF0DFF783274E0A17DF0100B9
:1036A000130F8F2483A7470017D70100232CF7227D
:1036B0006382E71783A2C70083A74700B305B5005D
:1036C000930E000017D70100232EF720930F400020
:1036D0001303500A6382E70983A8C700938748034E
:1036E00023A0150123A2F50083A7880423A6F501D2
:1036F00023A4F50083A7C80223A8F50083A7080523
:1037000023AC050023AAF50003A80803834708009B
:10371000639C6704930708009387170083C607001C
:1037200033870741E38A66FE135727001317070103
:1037300013570701239EE500938E1E009385050213
:10374000638E120383274E0A83A7470017D7010011
:10375000232AF718E392E7F98327CE0A17D7010047
:103760002322F7186FF05FF713070000239EE50090
:10377000938E1E0093850502E39612FD83274E0B60
:103780003304D40193155400E38207C26FF09FCA3B
:1037900013070000239EE500938E1E00938505020B
:1037A000E39E12ED17DE0100130E8E0983270E0A29
:1037B0003304D40193155400E38A07C66FF0DFED9C
:1037C00093050000239EB700938E1E009387070287
:1037D000E39812DF97D701009387C7EB03AE07008A
:1037E0003304D4019315540083270E00E38807C2E5
:1037F0006FF0DFDE930500006FF09FCE8327CE00D1
:103800002322FE006FF0DFDE8326CE002322DE00BF
:103810006FF05FD28327CE0A17D701002324F70C5D
:103820006FF05FE983270E0C17D701002326F70CF2
:103830006FF01FC2130101FD2322910223202103F7
:10384000232E3101232C4101232A51012328610118
:1038500023267101232611022324810297D9010016
:10386000938989E017D90100130989FD17DA01004E
:10387000130A0AE197DA0100938A4AE297DB010012
:10388000938BCBE097D40100938484E0130B10005A
:103890006F00000283A709000324090A9387170019
:1038A00017D701002322F7DCEFF08FE9631E040035
:1038B00083A70400E39007FE83270900E37AFBFE59
:1038C000EFC01FCD6FF0DFFE7370043083270A0056
:1038D000639E07048327C90A03A4C7001305440095
:1038E000EFC09FEF83A70B009387F7FF17D7010067
:1038F000232EF7D883A704009387F7FF17D701007B
:103900002328F7D883270A006388070083A70A00C3
:1039100083A747046398070203250403EF200039B7
:1039200013050400EF2080386FF09FF803A70A000A
:1039300083A70A0083274704938717002322F704ED
:103940006FF05FF903A70A0083A60A0083274704E4
:103950009387F7FF2322F70483A74604E39E07FA21
:10396000736004306FF05FFB97D701009387C7CF78
:1039700083A70700639E070E130101FF2326110092
:10398000232481002322910097D7010023A607CE8C
:1039900017D70100130787D083270700B7A6A5A56F
:1039A0009386565A83A7070383A50700639ED50015
:1039B00003A64700631AB60083A687006396C60075
:1039C00083A7C700638AD700032507008325070064
:1039D00093854503EF30407617D70100130787CA58
:1039E0008326070017D40100130484E56F0000024A
:1039F0008327070063860708832707009387F7FF5D
:103A000097D6010023A0F6C88326070093972600C7
:103A1000B387D70093972700B307F40083A7070065
:103A2000E38807FC0325070093172500B387A70049
:103A3000939727003307F400832647009387870076
:103A4000B307F40083A4460023229700638EF40298
:103A500083A7C4008320C1000324810017D701007D
:103A6000232EF7C283244100130101016780000067
:103A70009307100017D701002320F7C067800000CC
:103A8000737004306F00000083A44400930540016C
:103A9000EF70804E3305A400232295006FF05FFB8A
:103AA000130101FE23282101232E1100232C810064
:103AB000232A910023263101130905007370043075
:103AC00097D401009384C4BB83A7040017D40100DA
:103AD0001304C4BC639C070C63140900032904008D
:103AE0009309490013850900EFC01FCF832789027E
:103AF0006386070013058901EFC01FCE9385090077
:103B000017D50100130505DFEFC0DFC483A704004C
:103B1000638807008327040083A747046394070A88
:103B2000832704006384270D83A7040063820706AC
:103B30007370043083A704006398070E97D70100C1
:103B4000938787B503A70700032707006310070CB7
:103B50009307F0FF17D70100232AF7B083A70400CB
:103B6000638807028327040083A747046382070250
:103B70000327040083260400832747049387F7FF65
:103B80002322F70483A7460463940700736004307C
:103B90008320C10103248101832441010329010100
:103BA0008329C1001301010267800000032704007C
:103BB0008327040083274704938717002322F704F1
:103BC0006FF09FF103270400832604008327470436
:103BD0009387F7FF2322F70483A74604E39207F4B1
:103BE0007360043083270400E39027F583A7040063
:103BF0006382070697D70100938707A783A707006B
:103C00006388070A737004306F00000083A7070001
:103C100083A7C70083A7C70083A7470017D7010062
:103C20002326F7A46FF09FF30327040083270400E3
:103C300083274704938717002322F70497D70100AF
:103C4000938787A503A7070003270700E30207F070
:103C50006FF0DFFB97D70100938747A317D70100C9
:103C6000130707BE83A707000327470B6314F70258
:103C70008320C1010324810197D7010023A007A25B
:103C800083244101032901018329C1001301010299
:103C900067800000032481018320C1018324410146
:103CA000032901018329C100130101026FF0DFCB59
:103CB000032481018320C1018324410103290101DF
:103CC0008329C100130101026FC09F8C6306050A9E
:103CD000130101FF2322910097D401009384049CD7
:103CE000232021011389050083A504002326110048
:103CF0002324810093858501EFC0DFA803A504007C
:103D000013054500EFC05FAD9307F0FF630AF906A6
:103D100097D701009387479703A4070003A70400E0
:103D200083A707003304240123228700636EF4066F
:103D300097D701009387479603A5070083A5040042
:103D400093854500EFC01FA497D701009387079282
:103D500083A707006376F40097D7010023A8879014
:103D60008320C10003248100832441000329010032
:103D70001301010167800000737004306F000000C0
:103D800083A50400032481008320C1008324410013
:103D90000329010017D501001305C5B5938545001A
:103DA000130101016FC01F9B97D701009387878E76
:103DB00003A507000324810083A504008320C1001C
:103DC000832441000329010093854500130101016B
:103DD0006FC05F9B630E050097D701009387C7886C
:103DE00083A70700639A0700737004306F00000018
:103DF000737004306F000000130101FF2322910053
:103E000097D401009384848903A704009387050055
:103E100083A50400B7060080B3E7D700232611006E
:103E200023248100232CF7009385850113040600C9
:103E3000EFC05F9203A5040013054500EFC0DF99B2
:103E40009307F0FF6304F40297D701009387C783B9
:103E500003A507008320C1008324410033058500AA
:103E600003248100130101016FD09FE183A50400A9
:103E7000032481008320C1008324410017D5010061
:103E8000130545A793854500130101016FC09F8C61
:103E90006308050A130101FF2322910097C4010062
:103EA0009384C47F232021011389050083A5040086
:103EB0002326110023248100938585011304060025
:103EC000EFC05F8903A5040013054500EFC0DF9034
:103ED00093071000630AF40697C701009387C77A17
:103EE00003A4070003A7040083A7070033042401E9
:103EF00023228700636EF40697C701009387C77972
:103F000003A5070083A5040093854500EFC09F87A4
:103F100097C701009387877583A707006376F4002E
:103F200097C7010023A487748320C1000324810064
:103F3000832441000329010013010101678000006F
:103F4000737004306F00000083A504000324810017
:103F50008320C100832441000329010017D50100FB
:103F60001305459993854500130101016FC08FFE2C
:103F700097C701009387077203A5070003248100F8
:103F800083A504008320C10083244100032901008C
:103F900093854500130101016FC0CFFE130101FF9E
:103FA0002326110023248100232291008327C500AA
:103FB00003A4C7006304040A930484011385040066
:103FC000EFC09F8197C701009387076A83A7070007
:103FD000639A07089304440013850400EFC0CFFFE1
:103FE00097C701009387076A0327C40283A70700C6
:103FF00063F6E70097C7010023A6E7689317270039
:10400000B387E7009397270017D501001305458371
:10401000938504003305F500EFC0CFF397C7010087
:104020009387C76783A707000327C402130500000F
:1040300083A7C70263FAE7009307100017C70100C0
:10404000232CF762130510008320C1000324810094
:104050008324410013010101678000007370043064
:104060006F0000009385040017D501001305058635
:10407000EFC04FEE6FF09FFA97C701009387C75EBE
:1040800083A7070063960700737004306F00000079
:10409000130101FF23261100232481002322910014
:1040A000B70700800324C500B3E7F5002320F5001F
:1040B00063080408EFC04FF2930444001385040022
:1040C000EFC08FF197C701009387C75B0327C40236
:1040D00083A7070063F6E70097C7010023A4E75A08
:1040E00093172700B387E7009397270017C50100B0
:1040F000130505753305F50093850400EFC08FE5C2
:1041000097C701009387875983A707000327C40235
:104110001305000083A7C70263FAE70093071000A6
:1041200017C70100232AF754130510008320C1008C
:1041300003248100832441001301010167800000F2
:10414000737004306F0000006304050297C701001C
:104150009387475203A7070097C701009387C75269
:1041600083A707002320E5002322F50067800000D5
:10417000737004306F0000006304050E638E050C3D
:10418000130101FF232611002324810013070500DA
:104190007370043097C801009388884E83A7080085
:1041A0006380070297C701009387474F83A60700E4
:1041B00083A7070083A746049387170023A2F6046A
:1041C00017C301001303434C83A705000326030014
:1041D0009306F0FF130400006388D70417CE010094
:1041E000130E4E4903250E000328070083264700BF
:1041F0006306A800130410006378D6023308D64083
:10420000130410006372F80203250E00B387C74041
:1042100003260300B387D70023A0F5002320A700BF
:104220002322C7001304000083A70800638C070043
:1042300097C701009387874683A7070083A7470492
:1042400063940702130504008320C1000324810046
:104250001301010167800000737004306F000000DB
:10426000737004306F000000EFD01FAA6FF09FFD45
:104270009307100017C701002320F7406780000054
:10428000630605000325C5046780000013050000D0
:1042900067800000630405002326B50467800000E2
:1042A00097C701009387873F03A507006780000039
:1042B00097C701009387C73C83A707001305100029
:1042C000638C070097C701009387073A03A507008F
:1042D000133515001315150067800000630C0508E1
:1042E000130101FE232A910097C401009384043B2B
:1042F00083A70400232E1100232C810023282101F1
:10430000232631010327C50283A7C7026376F7047A
:104310008327850163CC070083A7040083A6C70217
:1043200093075000B387D740232CF500931727003D
:10433000B387E7000327450117C901001309495056
:1043400093972700B307F9006308F70283A70400D7
:1043500083A7C7022326F5028320C101032481011C
:1043600083244101032901018329C10013010102B2
:104370006780000067800000930945001304050072
:1043800013850900EFC04FC583A7040017C70100BC
:104390001307472F0327070083A7C7022326F4022A
:1043A0006376F70017C70100232EF72C139527001B
:1043B0003305F50003248101131525008320C10175
:1043C00083244101938509003305A9008329C10095
:1043D00003290101130101026FC0CFB76306050273
:1043E000130101FF232611002324810023229100C1
:1043F00097C701009387872A03A40700630AA400D4
:10440000737004306F000000130500006780000027
:104410008327440563960700737004306F00000023
:104420008326C402032704059387F7FF232AF40495
:104430006384E600638E0700130500008320C1003B
:1044400003248100832441001301010167800000DF
:104450009304440013850400EFC00FB8032504053E
:1044600097C701009387072203A70700930750000F
:10447000B387A7402326A402232CF4006376A70069
:1044800097C7010023A0A72093054001EF60D02E1D
:1044900097C701009387C73A3385A7009385040027
:1044A000EFC04FAB130510006FF05FF9737004306D
:1044B00097C701009387C71C83A707006380070283
:1044C00097C701009387871D03A7070083A70700ED
:1044D00083274704938717002322F704678000008F
:1044E00097C701009387C71983A70700638C07024A
:1044F00097C701009387871A03A70700032747047C
:104500006302070203A7070083A607008327470467
:104510009387F7FF2322F70483A7460463940700D9
:10452000736004306780000097C701009387071706
:1045300003A6070083A6070003A707009307500000
:1045400083A6C60203258601B387D740232CF70034
:104550006780000097C701009387471403A70700EF
:10456000630A070083A6070003A746051307170081
:1045700023AAE60403A5070067800000130101FDDC
:1045800023202103232611022324810223229102C6
:10459000232E3101130905007370043097C4010004
:1045A0009384040E83A7040017C401001304040FAE
:1045B000639E070A8327040083A78705639A070081
:1045C000832704001307100023AEE704639A050E47
:1045D00083A70400638807008327040083A7470498
:1045E000639A07147370043083A70400639407066A
:1045F0008327040003A587056308050063020904F7
:104600008327040023AC07048327040023AE070498
:1046100083A70400638807008327040083A7470457
:10462000639207068320C10203248102832441028E
:10463000032901028329C1011301010367800000DE
:1046400003270400832787059387F7FF232CF704AC
:104650006FF09FFB03270400832704008327470490
:10466000938717002322F7046FF09FF803270400B5
:104670008327040083274704938717002322F70426
:104680006FF05FF3032704008326040083274704A9
:104690009387F7FF2322F70483A74604E39407F8E0
:1046A000736004308320C102032481028324410209
:1046B000032901028329C10113010103678000005E
:1046C000032504002326B10013054500EFC0CF9059
:1046D0008325C1009307F0FF6380F50897C70100A9
:1046E000938787FA83A907000327040083A707009D
:1046F000B389B9002322370163ECF90697C701009B
:10470000938787F903A50700832504009385450057
:10471000EFC04F8797C70100938747F583A707002E
:1047200063F6F90097C7010023A237F5EFB05FE603
:104730006FF01FEA03270400832604008327470441
:104740009387F7FF2322F70483A74604E39C07E837
:10475000736004306FF01FE98325040017C5010062
:104760001305451993854500EFB0DFFE6FF01FFC80
:1047700097C70100938707F203A50700832504006C
:1047800093854500EFC00F806FF05FFA130101FDC4
:1047900023202103232E3101232611022324810209
:1047A00023229102232C410113890500930906005D
:1047B0007370043097C40100938484EC83A70400D1
:1047C00017C40100130484ED639C0714032704003D
:1047D000930720000327C7056304F702832704001B
:1047E0001345F5FF03A787053375E50023ACA70440
:1047F000832704001307100023AEE704639A060A18
:1048000083A70400638807008327040083A7470465
:10481000639407167370043083A70400639E070631
:10482000638809008327040083A7870523A0F90074
:104830000327040093071000130500000327C70592
:10484000630EF700832704001349F9FF13051000D6
:1048500003A787053379E90023AC270583270400E4
:1048600023AE070483A7040063880700832704009E
:1048700083A747046392070C8320C10203248102AB
:1048800083244102032901028329C101032A8101F2
:10489000130101036780000003270400832704003D
:1048A00083274704938717002322F7046FF05FF7ED
:1048B000032504002326D10013054500EFB0DFF1E6
:1048C0008326C1009307F0FF638AF60C97C70100A7
:1048D000938787DB03AA07000327040083A7070049
:1048E000330ADA00232247016368FA0C97C70100F4
:1048F000938787DA03A50700832504009385450085
:10490000EFB05FE897C70100938747D683A70700FA
:104910006370FA0A97C7010023AA47D56F004009C0
:104920000327040083270400832747049387170085
:104930002322F7046FF09FE9032704008326040075
:10494000832747049387F7FF2322F70483A74604AE
:10495000E39407F2736004308320C10203248102D0
:1049600083244102032901028329C101032A810111
:10497000130101036780000003270400832604005D
:10498000832747049387F7FF2322F70483A746046E
:10499000E39207E8736004306FF0DFE783250400DB
:1049A00017C50100130505F593854500EFB09FDAA3
:1049B000EFB01FBE6FF0DFE497C70100938787CD8C
:1049C00003A507008325040093854500EFB09FDB16
:1049D0006FF01FFE630A050C130101FF232611006F
:1049E00023248100232291002320210173700430AD
:1049F00097C401009384C4C883A704006396070882
:104A0000638606008327850523A0F600930706002A
:104A1000930620000326C505232ED5041387050021
:104A2000130405006382D70A63F4F6089305300087
:104A30006388B700930540006396B700630CD610F7
:104A4000232CE40493071000630CF60813041000F1
:104A500083A70400638C070097C70100938707C4EE
:104A600083A7070083A7470463980706130504007C
:104A70008320C10003248100832441000329010015
:104A8000130101016780000097C70100938707C1E8
:104A900003A7070083A7070083274704938717000E
:104AA0002322F7046FF0DFF5737004306F0000000D
:104AB00093061000E398D7F88327850533E7B700FE
:104AC000232CE5046FF01FF88327850593871700D3
:104AD000232CF5046FF01FF7EFD00FA36FF01FF931
:104AE0001309440013050900EFB01FCF97C7010059
:104AF000938747B90325C40283A7070063F6A7007D
:104B000097C7010023A0A7B893054001EF60C046F6
:104B100097C701009387C7D23385A7009305090083
:104B2000EFB05FC38327840263860700737004308D
:104B30006F00000097C70100938747B683A707005F
:104B40000327C40283A7C702E3F2E7F0EFB05FA434
:104B50006FF0DFEF130400006FF09FEF63080508AC
:104B6000130101FE232C8100232A91002328210117
:104B7000232631012324410123225101232E110038
:104B800093090700138A06009304060013890500A1
:104B900013040500EFB01FB4930A050063060A0072
:104BA000832784052320FA000327C40593072000E8
:104BB000232EF4046380F40463FA97109306300004
:104BC0006388D400930640006396D400630CF70E0C
:104BD000232C2405930710006312F70A832784020D
:104BE00063820702737004306F000000737004303A
:104BF0006F0000008327840593871700232CF4049B
:104C00006FF05FFD97C70100938707A683A7070092
:104C10006390070A9304440013850400EFB0DFBBE0
:104C200097C70100938707A60325C40283A707003F
:104C300063F6A70097C7010023A6A7A49305400128
:104C4000EF60803397C70100938787BF9385040087
:104C50003385A700EFB01FB097C70100938707A463
:104C600083A707000327C40283A7C70263F8E700EE
:104C7000638609009307100023A0F90013041000B5
:104C800013850A00EFB09FA4130504008320C1011F
:104C90000324810183244101032901018329C100E7
:104CA000032A8100832A410013010102678000006A
:104CB0009305840117C50100130545C1EFB09FA9F5
:104CC0006FF09FF9130400006FF09FFB9307100033
:104CD000E392F4F08327840533E92701232C24058C
:104CE0006FF05FEF630A050E130101FE232C8100B4
:104CF000232A91001304050023263101232E1100DD
:104D00002328210193840500EFB0DF9C9307200046
:104D10008326C405232EF40483278405130710007B
:104D20009309050093871700232CF4046396E60883
:104D30008327840263860700737004306F000000CD
:104D400097C701009387479283A70700639A0708D4
:104D50001309440013050900EFB01FA897C701000D
:104D6000938747920325C40283A7070063F6A70031
:104D700097C7010023A8A79093054001EF60C01FCB
:104D800097C701009387C7AB930509003385A70038
:104D9000EFB05F9C97C701009387479083A70700F8
:104DA0000327C40283A7C70263F8E70063860400F1
:104DB0009307100023A0F400032481018320C10184
:104DC0008324410103290101138509008329C100BE
:104DD000130101026FB09F8F737004306F000000E9
:104DE0009305840117C50100130545AEEFB09F96EA
:104DF0006FF05FFA930705006308050673700430CF
:104E000017C701001307C78783260700639E0602A2
:104E100003A6C70593062000130500006316D600FD
:104E200023AE07041305100083270700638C0700D7
:104E300097C701009387878603A7070003274704C6
:104E4000631C07026780000097C6010093860685F1
:104E500003A6060083A60600832646049386160052
:104E60002322D6046FF0DFFA97C7010093870783E8
:104E700083A707006FF09FF803A7070083A607002A
:104E8000832747049387F7FF2322F70483A7460469
:104E9000E39A07FA7360043067800000130101FB96
:104EA0002322910423202105232C4103232A51038B
:104EB000232861032326710323261104232481045C
:104EC000232E310323248103232291032320A103D2
:104ED00017B901001309897D17BB0100130B4B7C27
:104EE00097B401009384047C97BA0100938ACA7B2B
:104EF000130A1000930B90008327090003A70700F3
:104F00006306071683A7C70083A90700EFD0DFCF8A
:104F1000EFD01FD183270B00130C05006368F50C3D
:104F200097B7010023AEA7761306000063763523FA
:104F300003A50400B3858941EFC05FC0EFE04F8057
:104F40006306051603A5040093060000130600007F
:104F500093058100EFC00FBFE30005FA83278100AE
:104F6000E3C207FE8329010183A749016386070085
:104F700013854900EFB05F86EFD09FCA83270B00EF
:104F8000130C05006362F50C8327810017B701003D
:104F900023288771E3E8FBFAB317FA0013F7072118
:104FA0006310072013F7770C6316072A93F707029D
:104FB000E38A07F813850900EF00504F6FF09FF860
:104FC00083A7C70003A4C70083AC0700930944006C
:104FD00013850900EFB05F808327440213050400A6
:104FE000E78007008327C4016386470D83270900F4
:104FF00003A70700E31607FC03A70A0097B6010002
:1050000023A0866B97B6010023A0F66A97B701002C
:1050100023AEE768EFD0DFF26FF0DFF283A7C700BF
:1050200003A4C70003AD0700930C440013850C00D4
:10503000EFB08FFA8327440213050400E7800700CE
:105040008327C401638C470B8327090003A707004C
:10505000E31607FC03A70A0097B6010023A6F6642F
:1050600097B7010023A4E7646FF01FF2EFD0DFB918
:10507000EFD01FBB83270B00130C0500E368F5F688
:1050800083A70A0003A504009309000003A60700F4
:10509000B385894117B701002324876113361600B1
:1050A000EFC0DFA9EFD0DFE9E31E05E8EFB04FCE98
:1050B0006FF05FE98327840193850900B387FC00C3
:1050C00063E2FC0883A7040063860702232A010029
:1050D000232C9101232E8100EFF08F9D03A5040066
:1050E000930600001306000093054101EFB01FA6D0
:1050F000E31E05EE737004306F0000008327840107
:1051000093850C00B307FD006362FD0883A70400CC
:1051100063860702232A0100232CA101232E81008C
:10512000EFF00F9903A5040093060000130600009A
:1051300093054101EFB09FA1E31805F073700430AF
:105140006F000000032509002322F40023288400B7
:10515000EFB04FE36FF09FE9EFD09FDE83270900A8
:1051600083A7C70003A4C700930C440013850C0059
:10517000EFB08FE68327C401638A47058327440283
:1051800013050400E78007006FF0DFDB032509004B
:105190002322F40023288400EFB0CFDE6FF0DFEA93
:1051A0008327C10023ACF9006382070AB387870114
:1051B00023A2F90023A83901938549006362FC0802
:1051C00003A50A00EFB00FDC6FF0DFD7832784015F
:1051D000232884003387F9002322E400636AEC0467
:1051E000330C3C41636EFC0283A704006386070214
:1051F000232A0100232C3101232E8100EFF04F8B55
:1052000003A5040093060000130600009305410166
:10521000EFB0DF93E31405F6737004306F00000005
:1052200003A50A0093850C00EFB0CFD56FF01FF5F2
:105230000325090093850C00EFB0CFD46FF01FF465
:1052400003250900EFB00FD46FF0DFCF7370043087
:105250006F0000008327C10083A6890123A83901BC
:105260003387D70023A2E9006362EC06B307FC4052
:1052700063EAD70683A7490213850900E780070080
:1052800083A7C901E39047CD83A689018327C10085
:1052900003A70400B387D70063060702232A01008F
:1052A000232CF100232E3101EFF08F8003A50400A1
:1052B000930600001306000093054101EFB01F891B
:1052C000E31205C8737004306F0000006374FC00C3
:1052D000E372F7FA0325090093854900EFB08FCAFE
:1052E0006FF05FC603A50A0093854900EFB08FC930
:1052F0006FF05FC5130101FF2324810023261100F5
:10530000232291002320210117B4010013048439C2
:10531000EFF0CF998327040063840704EFF04F9CDC
:1053200083270400638A0702930800001308000023
:1053300093070000130720009306000013060040A7
:1053400097B501009385050F17050000130545B5B6
:10535000EFC05F9E63140506737004306F00000099
:1053600017B901001309495A13050900EFB00FBC22
:1053700097B401009384845A13850400EFB00FBBE7
:10538000130600009305C0001305400097B7010005
:1053900023AE273197B7010023A89730EFB0CFE6AF
:1053A00017B701002320A7306306050297B5010057
:1053B0009385C507EFC04FE56FF05FF68320C1000E
:1053C000032481008324410003290100130101010A
:1053D00067800000737004306F000000638A050A64
:1053E000130101FD232A5101930A05001305C00290
:1053F000232481022322910223202103232E310121
:10540000232C410123261102232861012326710147
:105410001309070093890600130A06009384050008
:10542000EF00C07013040500630C0502EFF00F8855
:1054300097B701009387072783A70700638E0704A8
:10544000EFF00F8A1305440023205401232C94000D
:10545000232E44012320340323222403EFB00FAF73
:10546000130504008320C102032481028324410226
:10547000032901028329C101032A8101832A4101F1
:10548000032B0101832BC10013010103678000007E
:10549000737004306F00000097BB0100938BCB4604
:1054A00013850B00EFB08FA817BB0100130B0B4740
:1054B00013050B00EFB08FA7130600009305C00083
:1054C0001305400097B7010023A2771F97B701008B
:1054D00023AC671DEFB04FD317B701002324A71CDF
:1054E000630A050097B50100938545F4EFC0CFD15D
:1054F0006FF01FF5737004306F000000630E050637
:10550000130101FE232C8100232E1100232A910078
:1055100017B40100130404198328040013080500BC
:105520001305000063800804930407002322B100E0
:10553000138706002324C10023260101930650008F
:1055400063C0B604EFE0DFD693072000630EF504D6
:105550000325040093060000130600009305410094
:10556000EFB0CFDE8320C1010324810183244101F8
:105570001301010267800000737004306F000000A7
:1055800093054100930600001306070013850800E9
:10559000EFB09FAD8320C101032481018324410129
:1055A0001301010267800000032504009306000038
:1055B0001386040093054100EFB04FD96FF09FFAB6
:1055C0006306050003250500678000007370043042
:1055D0006F00000063160500737004306F00000058
:1055E000130101FF23261100232481001304050069
:1055F000EFE0DFEB032544013334A000EFE05FEE82
:10560000130504008320C10003248100130101015C
:105610006780000063160500737004306F0000009F
:10562000130101FF23248100130405002326110028
:10563000EFE0DFE703240402EFE09FEA8320C100EC
:105640001305040003248100130101016780000099
:1056500063160500737004306F000000130101FF32
:105660002324810023229100138405009304050064
:1056700023261100EFE09FE323A08402032481008E
:105680008320C10083244100130101016FE05FE525
:10569000130101FF1305C0012324810023261100FB
:1056A000EF00C0481304050063080500232005002F
:1056B00013054500EFB08F87130504008320C10058
:1056C00003248100130101016780000063020502C9
:1056D000B70700FFB3F7F500638607007370043067
:1056E0006F000000639A0500737004306F000000C3
:1056F000737004306F000000130101FE232C810041
:105700002328210123263101232441012322510191
:10571000232E1100232A9100930907001389060004
:10572000930A060013840500130A0500EFE05FB832
:105730006318050063860900737004306F00000071
:10574000EFD08FCC83240A00B3779400631209044E
:105750006382070463880A009347F4FFB3F7970056
:105760002320FA00EFD0CFFD8320C1010324810163
:105770001385040003290101832441018329C10009
:10578000032A8100832A410013010102678000007F
:10579000E302F4FCE38809FCB335500193958501DD
:1057A00063060900B7070004B3E5F5001386090096
:1057B000B3E5850013054A00EFE0CFE1EFD04FF8E5
:1057C00063140500EFA0DFDCEFE01FD69317650040
:1057D0009309050063DA0700B70400019384F4FF1E
:1057E000B3F499006FF05FF8EFE05FCC83290A0013
:1057F000B377340163100902638A070063880A00E3
:105800009347F4FFB3F737012320FA00EFE05FCDB1
:105810006FF09FFCE31CF4FE6FF05FFE630C05006D
:10582000B70700FFB3F7F500638A07007370043011
:105830006F000000737004306F000000130101FF5F
:105840002324810013040500232611002322910044
:105850002320210113890500EFE05FC583240400A4
:105860009345F9FFB3F795002320F400EFE05FC7FD
:105870008320C10003248100138504000329010053
:10588000832441001301010167800000130101FF1F
:10589000232481001304050023261100EFA09FE3B9
:1058A00003240400EFA09FE28320C100130504003D
:1058B000032481001301010167800000630C0500CF
:1058C000370700FFB3F7E500638A07007370043001
:1058D0006F000000737004306F0000006F50007C98
:1058E000B70700FFB377F6006386070073700430D4
:1058F0006F00000063160600737004306F00000034
:10590000130101FE232C81002328210123263101CC
:1059100023244101232E1100232A9100138906001C
:1059200093890500130A050013040600EFE05F9851
:10593000631E050463060900737004306F000000E5
:10594000EFD08FAC83240A009385090013050A0069
:10595000B3E49900EFF09FF6B3779400630AF4087C
:1059600083240A00EFD0CFDD8320C101032481010D
:105970001385040003290101832441018329C10007
:10598000032A81001301010267800000EFD0CFA736
:1059900083240A009385090013050A00B3E4340147
:1059A000EFF0DFF1B3F7840063848704E30A09FAB8
:1059B000B705000513060900B365B40013054A00D6
:1059C000EFE04FC1EFD0CFD763140500EFA05FBC6D
:1059D000EFE09FB5931765009304050063D40702B9
:1059E000B70700019387F7FFB3F4F4006FF0DFF718
:1059F00083270A001344F4FFB3F787002320FA003B
:105A00006FF05FF6EFE09FAA83240A00B37794005B
:105A1000639887009347F4FFB3F797002320FA00B9
:105A2000EFE01FAC6FF0DFFB130101FF23248100C7
:105A3000232611001304050023229100EFD0CF9CF0
:105A40008327440063860702032504019304C400EE
:105A5000631895006F008003032504016308950215
:105A6000B7050002EFE04FE183274400E39607FE0D
:105A700013050400EF008023032481008320C1006C
:105A800083244100130101016FD08FCB7370043068
:105A90006F000000630C0500370700FFB3F7E50057
:105AA000638A0700737004306F0000007370043065
:105AB0006F0000006F50805E630C0500B70700FFA9
:105AC000B3F7F500638A0700737004306F000000BD
:105AD000737004306F000000130101FF2324810064
