:0200000480007A
:10000000B72F0000938F0F8073900F3015A8130047
:100010000000130000001300000013000000130094
:100020000000130000001300000013000000130084
:100030000000130000001300000013000000010086
:10004000970200009382020C73905230814001416C
:100050008141014281420143814301448144014580
:100060008145014681460147814701488148014950
:100070008149014A814A014B814B014C814C014D20
:10008000814D014E814E014F814F971102009381A6
:10009000E1E1170502001305E56297A503009385CA
:1000A000A58301461122170502001305E5539705A4
:1000B00002009385655F0146C52817B50300130547
:1000C000E58197C503009385258137B6ABAB130651
:1000D000B6BAD92817C1030013014180EF60B048B8
:1000E000860293D21200F512638802008242110147
:1000F0006F00001073002030824211017300203025
:10010000711116C0F3222034E3CC02FC82421101AB
:10011000130141F806C20AC40EC612C816CA1ACC88
:100120001ECE22D026D22AD42ED632D836DA3ADCC7
:100130003EDEC2C0C6C2CAC4CEC6D2C8D6CADACC97
:10014000DECEE2D0E6D2EAD4EED6F2D8F6DAFADCA7
:10015000FEDE73252034F32510340A8601A07310C7
:10016000153492402241B2414242D2426243F243AC
:10017000025492542255B2554256D2566257F25703
:10018000064896482649B649464AD64A664BF64B33
:10019000065C965C265DB65D465ED65E665FF65F83
:1001A0001301C1077300203010C16374B50011053D
:1001B000E5BF828000000000000000000000000099
:1001C000000000000000000000000000000000002F
:1001D000000000000000000000000000000000001F
:1001E000000000000000000000000000000000000F
:1001F000197106C00AC20EC412C616C81ACA1ECC8D
:1002000022CE26D02AD22ED432D636D83ADA3EDCC6
:1002100042DEC6C0CAC2CEC4D2C6D6C8DACADECC96
:10022000E2CEE6D0EAD2EED4F2D6F6D8FADAFEDCA6
:100230009702020083A2823E23A02200F322103400
:1002400096DEEF00002B170102000321213D024141
:10025000F65273901234B72200009382028873A082
:10026000023082403242C2425243E24372448254DC
:100270001255A2553256C2565257E2577258864806
:100280001649A649364AC64A564BE64B764C865C1A
:10029000165DA65D365EC65E565FE65F0961730059
:1002A0002030970202009382E24123A0120023A291
:1002B000220023A4320023A6420023A8520023AA2E
:1002C000620023AC720023AE820023A0920223A21C
:1002D000A20223A4B20223A6C20223A8D20223AA06
:1002E000E20223ACF20223AE020323A0120523A2F2
:1002F000220523A4320523A6420523A8520523AADA
:10030000620523AC720523AE820523A0920723A2C7
:10031000A20723A4B20723A6C20723A8D20723AAB1
:10032000E20723ACF207EF4010301701020003216F
:10033000E12E0241F65273901234B72200009382EC
:10034000028873A0023082403242C2425243E243EA
:10035000724482541255A2553256C2565257E25731
:10036000725886481649A649364AC64A564BE64B45
:10037000764C865C165DA65D365EC65E565FE65FB1
:10038000096173002030970202009382A23383A098
:10039000020003A1420083A1820003A2C20083A243
:1003A000020103A3420183A3820103A4C20183A427
:1003B000020203A5420283A5820203A6C20283A60B
:1003C000020303A7420383A7820303A8C20383A8EF
:1003D000020403A9420483A9820403AAC20483AAD3
:1003E000020503AB420583AB820503ACC20583ACB7
:1003F000020603AD420683AD820603AEC20683AE9B
:10040000020703AFC20983AF820782807370043092
:10041000197106C00AC20EC412C616C81ACA1ECC6A
:1004200022CE26D02AD22ED432D636D83ADA3EDCA4
:1004300042DEC6C0CAC2CEC4D2C6D6C8DACADECC74
:10044000E2CEE6D0EAD2EED4F2D6F6D8FADAFEDC84
:100450009702020083A2821C23A0220086DEEF20E6
:100460004037170102000321611B0241F6527390CD
:100470001234B72200009382028873A002308240B7
:100480003242C2425243E243724482541255A25550
:100490003256C2565257E257725886481649A649F4
:1004A000364AC64A564BE64B764C865C165DA65DD0
:1004B000365EC65E565FE65F09617300203073707A
:1004C000043001A07310453082807325403073F0F2
:1004D00043308280970700009387A7FE232EB5FE46
:1004E0002322C5FA232635F82320F5F8130505F84D
:1004F0008280411106C6EF407010EF10301501E503
:10050000B24041018280B24041016F20802C9307AC
:1005100085007D575CC118C55CC51CC9232005003A
:1005200082802328050082805C41DCC1984798C501
:1005300098474CC38CC788C91C4185071CC1828061
:100540009041FD57130785006314F60039A83E87D4
:100550005C439443E37DD6FEDCC18CC798C54CC395
:1005600088C91C4185071CC1828018495C43EDB7CE
:10057000584114451C4914C71845544154C3D84325
:100580006314A7001845D8C32328050088437D15A8
:1005900088C382803041AE8701CE4C455841B29528
:1005A0004CC563E4E5000C414CC53E856F30902995
:1005B0008280411122C406C62A8426C2EF20101B65
:1005C0003C44635BF0025C5085CB9304440209A871
:1005D0003C44FD173CC43C446350F0025C5089CF5E
:1005E0002685EF2020616DD5EF2010013C44FD17DA
:1005F0003CC43C44E344F0FEFD573CC4EF2050199A
:10060000EF20D0167C40635BF0021C4885CB93043E
:10061000040109A87C40FD177CC07C406350F002B7
:100620001C4889CF2685EF20E05C6DD5EF20C07C8B
:100630007C40FD177CC07C40E344F0FEFD577CC04D
:100640002244B240924441016F20901429CD0111FF
:1006500022CC2A8406CE26CA4AC84EC62E89EF204E
:10066000F01024404C5C832904002685EF6040593B
:100670007D57232C0402B3079540CE974E9578C042
:1006800048C0232434015CC438C4631109021C48E7
:100690008DE7EF20F00FF2406244D2444249B24964
:1006A0000545056182807370043001A013050401C3
:1006B000B93D13054402A13DE9BF13050401EF2034
:1006C00060538547E317F5FC9133E1B701E573709B
:1006D000043001A0011126CA4AC84EC606CE22CC5B
:1006E000AA842E89B289A5C9EF60805113055505EA
:1006F000EF30007D2A8435C5930745051CC144DCD5
:1007000023202405EF20900624404C5C032904009C
:100710002685EF60E04EFD56232C0402B30795407A
:100720003307A900CA9774C058C05CC434C4130509
:10073000040123242401E13B13054402C93BEF20BB
:100740003005230834052285F2406244D2444249F0
:10075000B2490561828013054005EF3060762A8436
:1007600001E57370043001A000C051BF01E5737052
:10077000043001A06375B5007370043001A041110D
:1007800022C409462E84814506C6893711C500DD7D
:10079000B2402244410182807370043001A05D7137
:1007A00086C6A2C4A6C2CAC04EDE52DC56DA5AD8E9
:1007B0005ED632C6630A051C6382051C89476399AD
:1007C000F600585D85476305F7007370043001A09B
:1007D0003689AE842A84EF20A06411E5B24781C730
:1007E0007370043001A0EF206078185C5C5C014BF2
:1007F000894BFD59130A0401930A44026365F70CFF
:1008000063077919B2476381072463150B00280831
:10081000EF206051EF20C077EF10005AEF200075F5
:100820007C4063943701232204043C4463943701E1
:1008300023240404EF20C0756C002808EF20C0506A
:10084000631E051EEF208072185C5C5C630CF70A67
:10085000EF200074EF2080713C44634FF00039A812
:100860005685EF20203919C1EF2000593C44FD176F
:100870003CC43C446354F0005C50FDF32324340535
:10088000EF200071EF20806E7C40634FF00039A8AC
:100890005285EF20203619C1EF2000567C40FD170D
:1008A0007CC07C406354F0001C48FDF323223405D7
:1008B000EF20006EEF104075054BEF20206B185CA9
:1008C0005C5CE37FF7F230406305060C631F09129E
:1008D0000844A685EF3000771C4434405840B69752
:1008E0001CC463EAE70A1C5C14405850850714C412
:1008F0001CDC5DC713054402EF20C02F8547631140
:10090000F50AC9A8EF20C068B2455285EF20401013
:10091000EF20C0653C44634FF00039A85685EF20B6
:10092000602D19C1EF20404D3C44FD173CC43C44B0
:100930006354F0005C50FDF323243405EF20406540
:10094000EF20C0627C40634FF00039A85285EF2051
:10095000602A19C1EF20404A7C40FD177CC07C40D2
:100960006354F0001C48FDF323223405EF2040625D
:10097000EF10806931F1593C054B81B73C41E38F61
:1009800007E27370043001A07370043001A030409E
:1009900021E61C4085C71C5C585085071CDC39FBD0
:1009A000EF20005F0545B640264496440649F259BB
:1009B000625AD25A425BB25B616182804840EF204A
:1009C00040521C5C58502322040085071CDCE313B2
:1009D00007F279D5253CE9B74844A685EF30806613
:1009E0003C4058441440B307F0403E9758C4637CE1
:1009F000D7025840BA975CC409475C506306E902C5
:100A0000185C050718DCC9DFF5B54844A685EF304A
:100A100060633C4058441440B307F0403E9758C4CC
:100A2000E37CD7FCF9B75C50185C79DB185C7D1768
:100A300018DC185C050718DCA5D76DBD2285953E2E
:100A4000EF10805C014585B7EF2080540145A1BFC0
:100A5000411126C2AA841305400522C406C6EF3000
:100A600020462A8415CD232C0502FD577CC105475D
:100A7000410558DC3CC42322040023200400232425
:100A80000400232604002320040423089404413492
:100A900013054402AD3C8146014681452285013360
:100AA0002285B24022449244410182800DC5411109
:100AB00022C426C206C64AC0032945002A84EF2064
:100AC00060358144630CA900B24022442685024966
:100AD0009244410182807370043001A05C448544DB
:100AE000FD175CC4F5F381460146814522854539F1
:100AF000E1BF31CDA1C9011122CC26CA4AC852C4D6
:100B000006CE4EC68947B68432892E8A2A846399D6
:100B1000F600585D8547630FF7047370043001A039
:100B20006D32185C5C5CAA896366F70281444E856D
:100B3000513AF240624426854249D244B249224A9F
:100B4000056182803C41C5DB7370043001A0737085
:100B5000043001A0304041E21C40D5CB1C5C7D57E5
:100B600085071CDC3C446387E7083C4485448507D3
:100B70003CC475BF993A185C5C5CAA89636DF70246
:100B8000304079DA4844D285EF30C04B3C4058447D
:100B90001440B307F0403E9758C46375D7005840DF
:100BA000BA975CC48947E39BF4FA1C5CC5DB1C5C08
:100BB000FD171CDC65B7304045D24844D285EF3084
:100BC00060483C4058441440B307F0403E9758C436
:100BD000E367D7FCD9BFDDF40844D285EF30804607
:100BE0001C4434405840B6971CC4E3E9E7F61C4067
:100BF0001CC4ADB75C5085449DDB13054402EF1067
:100C0000707F15D5E30509F2232099000DB7484000
:100C1000EF20202D2322040091B721CD3C4181C734
:100C20007370043001A01C41A1CB011122CC26CA53
:100C30002A844AC84EC606CE2E894138185C5C5CB0
:100C4000AA898144637DF7001C5C7D5785071CDC05
:100C50003C446388E7023C44854485073CC44E8598
:100C60009530F240624426854249D244B24905613A
:100C700082807370043001A05C41C5DB7370043066
:100C800001A05C5099E38544D9BF13054402EF10DD
:100C9000707675D9E30909FE85472320F900E5B789
:100CA000397106DE22DC26DA4AD84ED652D456D224
:100CB00032C66302051C638A051AB68AAE892A8485
:100CC000EF20001611E5B24781C77370043001A010
:100CD000EF20C0291C5C63920714B247638E070A99
:100CE0002808EF204004FD5413094402130A0401AC
:100CF000EF20002AEF10400CEF2040277C40639447
:100D00009700232204043C446394970023240404A2
:100D1000EF2000286C002808EF200003631305185B
:100D2000EF20C0241C5CADCFEF208026EF200024F4
:100D30003C44634FF00039A84A85EF10B06B19C1ED
:100D4000EF20800B3C44FD173CC43C446354F0004E
:100D50005C50FDF324C4EF20A023EF2020217C4031
:100D6000634FF00039A85285EF10D06819C1EF2009
:100D7000A0087C40FD177CC07C406354F0001C48F8
:100D8000FDF364C0EF20C020EF100028EF20001E0C
:100D90001C5CC1E7B247A9FFEF20801F014555A0A9
:100DA000EF20001F1C40DDC7B2454A85EF105046BA
:100DB000EF20C01B3C44634FF00039A84A85EF1078
:100DC000706319C1EF2040033C44FD173CC43C4410
:100DD0006354F0005C50FDF324C4EF20601BEF204F
:100DE000E0187C40634FF00039A85285EF10906006
:100DF00019C1EF2060007C40FD177CC07C4063542B
:100E0000F0001C48FDF364C0EF208018EF10C01FF5
:100E100031C9EF20A0151C5CB5DFCE852285444486
:100E2000EFF04FF7639C0A041C5C1840FD171CDCB4
:100E300001E7EF20601A48C01C48A1EFEF204015E1
:100E40000545F2506254D2544259B259225A925A2C
:100E500021618280EF2080114840EF10707EEF20EA
:100E6000201399B7EFF08FDA6DB73C41E38707E4C1
:100E70007370043001A07370043001A05C5044C44E
:100E8000D5DF13054402EF10F0564DD9EFF00FD81F
:100E900075B713050401EF10F0558547E310F5FA17
:100EA000F5B72285EFF0EFF0EF100016014551BFC6
:100EB0001DC9411122C44AC006C626C244412E891A
:100EC0002A84EF1030756383A40281464A868145E7
:100ED0002285F93385476300F502B24022449244EB
:100EE0000249410182807370043001A05C440545D1
:100EF00085075CC4DDB75C4485075CC4F9BF15CDCC
:100F0000ADC9011122CC26CA4AC84EC652C42A8491
:100F100006CE3289AE89EFF04FDB1C5C2A8A814411
:100F200085E35285EFF00FDAF240624426854249AC
:100F3000D244B249224A056182807370043001A014
:100F4000304001CE4C445C40B2954CC463E4F500A3
:100F50000C404CC44E85EF30E00E1C5C7D57FD17F5
:100F60001CDC7C40638CE7007C40854485077CC0AA
:100F70004DBF3C41D9D77370043001A01C4899E3A0
:100F8000854445B713050401EF10D04675D9E30930
:100F900009FE85472320F900E5B721C93C41A1CDD1
:100FA000A1CB011122CC26CA4AC852C42A8406CE3B
:100FB0004EC62E8AEFF06FD11C5C2A89814491CBFA
:100FC0008329C400D2852285EFF0CFDC8544232617
:100FD00034014A85EFF00FCFF24062442685424942
:100FE000D244B249224A056182807370043001A064
:100FF0007370043001A0EDDF7370043001A001E5CF
:101000007370043001A0411122C42A8406C6EF1077
:10101000F075005CEF10D077B24022852244410188
:10102000828001E57370043001A0411106C622C41C
:101030002A84EF10B0731C5C405C1D8CEF1050755F
:101040002285B24022444101828019C1085D82801C
:101050007370043001A01DCD979703009387078418
:10106000D843630CE502D847630CE504D84B63070B
:10107000E504D84F6302E504D853630DE502D85761
:101080006308E502D85B6303E502D85F630EE50001
:101090006F2030757370043001A001470E07BA97B6
:1010A00023A007006F20F0731D47CDBF1947FDB780
:1010B0001547EDB71147DDB70D47CDB70947F9BF64
:1010C0000547E9BF684582806CC5828003450505F8
:1010D000828009C5085D1335150082807370043065
:1010E00001A019C51C5D485D1D8D1335150082805A
:1010F0007370043001A0978703009387277A984381
:1011000005C3984705C7984B05C7984F05C798531F
:1011100005C7985705C7985B15C7985F15C38280A8
:1011200001470E07BA978CC3C8C382800547D5BF55
:101130000947C5BF0D47F5B71147E5B71547D5B7FF
:101140001D47C5B71947F1BF9787030093870775F8
:10115000D8436308E502D847630BE502D84B630A1E
:10116000E502D84F6309E502D8536308E502D85772
:101170006307E502D85B6308E502D85F6303A70253
:10118000828001470E07BA9723A007008280054797
:10119000D5BF0947C5BF0D47F5B71147E5B7154797
:1011A000D5B71D47C5B71947F1BF411122C426C2A3
:1011B0004AC02A8406C6AE843289EF10305B78407C
:1011C000FD576314F700232204043844FD576314C9
:1011D000F70023240404EF10B05B1C5C99E74A86F7
:1011E000A68513054402EF10B015EF1030583C44AB
:1011F000635BF0025C5085CB9304440209A83C4435
:10120000FD173CC43C446350F0025C5089CF2685F6
:10121000EF10501E6DD5EF10303E3C44FD173CC41E
:101220003C44E344F0FEFD573CC4EF107056EF1011
:10123000F0537C40635BF0021C4885CB93040401AF
:1012400009A87C40FD177CC07C406350F0021C481C
:1012500089CF2685EF10101A6DD5EF10F0397C403C
:10126000FD177CC07C40E344F0FEFD577CC0224467
:10127000B2409244024941016F10905197F701002A
:101280009387C739944317F701001307E7371843CB
:10129000C8C2636EE502411122C406C617F70100F9
:1012A000130787372A8408438C439105EFF04FA931
:1012B00097F70100938787339C436376F40097F791
:1012C000010023A58732B24022444101828017F7F2
:1012D00001001307273408438C4391056FF04FA694
:1012E00097F7010093878733984394437C43FD1716
:1012F0007CC3FC4299E37360043082801DC1797124
:101300004ECE56CA06D6BE8A22D426D24AD052CC57
:101310005AC85EC69147BA8963F8E7007370043013
:1013200001A07370043001A02A8BAE843289B68B81
:10133000428A6308082213050006EF2070382A84C9
:10134000630C05200A09232845034A869305500AA1
:101350005285EF20305D03C704001C587119230A21
:10136000E40203C704003E991379C9FF79C783C714
:101370001400A30AF40283C71400E1C383C7240046
:10138000230BF40283C72400CDCB83C73400A30B07
:10139000F40283C73400D5C383C74400230CF4028E
:1013A00083C74400D9CB83C75400A30CF40283C77E
:1013B0005400C1C783C76400230DF40283C76400CF
:1013C000ADCF83C77400A30DF40283C77400B5C703
:1013D00083C78400230EF40283C78400B9CF83C778
:1013E0009400A30EF40283C79400A1CB83C7A4008A
:1013F000230FF40283C7A400A9C383C7B400A30FBB
:10140000F40283C7B40095CB83C7C4002300F4045F
:1014100083C7C4009DC383C7D400A300F40483C75B
:10142000D40081CF83C7E4002301F40483C7E40020
:1014300089C783C7F400A301F404130A440052854A
:10144000A30104042326340323283405232A040497
:10145000EFF02F8D13058401EFF0AF8C9547B38724
:101460003741232C040400C81CCC40D023220404A0
:10147000232E04045E86DA854A85EFF0AF8508C026
:1014800063840A0023A08A007370043017F90100F6
:10149000130909178327090097F40100938404189E
:1014A00091C798409C407C4385077CC317F7010097
:1014B0001307C7151C43850797F6010023A8F614E8
:1014C0009C40CDCB8327090089EB9C40DC5763E629
:1014D000F90097F7010023A3871497F7010093877A
:1014E00027119C4317F701001307C71148541843ED
:1014F000850797F6010023ADF60E3CC46376A7007E
:1015000097F7010023A0A710D145EF50606F97F720
:1015100001009387E7223E95D285EFF0EF80832785
:10152000090089C79C40FC436395070E8327090087
:10153000054499C79C40DC5763F43701EFE01FED89
:101540002285B250225492540259F249624AD24A38
:10155000424BB24B456182805285EF2090287D54EA
:10156000C5B713152600EF20B0152A8AE31505DC50
:101570007D54F9B797F7010023A2870A18438547DE
:10158000E31DF7F417F501001305851BEFE03FF8A5
:1015900017F501001305051CEFE07FF717F50100B3
:1015A0001305851CEFE0BFF617F501001305051DB7
:1015B000EFE0FFF517F501001305851DEFE03FF59E
:1015C00017FB0100130B0B1E5A85EFE05FF497FA2F
:1015D0000100938A6A1E5685EFE07FF317F501003C
:1015E0001305C51EEFE0BFF217F501001305451FF7
:1015F000EFE0FFF117F501001305C51FEFE03FF124
:1016000097F7010023AA670197F7010023A4570168
:10161000E9B5984094407C43FD177CC3FC42E397B6
:1016200007F07360043019B7411122C406C626C200
:101630004AC02A847370043097F40100938444FCF8
:101640009C40F9E311E497F70100938727FD80435D
:10165000130944004A85EFE0BFF11C5489C7130504
:101660008401EFE0FFF0CA8517F501001305451767
:10167000EFE09FEB97F70100938787F9984397F77F
:1016800001009387E7F69C43050797F6010023A125
:10169000E6F89840850797F6010023ABF6F401CBF6
:1016A00097F70100938787F79843784349EF9C4069
:1016B000B1C797F70100938767F69843630F8708D0
:1016C00073700430984039EB17F701001307C7F423
:1016D00014439442A5E27D5797F6010023A8E6F053
:1016E000984009CF9843784311CB984394437C4367
:1016F000FD177CC3FC4299E373600430B24022447E
:10170000924402494101828097F70100938707F1D3
:1017100098439C437C4385077CC32DB794439843EF
:10172000F8420507F8C217F701001307E7EE144364
:101730009442D5D2184358475847584397F601006A
:1017400023A6E6EA71BF984394437C43FD177CC30C
:10175000FC42B1FF7360043099BF97F70100938793
:10176000A7E89C4381C77370043001A02244B240B3
:101770009244024941016FE07FC941C517F701005A
:101780001307C7E914438147638BA606411106C6B8
:1017900022C426C27370043097F60100938646E691
:1017A0009C4291C710431C437C4285077CC29C42EB
:1017B000AA84404981C71C43FC43B9E797F701005D
:1017C000938787E59C43638A870497F70100938793
:1017D00067E49C436383870497F70100938787013D
:1017E0006308F40297F70100938787FF6300F40210
:1017F0008547B240224492443E85410182803E8525
:1018000082807370043001A0E13C4DBF9147D5B791
:101810009C5493B717008907E9BF8947D9BF7370F4
:10182000043097F701009387A7DD984309EF15C5AA
:101830009C43485581CB97F70100938727DE984357
:10184000784315E3828017F70100130727DD14435F
:101850001843F8420507F8C261FD17F701001307A6
:10186000E7DB0843F1B7984394437C43FD177CC3FF
:10187000FC42E9FB736004308280411122C42A8457
:1018800006C6EFE09FC411E497F70100938707D9DC
:1018900080434054EFE01FC3B240228522444101FF
:1018A0008280914763F5B7007370043001A0011185
:1018B00022CC06CE26CA4AC84EC652C42A847370A9
:1018C000043017F901001309A9D383270900CDEFCC
:1018D00071C43C486388F50817F70100130707D463
:1018E00063FCB7001443638B860C18434457B3B4AE
:1018F000950093C4140029A00443818C93B4140070
:1019000058546383E70A1C4C2CC863C607009547EC
:10191000B385B7400CCC93172700BA97584897F96E
:1019200001009389E9E18A07CE97631AF702130A47
:1019300044005285EFE0DFC397F70100938787CC1F
:1019400048549C4363F6A70097F7010023ACA7CA4D
:10195000D145EF50E02AD2854E95EFE0FFBC99C00B
:10196000EFE0DFAA8327090081CB97F70100938777
:10197000E7CA9C43FC439DEBF2406244D244424997
:10198000B249224A0561828097F70100938707C90F
:1019900098439C437C4385077CC305FC97F7010073
:1019A0009387C7C7804335B74CD4B1BF6244F24078
:1019B000D2444249B249224A05611DB2814489B7E5
:1019C00025C1011126CA97F40100938424C59C40C7
:1019D00006CE22CC4AC84EC6638DA702737004306F
:1019E00017F901001309C9C18327090091C798405D
:1019F0009C407C4385077CC3584997F70100938737
:101A000067DF6302F7028327090081C79C40FC431C
:101A1000A5EBF2406244D2444249B249056182805A
:101A20007370043001A01C5517F70100130707DA83
:101A3000E38BE7FCE9FB930945002A844E85EFE040
:101A40003FB397F701009387E7BB48549C4363F685
:101A5000A70097F7010023A7A7BAD145EF50401A76
:101A600097F701009387C7CD3E95CE85EFE0DFABBA
:101A70009C405854DC57E368F7F8EFE03F9961B7B2
:101A80006244F240D2444249B249056191B815CD51
:101A9000011122CC26CA4EC62A8406CE4AC8EFE0DF
:101AA000DFA2584897F701009387C7D4AA898144D9
:101AB0006300F7024E85EFE0FFA0F2406244268506
:101AC0004249D244B249056182807370043001A05A
:101AD0001C5417F50100130565CFE38DA7FCF9FB36
:101AE00097F70100938747B09C43A9EB97F7010054
:101AF0009387C7B29C43445413094400DC574A857A
:101B0000B3B4F400EFE0DFA697F70100938787AF47
:101B100048549C4393C4140063F6A70097F7010050
:101B200023A2A7AED145EF50A00D97F701009387F0
:101B300027C1CA853E95EFE03F9FADBF9305840165
:101B4000EFE09F9E85BF0111056506CE22CC26CA17
:101B50004AC84EC652C456C2EF208036630E051CDA
:101B6000AA8413050006EF20A0352A84630A051E07
:101B700005669305500A04D92685EF20A05A04581B
:101B80008567F117BE94B7474C45938797449309EF
:101B900044005CD84E85230C0402A30104042326D0
:101BA000040223280404232A0404EFE09F9713056A
:101BB0008401EFE01F979547232C0404F19800C897
:101BC0001CCC40D023220404232E04040146971584
:101BD00000009385E5B12685EFE0DF8F08C07370C4
:101BE000043017F901001309A9A18327090097F40C
:101BF00001009384A4A291C798409C407C43850730
:101C00007CC317F70100130767A01C43850797F6ED
:101C1000010023ADF69E9C40C9C38327090081EBD8
:101C20009C40DC5789E797F7010023A9879E97F727
:101C300001009387E79B9C4397F601009386869C5F
:101C400058549442850717F601002323F69A3CC4A2
:101C500063F6E60097F7010023A6E79A931727009B
:101C6000BA978A0717F50100130585AD3E95CE8515
:101C7000EFE09F8B8327090081C79C40FC43F1E77D
:101C80008327090091C39C40EF10F0498547630406
:101C9000F50E5DE17370043001A097F7010023AFEA
:101CA000879618438547E314F7F817F501001305E5
:101CB00025A9EFE0DF8517F501001305A5A9EFE0E1
:101CC0001F8517F50100130525AAEFE05F8417F5BE
:101CD00001001305A5AAEFE09F8317F50100130586
:101CE00025ABEFE0DF8297FA0100938AAAAB568515
:101CF000EFE0FF8117FA0100130A0AAC5285EFE00A
:101D00001F8117F50100130565ACEFE05F8017F543
:101D100001001305E5ACEFE08FFF17F50100130597
:101D200065ADEFE0CFFE97F7010023A7578F97F738
:101D3000010023A1478FE5BDF2406244D2444249ED
:101D4000B249224A924A05618280984094407C437D
:101D5000FD177CC3FC42E39507F2736004300DB7B6
:101D60006244F2404249B249224A924A2685D2440C
:101D700005616F20002773700430FD5717F70100CD
:101D80002326F786624497F7010023ABA786F2402B
:101D9000D2444249B249224A924A97F7010023A508
:101DA000078605616FE0EFCF7370043097F701008D
:101DB00023A807846FE02FDD17F701001307C78200
:101DC0001C4385071CC382807370043097F70100A1
:101DD00093870783984305E317F701001307C7822A
:101DE00008439C4381CB97F701009387278398434F
:101DF000784301EF828017F701001307278214430D
:101E00001843F8420507F8C2C1BF984394437C4386
:101E1000FD177CC3FC42F9FF7360043082804111DE
:101E200006C622C4EFE06FEA97E701009387C77DFB
:101E30008043EFE02FE9B2402285224441018280B5
:101E400097E701009387877C88438280797106D663
:101E500022D426D24AD04ECE52CC56CA5AC85EC6DA
:101E600097E70100938747789C43B1EF17E701009C
:101E7000130787791C43850797E6010023A6F678A8
:101E8000832A0700638F0A0697E701009387077686
:101E90009C43814463F1FA0897F901009389498AC8
:101EA00017EA0100130A8A7783270A008546D85764
:101EB00093172700BA978A07BE9983A7090063FF83
:101EC000F600854421A897E70100938727739C4378
:101ED0008144850717E701002322F77297E7010085
:101EE000938787719C4391C38544B25022542685C1
:101EF00002599254F249624AD24A424BB24B45616E
:101F0000828017E40100130424711C409C43DDC34C
:101F10007370043001A017E401001304E46F97F913
:101F200001009389E98117EA0100130A2A6F17EB70
:101F30000100130B2B6D1C409C43B5C31C40DC47B8
:101F400003A9C70083274900930B49005E8563EE10
:101F5000FA04EFE0EFE1832789021305890199C3B1
:101F6000EFE00FE18327C90203270B00DE851395FD
:101F700027003E950A054E956376F70017E70100A6
:101F80002322F768EFE04FDA83270A000327C9020C
:101F9000DC57E362F7FA1C4085449C43C5F3FD57C8
:101FA00017E701002324F76401B717E70100232F87
:101FB000F762DDBD17E701001307C7651C40184332
:101FC00097E6010023AAE66417E701002324F764DB
:101FD00097E70100938707629C43850717E7010095
:101FE000232AF7601C409C4399E7FD5717E701003F
:101FF000232EF75E51BD1C40DC47DC47DC4317E76E
:1020000001002325F75E49B597E701009387C75D77
:10201000984301E77370043001A0011106CE22CC71
:1020200026CA4AC84EC652C456C25AC0737004303B
:1020300097E401009384C45C984061EB98437D175A
:1020400097E6010023A2E65A9C43D9EB97E70100EB
:102050009387C75B9C43C9C797EA0100938A4A6E7E
:1020600017EA0100130A0A5A17E901001309095B6C
:10207000854919A83385EA00EFE00FCB83270900D3
:102080005854DC576379F70483A7CA08C1CF83A7E4
:102090008A09C04713058401EFE08FCD130B44007C
:1020A0005A85EFE0EFCC5C5483260A00DA8513955D
:1020B00027003E950A052A875695E3FDF6FA17E7AD
:1020C00001002321F754EFE02FC68327090058545D
:1020D000DC57E36BF7FA97E7010023AF37516DB791
:1020E00001449C4081CB97E70100938727539C4391
:1020F000FC4395E72285F2406244D2444249B2490A
:10210000224A924A024B0561828017E701001307B9
:10211000E75014431843F8420507F8C205B7EFF03B
:102120002F9CC9BF17E401001304444D1C4095C304
:102130001C40054999CF193B09C597E7010023AD1C
:10214000274B1C40FD1717E701002329F74A1C40C5
:10215000FDF397E701009387274A98438547E311EA
:10216000F7F8EFE0AFAA0544ADBF11CD81E573707C
:10217000043001A017E70100130707471C4399C764
:102180007370043001A07370043001A0411122C4A7
:1021900006C614431841850617E601002326D644D7
:1021A00097E601009386464694423304B70000C187
:1021B00063F7E602637FE40063FD860097E70100B2
:1021C0009387C74588431105EFE08FBA2285EFF06A
:1021D000EF8A1D3D01C9B240224441018280E36F74
:1021E000E4FCD9BF2244B24041016FE02FA211C9E3
:1021F00017E701001307473F1C4391C77370043072
:1022000001A06FE0AFA0411106C622C41843AA87FF
:10221000050797E6010023A9E63C97E601009386AF
:10222000E63F17E701001307273E184388423304AF
:10223000F7001105EFE0CFB32285EFF02F84E933EB
:1022400011E52244B24041016FE04F9CB24022446C
:1022500041018280411122C406C697E7010093879D
:10226000A7389C430144850717E70100232EF73662
:1022700097E70100938787399C4363E3F50C17EEDA
:102280000100130E6E5197E201009382A24A0144AD
:102290000147854F1303500A21A0311E6387C20DE9
:1022A00083278EFFBA85F5DB8327CEFFDC43232E01
:1022B000FEFE6382C71B03AFC700DC432A97814E33
:1022C000232EFEFE6385C70783A8C70093874803B4
:1022D000232017015CC383A788042326F7011CC7AA
:1022E00083A7C8021CCB83A70805232C07005CCB5F
:1022F00003A8080383470800639A6704C287850719
:1023000083C60700B3850741E38B66FE8981C2055A
:10231000C181231EB700850E1307070263001F0546
:102320008327CEFFDC43232EFEFEE39FC7F98327DE
:102330004E00232EFEFE49BF1A9419C22320060028
:10234000E1312285B2402244410182808145231E31
:10235000B700850E13070702E3141FFD76941317C9
:102360005400311EBA85E39DC2F397E701009387BD
:10237000A72A03AE070083270E00FDE397E70100BD
:102380009387472903AE070083270E00639807163B
:1023900017EE0100130ECE3A83270E0A639D071E27
:1023A00083274E0BD9DB83278E0B97EE0100938E8C
:1023B000EE44DC4317E701002320F7446381D73361
:1023C00083AFC700DC433307B500014397E6010044
:1023D00023A4F6420D4F89429308500A6386D7071B
:1023E000C8479307450308C35CC33C452326E70160
:1023F0001CC75C551CCB1C5599C3232657003C4970
:10240000232C07005CCB0328050383470800639552
:10241000172BC287850783C60700B3850741E38B67
:1024200016FF8981C205C181231EB700050313076A
:102430000702E383AFF083278E0BDC4397E60100AE
:1024400023ACF63AE39ED7F983270E0C97E60100FA
:1024500023A4F63A71B783274E00232EFEFEA1BDBA
:1024600083274E00130F8E00D4432322DE00638C9B
:10247000E625B307E500D84283A2C600814E232299
:10248000EE00894F1303500A6305EF068328C70047
:102490001387480323A01701D8C303A7880423A6E2
:1024A000F70198C703A7C80298CB03A7080523AC78
:1024B0000700D8CB03A80803034708006318671C6C
:1024C0004287050783460700B3050741E38B66FE95
:1024D0008981C205C181239EB700850E93870702BB
:1024E000638E121B83264E00D8422322EE00E31F88
:1024F000EFF80327CE002322EE0049BF83274E00CA
:10250000130F8E00DC432322FE006389E71B83A2A6
:10251000C700DC43AA95814E2322FE00894F130396
:10252000500A6305FF0683A8C7009387480323A0CA
:102530001501DCC183A7880423A6F5019CC583A7E8
:10254000C8029CC983A7080523AC0500DCC903A801
:1025500008038347080063976710C287850783C60F
:10256000070033870741E38B66FE098342074183F7
:10257000239EE500850E93850502638D120F832748
:102580004E00DC432322FE00E31FFFF88327CE002A
:102590002322FE0049BF83274E0A17EF0100130FC5
:1025A000AF24DC4317E70100232EF7226382E713F1
:1025B00083A2C700DC43AA95814E17E701002323BD
:1025C000F722914F1303500A6387E70783A8C700D8
:1025D0009387480323A01501DCC183A7880423A6A1
:1025E000F5019CC583A7C8029CC983A7080523AC35
:1025F0000500DCC903A80803834708006394670447
:10260000C287850783C6070033870741E38B66FED1
:10261000098342074183239EE500850E93850502C9
:10262000638A120383274E0ADC4317E70100232B3A
:10263000F71AE39DE7F98327CE0A17E70100232362
:10264000F71A69B70147239EE500850E93850502B9
:10265000E39A12FD83274E0B769493155400E38E74
:1026600007CC91B30147239EE500850E93850502B3
:10267000E39712F117EE0100130E8E0C83270E0A5A
:10268000769493155400E38D07D031B78145239E8E
:10269000B700850E93870702E39612E597E70100DE
:1026A000938747F703AE070076949315540083276A
:1026B0000E00E38F07CC99B58145BDB38327CE00CB
:1026C0002322FE00A9B58326CE002322DE0055B3C7
:1026D0008327CE0A17E701002326F710D1BD8327F1
:1026E0000E0C17E701002329F710D9B9797126D20A
:1026F0004AD04ECE52CC56CA5AC85EC606D622D44E
:1027000097E90100938949EE17E90100130949038C
:1027100017EA0100130ACAEE97EA0100938A0AF049
:1027200097EB0100938B8BEE97E40100938444EECA
:10273000054B21A883A709000324090A850717E789
:1027400001002323F7EAC93011E89C40E5F783270D
:102750000900E37CFBFEEFD07FCBC5BF7370043074
:1027600083270A00B9E38327C90AC0471305440039
:10277000EFD01FE083A70B00FD1717E70100232709
:10278000F7E89C40FD1717E701002323F7E88327AC
:102790000A0089C783A70A00FC4385E30858EF10A5
:1027A00050042285EF10F0034DB703A70A0083A75A
:1027B0000A007C4385077CC37DB703A70A0083A674
:1027C0000A007C43FD177CC3FC42E9FB73600430C4
:1027D000F1B797E70100938727E19C43DDE74111BB
:1027E00006C622C426C297E7010023A707E017E721
:1027F00001001307A7E21C43B7A6A5A59386565A66
:102800009C5B8C43639BD500D0436318B600944710
:102810006395C600DC476388D70008430C43938563
:102820004503EF20300017E701001307A7DD14432D
:1028300017E401001304C4F011A81C43A9CF1C43E2
:10284000FD1797E6010023AFF6DA144393972600AD
:10285000B6978A07A2979C43EDD3084393172500A8
:10286000AA978A073307F4005443A107A297C442EA
:1028700044C36385F402DC44B240224417E70100FC
:10288000232EF7D8924441018280854717E7010043
:102890002324F7D682807370043001A0C440D14550
:1028A000EF400036229544C1F9B701114AC806CE5F
:1028B00022CC26CA4EC62A897370043097E40100E0
:1028C000938404D49C4017E40100130424D5D9E771
:1028D0006314090003290400930949004E85EFD0D1
:1028E0003FC98327890289C713058901EFD05FC8D3
:1028F000CE8517E501001305E5EFEFD0FFC29C4040
:1029000081C71C40FC43ADE31C40638B27079C4000
:102910009DCF737004309C40C1EB97E70100938713
:10292000A7CF9843184325EBFD5717E70100232F46
:10293000F7CA9C4089CF1C40FC4391CB18401440FF
:102940007C43FD177CC3FC4299E373600430F24082
:102950006244D2444249B2490561828018401C4019
:102960007C4385077CC3ADB7184014407C43FD17FA
:102970007CC3FC42D1FB736004301C40E39927F90F
:102980009C40A1C397E70100938707C69C43ADCB4A
:102990007370043001A09C43DC47DC47DC4317E73D
:1029A00001002325F7C471B718401C407C438507FC
:1029B0007CC397E70100938727C6984318432DD718
:1029C000D9BF97E70100938767C417E70100130792
:1029D00027D79C430327470B631DF700F24062444F
:1029E00097E7010023AC07C2D2444249B2490561CE
:1029F00082806244F240D2444249B2490561D1BB6F
:102A00006244F240D2444249B24905616FD01FA0EE
:102A10003DC9411126C297E40100938424C04AC0F5
:102A20002E898C4006C622C4E105EFD07FB18840D4
:102A30001105EFD0FFB3FD57630AF90497E70100D2
:102A4000938787BC804398409C434A9440C3636CFF
:102A5000F40497E70100938727BC88438C409105D5
:102A6000EFD01FAE97E70100938747B89C4363768A
:102A7000F40097E7010023AB87B6B24022449244AA
:102A80000249410182807370043001A08C402244CD
:102A9000B2409244024917E501001305A5D59105FE
:102AA00041016FD07FA897E701009387A7B68843BD
:102AB00022448C40B24092440249910541016FD0BA
:102AC0003FA811C997E70100938707B29C4399E794
:102AD0007370043001A07370043001A0411126C24C
:102AE00097E40100938484B39840AE878C40B70686
:102AF0000080D58F06C622C41CCFE1053284EFD0FA
:102B0000BFA288401105EFD0BFA6FD57630EF400A9
:102B100097E70100938747AF8843B24092442295DC
:102B2000224441016FE08FF58C402244B240924430
:102B300017E50100130505CC910541016FD0DF9E1B
:102B400025CD411126C297E40100938424AD4AC0EB
:102B50002E898C4006C622C4E1053284EFD0DF9C6A
:102B600088401105EFD0DFA08547630AF40497E79A
:102B70000100938767A9804398409C434A9440C3CF
:102B8000636CF40497E70100938707A988438C409E
:102B90009105EFD0FF9A97E70100938727A59C4303
:102BA0006376F40097E7010023A287A4B240224491
:102BB00092440249410182807370043001A08C402C
:102BC0002244B2409244024917E50100130585C230
:102BD000910541016FD05F9597E70100938787A327
:102BE000884322448C40B2409244024991054101FD
:102BF0006FD01F95411106C622C426C25C45C0474E
:102C000035CC930484012685EFD09F9697E7010089
:102C10009387879D9C43B5E7930444002685EFD0B6
:102C20003F9597E701009387E79D58549C4363F6CF
:102C3000E70097E7010023A7E79C93172700BA97BF
:102C40008A0717E501001305A5AFA6853E95EFD0CD
:102C5000BF8D97E701009387679C9C4358540145BB
:102C6000DC5763F8E700854717E701002326F7984C
:102C70000545B24022449244410182807370043081
:102C800001A0A68517E50100130545B4EFD0DF8943
:102C9000C9B797E70100938727959C4381E7737035
:102CA000043001A0411106C622C426C2B707008025
:102CB0004045CD8F1CC12DC4EFD09F8B93044400A1
:102CC0002685EFD0FF8A97E701009387A793585492
:102CD0009C4363F6E70097E7010023A5E79293176B
:102CE0002700BA978A0717E50100130565A53E95E9
:102CF000A685EFD07F8397E70100938727929C43B7
:102D000058540145DC5763F8E700854717E7010091
:102D10002324F78E0545B24022449244410182802B
:102D20007370043001A011CD97E701009387878C61
:102D3000984397E701009387278D9C4318C15CC196
:102D400082807370043001A055C1D1CD411106C6F7
:102D500022C42A877370043097E801009388488A58
:102D600083A7080091CB97E701009387278B9443B3
:102D70009C43FC428507FCC217E301001303C38890
:102D80009C4103260300FD560144638FD70217EED2
:102D90000100130E2E8603250E000328070054435E
:102DA0006305A80005446371D6023308D640054484
:102DB000637CF80003250E00918F03260300B6976D
:102DC0009CC108C350C3014483A7080081CB97E787
:102DD00001009387A7849C43FC4381EF2285B24086
:102DE0002244410182807370043001A0737004306A
:102DF00001A0EFE0EFCEDDB7854717D70100232D07
:102E0000F77E828019C1684582800145828011C1A8
:102E10006CC5828097E70100938747808843828052
:102E200097D701009387C77D9C43054589CB97D7EA
:102E300001009387677B8843133515000605828060
:102E400031CD011126CA97D401009384247D9C4082
:102E500006CE22CC4AC84EC65855DC576379F702D5
:102E60001C4D63C707009C40D4579547958F1CCDD8
:102E700093172700BA97584917E901001309498C9D
:102E80008A07CA97630DF7009C40DC575CD5F24077
:102E90006244D2444249B2490561828082809309EA
:102EA00045002A844E85EFD0AFEC9C4017D7010037
:102EB000130747751843DC575CD46376F70017D7C0
:102EC00001002321F774139527003E9562440A05FB
:102ED000F240D244CE854A95B249424905616FD04D
:102EE000AFE419CD411106C622C426C297D701000E
:102EF0009387C77280436307A4007370043001A0F6
:102F0000014582807C4881E77370043001A05454ED
:102F10003848FD177CC86383E60099C70145B24075
:102F20002244924441018280930444002685EFD0DC
:102F30002FE4284897D701009387C76C984395479B
:102F4000898F48D41CCC6376A70097D7010023ABA8
:102F5000A76AD145EF30D04A97D701009387477EC3
:102F60003E95A685EFD04FDC054555BF7370043004
:102F700097D701009387C7689C4391CB97D70100EF
:102F80009387C76998439C437C4385077CC38280B1
:102F900097D701009387C7669C438DC397D70100DD
:102FA0009387C7679843784311CB984394437C43F6
:102FB000FD177CC3FC4299E373600430828097D78D
:102FC00001009387A7659043944398439547D4564F
:102FD000084E958F1CCF828097D701009387076496
:102FE000984309C79443F84A0507F8CA8843828082
:102FF00079714AD006D622D426D24ECE2A89737051
:10300000043097D401009384A45F9C4017D401003E
:103010001304C460BDE31C40BC4F89E71C40054756
:10302000F8CFD1E19C4081C71C40FC43F1EB7370A9
:1030300004309C408DEF1C40A84F11C56304090269
:103040001C4023AC07041C4023AE07049C4081C7EE
:103050001C40FC438DEBB250225492540259F24969
:103060004561828018403C4FFD173CCFE9BF1840B6
:103070001C407C4385077CC37DBF18401C407C43BB
:1030800085077CC349BF184014407C43FD177CC3AF
:10309000FC42F1F373600430B2502254925402594E
:1030A000F2494561828008402EC61105EFD04FCC11
:1030B000B245FD576380F50697D701009387C75443
:1030C00083A9070018409C43AE992322370163EC83
:1030D000F90497D701009387275488430C40910542
:1030E000EFD00FC697D70100938747509C4363F6F4
:1030F000F90097D7010023AB374FEFD02FB11DB7A1
:10310000184014407C43FD177CC3FC428DF3736070
:10311000043031BF0C4017D501001305A56D910592
:10312000EFD08FC0D9BF97D701009387A74E8843B0
:103130000C409105EFD0CFC0C9B779714AD04ECEBF
:1031400006D622D426D252CC2E89B289737004308E
:1031500097D401009384C44A9C4017D401001304FF
:10316000E44BF9EF18408947784F630CF7001C4097
:103170001345F5FFB84F798DA8CF1C400547F8CF10
:10318000ADE69C4081C71C40FC43F5E373700430FE
:103190009C40B1E7638609001C40BC4F23A0F900A6
:1031A000184085470145784F630BF7001C401349D1
:1031B000F9FF0545B84F3379E90023AC27051C40DA
:1031C00023AE07049C4081C71C40FC43C1E3B250BE
:1031D000225492540259F249624A45618280184051
:1031E0001C407C4385077CC375B7084036C6110573
:1031F000EFD00FB8B246FD576385F60897D70100A8
:103200009387874003AA070018409C43369A2322DD
:1032100047016363FA0897D701009387E73F884324
:103220000C409105EFD0CFB197D701009387073CB1
:103230009C436370FA0697D7010023A9473B91A8E6
:1032400018401C407C4385077CC329BF18401440AC
:103250007C43FD177CC3FC42BDFB73600430B2505D
:10326000225492540259F249624A456182801840C0
:1032700014407C43FD177CC3FC4289FB736004301F
:1032800031B70C4017D501001305C5569105EFD095
:10329000AFA9EFD0AF97F5B597D7010093878737E0
:1032A00088430C409105EFD0AFA9E5B751C141115A
:1032B00006C622C426C24AC07370043097D40100E7
:1032C000938404349C40B9EB99C23C4D9CC2B287B4
:1032D0008946704D74CD2E872A846386D70663FC99
:1032E000F6048D456387B70091456395B700630089
:1032F000D60C38CC8547630FF60405449C4081CB3F
:1033000097D70100938787319C43FC43A9E322852B
:10331000B2402244924402494101828097D7010081
:103320009387C72F98439C437C4385077CC369BF21
:103330007370043001A08546E39ED7FA3C4D33E715
:10334000B70038CD45BF3C4D85073CCD65B7EFD0C4
:103350003FF975BF130944004A85EFD06FA197D795
:1033600001009387272A48549C4363F6A70097D708
:10337000010023A9A728D145EF30900897D7010075
:103380009387073C3E95CA85EFD00F9A1C5481C79E
:103390007370043001A097D70100938727289C43BE
:1033A0005854DC57E3FBE7F4EFD04F86B9B701443C
:1033B000B1B739CD011122CC26CA4AC84EC652C473
:1033C00056C206CEBA89368AB2842E892A84EFD0B4
:1033D000CF8FAA8A63050A003C4C2320FA00784C60
:1033E00089477CCC6389F40263F4970C8D4663872C
:1033F000D40091466396D400630AF70A232C24056F
:103400008547631EF7061C5499CB7370043001A0E6
:103410007370043001A03C4C85073CCCD5B797D7DE
:1034200001009387671C9C43ADEB93044400268501
:10343000EFD00F9497D701009387C71C48549C4343
:1034400063F6A70097D7010023AEA71AD145EF3046
:10345000207B97D701009387A72EA6853E95EFD0B6
:10346000AF8C97D701009387671B9C435854DC5758
:1034700063F7E70063850900854723A0F900054449
:103480005685EFD02F842285F2406244D2444249CF
:10349000B249224A924A056182809305840117D578
:1034A00001001305A532EFD02F8865BF0144C9BFC5
:1034B0008547E397F4F43C4C33E92701232C24059A
:1034C00081B74DC1011122CC26CA2A844EC606CE30
:1034D0004AC8AE84EFC07FFF8947744C7CCC3C4C1B
:1034E0000547AA8985073CCC6395E6061C5481C72D
:1034F0007370043001A097D701009387E70E9C43B7
:10350000ADE7130944004A85EFD08F8697D70100B5
:103510009387470F48549C4363F6A70097D7010051
:1035200023A2A70ED145EF30A06D97D70100938756
:103530002721CA853E95EFC03FFF97D701009387AB
:10354000E70D9C435854DC5763F5E70099C0854765
:103550009CC06244F240D24442494E85B249056162
:103560006FC05FF67370043001A09305840117D516
:1035700001001305A525EFC03FFBC1B7AA8729C5E8
:103580007370043017D701001307870714439DE2B7
:10359000F04F894601456315D60023AE0704054563
:1035A0001C4381CB97D70100938747079843784303
:1035B00015E3828097D60100938646069042944296
:1035C0007442850674C2E9B797D70100938707054F
:1035D0009C437DB7984394437C43FD177CC3FC42D6
:1035E000E9FB7360043082805D71A6C2CAC052DC00
:1035F00056DA5AD85ED686C6A2C44EDE62D466D2E9
:103600006AD017D901001309690217DB0100130BF7
:103610002B0197D401009384E40097DA0100938A88
:10362000AA00054AA54B83270900984363010712A6
:10363000DC4783A90700EFE02FF8EFE0EFF88327DE
:103640000B002A8C6362F50A97D7010023AAA7FC16
:1036500001466370351B8840B3858941EFD0FFB4C4
:10366000EFE09F9A630105128840814601462C00D5
:10367000EFD00FE34DD9A247E3C807FEC24983A7A5
:10368000490189C713854900EFC09FEEEFE0CFF3F2
:1036900083270B002A8C636DF508A24717D701001A
:1036A000232087F9E3E2FBFCB317FA0013F70721A5
:1036B000631A071613F7770C6318071E93F70702B0
:1036C000C5D74E85EF00F01145B7DC47C04783AC46
:1036D0000700930944004E85EFC09FE95C502285A6
:1036E00082975C4C6384470B83270900984371FFE2
:1036F00003A70A0097D6010023A486F397D60100FA
:1037000023A4F6F297D7010023A2E7F2EFE0DF8FC0
:10371000A1BFDC47C04703AD0700930C440066859A
:10372000EFC01FE55C50228582975C4C6386470999
:1037300083270900984371FF03A70A0097D6010069
:1037400023A4F6EE97D7010023A2E7EEB9B7EFE086
:10375000AFE6EFE06FE783270B002A8CE366F5F80E
:1037600083A70A00884081499043B385894117D7D0
:103770000100232787EB13361600EFD01FA3EFE0DD
:10378000BF88E31305EEEFC07FC8F9BD1C4CCE85A2
:10379000E69763E9FC049C4089CF02CA66CC22CE3E
:1037A000EFF00FE88840814601464C08EFC03FFF2C
:1037B00005FD7370043001A01C4CE685EA97636C2C
:1037C000FD049C4089CF02CA6ACC22CEEFF04FE5BF
:1037D0008840814601464C08EFC07FFC31F9737088
:1037E000043001A0032509005CC000C8EFC05FD50C
:1037F000E5BDEFE07F8183270900DC47C047930CDC
:1038000044006685EFC0DFD65C4C638F47035C5095
:103810002285829791BD032509005CC000C8EFC0D6
:103820003FD239B7B24723ACF900A5CFE29723A224
:10383000F90023A8390193854900636FFC0403A5AF
:103840000A00EFC0FFCF0DB51C4C00C83387F9004C
:1038500058C0636DEC02330C3C416363FC029C4036
:1038600089CF02CA4ECC22CEEFF08FDB8840814652
:1038700001464C08EFC0BFF259F97370043001A043
:1038800003A50A00E685EFC0BFCB51B703250900A9
:10389000E685EFC0FFCAA5BF03250900EFC05FCAD8
:1038A000E1B37370043001A0B24783A6890123A855
:1038B00039013387D70023A2E9006364EC04B3071E
:1038C000FC4063EBD70483A749024E85829783A708
:1038D000C901E39B47D983A68901B2479840B697AF
:1038E00011CF02CA3ECC4ECEEFF08FD38840814636
:1038F00001464C08EFC0BFEAE31805D673700430E8
:1039000001A06374FC00E370F7FC032509009385B4
:103910004900EFC0FFC289BB03A50A009385490097
:10392000EFC01FC291B3411122C406C626C24AC0CD
:1039300017D40100130404CFEFF04FE31C4095CBE4
:10394000EFF00FE51C409DC38148014881470947BE
:1039500081461306004097D50100938525A61705DB
:1039600000001305A5C8EFD07F9939E973700430C2
:1039700001A017D90100130929E94A85EFC03FB911
:1039800097D40100938484E92685EFC05FB801468F
:10399000B145114597D7010023AA27C997D7010040
:1039A00023A497C8EFC09FD217D70100232CA7C626
:1039B00011CD97D501009385E59FEFD0CFF349B79F
:1039C000B240224492440249410182807370043023
:1039D00001A0A5C9797156CAAA8A1305C00222D4CA
:1039E00026D24AD04ECE52CC06D65AC85EC63A89A6
:1039F000B689328AAE84E9212A8405C9EFF00FD74F
:103A000097D70100938707C29C439DCFEFF04FD813
:103A1000130544002320540104CC232E4401232009
:103A2000340323222403EFC0DFAF2285B250225497
:103A300092540259F249624AD24A424BB24B456112
:103A400082807370043001A097DB0100938BCBDB85
:103A50005E85EFC0DFAB17DB0100130B2BDC5A8553
:103A6000EFC0FFAA0146B145114597D7010023AF2A
:103A700077BB97D7010023A967BBEFC03FC517D716
:103A800001002321A7BA01C997D50100938585922A
:103A9000EFD06FE6A5BF7370043001A039C50111E6
:103AA00022CC06CE26CA17D401001304A4B783285B
:103AB00004002A88014563850802BA842EC236872D
:103AC00032C442C6954663C5B602EFF06FB589476A
:103AD000630BF5020840814601464C00EFC03FCC25
:103AE000F2406244D244056182807370043001A0C8
:103AF0004C0081463A864685EFC0BFFFF2406244E3
:103B0000D244056182800840814626864C00EFC081
:103B10001FC9F9B719C1084182807370043001A030
:103B200001E57370043001A0411106C622C42A8445
:103B3000EFF0CFC348483334A000EFF06FC52285C3
:103B4000B24022444101828001E57370043001A03B
:103B5000411122C42A8406C6EFF04FC10050EFF095
:103B60002FC3B240228522444101828001E5737057
:103B7000043001A0411122C426C22E84AA8406C6A4
:103B8000EFF0CFBE80D02244B240924441016FF0AA
:103B90002FC04111714522C406C61D262A8411C5B5
:103BA000232005001105EFC09F962285B2402244D4
:103BB0004101828001CDB70700FFED8F81C773708F
:103BC000043001A099E57370043001A073700430D3
:103BD00001A0011122CC4AC84EC652C456C206CE1C
:103BE00026CABA893689B28A2E842A8AEFF04FA370
:103BF00011E5638509007370043001A0EFE0CF9BED
:103C000083240A00B37794006316090295C763877B
:103C10000A009347F4FFE58F2320FA00EFE0CFBEC0
:103C2000F240624426854249D244B249224A924A2D
:103C300005618280E30DF4FCE38209FEB335500197
:103C4000E20563050900B7070004DD8D4E86C18DCE
:103C500013054A00EFE0FFE6EFE00FBB19E1EFC00C
:103C6000EFFAEFF0CFB593176500AA8963D8070084
:103C7000B7040001FD14B3F499005DB7EFF00FAF86
:103C800083290A00B3773401631E090089CB638856
:103C90000A009347F4FFB3F737012320FA00EFF04F
:103CA0002FAFF9B7E31DF4FEDDB701C9B70700FF79
:103CB000ED8F99C77370043001A07370043001A0B8
:103CC000411122C42A8406C626C24AC02E89EFF0BA
:103CD000EFA904409345F9FFB3F795001CC0EFF03E
:103CE0002FABB24022442685024992444101828092
:103CF000411122C42A8406C6EFC02FFD0040EFC048
:103D00006FFCB240228522444101828009C93707F5
:103D100000FFB3F7E50099C77370043001A073701A
:103D2000043001A06F20507BB70700FFF18F81C7DF
:103D30007370043001A001E67370043001A001111A
:103D400022CC4AC84EC652C406CE26CA3689AE898F
:103D50002A8A3284EFF0CF8C21E163050900737069
:103D6000043001A0EFE04F8583240A00CE85528500
:103D7000B3E49900613FB37794006307F4068324AA
:103D80000A00EFE06FA8F240624426854249D2441F
:103D9000B249224A05618280EFE00F8283240A0043
:103DA000CE855285B3E434019537B3F78400638D33
:103DB0008702E30609FCB70500054A86C18D130595
:103DC0004A00EFE01FD0EFE02FA419E1EFC00FE4AD
:103DD000EFF0EF9E93176500AA8463DF0700B70733
:103DE0000001FD17FD8C45B783270A001344F4FF3B
:103DF000E18F2320FA0071B7EFF04F9783240A0078
:103E0000B3779400639787009347F4FFE58F2320EF
:103E1000FA00EFF0EF97E1B7411122C406C62A84F9
:103E200026C2EFD07FF95C4085C308489304C400E4
:103E30006316950015A0084863009502B7050002B7
:103E4000EFE03FE55C40E5FB2285612A2244B24079
:103E5000924441016FE04F9B7370043001A009C987
:103E6000370700FFB3F7E50099C77370043001A06E
:103E70007370043001A06F20306601C9B70700FFDE
:103E8000ED8F99C77370043001A07370043001A0E6
:103E9000411122C426C206C62A84AE84EFF00F8DDB
:103EA000184093C7F4FFF98F1CC02244B2409244DB
:103EB00041016FF0EF8D19C1084D8280014582806C
:103EC000411122C406C62A84EFD01FEF97C7010014
:103ED000938707769C43A1EBE56717D7010013078B
:103EE0006795F11797C6010023AAE67417C701006A
:103EF0002324F77417D701002320F79497C70100F4
:103F00009387477317D701002326F792854717C772
:103F100001002327077217C70100232D077017C759
:103F200001002327F77019E8EFE00F8EEF10000F64
:103F300001442285B240224441018280130584005D
:103F400093773500C1EFE5671307F5FFE917E3ED58
:103F5000E7FC97C601009386666E9C4229A09843B1
:103F600011C7BE86BA87D843E36BA7FE17C7010007
:103F70001307476CE38AE7FA9843414613848700A6
:103F800098C2D843B306A7406378D6023388A70007
:103F90002322D800C8C38325480097C60100938612
:103FA000E66911A0BA8698425043E36DB6FE23201D
:103FB000E80023A00601D84397C701009387076F45
:103FC0009C43998F17C701002322F76EEFE0CF8340
:103FD00031DC2285B2402244410182807199110571
:103FE0009DB729C9411122C406C62A84EFD0DFDC5F
:103FF000930584FF0326C4FF17C701001307076456
:1040000011A03E871C43D443E3EDC6FE232CF4FEEF
:104010000CC397C701009387676998438327C4FF40
:104020002244B240BA9717C701002321F768410123
:104030006FD09FFD828097C70100938727678843D1
:10404000828082803367B5000D8BAA871DE79308B5
:10405000D6FFAA982A87AE866371150303A80600C7
:1040600011079106232E07FFE36A17FF9347F5FF19
:10407000C697F19B9107BE95AA972A9663F3C70A44
:104080009386450013884700B3B6D70033B80501BF
:1040900033E7F50093C61600134818000D8BB3E6FE
:1040A000060113371700758F330EF64093861700FD
:1040B00029CF1337AE0031EB13532E002E88BE8666
:1040C0000147832808000507110823A0160191065F
:1040D000E36967FE1377CEFFBA95BA976302EE04E1
:1040E00083C60500138717002380D700637AC702B1
:1040F00083C6150013872700A380D7006372C70209
:1041000003C725002381E7008280B307F640AE97FE
:10411000850503C7F5FF8506238FE6FEE39AF5FEC6
:1041200082808280B367C5008D8BB308C500E9C368
:104130006371150FB307A0408D8B13873700954629
:1041400093F5F50F130815003383A8407D166373AC
:10415000D70015476363E60CD5CF2300B5000547AC
:10416000638DE700A300B5000D4713082500639693
:10417000E700130835002301B500139685004D8E26
:1041800013970501518F3303F34093968501D98E20
:1041900013562300AA97014794C305079107E36DBF
:1041A000C7FE1377C3FFB307E8006307E306238066
:1041B000B70013871700637C1703A380B70013872A
:1041C0002700637617032381B700138737006370D6
:1041D0001703A381B70013874700637A170123826F
:1041E000B7001387570063741701A382B70082805A
:1041F00093F5F50F13978500D98D139705014D8F12
:10420000E37715FFAA87910723AEE7FEE3ED17FFDB
:10421000828082802A8895B78280AA8749BF834797
:1042200005002A8799C7050583470500EDFF198D0D
:1042300082800145828005058347F5FF850503C718
:10424000F5FF91C7E389E7FE3385E7408280814728
:10425000E5BFAA87850503C7F5FF8507A38FE7FE9E
:1042600075FB828083460500930700026397F60082
:10427000050583460500E38DF6FE938756FD93F70B
:10428000D70F85C7AA87814585CE01458507138647
:1042900006FD1317250083C607003A9506053295DB
:1042A000F5F699C13305A0408280938536FD83469B
:1042B000150093B5150093071500E1FA0145D5B730
:1042C000014582809C412380A7009C4185079CC1B9
:1042D000828097C601009386E6369C4217570300FA
:1042E0001307475613861700BA972380A70097C570
:1042F000010023A9C534A9476308F500930700040A
:104300006305F6000145828075DE370610F005076B
:104310008347F7FF2320F6F09C42FD1797C5010065
:1043200023A2F532EDF7014582804D7123229114CD
:1043300023202115232A511323248113232611140A
:1043400023248114232E3113232C4113232861139A
:1043500023267113232291132320A113232EB1119D
:10436000AA842E8932C6130C5002A54A834709003D
:1043700063808703B9CB804011A0A1CB2300F40058
:1043800080400509050480C083470900E39787FF43
:104390000346190093081900C686130D0002FD5943
:1043A0007D5A0148130550059307D6FD93F7F70F83
:1043B000138916006363F52A17C70100130787C422
:1043C0008A07BA979C43BA9782878320C114032433
:1043D000811483244114032901148329C113032A5E
:1043E0008113832A4113032B0113832BC112032C46
:1043F0008112832C4112032D0112832DC111716191
:104400008280A14C02C4854763D50715B24780401E
:10441000938B770093F68BFF03AB060083A94600CE
:10442000938786003EC6668681465A85CE85EF20F4
:10443000202D2AC8814763853723930D4101854B81
:10444000668681465A85CE85EF10D04D81466686B8
:104450002A8BAE89EF20C02AA24723A0AD00938605
:104460001B00910D63843701B68BD9BFE37E9BFFA0
:1044700063DD4601A2872380A70180407D1A930750
:1044800014009CC03E84E3C846FF93962B001C0892
:10449000BE9631A8938777052300F4008040FD1B6A
:1044A00093871B00050480C0F116E351F0EC9C4299
:1044B000E3E2FAFE93870703C5B79C409306000327
:1044C00032472380D7009C4093064700C14C138697
:1044D000170090C013068007A380C700804002C465
:1044E000BA87050480C003AB0700814936C625BFE3
:1044F000B24783AC0700938B470063840C1C635F57
:1045000040199307D0026319FD1683C70C0085C3B9
:1045100063DC09189440850C7D1A2380F6008040E6
:10452000050480C083C70C00E5F7635D400180404F
:10453000930700022300F40080407D1A050480C028
:10454000E31A0AFE5EC61DB502C48547A94CE3CF37
:1045500007EBB24780409386470071B703C6160049
:10456000CA8699B59C40930650022380D7008040AC
:10457000050480C0E5BBC14C02C471B5B24703C697
:104580001600CA8683A9070091073EC6E35E0AE0CB
:104590004E8AFD5911BD03C61600130DD002CA86FE
:1045A00021B59347FAFFFD8703C61600337AFA0058
:1045B000CA86DDBB03C61600130D0003CA86EDB321
:1045C00083C51600930906FDCA86938705FD2E86CE
:1045D000E3EEFAFA93972900BE9985068609AE990B
:1045E00083C50600938909FD938705FD2E86E3F3B5
:1045F000FAFE69BF32479C40144311073AC6238034
:10460000D7008040050480C095B3854763D3070B6E
:10461000B24793867700E19A938786003EC683A9C6
:1046200046009C4263DC090A94401306D002B3079B
:10463000F0402380C6008040B336F000B30930411B
:10464000050480C03E8BB389D940A94C02C4E1BBAC
:1046500003C616000508CA8681BB9C40468921B75F
:10466000E37D9BDD8547814B8546E3C547E131BD51
:1046700097CC0100938C0CD5CE856685EF10C05287
:10468000330AAA40635C400180402300A4018040BB
:104690007D1A050480C0E31A0AFE014A83C70C0094
:1046A000E38207EAE3C809E6FD197D57E394E9E6EA
:1046B000ADBDB247938647009C4336C693D9F741B8
:1046C00095B7635640019307D002E313FDFA97CCE8
:1046D0000100938C2CCF930780021DBD3E8BA94C0B
:1046E00002C4804089B34D71232E3113B7090040B5
:1046F0009387F9FF2324811423229114232C41133F
:10470000232A511323261114232021152328611352
:104710002326711323248113232291132320A11311
:10472000232EB1112A8A2EC417C40100130484F168
:10473000975A0300938A0A1197C40100938404A234
:104740003EC693055002294513080004B70610F031
:1047500083470A006386B704C1C71840050A1306D9
:104760001700569797C8010023AEC8EC2300F70046
:104770006382A706E31E06FD175703001307870C85
:1047800005078347F7FF23A0F6F01C40FD1717C667
:1047900001002329F6EAEDF783470A00E39EB7FA02
:1047A00083461A0013051A002A87930B00027D5BCB
:1047B0007D5C014893055005A5489387D6FD93F786
:1047C000F70F130A170063E7F5348A07A6979C438F
:1047D000A6978287175703001307C70655F28DBFA8
:1047E0008320C11403248114832441140329011458
:1047F0008329C113032A8113832A4113032B011335
:10480000832BC112032C8112832C4112032D011220
:10481000832DC11171618280A14C014D854763DBFD
:104820000719A2479D07E19B83AD070003AB470033
:10483000138787003AC4668681466E85DA85EF1055
:10484000306C2AC863066D351309410185496686B7
:1048500081466E85DA85EF10F00C66868146AA8D5A
:104860002E8BEF10F0692320A90085091109E310B0
:104870006DFFE3FE9DFD13060004B70610F063D143
:1048800089031C4013871700D69797C5010023ABF7
:10489000E5DA23807701630CC7047D1CE3C389FF3D
:1048A000B2476800A548B386F9008A061C08BE9680
:1048B000294813030004370610F0E384A6E89C425D
:1048C0009305000363F4F800930570051840AE9754
:1048D00093051700569717CE01002325BED6230057
:1048E000F7006380072B638C6526F116F9B717571D
:1048F0000300130727F505078347F7FF23A0F6F00A
:104900001C40FD1797C5010023AEF5D2EDF77D1CC5
:1049100071B71C40130600041387170097C50100E8
:1049200023A2E5D2B386FA00930500032380B600E4
:104930006300C73E890797C6010023A5F6D05697A6
:10494000930680072300D70017570300130787EF4C
:10495000B70610F0639EC70005078347F7FF23A043
:10496000F6F01C40FD1717C60100232DF6CCEDF71D
:10497000A247C14C014D91072247014B832D0700EF
:104980003EC455BDA24783AC070013894700638F1F
:104990000C3A635480219307D002639EFB2E03C719
:1049A0000C00BA856310072025AC8547A94C014D42
:1049B000E3C907E7A2479107C1B7A247834617009B
:1049C000528703AB070091073EC4E3580CDE5A8CB4
:1049D0007D5BE5B383461700930BD0025287F1BB92
:1049E0009347FCFFFD8783461700337CFC0052870A
:1049F000E9B383461700930B000352877DBB034640
:104A00001700138B06FD5287930706FDB286E3EE6F
:104A1000F8FA93172B00DA9705078607B297034633
:104A20000700138B07FD930706FDB286E3F3F8FE3C
:104A300069BFA2451C402946984193861700D69726
:104A400017C501002320D5C02380E7001389450046
:104A50006301C72A930700046387F6204AC4D5B1CF
:104A6000854763DF0729A24713877700619B930778
:104A700087003EC4032B47001C43635B0B30184088
:104A8000130600049306170097C5010023ACD5BA9E
:104A900056979305D0022300B7006388C62CB3074E
:104AA000F0403337F000330B6041BE8D330BEB40E9
:104AB000A94C014D49B38346170005085287F5B943
:104AC000834617005287D5B91C409306000413870C
:104AD000170017C601002327E6B6D6971306500223
:104AE0002380C700E31FD7C417570300130787D5D8
:104AF000B70610F005078347F7FF23A0F6F01C4028
:104B0000FD1717C60100232FF6B2EDF71DB9C14CF2
:104B1000014D29B31C40930600042A8A138717000D
:104B200017C601002320E6B2D69713065002238051
:104B3000C700E318D7C0175703001307A7D0B7065D
:104B400010F005078347F7FF23A0F6F01C40FD1780
:104B500017C601002328F6AEEDF72A8ADDB61757EF
:104B60000300130727CE05078347F7FF2320F6F03E
:104B70001C40FD1797C5010023A6F5ACEDF7F11613
:104B80002DBB175703001307E7CBF1FDF11635B323
:104B9000E3FC9DCB8549C5B1014C03C70C00BA8528
:104BA000E30E07EAFD58294513080004B70610F084
:104BB00063570B0A1C4013861700D69717C30100D2
:104BC0002322C3A82380E7006384A50663040609A3
:104BD000850C03C70C007D1CBA8579FBE35080E986
:104BE0001C409305000213060004B70610F021A034
:104BF0007D1CE3050CE613871700D6972380B700CA
:104C000017C501002320E5A4BA87E313C7FE175791
:104C10000300130727C305078347F7FF23A0F6F018
:104C20001C40FD1717C50100232EF5A0EDF7C9B7ED
:104C300017570300130707C141DE05078347F7FF36
:104C400023A0F6F01C40FD1717C60100232CF69E8A
:104C5000EDF7BDBF175703001307C7BEF9BF7D1B94
:104C6000E31A1BF5A5BF175703001307A7BDB70627
:104C700010F005078347F7FF23A0F6F01C40FD174F
:104C800017C601002320F69CEDF74AC45DBC97BC13
:104C90000100938C2C73DA856685EF00F070330C7D
:104CA000AC40E35C80EF1C4013060004B70610F034
:104CB00021A07D1CE3020CEE13871700D6972380FA
:104CC000770197C5010023AFE596BA87E313C7FEC6
:104CD00017570300130707B705078347F7FF23A0FC
:104CE000F6F01C40FD1797C5010023ADF594EDF7D4
:104CF000C9B7175703001307E7B4B5FA4AC491B40C
:104D0000A247138747009C433AC413DBF741B5B36E
:104D100017570300130707B3B70610F005078347BB
:104D2000F7FF23A0F6F01C40FD1717C60100232B48
:104D3000F690EDF7854717C701002325F7909307F5
:104D4000800717570300230FF7AE1DB1635680018C
:104D50009307D002E39DFBF297BC0100938C8C6615
:104D6000130780029305800235BD97560300938692
:104D700066AD370610F0850603C7F6FF2320E6F080
:104D800018407D1797C5010023AEE58A6DF701BB7A
:104D9000BE8DA94C014D45B4B70710F023A0A7F272
:104DA00001A03971130341022ED29A8506CE32D466
:104DB00036D63AD83EDA42DC46DE1AC62D32F2400A
:104DC0000145216182805D711303810322D42AC6CB
:104DD00032DC2A841A86680006D6BEC236DEBAC025
:104DE000C2C4C6C61ACEEFF04FD4B2472380070024
:104DF0003245B250018D225461618280B70710F0B4
:104E000083A647F403A607F403A747F4E31AD7FEE3
:104E10009306067D33B6C600B305E60023A4D7F497
:104E200023A6B7F48280B70710F003A747F403A6C0
:104E300007F483A647F4E31AD7FE9306067D33B63C
:104E4000C60023A4D7F4B305E60023A6B7F493075E
:104E5000000873A047308280797122D406D626D20A
:104E60004AD04ECE52CC56CA5AC85EC697B7010039
:104E70009387C77D17B401001304047D98431C4039
:104E8000930647069387470617B60100232EF67A46
:104E9000856717B60100232BD67A938777BB63CD3E
:104EA000D700B250225492540259F249624AD24A6F
:104EB000424BB24B45618280FD779387C74A3E974C
:104EC00097B7010023A4E7787D238547631DF50488
:104ED000EF00D0078549114B814BA144314A814AEB
:104EE0002A896303350717B5010013056550EFF0F4
:104EF0005FEBEF00F03DD2846306350717B5010084
:104F000013058551EFF0FFE92685EFF0FFE8225405
:104F1000B25092540259F249624AD24A424BB24BC1
:104F200045616FC07FE817B501001305254AEFF012
:104F30005FE7EF00B0018549194B894BA944394A15
:104F4000894A2A89E31135FBEF009038E31825FBE5
:104F5000639C0A0018408967938777328144E3C5D0
:104F6000E7FA81B7DA844DB7DE8479BF17B501005F
:104F70001305C54C6FF0FFE217B501001305854C12
:104F80006FF03FE2411122C426C206C6856417B401
:104F900001001304A44B938784380100FD17F5FF2B
:104FA0002285EFF01FE0C5BF411106C6A929D12512
:104FB000B24041016F007027411106C622C426C2CB
:104FC0005D2985476313F50491440144EF0000789F
:104FD00085476309F50017B5010013056541EFF03A
:104FE0005FDC2684EF00D02E8547630AF50017B5F5
:104FF000010013056542EFF0DFDA136484002285B7
:10500000B240224492444101828017B50100130549
:10501000E53BEFF01FD9994409444DBF737004304C
:1050200001A082807370043001A0797126D24AD029
:105030004ECE52CC56CA5AC806D622D417BA010050
:10504000130ACA6217BB0100130B8B61930450054E
:1050500005499309E00A930AE00B0145EFD0FF846C
:10506000EFC09FD62A8403250A0081461306F00A62
:105070006C0002C697B7010023A0975EEFB02FF235
:1050800009C597B7010023AB275DEFC0FFD3018DA2
:1050900063F4A90063F6AA0097B7010023A0275D77
:1050A000014597B7010023A9975AEFD01F80EFC0A1
:1050B000BFD12A8403250A0081461306F00A6C003A
:1050C00097B7010023AA9758EFB09FBD09C597B7BE
:1050D000010023A52759EFC03FCF018D63F4A9003C
:1050E00063F6AA0097B7010023AA275797B70100D4
:1050F00023A4975683270B00850717B701002321A8
:10510000F756A1BF397126DA4AD84ED652D456D2B4
:105110005AD05ECE62CC66CA06DE22DC6AC817BAF6
:105120000100130AAA5417B901001309E95297BBE9
:105130000100938B6B5397BC0100938CAC52294CAC
:10514000054B914A85499304500502C40146331426
:10515000CC00EFC07FC72A8D03250A008146228636
:105160006C00EFB0FFB309C597B7010023A8374F14
:10517000EFC09FC53305A5419307F4006376850012
:1051800017B70100232C374D63FDA724224697B79C
:10519000010023A5374D050632C4E3DACAFA02C47A
:1051A00003250A00814601462C00EFB04FDF63065D
:1051B000652597B7010023A3374BA24785073EC457
:1051C000E3D0FAFE02C401463314CC00EFC0DFBFC7
:1051D0002A8D03250A00814622862C00EFB02FDCA1
:1051E00009C597B7010023AB3747EFC0FFBD3305B3
:1051F000A5419307F4006376850017B70100232FBC
:10520000374563FAA71C224697B7010023A8374504
:10521000050632C4E3DACAFA03A50B0097B701000A
:1052200023AC0742EFC0CFF98327090063899700B9
:105230005145EFC0DFFB83270900E39B97FE5145F3
:10524000EFC0FFFA97B7010023A8074002C4032567
:105250000A00814601466C00EFB09FA481460146DA
:105260002C006306650197B7010023A9373F03258A
:105270000A00EFB0CFD291456306650197B70100F0
:1052800023AE373D8327090003A50B0063969700E3
:1052900097B7010023A4373DEFC0AFE08327090093
:1052A000854503A50B006396970097B7010023A7D8
:1052B000373BEFC00FDFA24785073EC4E3D9FAF8BA
:1052C00083270900514563899700EFC05FF2832768
:1052D00009005145E39B97FEEFC07FF197B70100AE
:1052E00023AC073602C403250A00814601466C0040
:1052F000EFB01F9B630D650F97B7010023A03737F1
:10530000A24785073EC4E3D0FAFE03A50B00EFC019
:105310002FEB83270900638997005145EFC03FEDCC
:1053200083270900E39B97FE5145EFC05FEC97B7D9
:10533000010023A3073202C403250A008146014667
:105340002C00EFB0CFC5814601466C0063066501B5
:1053500097B7010023A4373103250A00EFB05F940B
:1053600091456306650197B7010023A9372F83276D
:10537000090003A50B006396970097B7010023AFC0
:10538000372DEFC00FD283270900854503A50B00F9
:105390006396970097B7010023A2372DEFC06FD017
:1053A000A24785073EC4E3D9FAF88327090051458F
:1053B00063899700EFC0BFE3832709005145E39B52
:1053C00097FEEFC0DFE283A70C00850717B7010047
:1053D000232AF7289DBB2246050632C4E3D6CADE3F
:1053E00025BD2246050632C4E3D3CAD64DBBA2472B
:1053F00085073EC4E3D9FAEE09BFA24785073EC43C
:10540000E3D0FADAC1B3411101469145154506C60C
:10541000EFB0CFAB97B501009385850497B7010036
:1054200023A6A724EFB03FCD814801488147094713
:1054300081461306004097B501009385A503170523
:105440000000130565CCEFB07FEBB2408148014806
:1054500097B701009387472105478146130600400F
:1054600097B501009385850117050000130525BC3C
:1054700041016FB0BFE817B701001307A71E97B629
:1054800001009386E61D17B601001306661C1C4337
:1054900010428C4217B501001305C51B03280500F7
:1054A00001456386C500B38707413335F00097B7E0
:1054B00001009387A71A9C4394421843FD17B33702
:1054C000F000B307F04017B601002323D6187D8DF6
:1054D00097B6010023A0E6188280011122CC06CEE7
:1054E00026CA4AC84EC652C458419307A00A2A8405
:1054F00004416309F7108146014681452685EFB0D6
:105500002FFA85476316F50097B7010023A6A71663
:1055100005498549032A0400814601468145528593
:10552000EFB00FF86304250B9304800C814601460D
:1055300081455285EFB0AFA61C446300250D850759
:1055400017B70100232A3713FD141CC4E5F0814668
:10555000014681455285EFB08FA46316250197B7A8
:10556000010023AB2711032A04008146014681452F
:105570005285EFB0CFA2630025079304800C8146CB
:10558000014681455285EFB0AFF11C44630A250501
:10559000850717B701002321370FFD141CC4E5F060
:1055A0008146014681455285EFB08FEFE31425F720
:1055B000032A0400814601468145528597B70100C0
:1055C00023AC270BEFB0CFEDE31025F797B7010021
:1055D00023A4270B91BF97B7010023AF270971BF01
:1055E0008507FD141CC4C1FC8146014681455285D6
:1055F000EFB00FEBE31025F365BF8507FD141CC466
:1056000095F4B1B78146014681452685EFB02F99C3
:1056100085476316F50097B7010023AFA704130968
:10562000800C85498146014681452685EFB04FE7CC
:105630001C44630A3503850717B70100232E37037F
:105640007D191CC4E31009FE26858146014681456B
:10565000EFB00FE585470440E31FF5E897B7010079
:1056600023ACA70049BD85077D191CC4E31C09FABA
:10567000E1BF41119305800C1305800C06C622C4BE
:10568000EFB0CF8E9747030023AEA71E9307A00A63
:1056900017470300232AF71E81451305800C9747FF
:1056A000030023A5071EEFB06F8C9747030023A1CB
:1056B000A71E9747030023AF071C174403001304DA
:1056C000641C9747030023A9071C084097B50100F5
:1056D000938545DBEFB03FA2484497B50100938521
:1056E00065DBEFB05FA11C40A1CF81480148814735
:1056F0000147974603009386E6181306004097B5C6
:105700000100938525DA17050000130545DDEFB08C
:10571000FFBE2244B2408148014881470147974675
:1057200003009386E6161306004097B501009385A3
:10573000E5D717050000130585DA41016FB01FBCDE
:105740005C44C5F7B24022444101828017B7010092
:10575000130787F21043974703009387A71217B7E1
:105760000100130727F11843944701456389E600B8
:1057700098471335160097B6010023ADE6EE17B72C
:1057800001001307E7EED44B18436388E600DC4BB7
:1057900017B70100232EF7EC8280014582807971D2
:1057A00022D426D24AD04ECE52CC56CA5AC85EC651
:1057B00062C406D697B40100938404EF97B9010040
:1057C0009389C9EC17BA0100130A0AEC97BA0100D1
:1057D000938ACAEC97BB0100938B8BEC17BC01003A
:1057E000130C0CEB05440D49094B88408145EFB083
:1057F0002FECE31C85FE03A50900EFB01FF8631C26
:10580000250B03250A00EFB05FF76313250B83A771
:105810000A006387870097B7010023A587E8F1B7DF
:1058200083A70B00E39987FE83270C0003250A005A
:10583000850717B70100232DF7E4EFC06F9803A584
:105840000900EFC0EF9783A70A006387870483A747
:105850000B00638387040145EFB07FFC6317650588
:1058600003A50900EFB07FF1631D650503250A005C
:10587000EFB0BFF0631465058840EFB02FA3630657
:10588000850097B7010023AF87E00145EFB03FF9EE
:1058900029DD7370043001A0014597B7010023A3EF
:1058A00087E0EFB0DFF7E30D65FB7370043001A014
:1058B0007370043001A07370043001A07370043061
:1058C00001A07370043001A0011122CC26CA4AC87D
:1058D0004EC652C406CE17B901001309E9DC17BA47
:1058E0000100130AEADB97B401009384A4DA97B9A4
:1058F0000100938969DA05442DA097B7010023A31D
:1059000087DA9C4003A7090085076386E70097B7FD
:10591000010023A987D89C40850717B70100232BD6
:10592000F7D603250900F955EFB08FD8E31785FCAA
:1059300083270A00E39387FC03250900EFB00F9744
:105940006306850097B7010023AE87D4014597B75A
:10595000010023A587D4EFC05FF597B7010023AFFF
:1059600007D245B701114AC817B901001309C9D3B5
:105970000325090022CC4EC606CE26CA054497B997
:105980000100938969D1EFB06F9263058508A9443E
:1059900003250900A145EFB0AFD163028508FD14CE
:1059A000514597B7010023AF87CEEFC05F84EDF07C
:1059B000A9445145EFC0BF8303250900FD14EFB092
:1059C000EF8E6306850097B7010023AD87CCF5F015
:1059D00003250900EFB08F8D6316850097B701008E
:1059E00023A287CC83A709000145850717B70100CB
:1059F0002324F7CA97B7010023A487CAEFC0FFEAA0
:105A00000325090097B7010023AC07C8EFB00F8A40
:105A1000E31F85F697B7010023A687C88DBFFD1445
:105A20005145EFC0CFFCADF461B74111114506C639
:105A3000EFB00F8297B501009385C5A797B7010016
:105A400023A4A7C6EFB02FEB97B701009387C7C574
:105A50009C43A5CF8148014897B70100938707C3AE
:105A6000094781461306004097B50100938585A537
:105A700017050000130545EFEFB05F888148014826
:105A800097B70100938747C005478146130600403A
:105A900097B50100938585A317050000130505E35D
:105AA000EFB0DF85B2408148014881470147814618
:105AB0001306004097B501009385C5A117050000A6
:105AC000130525CE41016FB07F83B2404101828032
:105AD00097B70100938747BC97B60100938686BAB3
