:0200000480007A
:10000000130E100097000000938040271301D002C8
:10001000AFA1200803A20000130AD00263164A22EF
:10002000130AB00063123A22130E2000970000005A
:100030009380002513017003AFA1200803A20000E4
:10004000130A700363124A20130A6001631E3A1EEA
:10005000130E3000970000009380C022130120048B
:10006000AFA1200003A20000130AB008631E4A1CBF
:10007000130A9004631A3A1C130E40009700000004
:100080009380802013017005AFA1202003A20000FF
:10009000130AD006631A4A1A130AA00363163A1AFF
:1000A000130E5000970000009380401E1301C00201
:1000B000AFA1206003A20000130A800263164A1851
:1000C000130A800363123A18130E600097000000B1
:1000D0009380001C13018001AFA1204003A2000007
:1000E000130AB00563124A16130AB004631E3A14C9
:1000F000130E7000970000009380C0191301800157
:10010000AFA1208003A20000130A8001631E4A12DF
:10011000130A8003631A3A12130E8000970000003E
:100120009380801713018005AFA1208003A20000F7
:10013000130A3005631A4A10130A300563163A1081
:10014000130E900097000000938040151301A0FC4F
:10015000AFA1208003A20000130AA0FC63164A0E80
:10016000130A100263123A0E130EA000970000004B
:100170009380001313014003AFA1208003A200006D
:10018000130AF0FB63124A0C130AF0FB631E3A0ACF
:10019000130EB000970000009380C0101301C0FC44
:1001A000AFA120A003A20000130AC0FC631E4A08EE
:1001B000130A90FA631A3A08130EC0009700000061
:1001C0009380800E13014003AFA120A003A2000082
:1001D000130A4003631A4A06130A90FC63163A0690
:1001E000130ED000970000009380400C3701FFFFF2
:1001F000AFA120C003A20000370AFFFF63164A0424
:10020000370AFFFF130A4A0063103A046F008004A4
:10021000130EE00097000000938080093701FFFF74
:100220001301C100AFA120E003A20000370AFFFFC5
:10023000130ACA00631A4A00370AFFFF130A5A005A
:1002400063143A006F000001370110F0130141F20E
:100250002320C101370110F0130101F22320010016
:100260001300000013000000130000001300000042
:1002700013000000130000000B0000001600000037
:10028000490000003A000000380000004B00000068
:10029000380000005300000021000000BFFFFFFFF6
:1002A000A9FFFFFFC9FFFFFF0400FFFF0500FFFFDD
:00000001FF
